:04000000F1EF00F02C
:0E0008004C82FACF73F0FBCF74F01FEF4AF07A
:100018004C80D8CF03F0E8CF04F0E0CF05F0FACF5A
:1000280006F0FBCF07F0E9CF08F0EACF09F0E1CFFF
:100038000AF0E2CF0BF0D9CF0CF0DACF0DF0F3CF06
:100048000EF0F4CF0FF0F6CF10F0F7CF11F0F8CF95
:1000580012F0F5CF13F0A4A674D0A496020E471898
:10006800D8B403D04704D8A44DD001014405D8A47E
:1000780012D0040E4924496E000E4A204A6E4A5096
:1000880004E1EB0E495CD8A019D0000E4A6EEB0EC5
:10009800496E000E11D0FC0E4924496EFF0E4A200D
:1000A8004A6E4A500BE10B0E495CD8B007D0000EDF
:1000B8004A6E0A0E496E010E0101446F49C001F0F3
:1000C800010E0116013ABA500118EF0B0118BA6E69
:1000D800D8904A30026E4930016E010E0116013A7D
:1000E8000146BA500118DF0B0118BA6E49C001F079
:1000F8004AC002F0D89002320132D890023201325E
:100108000150BB6E030E4718D8A443D04604466E70
:100118004650D8A43ED001015051D8A402D0010EB7
:100128000CD001015005D8A402D0020E06D0020E50
:1001380001015019D8A402D0000E476E1BEC4BF0F9
:1001480028D0A4A026D0400E01012E2501012E6F33
:10015800000E01012F2101012F6F000E0101302136
:100168000101306F000E010131210101316F4B0493
:100178004B6E4B50D8A40CD0010E0101526F0101F7
:10018800FE51D8A403D0010E4B6E02D0FEC14BF035
:10019800A49013C0F5FF12C0F8FF11C0F7FF10C0FC
:1001A800F6FF0FC0F4FF0EC0F3FF0DC0DAFF0CC05E
:1001B800D9FF0BC0E2FF0AC0E1FF09C0EAFF08C08F
:1001C800E9FF07C0FBFF06C0FAFF05C0E0FF04C057
:0E01D800E8FF03C0D8FF4C901000EEEF48F097
:101FEC0000010203040506070036008402090409F7
:101FFC00060C08C10A7D0C640E14100012001400AB
:10200C00163818C81A0D1C001E72203822382407E6
:10201C00260028002A692C812E7E309632F83488CE
:10202C00364038003AE83C003EC0030000A00500F2
:10203C000060090000E0100000E01F0000E03D001F
:10204C0000E0790000E0F10000E0E10100E0C103F4
:10205C0000E0810700E0010F00E0011E00443D1B81
:10206C00000DB415004F4F4F4F4F4F4F4F4F4F4F29
:10207C004F4F4F4F4F4F4F4F4F4F4F50505050505F
:10208C005050505050222426282A2C2E30323437CF
:10209C00393B3D3F414345474A4C4E0507090B0D23
:1020AC000F11141618696E76616C69642100302E5C
:1020BC0031356D5700312E326D5700322E356D573C
:1020CC0000302E366D5700302E336D570031306D89
:1020DC00570032306D5700466C4D0050777200350A
:1020EC006D5700557046005570740000C4EC27F015
:1020FC000009D8B4C7EF1BF0010138B51200000E6F
:10210C000101006F36A404D00101AA6BAA2B02D0E6
:10211C000101AA6B010100510101AA19FC0BAA19BA
:10212C000101006F36A603D00101008702D0010126
:10213C0000973650030BE806D8A404D00101AA6B13
:10214C00AA2B02D00101AA6B0101AA3BAA470101EB
:10215C0000510101AA19DF0BAA190101006F36AE5B
:10216C0003D00101008D02D00101009D36AE06D0D6
:10217C000101008F37C003F138C004F13DC009F1F3
:10218C003CC008F101013895B6EF1BF00A0E3B601C
:10219C0002D0C3EF1BF020EE02F03950D9263A5092
:1021AC00DA22DF500101CD6F20EE03F03950D92631
:1021BC003A50DA22DF500101CE6F20EE04F0395094
:1021CC00D9263A50DA22DF500101D36F20EE05F008
:1021DC003950D9263A50DA22DF500101D46F20EE63
:1021EC0006F03950D9263A50DA22DF500101D56F6A
:1021FC0020EE07F03950D9263A50DA22DF5001018F
:10220C00D66F20EE08F03950D9263A50DA22DF503A
:10221C000101D86F20EE09F03950D9263A50DA2254
:10222C00DF500101D96F000E0101006F36A603D0FB
:10223C000101008702D00101009701010051030B3D
:10224C000009D8A407D00101D32903E10101D42945
:10225C00D8A417D10001DB510101D81912E10001FA
:10226C00DC510101D919D8A40CD00001D9510101BC
:10227C00D51907E10001DA510101D619D8B4C3EF21
:10228C001BF039C0D9FF3AC0DAFF010EDF643ED033
:10229C0039C0D9FF3AC0DAFFDF06000E0001D56F56
:1022AC00000E0101DC6F18D00101DC51010DF3505F
:1022BC003924D96EF4503A20DA6E0001D551010D53
:1022CC00530EF324E16E010EF420E26EDFCFE7FF34
:1022DC000001D52B0101DC2B3B500101DC5DD8A0AA
:1022EC00E3D736C0D1F0140EA2EC45F0D1C0B0F05B
:1022FC00D2C0B1F0D3C0B2F0530E0001B36F010ED7
:10230C000001B46FD5C0B5F0EDEC32F0000E010158
:10231C00DC6F030E0101DC6501D03CD00101DC5106
:10232C00080D030EF326000EF422000EF324D96ED2
:10233C00020EF420DA6EDF50D8B429D00101DC5142
:10234C00080D000EF324D96E020EF420DA6E010192
:10235C00D851DE181CE10101D951DE18D8A417D0D0
:10236C0020EE0AF03950D9263A50DA220101DC511C
:10237C00080D020EF326000EF422000EF324E16E7B
:10238C00020EF420E26EDE50E618D8B403D0010140
:10239C00DC2BBFD7040E0101DC6102D0C3EF1BF0B4
:1023AC00000E0101DC6F030E0101DC6501D013D0BE
:1023BC000101DC51080D030EF326000EF422000E71
:1023CC00F324D96E020EF420DA6EDF50D8B403D0A9
:1023DC000101DC2BE8D7040E0101DC614CD00101BA
:1023EC00DC51080D000EF324D96E020EF420DA6EC7
:1023FC00D8C1DEFFD9C1DDFF20EE0AF03950D92655
:10240C003A50DA220101DC51080D020EF326000EBF
:10241C00F422000EF324E16E020EF420E26EDFCF04
:10242C00E7FF0101DC51080D030EF326000EF42228
:10243C00000EF324D96E020EF420DA6E030EDF6E5A
:10244C00E6EC49F00101DC51080D040EF326000EF8
:10245C00F422000EF324D96E020EF420DA6E000181
:10246C0081C0DEFF000182C0DEFF000183C0DEFF01
:10247C00000184C0DEFF01010051FC0B0109006F5B
:10248C008FD00001D9510101CD1905E10001DA51BC
:10249C000101CE19D8A4EBD20001DB510101D319F3
:1024AC0005E10001DC510101D419D8A4E0D220EEE1
:1024BC0001F03950D9263A50DA22DFA471D0FDC18F
:1024CC0053F1020E0101546FD5C155F1D6C156F12D
:1024DC00D8C157F1D9C158F1D9C059F1DAC05AF164
:1024EC00DBC05BF1DCC05CF120EE0AF03950D92680
:1024FC003A50DA22DF5001015D6F000E01015E6F70
:10250C00300E01015F6F0D0E0001D56F0001DC5123
:10251C000101D919D8B40ED0D5C1BEF0D6C1BFF0C7
:10252C00D8C1C0F0D9C1C1F0000E0001C26FE4ECFB
:10253C001CF034D0000E0001D16F0001D18BD8C13A
:10254C00DDF0D9C1DEF0D5C13EF1D6C13FF11EECB4
:10255C0048F00101DC6F0101DC29D8B40FD0010176
:10256C00DC51090D040EF326000EF4223E0EF3246A
:10257C000001D26F020EF4200001D36FD1C0B0F075
:10258C00D2C0B1F0D3C0B2F0530E0001B36F010E44
:10259C000001B46FD5C0B5F0EDEC32F0010100854F
:1025AC0020EE0BF03950D9263A50DA22DF50D8A45D
:1025BC0021D220EE0CF03950D9263A50DA22300EC6
:1025CC00DE18D8A4ECD1FAD101017EB34AD0E6ECE6
:1025DC0049F081C08CF182C08DF183C08EF184C032
:1025EC008FF120EE08F03950D9263A50DA22DF501C
:1025FC000101806F20EE09F03950D9263A50DA22C9
:10260C00DF500101816F000E0101DB6F030E010130
:10261C00DB6501D020D00101DB510101AA6FAB6B4E
:10262C000D0E0101AA27000EAB230101AA5139247A
:10263C00D96E0101AB513A20DA6E0101DB51010D6B
:10264C00820EF324E16E010EF420E26EDFCFE7FF81
:10265C000101DB2BDBD701017E8301017E91C3EFEE
:10266C001BF020EE08F03950D9263A50DA2201013D
:10267C008051DE18D8A40CD020EE09F03950D926A0
:10268C003A50DA2201018151DE18D8B4C3EF1BF0A5
:10269C000101805101018111D8A46BD0000E010100
:1026AC00DB6F030E0101DB6501D034D00101DB517E
:1026BC000101AA6FAB6B0D0E0101AA27000EAB2313
:1026CC000101AA513924D96E0101AB513A20DA6EBD
:1026DC000101DB51010D880EF324E16E010EF42093
:1026EC00E26EDFCFE7FF0101DB51010D880EF32411
:1026FC00D96E010EF420DA6E0101DB51010D320EA0
:10270C00F324E16E010EF420E26EDFCFE7FF01014E
:10271C00DB2BC7D720EE08F03950D9263A50DA22F5
:10272C00DF500101866F20EE09F03950D9263A505E
:10273C00DA22DF500101876F86C1DDF087C1DEF040
:10274C00D9C03EF1DAC03FF11EEC48F001017F6FB9
:10275C0001017F29D8A49CD08D0E0101516F00017D
:10276C00DDAF02D00101519116EC3FF001017F6FFA
:10277C008FD00B0E0001D56F0001D551010D530EFA
:10278C00F324D96E010EF420DA6E000EDF6E000118
:10279C00D52B0001D551010D530EF324D96E010E2A
:1027AC00F420DA6E110EDF6E0001D52B000E010144
:1027BC00DB6F030E0101DB6501D036D00101DB516B
:1027CC000101AA6FAB6B0D0E0101AA27000EAB2302
:1027DC000101AA513924D96E0101AB513A20DA6EAC
:1027EC000101DB51010D880EF324E16E010EF42082
:1027FC00E26EDFCFE7FF0101DB51010D880EF32400
:10280C00D96E010EF420DA6E0001D551010D530E74
:10281C00F324E16E010EF420E26EDFCFE7FF00013E
:10282C00D52B0101DB2BC5D720EE08F03950D9266A
:10283C003A50DA22DF500101866F20EE09F0395050
:10284C00D9263A50DA22DF500101876F0001D551A9
:10285C00010D530EF324D96E010EF420DA6E86C1ED
:10286C00DFFF0001D52B0001D551010D530EF324D0
:10287C00D96E010EF420DA6E87C1DFFF0001D52B73
:10288C00800E0001C96F010E0001CA6F8BEC47F07E
:10289C0001017E8301017E81C3EF1BF0000E01015B
:1028AC00D16F030E0101D16501D020D00101D151AE
:1028BC000101AA6FAB6B0D0E0101AA27000EAB2311
:1028CC000101AA513924D96E0101AB513A20DA6EBB
:1028DC000101D151010D320EF324E16E010EF420F1
:1028EC00E26EDFCFE7FF0101D12BDBD78D0E0101AB
:1028FC00516F20EE11F03950D9263A50DA22DFAE62
:10290C0002D00101519120EE11F03950D9263A50E4
:10291C00DA22DF500001DD6F20EE12F03950D9269B
:10292C003A50DA22DF500001DE6FD9C03EF1DAC036
:10293C003FF11EEC48F001017F6F01017F29D8B4F3
:10294C0015D001017F51090D080EF326000EF4225B
:10295C003E0EF324D96E020EF420DA6EDF50010124
:10296C00516F010151850101518708D08D0E010174
:10297C00516F0001DDAF02D00101519116EC3FF017
:10298C0001017F6F01017F29D8B403D001017E8141
:10299C0002D001017E9101017E93C3EF1BF020EE6A
:1029AC000CF03950D9263A50DA22DF50100AD8B43C
:1029BC000BD6010AD8B472D7C3EF1BF020EE0AF085
:1029CC003950D9263A50DA220101FC51DE18D8A42C
:1029DC00C3EF1BF0010136510101D81905E10101CA
:1029EC0037510101D919D8A4C3EF1BF00101389755
:1029FC00C3EF1BF03B50F50F0101076F0B0E392491
:102A0C000101056F000E3A200101066FD5C101F1DD
:102A1C00D6C102F120EE08F03950D9263A50DA220C
:102A2C00DE28D8A40FD020EE09F03950D9263A5020
:102A3C00DA22DE28D8B436AE05D037C003F138C060
:102A4C0004F10AD00101008F080E39240101036F33
:102A5C00000E3A200101046F0101008D01010751A4
:102A6C00D8B4C3EF1BF001013885C3EF1BF039C09C
:102A7C00D9FF3AC0DAFFDF50D8B4C3EF1BF039C02E
:102A8C00D9FF3AC0DAFFDF06000E0001D56F000E49
:102A9C000101DC6F18D00101DC51010DF350392418
:102AAC00D96EF4503A20DA6E0001D551010D530E57
:102ABC00F324E16E010EF420E26EDFCFE7FF00019C
:102ACC00D52B0101DC2B3B500101DC5DD8A0E3D7F9
:102ADC000001DC510101D419D8A43CD001015E5194
:102AEC00D8A438D0300E01015F19D8A433D0000E11
:102AFC000001D16F0001D18BD3C1DDF0D4C1DEF068
:102B0C001EEC48F00101DC6F0101DC29D8B4C3EFE5
:102B1C001BF00101DC51090D040EF326000EF4220A
:102B2C003E0EF3240001D26F020EF4200001D36F8D
:102B3C00D1C0B0F0D2C0B1F0D3C0B2F0530E00018E
:102B4C00B36F010E0001B46FD5C0B5F0EDEC32F0EF
:102B5C00C3EF1BF0CDC1BEF0CEC1BFF0D3C1C0F0EE
:102B6C00D4C1C1F0000E36B6010E0001C26FE4EC08
:102B7C001CF0C3EF1BF0040E0101CF6F0101CF510C
:102B8C000101AA6FAB6B040E0101AA27000EAB2347
:102B9C000101AA513924D96E0101AB513A20DA6EE8
:102BAC004D0EDE18D8A4C3EF1BF020EE03F0395005
:102BBC00D9263A50DA22DF500101C86FC8C1AAF1F8
:102BCC00010E0101AB6F0101AA2B03D00101D890BA
:102BDC00AB370101AA2FFAD70101AB510101C06F2C
:102BEC0020EE02F03950D9263A50DA22DF50D8A420
:102BFC0003D00101C05145120101CF510101AA6F4F
:102C0C00AB6B060E0101AA27000EAB230101AA51E2
:102C1C003924D96E0101AB513A20DA6E0101C85149
:102C2C00010D120EF324E16E010EF420E26EDFCFE3
:102C3C00E7FF39C0D9FF3AC0DAFFDF5001013E6F20
:102C4C0020EE01F03950D9263A50DA22DF5001013A
:102C5C003F6F20EE02F03950D9263A50DA22DF507D
:102C6C000001DD6F20EE03F03950D9263A50DA22FC
:102C7C00DF500001DE6F1EEC48F00101DA6F01013C
:102C8C00DA29D8A405D0ABEC4CF00101DA6F3CD0BA
:102C9C00000E0101DC6F030E0101DC6501D02ED0AA
:102CAC000101DC51010DF3503724D96EF45038205A
:102CBC00DA6E0101DC51010D040EF326000EF42234
:102CCC003E0E0101AB6F020E0101AC6FF35001011E
:102CDC00AB27F4500101AC230101DA51090DF3507B
:102CEC000101AB25E16EF4500101AC21E26EDE5026
:102CFC00E618D8A403D00101DC2BCDD7030E0101BB
:102D0C00DC6502D00101DA690101DA29D8B4ACD052
:102D1C000101DA51090D3E0EF324D96E020EF42096
:102D2C00DA6E3EC1DEFF3FC1DDFF0101DA51090D54
:102D3C00020EF326000EF4223E0EF324D96E020E80
:102D4C00F420DA6EDDC0DEFFDEC0DDFF000E010117
:102D5C00DC6F030E0101DC6501D02CD00101DC51CC
:102D6C00010DF3503724D96EF4503820DA6E01017E
:102D7C00DC51010D040EF326000EF4223E0E01016F
:102D8C00AA6F020E0101AB6FF3500101AA27F45098
:102D9C000101AB230101DA51090DF3500101AA2500
:102DAC00E16EF4500101AB21E26EDFCFE7FF0101D0
:102DBC00DC2BCFD70101DA51090D080EF326000EDA
:102DCC00F4223E0EF324D96E020EF420DA6E000EBD
:102DDC00DF6E0101DA51090D080EF326000EF42204
:102DEC003E0EF324D96E020EF420DA6E0201DF825D
:102DFC000101DA51090D080EF326000EF4223E0EE5
:102E0C00F324D96E020EF420DA6E0201DF80010188
:102E1C00DA51090D080EF326000EF4223E0EF324AF
:102E2C00D96E020EF420DA6E0201DF840101DA5150
:102E3C00090D080EF326000EF4223E0EF324D96E73
:102E4C00020EF420DA6E0201DF860101DA51090D5F
:102E5C00080EF326000EF4223E0EF324D96E020E59
:102E6C00F420DA6E0201DF8E010138A1C3EF1BF0F2
:102E7C0039C0D9FF3AC0DAFFDF5001013E6F20EEB6
:102E8C0001F03950D9263A50DA22DF5001013F6F58
:102E9C0020EE02F03950D9263A50DA22DF500001E8
:102EAC00DD6F20EE03F03950D9263A50DA22DF508C
:102EBC000001DE6F0101CF51010DF3503924D96EA1
:102ECC00F4503A20DA6EDE28D8A4C3EF1BF00101CF
:102EDC00CF510101AA6FAB6B010E0101AA27000EA5
:102EEC00AB230101AA513924D96E0101AB513A200F
:102EFC00DA6EDF500101D06F080E0001D461C3EF10
:102F0C001BF00101D039030B0101AA6F020E010164
:102F1C00AA61C3EF1BF00001D4510A0D000EF3247B
:102F2C00D96E030EF420DA6EA9C1DFFF0001D45173
:102F3C000A0D070EF326000EF422000EF324D96EB0
:102F4C00030EF420DA6E08C1DFFF0001D4510A0D24
:102F5C00080EF326000EF422000EF324D96E030E95
:102F6C00F420DA6E09C1DFFF0001D4510A0D050E01
:102F7C00F326000EF422000EF324D96E030EF42077
:102F8C00DA6E3EC1DEFF3FC1DDFF0001D4510A0DF8
:102F9C00090EF326000EF422000EF324D96E030E54
:102FAC00F420DA6E000EDF6E0001D4510A0D090E0A
:102FBC00F326000EF422000EF324D96E030EF42037
:102FCC00DA6E0301DF8C0101D031030B0101AA6F12
:102FDC000001D4510A0D090EF326000EF422000E46
:102FEC00F324D96E030EF420DA6E0301DF500101D5
:102FFC00AA19FC0BAA190301DF6E0101D0A70FD08F
:10300C000001D4510A0D090EF326000EF422000E15
:10301C00F324D96E030EF420DA6E0301DF8601016E
:10302C00D039030B0101AA6F020E0101AA610FD066
:10303C000001D4510A0D090EF326000EF422000EE5
:10304C00F324D96E030EF420DA6E0301DF8A000E2E
:10305C000101DC6F030E0101DC6501D02ED00101F2
:10306C00DC51010DF35001010325D96EF45001011F
:10307C000421DA6E0101DC51010D010EF326000E64
:10308C00F422000E0101AA6F030E0101AB6FF35085
:10309C000101AA27F4500101AB230001D4510A0D00
:1030AC00F3500101AA25E16EF4500101AB21E26E4F
:1030BC00DFCFE7FF0101DC2BCDD70001D42B5DD393
:1030CC00000E0101C36F010E416401D056D3000EF6
:1030DC000101DC6F030E0101DC6501D017D0010189
:1030EC00DC51010DF3503724D96EF4503820DA6ED0
:1030FC000101DC51010D320EF324E16E010EF420BE
:10310C00E26EDFCFE7FF0101DC2BE4D7BEEC43F02E
:10311C000101D76F0101D729D8A41BD04150D8A4E5
:10312C002CD3B70E0101516FD9C03EF1DAC03FF17B
:10313C0016EC3FF00101D76F0101D729D8A42BD091
:10314C00010E0101C36FFF0E0001DE6FFE0EDD6F7D
:10315C009BD00101D751090D080EF326000EF42265
:10316C003E0EF324D96E020EF420DA6E0201DFA6B5
:10317C0012D00101D751090D020EF326000EF422D4
:10318C003E0EF324D96E020EF420DA6EDECFDDF0A3
:10319C00DDCFDEF079D00101D729D8B475D001018B
:1031AC00D7290001DD6FDCC0DEF0D9C03EF1DAC0FA
:1031BC003FF1020E0001D719D8A444D020EE01F043
:1031CC003950D9263A50DA22DFAC3CD0DDC0BEF102
:1031DC00DEC0BFF1000E0001DD6F010E0101D26FE8
:1031EC00070E0101D26501D024D0D2C1DEF01EEC55
:1031FC0048F00101C16F0101C129D8A417D0000EFC
:10320C000001DD6FD2C1DEF0D2C1AAF1010E0101C5
:10321C00AB6F0101AA2B03D00101D890AB37010190
:10322C00AA2FFAD70101AB51451203D00101D22BC1
:10323C00D7D7080E0101D219D8A404D0BEC1DDF035
:10324C00BFC1DEF0BF0E0101516F20EE01F039500D
:10325C00D9263A50DA22DFB004D001015191000195
:10326C00DD8F16EC3FF00101D76F0101D751090D2D
:10327C00080EF326000EF4223E0EF324D96E020E35
:10328C00F420DA6E0201DF88020E0101536FDDC0FB
:10329C0054F1DEC055F1C3C156F1040E0001D56FD7
:1032AC000101D751040D500EF324D96E030EF420F6
:1032BC00DA6EDE6ADE6ADE6ADD6A0101D751090D5B
:1032CC00040EF326000EF4223E0EF3240001BA6F16
:1032DC00020EF4200001BB6F010E0001BC6F6DECFF
:1032EC0049F04BD220EE03F03950D9263A50DA226D
:1032FC00DF50D8A49FD020EE01F03950D9263A5097
:10330C00DA22DF500001DB6F20EE02F03950D926B3
:10331C003A50DA22DF500001DC6F0001DB51D8A4F7
:10332C0024D0010E0001D76FD7C0AAF10101AA4722
:10333C00010147510101AA19F90BAA190101476FA3
:10334C00DCC0AAF1070E0101AA17010E0101AB6F37
:10335C000101AA2B03D00101D890AB370101AA2F90
:10336C00FAD70101AB2945120FD0000E0001D76F1F
:10337C00D7C0AAF10101AA47010147510101AA19BD
:10338C00F90BAA190101476FDB0E0001816F000ECA
:10339C000001826FD90E0001836F000E0001846F53
:1033AC00DEEC4DF001013883BF0E0101516F000EB0
:1033BC000101DC6F030E0101DC6501D017D00101A6
:1033CC00DC51010DF3503724D96EF4503820DA6EED
:1033DC000101DC51010D320EF324E16E010EF420DB
:1033EC00E26EDFCFE7FF0101DC2BE4D70001DB51FC
:1033FC00D8A405D0000E0001DE6F000E04D0DCC096
:10340C00DEF0000E0001DD6FD9C03EF1DAC03FF1F5
:10341C0016EC3FF00001D66F0001D651040D500E92
:10342C00F324D96E030EF420DA6EDE6ADE6ADE6AED
:10343C00DD6AA3D10001D6690001D969DA690001FE
:10344C00DD69DE69DD0E0001816F000E0001826F07
:10345C00D90E0001836F000E0001846FDEEC4DF07D
:10346C008CD1000E0101DC6F030E0101DC6501D073
:10347C0017D00101DC51010DF3503724D96EF450F3
:10348C003820DA6E0101DC51010D320EF324E16EAD
:10349C00010EF420E26EDFCFE7FF0101DC2BE4D755
:1034AC00BEEC43F00101CB6F0101CB29D8B465D13F
:1034BC000101CB51090D080EF326000EF4223E0E2D
:1034CC00F324D96E020EF420DA6E0201DFAA55D174
:1034DC000001D6510101CB19D8B410D00101CB5148
:1034EC00090D080EF326000EF4223E0EF324D96EBD
:1034FC00020EF420DA6E000EDF6E3FD1000E0101D9
:10350C00DC6F090E0101DC6501D083D00101DC51B7
:10351C00090D080EF326000EF4223E0EF324D96E8C
:10352C00020EF420DA6E0201DFAE61D00101DC5133
:10353C00090D080EF326000EF4223E0EF324D96E6C
:10354C00020EF420DA6E0201DFAA51D00001D6512E
:10355C000101DC19D8B44BD0000E0001D56F00016D
:10356C00D551010D530EF324D96E010EF420DA6EF1
:10357C00030EDF6E0001D52B000E0001D16F000190
:10358C00D18B0001D151FC0B0109D16F0001D18FFE
:10359C000101DC51090D040EF326000EF4223E0E3F
:1035AC00F3240001D26F020EF4200001D36FD1C0BE
:1035BC00B0F0D2C0B1F0D3C0B2F0530E0001B36F73
:1035CC00010E0001B46FD5C0B5F0EDEC32F0000E79
:1035DC000101CA6F000EC96F0101C9290F0E01014B
:1035EC00CA59D8B004D00101C94BCA2BF5D7010177
:1035FC00DC51090D080EF326000EF4223E0EF324C6
:10360C00D96E020EF420DA6E000EDF6E0101DC2B97
:10361C0078D70001D6690001DB69DC690001D96942
:10362C00DA69DB0E0001816F000E0001826FD90E8A
:10363C000001836F000E0001846FDEEC4DF0010180
:10364C0038939BD0020E416401D097D0010138A36E
:10365C0094D020EE01F03950D9263A50DA220101EB
:10366C00A951DE18D8A489D00001D751D8B485D07F
:10367C000001D705D8A45FD0140E0101C26F4DD044
:10368C000101C207E6EC49F081C0B6F182C0B7F186
:10369C0083C0B8F184C0B9F1E6EC49F081C0BAF14D
:1036AC0082C0BBF183C0BCF184C0BDF1B6C1AAF12C
:1036BC00B7C1ABF1B8C1ACF1B9C1ADF10101AA1FF1
:1036CC00AB1FAC1FAD1FAA2B000EAB23AC23AD233D
:1036DC000101BA510101AA250101AE6F0101BB51D3
:1036EC000101AB210101AF6F0101BC510101AC2102
:1036FC000101B06F0101BD510101AD210101B16F9B
:10370C000101B1510101B01108E1F50E0101AE5DED
:10371C00010E0101AF59D8A0BFD70101C25101015F
:10372C00D8A4AED7140EA2EC45F0140EA2EC45F0C2
:10373C00140EA2EC45F0DEEC3DF01FD039C0D9FFE1
:10374C003AC0DAFFDF50010AD8B4BAD4030AD8B4AD
:10375C00C9D5010AD8B485D6040AD8B473D70DD00C
:10376C003650030B000AD8B4CCEF10F0010AD8B4D1
:10377C00E5D7020AD8B4C1EF15F0010138A578ECF1
:10378C004DF0E6EC49F081C0C4F182C0C5F183C0B4
:10379C00C6F184C0C7F1000E0101DC6F030E0101FC
:1037AC00DC6501D067D00101DC51080D030EF32656
:1037BC00000EF422000EF324D96E020EF420DA6E01
:1037CC00DF50D8B454D00101DC51080D040EF3269F
:1037DC00000EF422000EF324D96E020EF420DA6EE1
:1037EC00DECFAAF1DECFABF1DECFACF1DECFADF1A7
:1037FC000101AA1FAB1FAC1FAD1FAA2B000EAB23E0
:10380C00AC23AD230101C4510101AA250101AE6F06
:10381C000101C5510101AB210101AF6F0101C6517D
:10382C000101AC210101B06F0101C7510101AD21B2
:10383C000101B16F0101B1510BE1210E0101AE5D2E
:10384C00A10E0101AF59070E0101B059D8A00FD03C
:10385C000101DC51080D030EF326000EF422000EBC
:10386C00F324D96E020EF420DA6E000EDF6E010125
:10387C00DC2B94D701017EA3120001017EA163D041
:10388C000B0E0001D56F0001D551010D530EF32421
:10389C00D96E010EF420DA6E000EDF6E0001D52B0E
:1038AC000001D551010D530EF324D96E010EF420F5
:1038BC00DA6E110EDF6E0001D52B000E0101CC6FFC
:1038CC00030E0101CC6501D019D00101CC51010DC1
:1038DC00820EF324D96E010EF420DA6E0001D5515C
:1038EC00010D530EF324E16E010EF420E26EDFCFD6
:1038FC00E7FF0001D52B0101CC2BE2D70001D551FC
:10390C00010D530EF324D96E010EF420DA6E80C132
:10391C00DFFF0001D52B0001D551010D530EF3240F
:10392C00D96E010EF420DA6E81C1DFFF0001D52BB8
:10393C00860E0001C96F010E0001CA6F8BEC47F0B7
:10394C0001017E9312008CC1AAF18DC1ABF18EC125
:10395C00ACF18FC1ADF10101AA1FAB1FAC1FAD1FA4
:10396C00AA2B000EAB23AC23AD230101C4510101E2
:10397C00AA250101B26F0101C5510101AB21010161
:10398C00B36F0101C6510101AC210101B46F0101FA
:10399C00C7510101AD210101B56F0101B5510BE119
:1039AC00610E0101B25DE30E0101B359160E010166
:1039BC00B459D8A0120001017E9312000001C1512C
:1039CC00070B0001C76F0001C7510001DC19D8A417
:1039DC0042D0800E0001C06502D0000E1200000E15
:1039EC000001D16F0001D18B0001C2B103D00001E5
:1039FC00D19702D00001D187C0C0DDF0C1C0DEF08C
:103A0C001EEC48F00001C86F0001C829D8B410D0D2
:103A1C000001C851090D040EF326000EF4223E0ECF
:103A2C00F3240001D26F020EF4200001D36F02D0F8
:103A3C00000E1200D1C0B0F0D2C0B1F0D3C0B2F0C1
:103A4C00530E0001B36F010E0001B46FD5C0B5F079
:103A5C00EDEC32F01200C7C0C3F0010E0001C46FD0
:103A6C000001C32B03D00001D890C4370001C32F31
:103A7C00FAD70001C45145140009D8B48CD0000108
:103A8C00C751010D0A0EF324D96E010EF420DA6E23
:103A9C00020EDF642CD00001C751010D0A0EF32475
:103AAC00D96E010EF420DA6E000EDF6EC7C0C3F0C3
:103ABC00010E0001C46F0001C32B03D00001D8908C
:103ACC00C4370001C32FFAD70001C451FF0A4516B1
:103ADC000001C751010D120EF324D96E010EF42012
:103AEC00DA6E000EDF6EDEEC3DF0000E1200000E02
:103AFC000001D16F0001D18B0001C2B103D00001D4
:103B0C00D19702D00001D187000E0001DD6FC7C034
:103B1C00DEF01EEC48F00001C86F0001C829D8B4D3
:103B2C003AD00001C851090D040EF326000EF42200
:103B3C003E0EF3240001D26F020EF4200001D36F6D
:103B4C00D1C0B0F0D2C0B1F0D3C0B2F0530E00016E
:103B5C00B36F010E0001B46FD5C0B5F0EDEC32F0CF
:103B6C000009D8A40BD00001C751010D0A0EF32493
:103B7C00D96E010EF420DA6EDF2AB7D70001C751D7
:103B8C00010D0A0EF324D96E010EF420DA6E000E2C
:103B9C00DF6E010E1200000E0001C86F070E00014F
:103BAC00C86501D0DED00001C851010D120EF324FE
:103BBC00D96E010EF420DA6EDF500001C36FC7C05E
:103BCC00C4F0010E0001C56F0001C42B03D000012D
:103BDC00D890C5370001C42FFAD70001C551000198
:103BEC00C3150009D8B4BAD00001C851010D0A0E92
:103BFC00F324D96E010EF420DA6E020EDF6459D074
:103C0C000001C851010D0A0EF324D96E010EF420E7
:103C1C00DA6E000EDF6EC8C0C3F0010E0001C46F77
:103C2C000001C32B03D00001D890C4370001C32F6F
:103C3C00FAD70001C451FF0A45160001C851010D05
:103C4C00120EF324D96E010EF420DA6E000EDF6E24
:103C5C000001D751D8B403D0DEEC3DF028D0000ED3
:103C6C000001D56F0001D551010D530EF324D96E0F
:103C7C00010EF420DA6E070EDF6E0001D52B000169
:103C8C00D551010D530EF324D96E010EF420DA6ECA
:103C9C00A9C1DFFF0001D52B000E0001BA6F000E89
:103CAC000001BB6F010E0001BC6F6DEC49F0000E02
:103CBC001200000E0001D16F0001D18B0001C2B1C6
:103CCC0003D00001D19702D00001D187000E000172
:103CDC00DD6FC8C0DEF01EEC48F00001C86F0001BB
:103CEC00C829D8B43ED00001C851090D040EF326E2
:103CFC00000EF4223E0EF3240001D26F020EF420CB
:103D0C000001D36FD1C0B0F0D2C0B1F0D3C0B2F0CB
:103D1C00530E0001B36F010E0001B46FD5C0B5F0A6
:103D2C00EDEC32F00009D8A40CD00001C851010D03
:103D3C000A0EF324D96E010EF420DA6EDF2A000E7F
:103D4C0012000001C851010D0A0EF324D96E010EA8
:103D5C00F420DA6E000EDF6E010E12000001C82B8B
:103D6C001DD7020E0001D719D8B414D1000E0001D2
:103D7C00D16F0001D18B0001C2B103D00001D197EA
:103D8C0002D00001D1870001D705D8A434D0000E91
:103D9C000001C86F030E0001C86501D0D0D000012E
:103DAC00C851010D040EF326000EF4223E0E000144
:103DBC00C36F020E0001C46FF3500001C327F4500F
:103DCC000001C4230001D651090DF3500001C32595
:103DDC00D96EF4500001C421DA6E0001C851010DF6
:103DEC00320EF324E16E010EF420E26EDFCFE7FF1A
:103DFC000001C82BCFD7000E0001C86F070E0001C1
:103E0C00C86501D01ED04550D8B418D0C8C0C3F076
:103E1C00010E0001C46F000E0001C56F0001C32B21
:103E2C0004D0D8900001C437C5370001C32FF9D78F
:103E3C000001C4510001C511D8A403D00001C82B46
:103E4C00DDD7080E0001C86105D0C8C0DEF0000E39
:103E5C00000104D0000E0001DE6F000EDD6F1EECC1
:103E6C0048F00001C66F0A0E0001C66134D0000E86
:103E7C000001C86F030E0001C86501D060D00001BD
:103E8C00C851010D040EF326000EF4223E0E000163
:103E9C00C36F020E0001C46FF3500001C327F4502E
:103EAC000001C4230001C651090DF3500001C325C4
:103EBC00D96EF4500001C421DA6E0001C851010D15
:103ECC00320EF324E16E010EF420E26EDFCFE7FF39
:103EDC000001C82BCFD7000E0001C86F030E0001E4
:103EEC00C86501D02CD00001C851010D040EF32679
:103EFC00000EF4223E0E0001C36F020E0001C46FCF
:103F0C00F3500001C327F4500001C4230001D65123
:103F1C00090DF3500001C325D96EF4500001C421E2
:103F2C00DA6E0001C851010D320EF324E16E010E60
:103F3C00F420E26EDFCFE7FF0001C82BCFD70001E2
:103F4C00D651090D040EF326000EF4223E0EF32476
:103F5C000001D26F020EF4200001D36FD1C0B0F07B
:103F6C00D2C0B1F0D3C0B2F0530E0001B36F010E4A
:103F7C000001B46FD5C0B5F0EDEC32F00009D8A457
:103F8C0004D001010A2B000E1200000E01010A6F71
:103F9C00010E1200000E0001D16F0001D18B000147
:103FAC00C2B103D00001D19702D00001D187C7C0A4
:103FBC00DEF0000E0001DD6F0001D651090D040E7C
:103FCC00F326000EF4223E0EF3240001D26F020EF3
:103FDC00F4200001D36FD1C0B0F0D2C0B1F0D3C087
:103FEC00B2F0530E0001B36F010E0001B46FD5C0D7
:103FFC00B5F0EDEC32F00009D8A404D001010A2B85
:10400C00000E1200000E01010A6F010E1200A8EC46
:10401C003FF0000E0101506FF40EF66EFF0EF76EBE
:10402C00010EF86E0800F5CFA1F1F50EF66EFF0E3D
:10403C00F76E010EF86E0800F5CFA2F1F60EF66ED3
:10404C00FF0EF76E010EF86E0800F5CFA3F1F70E18
:10405C00F66EFF0EF76E010EF86E0800F5CFA4F1A8
:10406C00000E0401236F000E226F040123BF08D041
:10407C00040123511EE1080E0401225DD8B019D0B1
:10408C00EC0E04012225F66E1F0E2321F76EF86A42
:10409C00000EF8221A0E04012225D96E010E04011D
:1040AC002321DA6E0800F5CFDFFF0401224B232B0E
:1040BC00DCD7010E476EEBEC4AF0000EF2EC36F05A
:1040CC00040ECBEC4CF0010E0001CB6F000ECC6F4C
:1040DC00000ECD6F000ECE6F0E0E20EC35F00401ED
:1040EC00256F040125510401D8A40BD0000E476E96
:1040FC00EBEC4AF095EC4DF001015251D8A4E3D70A
:10410C00FBD7000E04011E6F000E0401246F3AD081
:10411C00040124510A0D070EF326000EF422000EA2
:10412C00F324D96E030EF420DA6E04011E51DE5C0A
:10413C00D8A026D0040124510A0D050EF326000E3A
:10414C00F422000EF324D96E030EF420DA6E370E2F
:10415C00DE1816E1130EDE18D8A412D00401245177
:10416C000A0D070EF326000EF422000EF324D96E6E
:10417C00030EF420DA6EDF5004011E6F24C419F410
:10418C000401242B040125510401245DD8A0C0D7BF
:10419C00000E0001D06F0401195147EC2CF0040102
:1041AC001A6F04011A29D8A40ED0020E0101506F07
:1041BC00000E476EEBEC4AF095EC4DF001015251BC
:1041CC00D8B4FCD7FF00030E53EC4DF0A10E010147
:1041DC00F86F010E0101F96FF00E0101FA6FB9ECE5
:1041EC0037F00401186F040118510401D8A40ED043
:1041FC00020E0101506F000E476EEBEC4AF095EC8D
:10420C004DF001015251D8B4FCD7FF00FCEC4BF03F
:10421C00010E0101506F020E476EEBEC4AF0210EBD
:10422C000001D06F040E57EC4AF001014F6F000EE5
:10423C0001012E6F000E2F6F000E306F000E316FCC
:10424C0016D001014D2B020E01014D650ED0020E50
:10425C000101506F000E476EEBEC4AF095EC4DF0FF
:10426C0001015251D8B4FCD7FF0005EC4DF04AECDB
:10427C0025F00009D8B4E5D7000E01014D6F95EC7F
:10428C004DF0000E53EC4DF07CEC10F0C3EC4DF007
:10429C000009D8B439D103C1D9FF04C1DAFFDF500A
:1042AC0004011F6F010120EE01F00351D9260451C6
:1042BC00DA22DF500401206F07C121F416D108C1A6
:1042CC001CF4010120EE01F00551D9260651DA2229
:1042DC00DF5004011B6FD1EC4DF00B0E0001D56FBC
:1042EC000001D551010D530EF324D96E010EF420AB
:1042FC00DA6E010EDF6E0001D52B0001D551010DD8
:10430C00530EF324D96E010EF420DA6E1BC4DFFFBA
:10431C000001D52B0001D551010D530EF324D96E9C
:10432C00010EF420DA6E1CC4DFFF0001D52B1F0E2A
:10433C000001CB6F040E0001CC6F000E0001CD6F9D
:10434C00010E0001CE6F11EC2AF09ED70B0E00016E
:10435C00D56F0001D551010D530EF3240001816F6F
:10436C00010EF4200001826F05C183F006C184F0B8
:10437C0021C485F00001866BBAEC4AF00001D551DE
:10438C00040121250001D56FD1EC4DF01F0E000169
:10439C00CB6F040E0001CC6F000E0001CD6F010E2F
:1043AC000001CE6F11EC2AF06FD704011F510401EC
:1043BC00D8A496D004012051D8A492D0020E0401A6
:1043CC0021658ED0010120EE01F00551D926065150
:1043DC00DA22DF5004011D6F020E010105250101D7
:1043EC003C6F000E0101062101013D6F18D03CC14C
:1043FC008BF03DC18CF050EC43F021EE90F0080EA8
:10440C00EBCFDBFFE806FCE201019851010DF35004
:10441C0001013C27F45001013D23D5EC42F0FE0E86
:10442C000401116FFF0E0401126F040121510401EC
:10443C00136F146B04011151040113270401125161
:10444C0004011423020E010105250401156F000E51
:10445C00010106210401166F0401151F161F154BCF
:10446C00162B01013C510401152701013D5104019A
:10447C001623040113510401155D04011651800A21
:10448C000401176F04011451800A04011759D8A0B4
:10449C00AED7D1EC4DF004011D510401D8A417D0B6
:1044AC0021D001014D2B020E01014D650ED0020EE3
:1044BC000101506F000E476EEBEC4AF095EC4DF09D
:1044CC0001015251D8B4FCD7FF0005EC4DF0D4ECEF
:1044DC0041F00009D8B4E5D7000E01014D6F02D0B0
:1044EC00D1EC4DF0D1EC4DF0CFD605C1D9FF06C1C2
:1044FC00DAFFDF50010AD8B4E2D6020AD8B426D7C4
:10450C00070AD8B452D7EED701015205D8B417D048
:10451C00BBD601014D2B020E01014D650ED0020ED2
:10452C000101506F000E476EEBEC4AF095EC4DF02C
:10453C0001015251D8B4FCD7FF0005EC4DF062ECF0
:10454C002EF00009D8B4E5D7000E01014D6F000E16
:10455C000101526F99D6F0B0F0A672D2F090600EB5
:10456C0001014919D8A468D24BC14AF18B9CD6ECF5
:10457C004DF00001706F8B8C000E0001716F010EFD
:10458C000001716501D00FD000017151420D780E00
:10459C00F324D96E030EF420DA6E0301DFA003D0EE
:1045AC000001712BECD7020E00017019D8A402D0B7
:1045BC00010E01D0000E00016D6F400E0001706104
:1045CC000ED0000170510001D8B409D0010E0001C9
:1045DC00716516D000016D510001D8A411D01A0ECE
:1045EC0068EC4CF007D08B9CD6EC4DF08B8C1A0EF3
:1045FC0068EC4CF00001686F000168A31FD2F3D780
:10460C00000E00016E6F70C066F00001676B0DD27A
:10461C0000016607D8A0670700016D510001D8B4EE
:10462C0010D08B9C00016E51010D690EF324D96ED4
:10463C00000EF420DA6ED6EC4DF024D000016E2B77
:10464C0023D08B9C00016E51010D010EF326000E40
:10465C00F422780E0001606F030E0001616FF350BD
:10466C0000016027F4500001612300017151420DDB
:10467C00F35000016025D96EF45000016121DA6E0F
:10468C00D6EC4DF0DF6EDAD78B8C00017051000147
:10469C006E5DD8A0CAD100016D510001D8B438D0DC
:1046AC0000016951030B020AD8A40CD001014C5132
:1046BC0000016A19D8A402D0010E446E000E00014C
:1046CC006E6FBCD1010E0001716504D0000E0001AB
:1046DC006E6F85D700017151420D010EF326000E4D
:1046EC00F422780EF324D96E030EF420DA6E69C02E
:1046FC00DFFF00017151420D020EF326000EF42271
:10470C00780EF324D96E030EF420DA6E6AC0DFFF44
:10471C0000017151420D410EF326000EF422780E69
:10472C00F324D96E030EF420DA6E70C0DFFF0001A3
:10473C006F6900017151420D010EF326000EF42237
:10474C00780EF324D96E030EF420DA6E0301DFAC7D
:10475C0055D0000E0001726F45D000017251010D51
:10476C00F3503F24D96EF4504020DA6E00017151A1
:10477C00420D000172510001616F626B030E00016A
:10478C006127000E6223780E0001636F030E000197
:10479C00646F000161510001632700016251000147
:1047AC006423F35000016325E16EF4500001642191
:1047BC00E26EDE50E618D8B413D0000E00016E6F16
:1047CC0000017151420D410EF326000EF422780EB9
:1047DC00F324D96E030EF420DA6E000EDF6EFFD6D2
:1047EC000001722B3E30E832E8320F0B0001606F93
:1047FC00000160510001725DD8A0AFD7000171516A
:10480C00420D010EF326000EF422780EF324D96E1D
:10481C00030EF420DA6E0301DFAA57D0000E00015C
:10482C00726F010E0001726501D017D00001725138
:10483C00010D980EF324D96E020EF420DA6E0001ED
:10484C007251010D690EF324E16E000EF420E26E3C
:10485C00DFCFE7FF0001722BE4D7060E0201986F41
:10486C0000017151420D020EF326000EF422780E57
:10487C00F324D96E030EF420DA6EDF500201996F27
:10488C00F090000E1E6E020E4EEC3BF0000E00017E
:10489C00726F010E0001726501D017D000017251C8
:1048AC00010D690EF324D96E000EF420DA6E0001AE
:1048BC007251010D980EF324E16E020EF420E26E9B
:1048CC00DFCFE7FF0001722BE4D7000E0001726FFF
:1048DC00040E0001726501D056D000017251060D14
:1048EC00200EF324D96E020EF420DA6EDF50D8B409
:1048FC0036D000017151420D020EF326000EF42247
:10490C00780EF324D96E030EF420DA6E0001725186
:10491C00060D010EF326000EF422200EF324E16E98
:10492C00020EF420E26EDE50E618D8A418D0A7ECE4
:10493C004BF000017251060D020EF326000EF4220C
:10494C00200EF324D96E020EF420DA6E14C0DEFFB2
:10495C0015C0DEFF16C0DEFF17C0DEFF14D000014D
:10496C006F29D8A40DD000017251060D200EF3242E
:10497C00D96E020EF420DA6EDF50D8B472C06FF02C
:10498C000001722BA5D7040E0001726557D0050EDD
:10499C0000016F613ED000016F51060D200EF32413
:1049AC00D96E020EF420DA6E010EDF6E0001715129
:1049BC00420D020EF326000EF422780EF324D96E6B
:1049CC00030EF420DA6E00016F51060D010EF32672
:1049DC00000EF422200EF324E16E020EF420E26E9F
:1049EC00DFCFE7FFA7EC4BF000016F51060D020E75
:1049FC00F326000EF422200EF324D96E020EF420BE
:104A0C00DA6E14C0DEFF15C0DEFF16C0DEFF17C065
:104A1C00DEFF00017151420D780EF324D96E030EA6
:104A2C00F420DA6E0301DF8009D000016651000129
:104A3C006711D8B403D0ECD5010E426EF09000F0A3
:104A4C00F2B2F2A814D0030E476E4BEC4BF0F2927C
:104A5C00600E01014919D8A40AD0280E68EC4CF05C
:104A6C000001606F0001D890603101014B6F9EA076
:104A7C0012009DA012009E900001D82B0001D8516D
:104A8C00D8A41200482A1200D80E01013C6F020E65
:104A9C0001013D6F900E0001816F010E0001826FCC
:104AAC00E70E0001836F200E0001846F000E0001E1
:104ABC00866F030E856FBAEC4AF0000E0101966FFB
:104ACC004FC194F1010E0101976F3CC181F03DC1C2
:104ADC0082F021EE90F000EE83F0080EDBCFEBFFBE
:104AEC00E806FCE264EC48F00001D06F0001D05104
:104AFC00010DF35001013C27F45001013D23900EB0
:104B0C000001816F010E0001826FF30E0001836FB3
:104B1C00200E0001846F000E0001866F030E856F5E
:104B2C00BAEC4AF0010131510101301101012F1190
:104B3C001DE13C0E01012E5DD8B018D0050E01010F
:104B4C00966F2EC194F1000E0101976F3CC181F05C
:104B5C003DC182F021EE90F000EE83F0080EDBCF29
:104B6C00EBFFE806FCE264EC48F0ADD001013151FA
:104B7C000101301135E1100E01012E5D0E0E010107
:104B8C002F59D8B02DD0040E0101966F2EC181F093
:104B9C002FC182F030C183F031C184F03C0E000192
:104BAC00856F000E866F000E876F000E886FE7EC26
:104BBC0044F0000181510101946F000E0101976FC7
:104BCC003CC181F03DC182F021EE90F000EE83F00B
:104BDC00080EDBCFEBFFE806FCE264EC48F073D088
:104BEC00010131513EE1800E01012E5D510E01019A
:104BFC002F59010E01013059D8B033D0060E0101E6
:104C0C00966F2EC181F02FC182F030C183F031C17B
:104C1C0084F0100E0001856F0E0E866F000E876FEC
:104C2C00000E886FE7EC44F081C00FF482C010F4E2
:104C3C00040110510101946F0FC495F1000E010194
:104C4C00976F3CC181F03DC182F021EE90F000EEF7
:104C5C0083F0080EDBCFEBFFE806FCE2A3EC46F09A
:104C6C0032D0000E0101966F2EC181F02FC182F05F
:104C7C0030C183F031C184F0800E0001856F510E7C
:104C8C00866F010E876F000E886FE7EC44F081C0D1
:104C9C000FF482C010F4040110510101946F0FC481
:104CAC0095F1000E0101976F3CC181F03DC182F07E
:104CBC0021EE90F000EE83F0080EDBCFEBFFE80660
:104CCC00FCE2A3EC46F00001D06F0001D051010DC5
:104CDC00F35001013C27F45001013D23900E0001DB
:104CEC00816F010E0001826FEF0E0001836F200EA9
:104CFC000001846F000E0001866F030E856FBAEC05
:104D0C004AF0040E0101966FFEC194F1010E0101EF
:104D1C00976F3CC181F03DC182F021EE90F000EE26
:104D2C0083F0080EDBCFEBFFE806FCE264EC48F006
:104D3C000001D06F0001D051010DF35001013C274F
:104D4C00F45001013D23D80E0101F86F020E010150
:104D5C00F96FD80E000801013C250101FA6F000E15
:104D6C000101FB6F7FEC38F00009D8A402D0000ED3
:104D7C001200D80E01013C6F020E01013D6F900E26
:104D8C000001816F010E0001826FE30E0001836F41
:104D9C00200E0001846F000E0001866F030E856FDC
:104DAC00BAEC4AF0030E0101966F26C181F027C1BF
:104DBC0082F028C183F029C184F0640E0001856F54
:104DCC00000E866F000E876F000E886FABEC49F0FB
:104DDC0081C08DF082C08EF083C08FF084C090F0C3
:104DEC002FEC49F08DC096F08EC097F08FC098F0E4
:104DFC0001012A510101262500018D6F01012B5162
:104E0C000101272100018E6F01012C510101282184
:104E1C0000018F6F01012D51010129210001906FBB
:104E2C002FEC49F08DC099F08EC09AF08FC09BF09A
:104E3C00F5EC3BF096C00CF497C00DF498C00EF452
:104E4C000CC4AEF00DC4AFF00EC4B0F056EC42F092
:104E5C00AEC000F4AFC001F4B0C002F400C495F0D1
:104E6C0001C496F002C497F09BEC3CF00001955104
:104E7C000101946F0CC4AEF00DC4AFF00EC4B0F0D1
:104E8C0056EC42F0AEC0B6F0AFC0B7F0B0C0B8F060
:104E9C003BEC4DF0B6C003F4B7C004F4B8C005F455
:104EAC00000E0001BC6FC80E0001BD6F420E000168
:104EBC00BE6F0CC48CF00DC48DF00EC48EF003C408
:104ECC0089F004C48AF005C48BF0B9EC31F089C0C8
:104EDC00B9F08AC0BAF08BC0BBF0F4EC39F0B9C0B1
:104EEC0006F4BAC007F4BBC008F406C4AEF007C49D
:104EFC00AFF008C4B0F056EC42F0AEC009F4AFC04D
:104F0C000AF4B0C00BF409C495F00AC496F00BC4B3
:104F1C0097F09BEC3CF0000195510101956F000E50
:104F2C000101976F3CC181F03DC182F021EE90F000
:104F3C0000EE83F0080EDBCFEBFFE806FCE2F1ECB1
:104F4C0046F00001D06F0001D051010DF35001016A
:104F5C003C27F45001013D23D80E0101F86F020EDD
:104F6C000101F96FD80E000801013C250101FA6F0F
:104F7C00010E0101FB6F7FEC38F01200000E0001F6
:104F8C00C76F040E0001C76501D084D0E6EC49F070
:104F9C0081C0BCF082C0BDF083C0BEF084C0BFF045
:104FAC000001C751060D200EF324D96E020EF42019
:104FBC00DA6EDF50D8B46BD00001C751060D020E6B
:104FCC00F326000EF422200EF324D96E020EF420E8
:104FDC00DA6E0001BC51DE5C0001BD51DE580001EF
:104FEC00BE51DE580001BF51DE58D8B050D0000180
:104FFC00C751060D020EF326000EF422200EF324E8
:10500C00D96E020EF420DA6EDECFB4F0DECFB5F03E
:10501C00DECFB6F0DECFB7F00001B41FB51FB61F60
:10502C00B71FB42B000EB523B623B7230001BC5118
:10503C000001B4250001B86F0001BD510001B5217C
:10504C000001B96F0001BE510001B6210001BA6F19
:10505C000001BF510001B7210001BB6F0001BB5122
:10506C000BE1210E0001B85DA10E0001B959070E2C
:10507C000001BA59D8A00BD00001C751060D200E63
:10508C00F324D96E020EF420DA6E000EDF6E0001EE
:10509C00C72B77D74328D8B402D0000E1200000ECD
:1050AC000001C76F010E0001C76501D0B2D100012C
:1050BC00C751420D780EF324D96E030EF420DA6E2C
:1050CC000301DFA0A3D10001C751420D010EF3264D
:1050DC00000EF422780EF324D96E030EF420DA6E4F
:1050EC00DF50366E0001C751420D410EF326000E03
:1050FC00F422780EF324D96E030EF420DA6EDF500E
:10510C003B6E020E0001C66F36AC06D03E30E83264
:10511C00E8320F0B0001C62736AE25D00001C65170
:10512C00010D010EF326000EF422780E0001B46F6F
:10513C00030E0001B56FF3500001B427F4500001C9
:10514C00B5230001C751420DF3500001B425376E51
:10515C00F4500001B521386E3E30E832E8320F0BC6
:10516C000001C62704D0000E376E000E386E36A62E
:10517C0026D10001C751420D0001C6510001B46F88
:10518C00B56B050E0001B427000EB523780E000197
:10519C00B66F030E0001B76F0001B4510001B627C2
:1051AC000001B5510001B723F3500001B625D96EAB
:1051BC00F4500001B721DA6EDF50D8B40DD00001E5
:1051CC00C751420D780EF324D96E030EF420DA6E1B
:1051DC00000EDF6E000E120036AEAAD0000E0001DB
:1051EC00C56F090E0001C56501D02BD00001C5515A
:1051FC00090D080EF326000EF4223E0EF324D96E90
:10520C00020EF420DA6E0201DFAE18D00001C55197
:10521C00090D040EF326000EF4223E0EF3240001B9
:10522C00816F020EF4200001826F37C083F038C00A
:10523C0084F0D3EC4BF00009D8A403D00001C52BAB
:10524C00D0D70A0E0001C56173D0000E0001C46FE7
:10525C00030E0001C46501D036D00001C751420DC8
:10526C000001C451C6C0B4F00001B56B0001B427F5
:10527C00000EB523010E0001B427000EB523780EE5
:10528C000001B66F030E0001B76F0001B4510001AD
:10529C00B6270001B5510001B723F3500001B62524
:1052AC00D96EF4500001B721DA6E0001C451010D22
:1052BC00C00EF324E16E000EF420E26EDFCFE7FFA8
:1052CC000001C42BC5D70001C551040D500EF324A9
:1052DC00D96E030EF420DA6EDE500001C05DDE5094
:1052EC000001C159DE500001C259DE500001C35902
:1052FC00D8B00DD00001C751420D780EF324D96EF1
:10530C00030EF420DA6E000EDF6E000E12000001A8
:10531C00C551040D500EF324D96E030EF420DA6E31
:10532C00C0C0DEFFC1C0DEFFC2C0DEFFC3C0DEFFF7
:10533C00050E0001C6270001C751420D010EF326D0
:10534C00000EF422780EF3240001A56F030EF42056
:10535C000001A66FC6C0A7F00001C751420D410E57
:10536C00F326000EF422780EF324D96E030EF420EB
:10537C00DA6EDF500001B46F0001C6510008000165
:10538C00B4250001A86F990E0001A96F010E000150
:10539C00AA6FA3EC3AF00009D8A40DD00001C751B4
:1053AC00420D780EF324D96E030EF420DA6E000E43
:1053BC00DF6E000E12000001C651020F02D0000178
:1053CC00C6513B5E0001C651010D010EF326000EC5
:1053DC00F422780E0001B46F030E0001B56FF35088
:1053EC000001B427F4500001B5230001C751420D50
:1053FC00F3500001B425396EF4500001B5213A6E1A
:10540C004AC13CF0C7C043F0010E12000001C72B8B
:10541C0049D6000E120001014651D8B40CD001013E
:10542C005E51D8B408D00101388748C1FCF1060E92
:10543C000101F56F05D0020E0101F56F01013897DE
:10544C000001CD510001D8B461D1000E0101F66FFD
:10545C00030E0101F66501D019D00101F651010DC1
:10546C00F3500001CB25D96EF4500001CC21DA6E3B
:10547C000101F651010D320EF324E16E010EF42000
:10548C00E26EDFCFE7FF0101F62BE2D7BEEC43F073
:10549C000101F76F0101F729D8A43DD0FDC153F1EB
:1054AC00020E0101546F0101556901015669010198
:1054BC00576901015869D9C059F1DAC05AF1DBC0FA
:1054CC005BF1DCC05CF148C15DF10101482B000EC1
:1054DC000001D16F0001D18B0001CEB103D00001CE
:1054EC00D19702D00001D187CBC0D2F0CCC0D3F081
:1054FC0001013897D1C0B0F0D2C0B1F0D3C0B2F036
:10550C00530E0001B36F010E0001B46FD5C0B5F09E
:10551C00EDEC32F012000101F751090D080EF326E3
:10552C00000EF4223E0EF324D96E020EF420DA6E35
:10553C000201DFA6B3D701014651D8B411D0010145
:10554C00F751090D020EF326000EF4223E0EF32441
:10555C00D96E020EF420DA6EDECF36F1DDCF37F1E4
:10556C00040E0101536FF5C154F10101F751090DFE
:10557C003E0EF324D96E020EF420DA6EDF500101D8
:10558C00556F0101F751090D010EF326000EF4229F
:10559C003E0EF324D96E020EF420DA6EDF500101B8
:1055AC00566F0101F751090D020EF326000EF4227D
:1055BC003E0EF324D96E020EF420DA6EDF50010198
:1055CC00576F0101F751090D030EF326000EF4225B
:1055DC003E0EF324D96E020EF420DA6EDF50010178
:1055EC00586FD9C059F1DAC05AF1DBC05BF1DCC09D
:1055FC005CF148C15DF10101482B0101F751090D26
:10560C003E0EF324D96E020EF420DA6EDECFBEF01D
:10561C00DDCFBFF00101F751090D020EF326000E8C
:10562C00F4223E0EF324D96E020EF420DA6EDECF95
:10563C00C0F0DDCFC1F0CEC0C2F0E4EC1CF000092C
:10564C00D8A404D001013897000E1200010138A72C
:10565C005BD0E6EC49F081C0E5F182C0E6F183C095
:10566C00E7F184C0E8F1C3EC4DF00009D8A4D1EC0B
:10567C004DF0010138B702D0010E1200E6EC49F0F2
:10568C0081C0E9F182C0EAF183C0EBF184C0ECF196
:10569C00E5C1DDF1E6C1DEF1E7C1DFF1E8C1E0F122
:1056AC000101DD1FDE1FDF1FE01FDD2B000EDE23DF
:1056BC00DF23E0230101E9510101DD250101E16F47
:1056CC000101EA510101DE210101E26F0101EB51FF
:1056DC000101DF210101E36F0101EC510101E02126
:1056EC000101E46F0101E4510BE1210E0101E15DC7
:1056FC00A10E0101E259070E0101E359D8A0B3D75D
:10570C0001013897000E1200010E1200040E010167
:10571C00536FF5C154F1D9C055F1DAC056F1CBC075
:10572C00D9FFCCC0DAFFDF500101576F000120EE2A
:10573C0001F0CB51D926CC51DA22DF500101586F40
:10574C00D9C059F1DAC05AF1DBC05BF1DCC05CF1B5
:10575C0048C15DF10101482BCBC0D9FFCCC0DAFFA9
:10576C00DF500101366F000120EE01F0CB51D9263C
:10577C00CC51DA22DF500101376FCBC0D9FFCCC03E
:10578C00DAFFDF500001DD6F000120EE01F0CB519C
:10579C00D926CC51DA22DF500001DE6FD9C0BEF021
:1057AC00DAC0BFF0DDC0C0F0DEC0C1F0CEC0C2F0C8
:1057BC00E4EC1CF00009D8A404D001013897000EC9
:1057CC001200010138A75BD0E6EC49F081C0EDF185
:1057DC0082C0EEF183C0EFF184C0F0F1C3EC4DF068
:1057EC000009D8A4D1EC4DF0010138B702D0010E5C
:1057FC001200E6EC49F081C0F1F182C0F2F183C0F5
:10580C00F3F184C0F4F1EDC1DDF1EEC1DEF1EFC1D5
:10581C00DFF1F0C1E0F10101DD1FDE1FDF1FE01F32
:10582C00DD2B000EDE23DF23E0230101F15101010A
:10583C00DD250101E16F0101F2510101DE210101C0
:10584C00E26F0101F3510101DF210101E36F01015D
:10585C00F4510101E0210101E46F0101E4510BE17C
:10586C00210E0101E15DA10E0101E259070E0101BA
:10587C00E359D8A0B3D701013897000E1200010EDE
:10588C0012000401096F030E0401086F0001D0051A
:10589C00D8A414D056EC30F006D0C3EC4DF000096F
:1058AC00D8A4D1EC4DF001017EB3F7D701017EA154
:1058BC0003D001017F511200FF0E12000001D051E4
:1058CC000001D8A4F7D104010929D8B406D02AD0F4
:1058DC000401082F02D0FF0E1200A9C1F8F2010E2C
:1058EC000201F96FFA6BFB6BFC6B0201F82B06D013
:1058FC00D8900201F937FA37FB37FC370201F82F41
:10590C00F7D7F9C2CBF0FAC2CCF0FBC2CDF0FCC297
:10591C00CEF00A0E20EC35F00009D8B4D9D7000E21
:10592C000401096F040109510A0D050EF326000E3E
:10593C00F422000EF324D96E030EF420DA6EDECFBF
:10594C003EF1DDCF3FF1000E04010A6F030E04019E
:10595C000A6501D02CD004010A51010D010EF32669
:10596C00000EF422000E0201F86F030E0201F96F13
:10597C00F3500201F827F4500201F92304010951F4
:10598C000A0DF3500201F825D96EF4500201F921E9
:10599C00DA6E04010A51010D320EF324E16E010E90
:1059AC00F420E26EDFCFE7FF04010A2BCFD7BEEC69
:1059BC0043F00001D66F0001D629D8A40AD0ABEC75
:1059CC004CF00001D66F0001D629D8A402D0FF0EEE
:1059DC0012000001D651090D080EF326000EF42218
:1059EC003E0EF324D96E020EF420DA6E000EDF6E3A
:1059FC00040109510A0D050EF326000EF422000EC7
:105A0C00F324D96E030EF420DA6E0001D651090D81
:105A1C003E0EF324E16E020EF420E26EDECFE6FFC2
:105A2C00DDCFE5FF000E04010A6F030E04010A65C9
:105A3C0001D041D004010A51010D010EF326000ED4
:105A4C00F422000E0201F86F030E0201F96FF350FD
:105A5C000201F827F4500201F923040109510A0D3F
:105A6C00F3500201F825D96EF4500201F921DA6ED7
:105A7C0004010A51010D040EF326000EF4223E0E11
:105A8C000201FA6F020E0201FB6FF3500201FA27BA
:105A9C00F4500201FB230001D651090DF350020111
:105AAC00FA25E16EF4500201FB21E26EDFCFE7FF35
:105ABC0004010A2BBAD70001D651090D080EF326A2
:105ACC00000EF4223E0EF324D96E020EF420DA6E90
:105ADC000201DF840001D651090D080EF326000ED9
:105AEC00F4223E0EF324D96E020EF420DA6E02017B
:105AFC00DF820001D651090D080EF326000EF422A8
:105B0C003E0EF324D96E020EF420DA6E0201DF8A07
:105B1C000001D651090D080EF326000EF4223E0E9C
:105B2C00F324D96E020EF420DA6E0201DF80040138
:105B3C0009510A0D000EF324D96E030EF420DA6E0F
:105B4C00DF5069EC4DF00001D651090D3E0EF324E7
:105B5C00D96E020EF420DA6EDECFD9F0DDCFDAF09A
:105B6C000001DD69DE69DD0E0001816F000E0001B0
:105B7C00826FD90E0001836F000E0001846FDEEC82
:105B8C004DF0000E0001D56F0001D551010D530EE3
:105B9C00F324D96E010EF420DA6E010EDF6E0001D3
:105BAC00D52B0001D551010D530EF324D96E010EE6
:105BBC00F420DA6E47C1DFFF0001D52B0001D6516E
:105BCC00090D040EF326000EF4223E0EF324000100
:105BDC00BA6F020EF4200001BB6F010E0001BC6F06
:105BEC006DEC49F0E6EC49F081C000F482C001F4A0
:105BFC0083C002F484C003F44AD0C3EC4DF0000916
:105C0C00D8A4D1EC4DF0E6EC49F081C004F482C08C
:105C1C0005F483C006F484C007F400C4F8F201C490
:105C2C00F9F202C4FAF203C4FBF20201F81FF91FE5
:105C3C00FA1FFB1FF82B000EF923FA23FB23040198
:105C4C0004510201F8250201FC6F04010551020107
:105C5C00F9210201FD6F040106510201FA21020132
:105C6C00FE6F040107510201FB210201FF6F0201CB
:105C7C00FF510BE1210E0201FC5DA10E0201FD5949
:105C8C00070E0201FE59D8A002D0FF0E120000012F
:105C9C00D651090D080EF326000EF4223E0EF32405
:105CAC00D96E020EF420DA6E0201DFA8A6D700012D
:105CBC00D6511200FF0E1200D80E01013C6F020EDD
:105CCC0001013D6F900E0001816F010E0001826F8A
:105CDC00F30E0001836F200E0001846F000E000193
:105CEC00866F030E856FBAEC4AF001013151010148
:105CFC00301101012F111DE13C0E01012E5DD8B0B8
:105D0C0018D0050E0101966F2EC194F1000E010101
:105D1C00976F3CC181F03DC182F021EE90F000EE16
:105D2C0083F0080EDBCFEBFFE806FCE264EC48F0F6
:105D3C00ADD0010131510101301135E1100E0101DD
:105D4C002E5D0E0E01012F59D8B02DD0040E01017D
:105D5C00966F2EC181F02FC182F030C183F031C11A
:105D6C0084F03C0E0001856F000E866F000E876F6D
:105D7C00000E886FE7EC44F0000181510101946F33
:105D8C00000E0101976F3CC181F03DC182F021EE04
:105D9C0090F000EE83F0080EDBCFEBFFE806FCE2A0
:105DAC0064EC48F073D0010131513EE1800E0101E9
:105DBC002E5D510E01012F59010E01013059D8B041
:105DCC0033D0060E0101966F2EC181F02FC182F0E7
:105DDC0030C183F031C184F0100E0001856F0E0EBE
:105DEC00866F000E876F000E886FE7EC44F081C061
:105DFC000FF482C010F4040110510101946F0FC410
:105E0C0095F1000E0101976F3CC181F03DC182F00C
:105E1C0021EE90F000EE83F0080EDBCFEBFFE806EE
:105E2C00FCE2A3EC46F032D0000E0101966F2EC1BD
:105E3C0081F02FC182F030C183F031C184F0800E2B
:105E4C000001856F510E866F010E876F000E886FF3
:105E5C00E7EC44F081C00FF482C010F4040110513F
:105E6C000101946F0FC495F1000E0101976F3CC1B5
:105E7C0081F03DC182F021EE90F000EE83F0080E2F
:105E8C00DBCFEBFFE806FCE2A3EC46F00001D06FA1
:105E9C000001D051010DF35001013C27F4500101D8
:105EAC003D23900E0001816F010E0001826FE30E05
:105EBC000001836F200E0001846F000E0001866FBD
:105ECC00030E856FBAEC4AF0030E0101966F26C1E2
:105EDC0081F027C182F028C183F029C184F0640EBF
:105EEC000001856F000E866F000E876F000E886FA5
:105EFC00ABEC49F081C08DF082C08EF083C08FF086
:105F0C0084C090F02FEC49F08DC096F08EC097F0C5
:105F1C008FC098F001012A510101262500018D6FD7
:105F2C0001012B510101272100018E6F01012C5120
:105F3C000101282100018F6F01012D51010129213F
:105F4C000001906F2FEC49F08DC099F08EC09AF043
:105F5C008FC09BF0F5EC3BF096C00CF497C00DF4A1
:105F6C0098C00EF40CC4AEF00DC4AFF00EC4B0F07B
:105F7C0056EC42F0AEC000F4AFC001F4B0C002F475
:105F8C0000C495F001C496F002C497F09BEC3CF071
:105F9C00000195510101946F0CC4AEF00DC4AFF02B
:105FAC000EC4B0F056EC42F0AEC0B6F0AFC0B7F0D5
:105FBC00B0C0B8F03BEC4DF0B6C003F4B7C004F47D
:105FCC00B8C005F4000E0001BC6FC80E0001BD6F17
:105FDC00420E0001BE6F0CC48CF00DC48DF00EC4CB
:105FEC008EF003C489F004C48AF005C48BF0B9ECBC
:105FFC0031F089C0B9F08AC0BAF08BC0BBF0F4ECB8
:10600C0039F0B9C006F4BAC007F4BBC008F406C432
:10601C00AEF007C4AFF008C4B0F056EC42F0AEC01E
:10602C0009F4AFC00AF4B0C00BF409C495F00AC46B
:10603C0096F00BC497F09BEC3CF0000195510101DC
:10604C00956F000E0101976F3CC181F03DC182F04C
:10605C0021EE90F000EE83F0080EDBCFEBFFE806AC
:10606C00FCE2F1EC46F00001D06F0001D051010DC3
:10607C00F35001013C27F45001013D23D80E0101DE
:10608C00F86F020E0101F96FD80E000801013C25D2
:10609C000101FA6F010E0101FB6F7FEC38F0120069
:1060AC0001017E91020E0001D719D8A4FED0010186
:1060BC007EB333D0E6EC49F081C08CF182C08DF117
:1060CC0083C08EF184C08FF1000E0101816F000E30
:1060DC00806F000E0001CF6F030E0001CF6501D061
:1060EC0017D00001CF51010DA10EF324D96E010E72
:1060FC00F420DA6E0001CF51010D820EF324E16E13
:10610C00010EF420E26EDFCFE7FF0001CF2BE4D7C6
:10611C0001017E8301017E91120001018051010178
:10612C008111D8B412000001DB510101801906E184
:10613C000001DC5101018119D8B412000B0E0001D1
:10614C00D56F0001D551010D530EF324D96E010EFC
:10615C00F420DA6E000EDF6E0001D52B0001D55154
:10616C00010D530EF324D96E010EF420DA6E110ECC
:10617C00DF6E0001D52B000E0001CF6F030E000166
:10618C00CF6501D019D00001CF51010DA10EF32420
:10619C00D96E010EF420DA6E0001D551010D530EAB
:1061AC00F324E16E010EF420E26EDFCFE7FF000175
:1061BC00D52B0001CF2BE2D70001D551010D530E89
:1061CC00F324D96E010EF420DA6EDBC0DFFF000180
:1061DC00D52B0001D551010D530EF324D96E010EB0
:1061EC00F420DA6EDCC0DFFF0001D52B000E0001BD
:1061FC00CF6F030E0001CF6501D017D00001CF5136
:10620C00010D820EF324D96E010EF420DA6E00011A
:10621C00CF51010D320EF324E16E010EF420E26E2B
:10622C00DFCFE7FF0001CF2BE4D780C1DDF081C1C8
:10623C00DEF01EEC48F001017F6F01017F29D8B41C
:10624C0011D001017F51090D080EF326000EF42226
:10625C003E0EF324D96E020EF420DA6EDF500101EB
:10626C00516F08D08C0E0101516F0001DDBF02D0BF
:10627C0001015181D9C03EF1DAC03FF116EC3FF07B
:10628C0001017F6F800E0001CB6F010E0001CC6FFE
:10629C00000E0001CD6F000E0001CE6F11EC2AF044
:1062AC0001017E9301017E811200E6EC49F081C070
:1062BC008CF182C08DF183C08EF184C08FF1000E01
:1062CC000001DE6F000EDD6F0B0E0001D56F0001BB
:1062DC00D551010D530EF324D96E010EF420DA6E54
:1062EC00000EDF6E0001D52B0001D551010D530EB0
:1062FC00F324D96E010EF420DA6E100EDF6E00015D
:10630C00D52B000E0001CF6F030E0001CF6501D01D
:10631C0019D00001CF51010DA10EF324D96E010E3D
:10632C00F420DA6E0001D551010D530EF324E16E09
:10633C00010EF420E26EDFCFE7FF0001D52B000148
:10634C00CF2BE2D7DD0E0001CB6F000E0001CC6F1E
:10635C00000E0001CD6F000E0001CE6F11EC2AF083
:10636C0001017E8312008BC08FF00001906B916B4A
:10637C0000018A3500018F3701E3908100018F51B4
:10638C000001946F8EC08FF00001906B916B000137
:10639C008D3500018F3701E3908100018F51000191
:1063AC00936F000194510001D8B411D000019351A6
:1063BC000001945DD8B012D0000194510008000186
:1063CC00932500018F6F180E00018F6507D08CC0CC
:1063DC0089F08DC08AF08EC08BF0120000019351B1
:1063EC000001D8B411D0000194510001935DD8B0D4
:1063FC0012D00001935100080001942500018F6F09
:10640C00180E00018F6507D089C089F08AC08AF008
:10641C008BC08BF01200060E0001926F00018BAF47
:10642C0002D00001928F00018EAF02D00001928D3C
:10643C0000018A8FFF0E00018917FF0E00018A17D9
:10644C00000E00018B1700018D8FFF0E00018C17C1
:10645C00FF0E00018D17000E00018E1700019351E5
:10646C000001945DD8B025D00001D8908C378D37C1
:10647C008E37000193070001945100019319D8B491
:10648C0011D00001920792C08FF0070E00018F17F8
:10649C00D8B408D0E9D70001D8908B338A3389332C
:1064AC000001942B0001935100019419D8B42BD006
:1064BC00F2D7000194510001935DD8B024D00001B3
:1064CC00D89089378A378B37000194070001945193
:1064DC0000019319D8B411D00001920792C08FF02B
:1064EC00070E00018F17D8B408D0E9D70001D89057
:1064FC008E338D338C330001932B000193510001AB
:10650C009419D8A4F3D7000192AF12D0FF0E00015A
:10651C00891BFF0E00018A1BFF0E00018B1B010E55
:10652C0000018927000E00018A23000E00018B2335
:10653C00000192AD12D0FF0E00018C1BFF0E00016A
:10654C008D1BFF0E00018E1B010E00018C27000E0F
:10655C0000018D23000E00018E23000E0001926FAE
:10656C000001895100018C2700018A5100018D2303
:10657C0000018B5100018E2300018EAF15D0FF0E50
:10658C0000018C1BFF0E00018D1BFF0E00018E1BEA
:10659C00010E00018C27000E00018D23000E00015E
:1065AC008E23010E0001926F8CC081F08DC082F0A1
:1065BC008EC083F094C084F092C085F0C9EC40F09A
:1065CC0081C089F082C08AF083C08BF01200200E4B
:1065DC000001B56502D0000E12000001B0B504D068
:1065EC000001B66BB62B02D00001B66B0001B63BB6
:1065FC00B647B6470001B0510001B619BF0BB6192A
:10660C000001B06F0001B051030BE806D8A402D012
:10661C000001B08FB0C098F245C199F20101452B31
:10662C00020E0001B86F0001B0AD2AD0000E0001BF
:10663C00B96F1AD00001B951010DF3500001B12509
:10664C00D96EF4500001B221DA6E0001B851010D7F
:10665C00980EF324E16E020EF420E26EDFCFE7FF1A
:10666C000001B82B0001B92B3E30E832E8320F0B99
:10667C000001B66F0001B6510001B95DD8A0DAD7A0
:10668C000001B0AF28D0000E0001B96F18D0000186
:10669C00B951010DF3503F24D96EF4504020DA6EFD
:1066AC000001B851010D980EF324E16E020EF42096
:1066BC00E26EDFCFE7FF0001B82B0001B92B3E30B3
:1066CC00E832E8320F0B0001B66F0001B651000141
:1066DC00B95DD8A0DCD70001B0A771D0000E0001C5
:1066EC00B96F030E0001B96501D019D00001B95181
:1066FC00010D220EF324D96E010EF420DA6E000186
:10670C00B851010D980EF324E16E020EF420E26EE6
:10671C00DFCFE7FF0001B82B0001B92BE2D7010E48
:10672C0001012227000E2323242325230001B85125
:10673C00010D980EF324D96E020EF420DA6E000EC1
:10674C00DF6E0001B82BB8C0B7F0000E0001B96FB6
:10675C001AD00001B951010DF3500001B325D96EC7
:10676C00F4500001B421DA6E0001B851010D980EFD
:10677C00F324E16E020EF420E26EDFCFE7FF00019E
:10678C00B82B0001B92B0001B5510001B95DD8A09F
:10679C00E0D7980E0001A56F020E0001A66FB7C0DE
:1067AC00A7F0B5C0A8F0990E0001A96F010E000169
:1067BC00AA6F7CEC3EF0020E0001B82724D0000E2C
:1067CC000001B96F1AD00001B951010DF35000014D
:1067DC00B325D96EF4500001B421DA6E0001B85122
:1067EC00010D980EF324E16E020EF420E26EDFCF61
:1067FC00E7FF0001B82B0001B92B0001B5510001D6
:10680C00B95DD8A0E0D7000E3EB2010E00018B6F2F
:10681C000001B85121EC36F0120081C0D9FF82C0C2
:10682C00DAFFDECF92F0DDCF93F0000120EE02F024
:10683C008151D9268251DA22DECF94F0DDCF95F04A
:10684C00000E0001976F000E966F9E0E0001906F68
:10685C00370E8F6F000E0001916F1F0E00019165B6
:10686C0001D0D4D0030E000196150001856F000EE7
:10687C00000197150001866FD89000018537863787
:10688C000001855100018325D96E0001865100015C
:10689C008421DA6EDECF87F0DDCF88F000019651CF
:1068AC0000018727000197510001882394C089F0CB
:1068BC0095C08AF0050E00018B6F0001D8908A33C9
:1068CC00893300018B2FF9D794C08CF095C08DF0D3
:1068DC0000018C3B8D3BF00E8D178C510F0B8D13E3
:1068EC00F00E8C170001895100018C1B00018A519C
:1068FC0000018D1B0001945100018C270001955162
:10690C0000018D230001875100018C1B000188516F
:10691C0000018D1B00018C510001922700018D514B
:10692C000001932300018F51000196270001905123
:10693C000001972396C085F097C086F00B0E0001DE
:10694C00876F0001D890863385330001872FF9D7E4
:10695C00030E00018517000E8617D89000018537AD
:10696C0086370001855100018325D96E00018651BF
:10697C0000018421DA6EDECF88F0DDCF89F00001D2
:10698C00965100018827000197510001892392C07C
:10699C008AF093C08BF0050E00018C6F0001D8902B
:1069AC008B338A3300018C2FF9D792C08DF093C0B2
:1069BC008EF000018D3B8E3BF00E8E178D510F0B20
:1069CC008E13F00E8D1700018A5100018D1B0001F2
:1069DC008B5100018E1B0001925100018D2700018B
:1069EC00935100018E230001885100018D1B000181
:1069FC00895100018E1B00018D510001942700016B
:106A0C008E51000195230001912B27D781C0D9FF0E
:106A1C0082C0DAFF92C0DEFF93C0DDFF000120EEE2
:106A2C0002F08151D9268251DA2294C0DEFF95C042
:106A3C00DDFF12000101F26F010E0101E66F000E85
:106A4C00E76F000EE86F000EE96FA9C1F3F1000EBD
:106A5C000101F46F070E0101F46501D00ED00101A4
:106A6C00F4510A0D000EF324D96E030EF420DA6EE5
:106A7C00FF0EDF6E0101F42BEDD7000E0001D46F79
:106A8C0001013881000E0101F46FC8D0F4C1DDF1B1
:106A9C00E6C1DEF1E7C1DFF1E8C1E0F1E9C1E1F106
:106AAC000101DD2B06D0D8900101DE37DF37E0374E
:106ABC00E1370101DD2FF7D70001CB510101DE15C4
:106ACC000101E26F0001CC510101DF150101E36FFF
:106ADC000001CD510101E0150101E46F0001CE511F
:106AEC000101E1150101E56F0101E2510101E31121
:106AFC000101E4110101E511D8B48ED00101F4516A
:106B0C0069EC4DF0000E0001D56F0001D551010D5F
:106B1C00530EF324D96E010EF420DA6E070EDF6EDD
:106B2C000001D52B0001D551010D530EF324D96E64
:106B3C00010EF420DA6EA9C1DFFF0001D52B000E87
:106B4C000001BA6F000E0001BB6F010E0001BC6F9B
:106B5C006DEC49F0E6EC49F081C0EAF182C0EBF152
:106B6C0083C0ECF184C0EDF1C3EC4DF00009D8A466
:106B7C00D1EC4DF0E6EC49F081C0EEF182C0EFF1C2
:106B8C0083C0F0F184C0F1F1EAC1DDF1EBC1DEF1BB
:106B9C00ECC1DFF1EDC1E0F10101DD1FDE1FDF1FF4
:106BAC00E01FDD2B000EDE23DF23E0230101EE517D
:106BBC000101DD250101E16F0101EF510101DE2130
:106BCC000101E26F0101F0510101DF210101E36FCD
:106BDC000101F1510101E0210101E46F0101F251C8
:106BEC00040D350EF324F66E200EF420F76EF86AC1
:106BFC00000EF8220101E1510900F55C0101E2519E
:106C0C000900F5580101E3510900F5580101E4515F
:106C1C000900F558D8B0A8D70101F42B1F0E0101BB
:106C2C00F46534D70101F35169EC4DF00101389151
:106C3C000001D45112000001A06F030E00019D6FE2
:106C4C00BFD0000E00019E6F000E446E000E0001BE
:106C5C009C6F00018B510001D8B419D0280E7BEC2D
:106C6C004BF00001A26F0001D890A2310001A26F7D
:106C7C00410E0001A2650BD000019C2B9C0500016C
:106C8C008C6F040E00018C65E9D7000E1200F2988F
:106C9C00F096200E3FEC47F01A0E0001846FC90EDF
:106CAC00836F23EC4CF00001A0518AEC4CF0000EE9
:106CBC000001A16F0ED00001A151010D980EF3241B
:106CCC00D96E020EF420DA6EDF508AEC4CF0000123
:106CDC00A12B0001A0510001A15DD8A0ECD7800E22
:106CEC003FEC47F0F288F0864250D8B4F0B001D0B7
:106CFC00FBD7000E426E200E3FEC47F0600E3FECCF
:106D0C0047F0020198AB5AD099C24CF1E6EC49F02D
:106D1C0081C094F082C095F083C096F084C097F047
:106D2C004450D8A44BD0E6EC49F081C098F082C016
:106D3C0099F083C09AF084C09BF094C08CF095C0FD
:106D4C008DF096C08EF097C08FF000018C1F8D1FB8
:106D5C008E1F8F1F8C2B000E8D238E238F230001F3
:106D6C00985100018C250001906F00019951000190
:106D7C008D210001916F00019A5100018E210001BB
:106D8C00926F00019B5100018F210001936F000154
:106D9C0093510001921108E1A90E0001905D610E62
:106DAC0000019159D8A0BCD700019E2B9E05000173
:106DBC008C6F040E00018C6103D046D7010E07D0F6
:106DCC0000019D0700019D29D8A43BD7000E0001AE
:106DDC009F6F00019F5112000001986F0001DB6949
:106DEC00DC69130E0001DA6F370ED96F000E00014B
:106DFC009C6F090E00019C6501D012D000019C51C2
:106E0C00090D080EF326000EF4223E0EF324D96E63
:106E1C00020EF420DA6E000EDF6E00019C2BE9D717
:106E2C00000E00019C6F070E00019C6501D019D06B
:106E3C0000019C51010D120EF324D96E010EF420A9
:106E4C00DA6E000EDF6E00019C51010D0A0EF32468
:106E5C00D96E010EF420DA6E000EDF6E00019C2B51
:106E6C00E2D7000E456E000E0001D76F000E010137
:106E7C00396F000E386F000E01017E6F000E01019C
:106E8C00476FAFEC4DF0000E0001D56F000E000106
:106E9C009C6F090E00019C6501D010D000019C5123
:106EAC00040D500EF324D96E030EF420DA6EDE6A54
:106EBC00DE6ADE6ADD6A00019C2BEBD7000E000156
:106ECC00996F00019951870B2009996F00019983E3
:106EDC00000198B103D00001999502D00001998569
:106EEC00A10E00019A6F010E00019B6F99C093F0E7
:106EFC009AC094F09BC095F03DEC3DF0DB0E000188
:106F0C00816F000E0001826FD90E0001836F000E9D
:106F1C000001846FDEEC4DF00101A95169EC4DF0DC
:106F2C00010147810101478741C097F00001973B60
:106F3C000101475100019719CF0B97190101476FB8
:106F4C000101478DD7C097F00001974701014751C8
:106F5C0000019719F90B97190101476FCECF48F132
:106F6C00F090F086120040C1F8F241C1F9F20B0E1C
:106F7C000001D56F0001D551010D530EF324D96ECC
:106F8C00010EF420DA6E020EDF6E0001D52B00012B
:106F9C00D551010D530EF3240001816F010EF42025
:106FAC000001826FF8C183F0F9C184F0000E00017A
:106FBC00866F040E856FBAEC4AF00001D551040FB0
:106FCC000001D56F0001D551010D530EF324D96E7C
:106FDC00010EF420DA6EFAC1DFFF0001D52BF80E9A
:106FEC000001CB6F020E0001CC6F000E0001CD6FC3
:106FFC00000E0001CE6F11EC2AF00201FC6F0201B1
:10700C00FC510201D8A409D0010E01012627000E63
:10701C00272328232923000E1200000E0201FC6FE7
:10702C00000E0201FB6F000EFA6F0201FB514AE1E8
:10703C00640E0201FA5DD8B045D01A0E0001CF6F74
:10704C00F80EE82EFED7CF2FFCD700D0C3EC4DF0B6
:10705C000009D8B433D008C14EF105C1D9FF06C11F
:10706C00DAFF020EDE18D8B403D0D1EC4DF026D0E6
:10707C00010120EE01F00551D9260651DA22DE2855
:10708C00D8A402D0010E01D0000E0201FC6F010148
:10709C0020EE02F00551D9260651DA22DF5001010B
:1070AC001C6F010120EE03F00551D9260651DA229E
:1070BC00DF500101206FD1EC4DF004D00201FA4BEE
:1070CC00FB2BB3D70201FC510201D8A408D0010E4E
:1070DC0001012627000E27232823292307D0010E80
:1070EC0001012A27000E2B232C232D230201FC51F6
:1070FC00120042C1F8F243C1F9F20B0E0001D56F38
:10710C000001D551010D530EF324D96E010EF4205C
:10711C00DA6E040EDF6E0001D52B0101FB5101016B
:10712C00D8B40ED00001D551010D530EF324D96EF5
:10713C00010EF420DA6EFF0E0DD00001D52B0CD011
:10714C000001D551010D530EF324D96E010EF4201C
:10715C00DA6EF00EDF6EF1D70001D551010D530E32
:10716C00F3240001816F010EF4200001826FF8C13D
:10717C0083F0F9C184F0FAC185F00001866BBAEC9A
:10718C004AF00001D5510101FA250001D56FF80E26
:10719C000001CB6F020E0001CC6F000E0001CD6F11
:1071AC00010E0001CE6F11EC2AF00201FC6F0201FE
:1071BC00FC510201D8A409D0010E01012627000EB2
:1071CC00272328232923000E12000101FB51010162
:1071DC00D8B44AD0000E0201FC6F000E0201FB6F06
:1071EC00000EFA6F0201FB5128E1640E0201FA5DF8
:1071FC00D8B023D01A0E0001CF6FF80EE82EFED7B0
:10720C00CF2FFCD700D0C3EC4DF00009D8B411D06F
:10721C0008C14EF105C1D9FF06C1DAFF040EDE1814
:10722C00D8B403D0D1EC4DF008D0010E0201FC6FA4
:10723C0004D00201FA4BFB2BD5D70201FC51020101
:10724C00D8A408D0010E01012627000E27232823DD
:10725C00292307D0010E01012A27000E2B232C23F2
:10726C002D230201FC511200010E01012A27000EF0
:10727C002B232C232D23010E12000201F96F0B0E70
:10728C000001D56F0001D551010D530EF324D96EB9
:10729C00010EF420DA6E010EDF6E0001D52B000119
:1072AC00D551010D530EF324D96E010EF420DA6E74
:1072BC00F9C2DFFF0001D52B0001DB51D8A40DD0A2
:1072CC000001DC51D8A402D0000E1200000E020105
:1072DC00FD6F000E0201FE6F05D0000E0201FD6F66
:1072EC00DCC0FEF2FD0E0001CB6F020E0001CC6F74
:1072FC00000E0001CD6F010E0001CE6F11EC2AF0D3
:10730C000201F86F0201F8510201D8A409D0010E54
:10731C0001012627000E272328232923000E120003
:10732C00000E0201FC6F000E0201FB6F000EFA6FE3
:10733C000201FB513CE1640E0201FA5DD8B037D07A
:10734C001A0E0001CF6FF80EE82EFED7CF2FFCD708
:10735C0000D0C3EC4DF00009D8B425D008C14EF1D3
:10736C0005C1D9FF06C1DAFFDE04D8A40CD0010197
:10737C0020EE01F00551D9260651DA220201F9510D
:10738C00DE18D8B403D0D1EC4DF00DD0010120EEB5
:10739C0002F00551D9260651DA22DF500201FC6FAA
:1073AC00D1EC4DF004D00201FA4BFB2BC1D70201FA
:1073BC00FC510201D8A408D0010E01012627000EB1
:1073CC0027232823292307D0010E01012A27000E89
:1073DC002B232C232D230201FC511200BBC0BFF028
:1073EC000001C06BC16B0001BA350001BF3701E36E
:1073FC00C0810001BF510001C26F0001C251D8A46D
:10740C000AD0000E0001B96F000E0001BA6F000E19
:10741C000001BB6F1200BEC0BFF00001C06BC16B9E
:10742C000001BD350001BF3701E3C0810001BF5130
:10743C000001C76F0001C751D8A40AD0000E00018B
:10744C00B96F000E0001BA6F000E0001BB6F120085
:10745C000001C7517B0F0001C227BBC0C7F0000160
:10746C00BE510001C71B800E0001C7170001BA8F67
:10747C000001BD8FFF0E0001BC17FF0E0001BD17F0
:10748C00000E0001BE17000E0001C36F000E0001BC
:10749C00C46F000E0001C56F070E0001C66F00011E
:1074AC00B9A10CD00001BC510001C3270001BD5192
:1074BC000001C4230001BE510001C5230001D89076
:1074CC00BB33BA33B9330001D890BC37BD37BE37A4
:1074DC000001C62FE4D7090E0001C66F0001B9A147
:1074EC000CD00001BC510001C3270001BD510001AB
:1074FC00C4230001BE510001C5230001D890BB3349
:10750C00BA33B9330001D890C533C433C333000147
:10751C00C62FE4D7C3C081F0C4C082F0C5C083F0CD
:10752C00C2C084F0C7C085F0C9EC40F081C0B9F08E
:10753C0082C0BAF083C0BBF01200000E0001B36F22
:10754C00020E0001B36501D02DD00001A75100013E
:10755C00B35DD8A006D0000E0001B26F000EB16F63
:10756C0013D00001B351010DF3500001A525D96EC4
:10757C00F4500001A621DA6EDF500001AB6F000160
:10758C00AB510001B16FB26B0001B351010DA50EEF
:10759C00F324D96E010EF420DA6EB1C0DFFF0001C6
:1075AC00B32BCED70001A751010DF3500001A52537
:1075BC000001986FF4500001A6210001996FA8C03A
:1075CC009AF0A9C09BF0AAC09CF0A50E00019D6F7B
:1075DC00010E00019E6F39EC40F0A5C098F0A6C0DA
:1075EC0099F00001A7510001A825FE0F00019A6F28
:1075FC00A9C09BF0AAC09CF0A50E00019D6F010EC6
:10760C0000019E6F4FEC41F0000E0001B36F010EB4
:10761C000001B36501D03AD0FE0E0001AB6FFF0E36
:10762C000001AC6F0001A851A7C0ADF00001AE6B1A
:10763C000001AD27000EAE230001B3510001AD27B0
:10764C00000EAE230001AB510001AD270001AC517F
:10765C000001AE230001AD510001A525D96E00013A
:10766C00AE510001A621DA6E0001B351010DA50E39
:10767C00F324E16E010EF420E26EDE50E618D8B46D
:10768C0002D0000E12000001B32BC1D7010E120064
:10769C00336E030E316E9CD0000E326E000E446EB3
:1076AC00000E306E1E50D8B411D0280E68EC4CF081
:1076BC00356ED8903530356E410E356407D0302A92
:1076CC0030041F6E040E1F64F0D71200F298F0966F
:1076DC00200EA9EC48F01A0E176EC90E166EE8ECC7
:1076EC004CF0335020EC4DF0000E346E0CD0345076
:1076FC00010D980EF324D96E020EF420DA6EDF50D1
:10770C0020EC4DF0342A3350345CD8A0F0D7800EE6
:10771C00A9EC48F0F288F0864250D8B4F0B001D011
:10772C00FBD7000E426E200EA9EC48F0600EA9ECBF
:10773C0048F0020198AB49D099C24CF1A7EC4BF040
:10774C0014C027F015C028F016C029F017C02AF075
:10775C004450D8B403D0010E2F6E1200A7EC4BF09E
:10776C0014C02BF015C02CF016C02DF017C02EF045
:10777C0027C01FF028C020F029C021F02AC022F019
:10778C001F1E201E211E221E1F2A000E2022212217
:10779C0022222B501F24236E2C502020246E2D507F
:1077AC002120256E2E502220266E2650251006E113
:1077BC00A90E235C610E2458D8A0CAD7322A3204F1
:1077CC001F6E040E1F6004D069D7010E2F6E1200BD
:1077DC0031063128D8A460D7000E2F6E120098C045
:1077EC009CF000019D6B9E6B0001973500019C374E
:1077FC0001E39D8100019C510001A36F0001A35185
:10780C00D8A40AD0000E0001966F000E0001976FED
:10781C00000E0001986F12009BC09CF000019D6B44
:10782C009E6B00019A3500019C3701E39D8100019C
:10783C009C510001A46F0001A451D8A40AD0000EE1
:10784C000001966F000E0001976F000E0001986FFB
:10785C001200000E0001A06F000E0001A16F000EBF
:10786C000001A26F0001A451890F0001A35F98C011
:10787C00A4F000019B510001A41B800E0001A41771
:10788C000001978FFF0E00019617FF0E000197174E
:10789C00000E0001981700019A8FFF0E0001991736
:1078AC00FF0E00019A17000E00019B17180E000125
:1078BC009F6F0001D890A037A137A23700019951D2
:1078CC000001965D00019A510001975900019B51EE
:1078DC0000019859D8A00ED0000199510001965F73
