:040000007BEF00F0A2
:0E0008004982FACF95F0FBCF96F096EFB4F058
:100018004980D8CF15F0E8CF16F0E0CF17F0FACF27
:1000280018F0FBCF19F0E9CF1AF0EACF1BF0E1CFB7
:100038001CF0E2CF1DF0D9CF1EF0DACF1FF0F3CFBE
:1000480020F0F4CF21F0F6CF22F0F7CF23F0F8CF4D
:1000580024F0F5CF25F0A4A026D033C109F034C18F
:100068000AF035C10BF0FA0E0C6E2F0E0D6E3A0E1B
:100078000E6EC8EC9FF009C033F10AC034F10BC012
:1000880035F14804486E4850D8A40CD0010E01013F
:100098004D6F0101FF51D8A403D0010E486E02D064
:1000A800FFC148F0A49025C0F5FF24C0F8FF23C085
:1000B800F7FF22C0F6FF21C0F4FF20C0F3FF1FC0E6
:1000C800DAFF1EC0D9FF1DC0E2FF1CC0E1FF1BC044
:1000D800EAFF1AC0E9FF19C0FBFF18C0FAFF17C0F2
:1000E800E0FF16C0E8FF15C0D8FF49901000F1EFF7
:0200F800B2F064
:10FEF2000036008402090409060C08C10A7D0C645C
:10FF02000E14100012001400163818C81A0D1C0026
:10FF12001E72203822382407260028002A692C81E4
:10FF22002E7E309632F03488364038003AE83C0073
:10FF32003EC0030000A005000060090000E01000C0
:10FF420000E01F0000E03D0000E0790000E0F10069
:10FF520000E0E10100E0C10300E0810700E0010FE1
:10FF620000E0011E00443D1B000DB415004F4F4F31
:10FF72004F4F4F4F4F4F4F4F4F4F4F4F4F4F4F4F8F
:10FF82004F4F4F50505050505050505050222426F6
:10FF9200282A2C2E30323437393B3D3F41434547E6
:10FFA2004A4C4E0507090B0D0F11141618312E324B
:10FFB200356D5700302E31356D5700322E356D5765
:10FFC20000302E306D5700302E366D5700302E33F4
:10FFD2006D570031306D570032306D570056426117
:10FFE20000466C4D004C69740050777200546D707D
:0EFFF20000356D5700557046005570740000C4
:020000040001F9
:10000000EDEC8FF00009D8B483EF85F0010138B52D
:100010001200000E01010C6F010116A504D00101B0
:10002000D16BD12B02D00101D16B01010C51010127
:10003000D119FC0BD11901010C6F010116A703D0D6
:1000400001010C8702D001010C9701011651030B2D
:10005000E806D8A404D00101D16BD12B02D0010154
:10006000D16B0101D13BD14701010C510101D119E3
:10007000DF0BD11901010C6F010116AF03D0010193
:100080000C8D02D001010C9D010116AF06D00101BB
:100090000C8F17C10FF118C110F11DC115F11CC152
:1000A00014F10101389572EF85F00A0E01011B6110
:1000B00002D07FEF85F0010120EE02F01951D92620
:1000C0001A51DA22DF500101E26F010120EE03F044
:1000D0001951D9261A51DA22DF500101E36F0101CB
:1000E00020EE04F01951D9261A51DA22DF5001010D
:1000F000E46F010120EE05F01951D9261A51DA22D8
:10010000DF500101E56F010120EE06F01951D926FB
:100110001A51DA22DF500101E96F010120EE07F0E8
:100120001951D9261A51DA22DF500101EA6F010173
:1001300020EE08F01951D9261A51DA22DF500101B8
:10014000EB6F010120EE09F01951D9261A51DA227C
:10015000DF500101EC6F000E01010C6F010116A7C9
:1001600003D001010C8702D001010C9701010C5151
:10017000030B0009D8A407D00101E42903E1010120
:10018000E529D8A4D4D0010185510101EB1912E170
:10019000010186510101EC19D8A40CD00101835151
:1001A0000101E91907E1010184510101EA19D8B4FB
:1001B0007FEF85F0000E0101ED6F030E0101ED658B
:1001C00001D03DD00101ED51080D030EF326000EC4
:1001D000F422260EF324D96E000EF420DA6EDF50DE
:1001E000D8B42AD00101ED51080D260EF324D96EA2
:1001F000000EF420DA6E0101EB51DE181DE1010161
:10020000EC51DE18D8A418D0010120EE0AF01951E3
:10021000D9261A51DA220101ED51080D020EF326FA
:10022000000EF422260EF324E16E000EF420E26E9E
:10023000DE50E618D8B403D00101ED2BBED7040E72
:100240000101ED6102D07FEF85F0000E0101ED6F3D
:10025000030E0101ED6501D013D00101ED51080D30
:10026000030EF326000EF422260EF324D96E000EA0
:10027000F420DA6EDF50D8B403D00101ED2BE8D7BB
:10028000040E0101ED614DD00101ED51080D260E66
:10029000F324D96E000EF420DA6EEBC1DEFFECC160
:1002A000DDFF010120EE0AF01951D9261A51DA2298
:1002B0000101ED51080D020EF326000EF422260E68
:1002C000F324E16E000EF420E26EDFCFE7FF0101C0
:1002D000ED51080D030EF326000EF422260EF32432
:1002E000D96E000EF420DA6E030EDF6E22ECB4F04D
:1002F0000101ED51080D040EF326000EF422260E26
:10030000F324D96E000EF420DA6E01018AC1DEFFFB
:1003100001018BC1DEFF01018CC1DEFF01018DC136
:10032000DEFF01010C51FC0B01090C6F6ED00101C5
:1003300083510101E21905E1010184510101E31931
:10034000D8A4DDD3010185510101E41905E10101C2
:1003500086510101E519D8A4D2D3010120EE01F0A4
:100360001951D9261A51DA220101DFA44ED0FEC15B
:100370004EF1020E01014F6FE9C150F1EAC151F196
:10038000EBC152F1ECC153F183C154F184C155F179
:1003900085C156F186C157F1010120EE0AF01951CD
:1003A000D9261A51DA22DF500101586F000E0101DF
:1003B000596F300E01015A6F0D0E0101466F000E8C
:1003C00001012A6F01012A8B01014C51090D040E14
:1003D000F326000EF422460EF32401012B6F020EC9
:1003E000F42001012C6F2AC1B9F12BC1BAF12CC143
:1003F000BBF14E0E0101BC6F010E0101BD6F46C184
:10040000BEF1D3EC9AF001010C85010120EE0BF056
:100410001951D9261A51DA22DF50D8A4B8D00101D7
:1004200020EE0CF01951D9261A51DA22300EDE18BE
:10043000D8A487D092D0000E0101E86F030E01010D
:10044000E86501D022D00101E8510101D16FD26BE2
:100450000D0E0101D127000ED2230101D15101015E
:100460001925D96E0101D25101011A21DA6E01015B
:10047000E851010D260EF324E16E010EF420E26E28
:10048000DFCFE7FF0101E82BD9D78D0E0001BD6F4B
:10049000010120EE11F01951D9261A51DA22010179
:1004A000DFAE02D00001BD91010120EE11F0195123
:1004B000D9261A51DA22DF500101876F010120EE9F
:1004C00012F01951D9261A51DA22DF500101886F32
:1004D00083C13CF184C13DF1ABECB2F00101016F8D
:1004E00001010129D8B415D001010151090D080EEF
:1004F000F326000EF422460EF324D96E020EF420E9
:10050000DA6EDF500001BD6F0001BD850001BD87BF
:1005100008D08D0E0001BD6F010187AF02D0000130
:10052000BD9150ECA9F00101016F01010129D8B47E
:1005300003D00101008102D001010091010100936B
:10054000DED2010120EE0CF01951D9261A51DA221F
:10055000DF50110AD8B46FD7D2D2010120EE0AF0D1
:100560001951D9261A51DA220101FD51DE18D8A4F9
:10057000C6D2010136510101EB1905E101013751E4
:100580000101EC19D8A4BBD201013897B8D20101FE
:100590001B51F50F0101136F0B0E0101192501010C
:1005A000116F000E01011A210101126FE9C10DF155
:1005B000EAC10EF1010120EE08F01951D9261A51B5
:1005C000DA22DE28D8A412D0010120EE09F0195158
:1005D000D9261A51DA22DE28D8A408D0010116AF94
:1005E00005D017C10FF118C110F10CD001010C8F0B
:1005F000080E0101192501010F6F000E01011A21DA
:100600000101106F01010C8D01011351D8B477D293
:100610000101388574D2040E0101E66F0101E65133
:100620000101D16FD26B040E0101D127000ED2233C
:100630000101D15101011925D96E0101D2510101E8
:100640001A21DA6E4D0EDE18D8B418D00101E65129
:100650000101D16FD26B040E0101D127000ED2230C
:100660000101D15101011925D96E0101D2510101B8
:100670001A21DA6E5D0EDE18D8A441D2010138A12C
:100680003ED219C1D9FF1AC1DAFFDF5001013C6F18
:10069000010120EE01F01951D9261A51DA22DF505A
:1006A00001013D6F010120EE02F01951D9261A51C6
:1006B000DA22DF500101876F010120EE03F01951AA
:1006C000D9261A51DA22DF500101886F0101E65163
:1006D000010DF35001011925D96EF45001011A21C1
:1006E000DA6EDE28D8A40BD20101E6510101D16FE8
:1006F000D26B010E0101D127000ED2230101D1518D
:1007000001011925D96E0101D25101011A21DA6EB8
:10071000DF500101E76F080E01014261F0D10101D4
:10072000E739030B0101D16F020E0101D161E7D15D
:10073000010142510A0D000EF324D96E030EF4207C
:10074000DA6E89C1DFFF010142510A0D070EF3265F
:10075000000EF422000EF324D96E030EF420DA6E9C
:1007600014C1DFFF010142510A0D080EF326000EED
:10077000F422000EF324D96E030EF420DA6E15C1B4
:10078000DFFF010142510A0D050EF326000EF4228F
:10079000000EF324D96E030EF420DA6E3CC1DEFFA6
:1007A0003DC1DDFF010142510A0D090EF326000E85
:1007B000F422000EF324D96E030EF420DA6E000E3C
:1007C000DF6E010142510A0D090EF326000EF422DC
:1007D000000EF324D96E030EF420DA6E0301DF8CD1
:1007E0000101E731030B0101D16F010142510A0DF3
:1007F000090EF326000EF422000EF324D96E030E28
:10080000F420DA6E0301DF500101D119FC0BD1197C
:100810000301DF6E0101E7A70FD0010142510A0D6C
:10082000090EF326000EF422000EF324D96E030EF7
:10083000F420DA6E0301DF860101E739030B0101C1
:10084000D16F020E0101D1610FD0010142510A0D99
:10085000090EF326000EF422000EF324D96E030EC7
:10086000F420DA6E0301DF8A000E0101ED6F030E42
:100870000101ED6501D02ED00101ED51010DF350C4
:1008800001010F25D96EF45001011021DA6E01012A
:10089000ED51010D010EF326000EF422000E0101B0
:1008A000D16F030E0101D26FF3500101D127F45033
:1008B0000101D223010142510A0DF3500101D1255A
:1008C000E16EF4500101D221E26EDFCFE7FF0101BA
:1008D000ED2BCDD70101422B12D1010120EE03F007
:1008E0001951D9261A51DA22DF50D8A46CD001014F
:1008F00020EE01F01951D9261A51DA22DF500101F8
:10090000856F010120EE02F01951D9261A51DA2221
:10091000DF500101866F850E01018A6F010E010112
:100920008B6F830E01018C6F010E01018D6FF4EC52
:10093000B7F001013883BF0E0001BD6F000E010149
:10094000ED6F030E0101ED6501D019D00101ED51EC
:10095000010DF35001011725D96EF4500101182142
:10096000DA6E0101ED51010D260EF324E16E010E48
:10097000F420E26EDFCFE7FF0101ED2BE2D70101AA
:100980008551D8A405D0000E0101886F000E04D057
:1009900086C188F1000E0101876F83C13CF184C1DB
:1009A0003DF150ECA9F001014C6F01014C51040DD7
:1009B000000EF324D96E020EF420DA6EDE6ADE6ACF
:1009C000DE6ADD6A9CD001014C690101836984699A
:1009D000010187698869870E01018A6F010E010193
:1009E0008B6F830E01018C6F010E01018D6FF4EC92
:1009F000B7F085D0000E0101ED6F030E0101ED652A
:100A000001D019D00101ED51010DF350010117255D
:100A1000D96EF45001011821DA6E0101ED51010D7A
:100A2000260EF324E16E010EF420E26EDFCFE7FF25
:100A30000101ED2BE2D77BECADF00101DD6F01018F
:100A4000DD29D8B45CD00101DD51090D080EF32673
:100A5000000EF422460EF324D96E020EF420DA6E54
:100A60000201DFAA4CD0000E0101ED6F090E010159
:100A7000ED6501D012D00101ED51090D080EF326EC
:100A8000000EF422460EF324D96E020EF420DA6E24
:100A9000000EDF6E0101ED2BE9D701014C69010168
:100AA00085698669010183698469850E01018A6F00
:100AB000010E01018B6F830E01018C6F010E01018C
:100AC0008D6FF4ECB7F00101389319D019C1D9FF3B
:100AD0001AC1DAFFDF50020AD8B4FFD6010AD8B42F
:100AE00089D70DD001011651030B000AD8B455EF78
:100AF00080F0010AD8B4EAD7020AD8B48CD5010133
:100B000038A54EECB7F022ECB4F08AC1DEF18BC10F
:100B1000DFF18CC1E0F18DC1E1F1000E0101ED6F5B
:100B2000030E0101ED6501D067D00101ED51080D03
:100B3000030EF326000EF422260EF324D96E000EC7
:100B4000F420DA6EDF50D8B454D00101ED51080D15
:100B5000040EF326000EF422260EF324D96E000EA6
:100B6000F420DA6EDECFD1F1DECFD2F1DECFD3F1D9
:100B7000DECFD4F10101D11FD21FD31FD41FD12B3F
:100B8000000ED223D323D4230101DE510101D1254C
:100B90000101D56F0101DF510101D2210101D66FA1
:100BA0000101E0510101D3210101D76F0101E151A0
:100BB0000101D4210101D86F0101D8510BE1210EAF
:100BC0000101D55DA10E0101D659070E0101D759CA
:100BD000D8A00FD00101ED51080D030EF326000E31
:100BE000F422260EF324D96E000EF420DA6E000EE5
:100BF000DF6E0101ED2B94D7010100A3120001016A
:100C000000B1120008C1D1F109C1D2F10AC1D3F17A
:100C10000BC1D4F10101D11FD21FD31FD41FD12B7F
:100C2000000ED223D323D4230101DE510101D125AB
:100C30000101D96F0101DF510101D2210101DA6FF8
:100C40000101E0510101D3210101DB6F0101E151FB
:100C50000101D4210101DC6F0101DC510BE1610EC6
:100C60000101D95DE30E0101DA59160E0101DB59CC
:100C7000D8A01200010100931200E00E01013A6FAA
:100C8000020E01013B6F790E01018A6F010E010115
:100C90008B6FDF0E01018C6FFF0E01018D6F000E57
:100CA00001018F6F030E8E6F34ECB5F0020E01015F
:100CB0007F6F2DC1C7F12EC1C8F12FC1C9F10CEC56
:100CC000ACF0C7C1F3F3C8C1F4F3C9C1F5F3F3C382
:100CD000AEF1F4C3AFF1F5C3B0F1AEECA5F0010194
:100CE000AE5101017D6F2DC1C7F12EC1C8F12FC1D9
:100CF000C9F10CECACF0C7C1CFF1C8C1D0F1C9C18A
:100D0000D1F10BECB7F0CFC1F6F3D0C1F7F3D1C1FD
:100D1000F8F3000E0101D56FC80E0101D66F420E27
:100D20000101D76F2DC195F12EC196F12FC197F119
:100D3000F6C392F1F7C393F1F8C394F19FEC99F0E5
:100D400092C1D2F193C1D3F194C1D4F1AEECA3F02E
:100D5000D2C1F9F3D3C1FAF3D4C1FBF3F9C3C7F19C
:100D6000FAC3C8F1FBC3C9F10CECACF0C7C1FCF38A
:100D7000C8C1FDF3C9C1FEF3FCC3AEF1FDC3AFF1C1
:100D8000FEC3B0F1AEECA5F00101AE5101017E6FE2
:100D9000000E0101806F3AC18AF13BC18BF121EE57
:100DA00079F001EE8CF0090EDBCFEBFFE806FCE2F8
:100DB00067ECAFF00101FB6F0101FB51010DF35036
:100DC00001013A27F45001013B23790E01018A6F9A
:100DD000010E01018B6FE70E01018C6FFF0E010107
:100DE0008D6F000E01018F6F030E8E6F34ECB5F026
:100DF000030E01017F6F49C17DF1000E0101806F7B
:100E00003AC18AF13BC18BF121EE79F001EE8CF011
:100E1000090EDBCFEBFFE806FCE229ECB1F00101A3
:100E2000FB6F0101FB51010DF35001013A27F45012
:100E300001013B23790E01018A6F010E01018B6FC5
:100E4000EF0E01018C6FFF0E01018D6F000E01018D
:100E50008F6F030E8E6F34ECB5F0010E01017F6FC2
:100E600030C1C7F131C1C8F132C1C9F10CECACF0ED
:100E7000C7C1F3F3C8C1F4F3C9C1F5F3F3C3AEF1CD
:100E8000F4C3AFF1F5C3B0F1AEECA5F00101AE5182
:100E900001017D6F30C1C7F131C1C8F132C1C9F163
:100EA0000CECACF0C7C1CFF1C8C1D0F1C9C1D1F1D0
:100EB0000BECB7F0CFC1F6F3D0C1F7F3D1C1F8F323
:100EC000000E0101D56FC80E0101D66F420E01015F
:100ED000D76F30C195F131C196F132C197F1F6C3A8
:100EE00092F1F7C393F1F8C394F19FEC99F092C19A
:100EF000D2F193C1D3F194C1D4F1AEECA3F0D2C13D
:100F0000F9F3D3C1FAF3D4C1FBF3F9C3C7F1FAC3C0
:100F1000C8F1FBC3C9F10CECACF0C7C1FCF3C8C10C
:100F2000FDF3C9C1FEF3FCC3AEF1FDC3AFF1FEC3D7
:100F3000B0F1AEECA5F00101AE5101017E6F000EE3
:100F40000101806F3AC18AF13BC18BF121EE79F04A
:100F500001EE8CF0090EDBCFEBFFE806FCE267EC5C
:100F6000AFF00101FB6F0101FB51010DF3500101D5
:100F70003A27F45001013B23E00E0301E76F020E14
:100F80000301E86FE00E000801013A250301E96F53
:100F9000000E0301EA6F39ECA2F00009D8A402D0D8
:100FA000000E1200E00E01013A6F020E01013B6FCC
:100FB000790E01018A6F010E01018B6FEB0E0101A9
:100FC0008C6FFF0E01018D6F000E01018F6F030EFC
:100FD0008E6F34ECB5F0080E01017F6F7D0E0101BC
:100FE0008A6F010E01018B6F7E0E01018C6F010E65
:100FF00001018D6F01014A512AECA8F0010E010197
:10100000806F3AC18AF13BC18BF121EE79F001EE9C
:101010008CF0090EDBCFEBFFE806FCE267ECAFF0EB
:101020000101FB6F0101FB51010DF35001013A2752
:10103000F45001013B23790E01018A6F010E010179
:101040008B6FFB0E01018C6FFF0E01018D6F000E87
:1010500001018F6F030E8E6F34ECB5F0070E0101A6
:101060007F6F33C1C7F134C1C8F135C1C9F10CEC90
:10107000ACF0C7C1F3F3C8C1F4F3C9C1F5F3F3C3CE
:10108000AEF1F4C3AFF1F5C3B0F1AEECA5F00101E0
:10109000AE5101017D6F33C1C7F134C1C8F135C113
:1010A000C9F10CECACF0C7C1CFF1C8C1D0F1C9C1D6
:1010B000D1F10BECB7F0CFC1F6F3D0C1F7F3D1C14A
:1010C000F8F3000E0101D56FC80E0101D66F420E74
:1010D0000101D76F33C195F134C196F135C197F154
:1010E000F6C392F1F7C393F1F8C394F19FEC99F032
:1010F00092C1D2F193C1D3F194C1D4F1AEECA3F07B
:10110000D2C1F9F3D3C1FAF3D4C1FBF3F9C3C7F1E8
:10111000FAC3C8F1FBC3C9F10CECACF0C7C1FCF3D6
:10112000C8C1FDF3C9C1FEF3FCC3AEF1FDC3AFF10D
:10113000FEC3B0F1AEECA5F00101AE5101017E6F2E
:10114000000E0101806F3AC18AF13BC18BF121EEA3
:1011500079F001EE8CF0090EDBCFEBFFE806FCE244
:1011600067ECAFF00101FB6F0101FB51010DF35082
:1011700001013A27F45001013B23790E01018A6FE6
:10118000010E01018B6FF70E01018C6FFF0E010143
:101190008D6F000E01018F6F030E8E6F34ECB5F072
:1011A000040E01017F6FFFC17DF1010E0101806F0F
:1011B0003AC18AF13BC18BF121EE79F001EE8CF05E
:1011C000090EDBCFEBFFE806FCE229ECB1F00101F0
:1011D000FB6F0101FB51010DF35001013A27F4505F
:1011E00001013B23E00E0301E76F020E0301E86FEC
:1011F000E00E000801013A250301E96F000E03012A
:10120000EA6F39ECA2F00009D8A402D0000E120057
:10121000E00E01013A6F020E01013B6F790E0101F0
:101220008A6F010E01018B6FE30E01018C6FFF0EBF
:1012300001018D6F000E01018F6F030E8E6F34EC74
:10124000B5F0030E01017F6F1EC18AF11FC18BF142
:1012500020C18CF121C18DF1640E01018E6F000E51
:101260008F6F000E906F000E916FE7ECB3F08AC1A4
:1012700096F18BC197F18CC198F18DC199F130EC49
:10128000B3F096C19FF197C1A0F198C1A1F10101FE
:10129000225101011E250101966F01012351010117
:1012A0001F210101976F010124510101202101013A
:1012B000986F01012551010121210101996F30EC45
:1012C000B3F096C1A2F197C1A3F198C1A4F108ECC3
:1012D000A5F09FC1F0F3A0C1F1F3A1C1F2F3F0C3F7
:1012E000C7F1F1C3C8F1F2C3C9F10CECACF0C7C14E
:1012F000F3F3C8C1F4F3C9C1F5F3F3C3AEF1F4C31A
:10130000AFF1F5C3B0F1AEECA5F00101AE510101B2
:101310007D6FF0C3C7F1F1C3C8F1F2C3C9F10CECA2
:10132000ACF0C7C1CFF1C8C1D0F1C9C1D1F10BEC4C
:10133000B7F0CFC1F6F3D0C1F7F3D1C1F8F3000E87
:101340000101D56FC80E0101D66F420E0101D76FA2
:10135000F0C395F1F1C396F1F2C397F1F6C392F1A0
:10136000F7C393F1F8C394F19FEC99F092C1D2F1D5
:1013700093C1D3F194C1D4F1AEECA3F0D2C1F9F38F
:10138000D3C1FAF3D4C1FBF3F9C3C7F1FAC3C8F16F
:10139000FBC3C9F10CECACF0C7C1FCF3C8C1FDF351
:1013A000C9C1FEF3FCC3AEF1FDC3AFF1FEC3B0F1A2
:1013B000AEECA5F00101AE5101017E6F000E0101FE
:1013C000806F3AC18AF13BC18BF121EE79F001EED9
:1013D0008CF0090EDBCFEBFFE806FCE267ECAFF028
:1013E0000101FB6F0101FB51010DF35001013A278F
:1013F000F45001013B23E00E0301E76F020E0301ED
:10140000E86FE00E000801013A250301E96F010EC3
:101410000301EA6F39ECA2F01200E00E01013A6F0D
:10142000020E01013B6F790E01018A6F010E01016D
:101430008B6FDF0E01018C6FFF0E01018D6F000EAF
:1014400001018F6F030E8E6F34ECB5F0020E0101B7
:101450007F6F2DC1C7F12EC1C8F12FC1C9F10CECAE
:10146000ACF0C7C1F3F3C8C1F4F3C9C1F5F3F3C3DA
:10147000AEF1F4C3AFF1F5C3B0F1AEECA5F00101EC
:10148000AE5101017D6F2DC1C7F12EC1C8F12FC131
:10149000C9F10CECACF0C7C1CFF1C8C1D0F1C9C1E2
:1014A000D1F10BECB7F0CFC1F6F3D0C1F7F3D1C156
:1014B000F8F3000E0101D56FC80E0101D66F420E80
:1014C0000101D76F2DC195F12EC196F12FC197F172
:1014D000F6C392F1F7C393F1F8C394F19FEC99F03E
:1014E00092C1D2F193C1D3F194C1D4F1AEECA3F087
:1014F000D2C1F9F3D3C1FAF3D4C1FBF3F9C3C7F1F5
:10150000FAC3C8F1FBC3C9F10CECACF0C7C1FCF3E2
:10151000C8C1FDF3C9C1FEF3FCC3AEF1FDC3AFF119
:10152000FEC3B0F1AEECA5F00101AE5101017E6F3A
:10153000000E0101806F3AC18AF13BC18BF121EEAF
:1015400079F001EE8CF0090EDBCFEBFFE806FCE250
:1015500067ECAFF00101FB6F0101FB51010DF3508E
:1015600001013A27F45001013B23790E01018A6FF2
:10157000010E01018B6FE70E01018C6FFF0E01015F
:101580008D6F000E01018F6F030E8E6F34ECB5F07E
:10159000030E01017F6F49C17DF1000E0101806FD3
:1015A0003AC18AF13BC18BF121EE79F001EE8CF06A
:1015B000090EDBCFEBFFE806FCE229ECB1F00101FC
:1015C000FB6F0101FB51010DF35001013A27F4506B
:1015D00001013B23790E01018A6F010E01018B6F1E
:1015E000EF0E01018C6FFF0E01018D6F000E0101E6
:1015F0008F6F030E8E6F34ECB5F0010E01017F6F1B
:1016000030C1C7F131C1C8F132C1C9F10CECACF045
:10161000C7C1F3F3C8C1F4F3C9C1F5F3F3C3AEF125
:10162000F4C3AFF1F5C3B0F1AEECA5F00101AE51DA
:1016300001017D6F30C1C7F131C1C8F132C1C9F1BB
:101640000CECACF0C7C1CFF1C8C1D0F1C9C1D1F128
:101650000BECB7F0CFC1F6F3D0C1F7F3D1C1F8F37B
:10166000000E0101D56FC80E0101D66F420E0101B7
:10167000D76F30C195F131C196F132C197F1F6C300
:1016800092F1F7C393F1F8C394F19FEC99F092C1F2
:10169000D2F193C1D3F194C1D4F1AEECA3F0D2C195
:1016A000F9F3D3C1FAF3D4C1FBF3F9C3C7F1FAC319
:1016B000C8F1FBC3C9F10CECACF0C7C1FCF3C8C165
:1016C000FDF3C9C1FEF3FCC3AEF1FDC3AFF1FEC330
:1016D000B0F1AEECA5F00101AE5101017E6F000E3C
:1016E0000101806F3AC18AF13BC18BF121EE79F0A3
:1016F00001EE8CF0090EDBCFEBFFE806FCE267ECB5
:10170000AFF00101FB6F0101FB51010DF35001012D
:101710003A27F45001013B23E00E0301E76F020E6C
:101720000301E86FE00E000801013A250301E96FAB
:10173000000E0301EA6F39ECA2F00009D8A402D030
:10174000000E1200E00E01013A6F020E01013B6F24
:10175000790E01018A6F010E01018B6FFB0E0101F1
:101760008C6FFF0E01018D6F000E01018F6F030E54
:101770008E6F34ECB5F0070E01017F6F33C1C7F1F6
:1017800034C1C8F135C1C9F10CECACF0C7C1F3F3F9
:10179000C8C1F4F3C9C1F5F3F3C3AEF1F4C3AFF1BB
:1017A000F5C3B0F1AEECA5F00101AE5101017D6FC2
:1017B00033C1C7F134C1C8F135C1C9F10CECACF08B
:1017C000C7C1CFF1C8C1D0F1C9C1D1F10BECB7F09D
:1017D000CFC1F6F3D0C1F7F3D1C1F8F3000E010188
:1017E000D56FC80E0101D66F420E0101D76F33C10C
:1017F00095F134C196F135C197F1F6C392F1F7C373
:1018000093F1F8C394F19FEC99F092C1D2F193C196
:10181000D3F194C1D4F1AEECA3F0D2C1F9F3D3C1AA
:10182000FAF3D4C1FBF3F9C3C7F1FAC3C8F1FBC3A0
:10183000C9F10CECACF0C7C1FCF3C8C1FDF3C9C1E0
:10184000FEF3FCC3AEF1FDC3AFF1FEC3B0F1AEECED
:10185000A5F00101AE5101017E6F000E0101806F04
:101860003AC18AF13BC18BF121EE79F001EE8CF0A7
:10187000090EDBCFEBFFE806FCE267ECAFF00101FD
:10188000FB6F0101FB51010DF35001013A27F450A8
:1018900001013B23790E01018A6F010E01018B6F5B
:1018A000E30E01018C6FFF0E01018D6F000E01012F
:1018B0008F6F030E8E6F34ECB5F0030E01017F6F56
:1018C0001EC18AF11FC18BF120C18CF121C18DF1A4
:1018D000640E01018E6F000E8F6F000E906F000E70
:1018E000916FE7ECB3F08AC196F18BC197F18CC18F
:1018F00098F18DC199F130ECB3F096C19FF197C189
:10190000A0F198C1A1F10101225101011E2501019F
:10191000966F0101235101011F210101976F010100
:101920002451010120210101986F0101255101017C
:1019300021210101996F30ECB3F096C1A2F197C15A
:10194000A3F198C1A4F108ECA5F09FC1F0F3A0C1E8
:10195000F1F3A1C1F2F3F0C3C7F1F1C3C8F1F2C3CF
:10196000C9F10CECACF0C7C1F3F3C8C1F4F3C9C1C1
:10197000F5F3F3C3AEF1F4C3AFF1F5C3B0F1AEECE0
:10198000A5F00101AE5101017D6FF0C3C7F1F1C3B4
:10199000C8F1F2C3C9F10CECACF0C7C1CFF1C8C1BA
:1019A000D0F1C9C1D1F10BECB7F0CFC1F6F3D0C182
:1019B000F7F3D1C1F8F3000E0101D56FC80E010194
:1019C000D66F420E0101D76FF0C395F1F1C396F1C6
:1019D000F2C397F1F6C392F1F7C393F1F8C394F110
:1019E0009FEC99F092C1D2F193C1D3F194C1D4F19B
:1019F000AEECA3F0D2C1F9F3D3C1FAF3D4C1FBF337
:101A0000F9C3C7F1FAC3C8F1FBC3C9F10CECACF0E0
:101A1000C7C1FCF3C8C1FDF3C9C1FEF3FCC3AEF1FD
:101A2000FDC3AFF1FEC3B0F1AEECA5F00101AE51C4
:101A300001017E6F000E0101806F3AC18AF13BC146
:101A40008BF121EE79F001EE8CF0090EDBCFEBFF8C
:101A5000E806FCE267ECAFF00101FB6F0101FB510E
:101A6000010DF35001013A27F45001013B23E00E30
:101A70000301E76F020E0301E86FE00E00080101A9
:101A80003A250301E96F010E0301EA6F39ECA2F078
:101A90001200F0B0F0A680D2F090600E0001B819EC
:101AA000D8A475D2B9C044F18B9CEDECB7F000011D
:101AB000926F8B8C000E0001936F010E00019365F5
:101AC00001D00FD000019351420D500EF324D96E76
:101AD000030EF420DA6E0301DFA003D00001932B84
:101AE000ECD7020E00019219D8A402D0010E01D049
:101AF000000E00018F6F400E000192610ED00001B8
:101B000092510001D8B409D0010E0001936516D09E
:101B100000018F510001D8A411D01A0E91ECB5F03C
:101B200007D08B9CEDECB7F08B8C1A0E91ECB5F0D6
:101B300000018A6F00018AA32DD2F3D7000E0001A5
:101B4000906F92C088F00001896B1AD2000188075B
:101B5000D8A0890700018F510001D8B410D08B9C08
:101B600000019051010D8B0EF324D96E000EF4206C
:101B7000DA6EEDECB7F024D00001902B23D08B9CD3
:101B800000019051010D010EF326000EF422500EBB
:101B90000001826F030E0001836FF3500001822762
:101BA000F4500001832300019351420DF3500001D2
:101BB0008225D96EF45000018321DA6EEDECB7F086
:101BC000DF6EDAD78B8C000192510001905DD8A0B6
:101BD000D7D100018F510001D8B439D000018B5109
:101BE000030B020AD8A40DD00001BA5100018C19D0
:101BF000D8A403D0010E0001BC6F000E0001906F4D
:101C0000C9D1010E0001936504D0000E0001906F50
:101C100084D700019351420D010EF326000EF422E9
:101C2000500EF324D96E030EF420DA6E8BC0DFFF62
:101C300000019351420D020EF326000EF422500EC5
:101C4000F324D96E030EF420DA6E8CC0DFFF00019E
:101C50009351420D410EF326000EF422500EF32450
:101C6000D96E030EF420DA6E92C0DFFF0001916995
:101C700000019351420D010EF326000EF422500E86
:101C8000F324D96E030EF420DA6E0301DFAC58D0D2
:101C9000000E0001946F47D000019451010DF350E4
:101CA0000001B025D96EF4500001B121DA6E0001B7
:101CB0009351420D000194510001836F846B030E18
:101CC00000018327000E8423500E0001856F030E50
:101CD0000001866F000183510001852700018451B6
:101CE00000018623F35000018525E16EF4500001C8
:101CF0008621E26EDE50E618D8B413D0000E000143
:101D0000906F00019351420D410EF326000EF42214
:101D1000500EF324D96E030EF420DA6E000EDF6E3F
:101D2000FCD60001942B0001AF31E832E8320F0BF2
:101D30000001826F000182510001945DD8A0ACD7F0
:101D400000019351420D010EF326000EF422500EB5
:101D5000F324D96E030EF420DA6E0301DFAA58D003
:101D6000000E0001946F010E0001946501D017D0A0
:101D700000019451010DA00EF324D96E020EF4203F
:101D8000DA6E00019451010D8B0EF324E16E000E0A
:101D9000F420E26EDFCFE7FF0001942BE4D7060EBC
:101DA0000201A06F00019351420D020EF326000EB6
:101DB000F422500EF324D96E030EF420DA6EDF50B5
:101DC0000201A16FF090000E00016A6F020EF0ECAC
:101DD0009EF0000E0001946F010E0001946501D089
:101DE00017D000019451010D8B0EF324D96E000E13
:101DF000F420DA6E00019451010DA00EF324E16E7F
:101E0000020EF420E26EDFCFE7FF0001942BE4D74F
:101E1000000E0001946F040E0001946501D05AD0A9
:101E200000019451060D280EF324D96E020EF42001
:101E3000DA6EDF50D8B43AD000019351420D020E51
:101E4000F326000EF422500EF324D96E030EF42074
:101E5000DA6E00019451060D010EF326000EF422F5
:101E6000280EF324E16E020EF420E26EDE50E61836
:101E7000D8A41CD05CECB4F000019451060D020E05
:101E8000F326000EF422280EF324D96E020EF4205D
:101E9000DA6E000160C0DEFF000161C0DEFF0001FC
:101EA00062C0DEFF000163C0DEFF14D00001912993
:101EB000D8A40DD000019451060D280EF324D96E3C
:101EC000020EF420DA6EDF50D8B494C091F0000115
:101ED000942BA1D7040E000194655CD0050E00017F
:101EE000916142D000019151060D280EF324D96E64
:101EF000020EF420DA6E010EDF6E00019351420DE6
:101F0000020EF326000EF422500EF324D96E030EB7
:101F1000F420DA6E00019151060D010EF326000E39
:101F2000F422280EF324E16E020EF420E26EDFCFDD
:101F3000E7FF5CECB4F000019151060D020EF326B0
:101F4000000EF422280EF324D96E020EF420DA6E6D
:101F5000000160C0DEFF000161C0DEFF000162C061
:101F6000DEFF000163C0DEFF00019351420D500E01
:101F7000F324D96E030EF420DA6E0301DF800AD059
:101F80000001885100018911D8B404D0DFD5010EB9
:101F90000001B36FF09000F0F2B2F2A810D0F2920C
:101FA000600E0001B819D8A40AD0280E91ECB5F043
:101FB0000001826F0001D89082310001B96F9EA0AC
:101FC00012009DA012009E900001BE2B0001BE5188
:101FD000D8A412000001BF2B1200000E0101D06F27
:101FE000040E0101D06501D084D022ECB4F08AC186
:101FF000C5F18BC1C6F18CC1C7F18DC1C8F101011A
:10200000D051060D280EF324D96E020EF420DA6E9C
:10201000DF50D8B46BD00101D051060D020EF3266B
:10202000000EF422280EF324D96E020EF420DA6E8C
:102030000101C551DE5C0101C651DE580101C751E5
:10204000DE580101C851DE58D8B050D00101D0513E
:10205000060D020EF326000EF422280EF324D96E8C
:10206000020EF420DA6EDECFBDF1DECFBEF1DECFA0
:10207000BFF1DECFC0F10101BD1FBE1FBF1FC01FDA
:10208000BD2B000EBE23BF23C0230101C55101019A
:10209000BD250101C16F0101C6510101BE21010130
:1020A000C26F0101C7510101BF210101C36F0101CD
:1020B000C8510101C0210101C46F0101C4510BE1EC
:1020C000210E0101C15DA10E0101C259070E0101DE
:1020D000C359D8A00BD00101D051060D280EF3240E
:1020E000D96E020EF420DA6E000EDF6E0101D02BE5
:1020F00077D701014529D8B402D0000E1200000E96
:102100000101D06F010E0101D06501D0C1D10101E3
:10211000D051420D500EF324D96E030EF420DA6E26
:102120000301DFA0B2D10101D051420D010EF3260F
:10213000000EF422500EF324D96E030EF420DA6E52
:10214000DF500101166F0101D051420D410EF326FF
:10215000000EF422500EF324D96E030EF420DA6E32
:10216000DF5001011B6F020E0101CF6F010116AD9F
:1021700007D00001AF31E832E8320F0B0101CF2761
:10218000010116AF28D00101CF51010D010EF32638
:10219000000EF422500E0101BD6F030E0101BE6F4F
:1021A000F3500101BD27F4500101BE230101D051BC
:1021B000420DF3500101BD250101176FF4500101DB
:1021C000BE210101186F0001AF31E832E8320F0B78
:1021D0000101CF2706D0000E0101176F000E01018B
:1021E000186F010116A727D10101D051420D01013D
:1021F000CF510101BD6FBE6B050E0101BD27000E61
:10220000BE23500E0101BF6F030E0101C06F01011B
:10221000BD510101BF270101BE510101C023F3508F
:102220000101BF25D96EF4500101C021DA6EDF50E3
:10223000D8B40DD00101D051420D500EF324D96E07
:10224000030EF420DA6E000EDF6E000E12000101A4
:1022500016AFAAD0000E0101CE6F090E0101CE65A6
:1022600001D02BD00101CE51090D080EF326000E2E
:10227000F422460EF324D96E020EF420DA6E020127
:10228000DFAE18D00101CE51090D040EF326000E69
:10229000F422460EF32401018A6F020EF42001019C
:1022A0008B6F17C18CF118C18DF1BDECB5F0000931
:1022B000D8A403D00101CE2BD0D70A0E0101CE61E4
:1022C00073D0000E0101CD6F030E0101CD6501D069
:1022D00036D00101D051420D0101CD51CFC1BDF128
:1022E0000101BE6B0101BD27000EBE23010E0101DD
:1022F000BD27000EBE23500E0101BF6F030E01016A
:10230000C06F0101BD510101BF270101BE51010193
:10231000C023F3500101BF25D96EF4500101C02143
:10232000DA6E0101CD51010DC90EF324E16E010EEB
:10233000F420E26EDFCFE7FF0101CD2BC5D701010D
:10234000CE51040D000EF324D96E020EF420DA6E85
:10235000DE500101C95DDE500101CA59DE500101A4
:10236000CB59DE500101CC59D8B00DD00101D0516C
:10237000420D500EF324D96E030EF420DA6E000ED7
:10238000DF6E000E12000101CE51040D000EF32489
:10239000D96E020EF420DA6EC9C1DEFFCAC1DEFFBB
:1023A000CBC1DEFFCCC1DEFF050E0101CF2701014D
:1023B000D051420D010EF326000EF422500EF324EC
:1023C0000101AE6F030EF4200101AF6FCFC1B0F178
:1023D0000101D051420D410EF326000EF422500EA1
:1023E000F324D96E030EF420DA6EDF500101BD6FC5
:1023F0000101CF5100080101BD250101B16FC00EDF
:102400000101B26F000E0101B36F5DECA4F0000991
:10241000D8A40DD00101D051420D500EF324D96E35
:10242000030EF420DA6E000EDF6E000E12000101C2
:10243000CF51020F02D00101CF5101011B5F0101F9
:10244000CF51010D010EF326000EF422500E0101B2
:10245000BD6F030E0101BE6FF3500101BD27F450A3
:102460000101BE230101D051420DF3500101BD25F0
:102470000101196FF4500101BE2101011A6F44C11D
:102480001CF1D0C145F1010E12000101D02B3AD64A
:10249000000E12000001B551D8B40CD00101595101
:1024A000D8B408D001013887B6C0FDF1060E03018B
:1024B000E46F05D0020E0301E46F010138970101BA
:1024C000F0510101D8B46BD1000E0301E56F030E8A
:1024D0000301E56501D019D00301E551010DF35069
:1024E0000101EE25D96EF4500101EF21DA6E0301EE
:1024F000E551010D260EF324E16E010EF420E26E8B
:10250000DFCFE7FF0301E52BE2D77BECADF0030162
:10251000E66F0301E629D8A43DD0FEC14EF1020EBC
:1025200001014F6F010150690101516901015269B7
:102530000101536983C154F184C155F185C156F13C
:1025400086C157F1B6C058F10001B62B000E01014B
:102550002A6F01012A8B0101F1B103D001012A97F1
:1025600002D001012A87EEC12BF1EFC12CF101014C
:1025700038972AC1B9F12BC1BAF12CC1BBF14E0E6B
:102580000101BC6F010E0101BD6F46C1BEF1D3EC6C
:102590009AF012000301E651090D080EF326000E11
:1025A000F422460EF324D96E020EF420DA6E0201F4
:1025B000DFA6B3D70001B551D8B411D00301E6515D
:1025C000090D020EF326000EF422460EF324D96EF6
:1025D000020EF420DA6EDECF36F1DDCF37F1040ED5
:1025E00001014E6FE4C34FF10301E651090D460EA0
:1025F000F324D96E020EF420DA6EDF500101506F21
:102600000301E651090D010EF326000EF422460ED9
:10261000F324D96E020EF420DA6EDF500101516FFF
:102620000301E651090D020EF326000EF422460EB8
:10263000F324D96E020EF420DA6EDF500101526FDE
:102640000301E651090D030EF326000EF422460E97
:10265000F324D96E020EF420DA6EDF500101536FBD
:1026600083C154F184C155F185C156F186C157F13A
:10267000B6C058F10001B62B000E01012A6F01010E
:102680002A8B0101F1B103D001012A9702D0010187
:102690002A8701014C51090D040EF326000EF42285
:1026A000460EF32401012B6F020EF42001012C6F62
:1026B0002AC1B9F12BC1BAF12CC1BBF14E0E0101F7
:1026C000BC6F010E0101BD6F46C1BEF1D3EC9AF0A3
:1026D0000009D8A404D001013897000E12000101AE
:1026E00038A75BD022ECB4F08AC1D4F38BC1D5F308
:1026F0008CC1D6F38DC1D7F3DAECB7F00009D8A4BA
:10270000E8ECB7F0010138B702D0010E120022EC5C
:10271000B4F08AC1D8F38BC1D9F38CC1DAF38DC17F
:10272000DBF3D4C3F2F1D5C3F3F1D6C3F4F1D7C3CD
:10273000F5F10101F21FF31FF41FF51FF22B000E3C
:10274000F323F423F5230301D8510101F2250101FC
:10275000F66F0301D9510101F3210101F76F030164
:10276000DA510101F4210101F86F0301DB5101018C
:10277000F5210101F96F0101F9510BE1210E010170
:10278000F65DA10E0101F759070E0101F859D8A015
:10279000B3D701013897000E1200010E1200040E8B
:1027A00001014E6FE4C34FF183C150F184C151F177
:1027B000EEC1D9FFEFC1DAFFDF500101526F010115
:1027C00020EE01F0EE51D926EF51DA22DF5001015F
:1027D000536F83C154F184C155F185C156F186C14F
:1027E00057F1B6C058F10001B62BEEC1D9FFEFC1C9
:1027F000DAFFDF500101366F010120EE01F0EE51EA
:10280000D926EF51DA22DF500101376F000E0101A6
:102810002A6F01012A8B0101F1B103D001012A972E
:1028200002D001012A8701014C51090D040EF32643
:10283000000EF422460EF32401012B6F020EF42049
:1028400001012C6F2AC1B9F12BC1BAF12CC1BBF126
:102850004E0E0101BC6F010E0101BD6F46C1BEF1FC
:10286000D3EC9AF00009D8A404D001013897000EE7
:102870001200010138A75BD022ECB4F08AC1DCF36E
:102880008BC1DDF38CC1DEF38DC1DFF3DAECB7F081
:102890000009D8A4E8ECB7F0010138B702D0010E66
:1028A000120022ECB4F08AC1E0F38BC1E1F38CC1D9
:1028B000E2F38DC1E3F3DCC3F2F1DDC3F3F1DEC378
:1028C000F4F1DFC3F5F10101F21FF31FF41FF51F4F
:1028D000F22B000EF323F423F5230301E051010151
:1028E000F2250101F66F0301E1510101F32101011C
:1028F000F76F0301E2510101F4210101F86F0301B7
:10290000E3510101F5210101F96F0101F9510BE1D9
:10291000210E0101F65DA10E0101F759070E01011B
:10292000F859D8A0B3D701013897000E1200010E54
:1029300012000301F86F030E0301F76F0101FB059D
:10294000D8A414D0A8ECAEF006D0DAECB7F00009A9
:10295000D8A4E8ECB7F0010100B3F7D7010100A15A
:1029600003D0010101511200FF0E12000101FB51C1
:102970000101D8A4F7D10301F829D8B406D02AD090
:102980000301F72F02D0FF0E120089C1E7F3010EF9
:102990000301E86FE96BEA6BEB6B0301E72B06D0F1
:1029A000D8900301E837E937EA37EB370301E72F1F
:1029B000F7D7E8C3EEF1E9C3EFF1EAC3F0F1EBC3F7
:1029C000F1F10A0E0AEC9DF00009D8B4D9D7000E37
:1029D0000301F86F0301F8510A0D050EF326000EEE
:1029E000F422000EF324D96E030EF420DA6EDECF4B
:1029F0003CF1DDCF3DF1000E0301F96F030E030141
:102A0000F96501D02CD00301F951010D010EF32617
:102A1000000EF422000E0301E76F030E0301E86FBE
:102A2000F3500301E727F4500301E8230301F851B1
:102A30000A0DF3500301E725D96EF4500301E82194
:102A4000DA6E0301F951010D260EF324E16E010E39
:102A5000F420E26EDFCFE7FF0301F92BCFD77BEC49
:102A6000ADF001014C6F01014C29D8A40AD095ECBE
:102A7000B6F001014C6F01014C29D8A402D0FF0E21
:102A8000120001014C51090D080EF326000EF4222C
:102A9000460EF324D96E020EF420DA6E000EDF6EBD
:102AA0000301F8510A0D050EF326000EF422000E64
:102AB000F324D96E030EF420DA6E01014C51090D96
:102AC000460EF324E16E020EF420E26EDECFE6FF46
:102AD000DDCFE5FF000E0301F96F030E0301F96579
:102AE00001D041D00301F951010D010EF326000E72
:102AF000F422000E0301E76F030E0301E86FF350A9
:102B00000301E727F4500301E8230301F8510A0DFC
:102B1000F3500301E725D96EF4500301E821DA6E82
:102B20000301F951010D040EF326000EF422460EA6
:102B30000301E96F020E0301EA6FF3500301E92775
:102B4000F4500301EA2301014C51090DF350030134
:102B5000E925E16EF4500301EA21E26EDFCFE7FFE1
:102B60000301F92BBAD701014C51090D080EF326C8
:102B7000000EF422460EF324D96E020EF420DA6E13
:102B80000201DF8401014C51090D080EF326000EED
:102B9000F422460EF324D96E020EF420DA6E0201FE
:102BA000DF8201014C51090D080EF326000EF422BC
:102BB000460EF324D96E020EF420DA6E0201DF8A8B
:102BC00001014C51090D080EF326000EF422460EA9
:102BD000F324D96E020EF420DA6E0201DF800301C5
:102BE000F8510A0D000EF324D96E030EF420DA6EAC
:102BF000DF507FECB7F001014C51090D460EF32474
:102C0000D96E020EF420DA6EDECF83F1DDCF84F1CF
:102C1000010187698869870E01018A6F010E010130
:102C20008B6F830E01018C6F010E01018D6FF4EC2F
:102C3000B7F0000E0101466F01014651010D4E0E25
:102C4000F324D96E010EF420DA6E010EDF6E01015D
:102C5000462B01014651010D4E0EF324D96E010E93
:102C6000F420DA6E43C1DFFF0101462B01014C5114
:102C7000090D040EF326000EF422460EF324010182
:102C8000C36F020EF4200101C46F010E0101C56F74
:102C90006EECB3F022ECB4F08AC1EFF38BC1F0F329
:102CA0008CC1F1F38DC1F2F34AD0DAECB7F0000930
:102CB000D8A4E8ECB7F022ECB4F08AC1F3F38BC1EE
:102CC000F4F38CC1F5F38DC1F6F3EFC3E7F3F0C372
:102CD000E8F3F1C3E9F3F2C3EAF30301E71FE81FE6
:102CE000E91FEA1FE72B000EE823E923EA2303018B
:102CF000F3510301E7250301EB6F0301F4510301D5
:102D0000E8210301EC6F0301F5510301E9210301FF
:102D1000ED6F0301F6510301EA210301EE6F030198
:102D2000EE510BE1210E0301EB5DA10E0301EC5905
:102D3000070E0301ED59D8A002D0FF0E12000101C9
:102D40004C51090D080EF326000EF422460EF32412
:102D5000D96E020EF420DA6E0201DFA8A6D70101B7
:102D60004C511200FF0E1200C280898C340E0101FA
:102D7000E16FF20EE82EFED7E12FFCD7C18CC282A4
:102D8000C2B2FED7C19CC294C296C298C29AC282F5
:102D9000C2B2FED7C4500101E26FE16BC350010122
:102DA000E1250101E66F000E0101E2210101E76F5B
:102DB000E6C192F1E7C193F139ECB7F092C1A2F10B
:102DC00093C1A3F194C1A4F1000E01019F6F800E85
:102DD0000101A06F450E0101A16F08ECA5F09FC194
:102DE000D2F1A0C1D3F1A1C1D4F1B80E0101D56FC8
:102DF0009E0E0101D66F3F0E0101D76FAEECA3F01E
:102E0000D2C12DF1D3C12EF1D4C12FF1C250C30BC9
:102E10000409C26EC282C2B2FED7C4500101E26F81
:102E2000E16BC3500101E1250101E66F000E0101D4
:102E3000E2210101E76F000E0101D56FC80E01010B
:102E4000D66F420E0101D76F000E0101A26F940EE2
:102E50000101A36F420E0101A46FE6C192F1E7C127
:102E600093F139ECB7F092C19FF193C1A0F194C1F5
:102E7000A1F108ECA5F09FC1D2F1A0C1D3F1A1C18D
:102E8000D4F1AEECA3F0D2C1AEF1D3C1AFF1D4C155
:102E9000B0F1AEECA5F00101AE510101496F640E35
:102EA0000101496503D0640E0101496FEA0E010179
:102EB000E16FC30EE82EFED7E12FFCD700F0800EA5
:102EC00001018A6F080E60ECB7F0C7A404D00101BD
:102ED000E16BE12B02D00101E16BC5501F0B010139
:102EE000E1110009D8A4F1D7C580C5B0FED7C7A4A9
:102EF00004D00101E16BE12B02D00101E16BC5506F
:102F00001F0B0101E1110009D8A4F1D7900ECEECFE
:102F1000B4F0C7A404D00101E16BE12B02D00101A0
:102F2000E16BC5501F0B0101E1110009D8A4F1D7D5
:102F3000000ECEECB4F0C7A404D00101E16BE12B8C
:102F400002D00101E16BC5501F0B0101E111000925
:102F5000D8A4F1D7C584C5B4FED7C7A404D0010155
:102F6000E16BE12B02D00101E16BC5501F0B0101A8
:102F7000E1110009D8A4F1D7C580C5B0FED7C7A418
:102F800004D00101E16BE12B02D00101E16BC550DE
:102F90001F0B0101E1110009D8A4F1D7910ECEEC6D
:102FA000B4F0C7A404D00101E16BE12B02D0010110
:102FB000E16BC5501F0B0101E1110009D8A4F1D745
:102FC0008EECB7F00101E56FC59AC588C5B8FED78C
:102FD0008EECB7F00101E46FC58AC588C5B8FED78D
:102FE000C584C5B4FED70101E5510101E26FE16B73
:102FF0000101E4510101E1250101E86F0101000E29
:103000000101E2210101E96FE8C1E1F1E9C1E2F169
:10301000040E0101E36F0101D890E233E1330101B5
:10302000E32FF9D7E1C1E8F1E2C1E9F1E8C192F19A
:10303000E9C193F139ECB7F092C1D2F193C1D3F168
:1030400094C1D4F1000E0101D56F800E0101D66F3D
:103050003D0E0101D76FAEECA3F0D2C130F1D3C168
:1030600031F1D4C132F1C290C69A899C120072EC3F
:10307000AAF0B8ECB7F0000E01014B6FF20EF66E3D
:10308000FF0EF76E010EF86E0800F5CFC8F0F40ED3
:10309000F66EFF0EF76E010EF86E0800F5CFC9F060
:1030A000F60EF66EFF0EF76E010EF86E0800F5CF05
:1030B000CAF0F70EF66EFF0EF76E010EF86E0800FE
:1030C000F5CFCBF0000E0401076F000E066F040170
:1030D00007BF08D0040107511EE1080E0401065D78
:1030E000D8B019D0EC0E04010625F66EFF0E0721AC
:1030F000F76EF86A010EF822A30E04010625D96EB8
:10310000000E04010721DA6E0800F5CFDFFF04018D
:10311000064B072BDCD7000EBDECA8F0000ED3EC5D
:10312000B6F0010E0101EE6F010EEF6F010EF06FB0
:10313000010EF16F0E0E0AEC9DF00401096F0401FF
:1031400009510401D8A409D08B90000EB5ECB6F05B
:10315000B8ECB7F0A4900300E4D7000E0401056FAB
:10316000000E0401086F3AD0040108510A0D070E41
:10317000F326000EF422000EF324D96E030EF42081
:10318000DA6E04010551DE5CD8A026D00401085196
:103190000A0D050EF326000EF422000EF324D96E5C
:1031A000030EF420DA6E370EDE1816E1130EDE1869
:1031B000D8A412D0040108510A0D070EF326000E00
:1031C000F422000EF324D96E030EF420DA6EDF50E1
:1031D0000401056F08C403F40401082B040109511C
:1031E0000401085DD8A0C0D7000E0101FB6F0401E7
:1031F000035199EC94F00401046F04010429D8A44C
:103200000CD0020E01014B6F8B90000EB5ECB6F0A6
:10321000B8ECB7F0A4900300FF00030E23ECB7F066
:10322000C80E0101FA6F000E0101FB6FFF0E0101D4
:10323000FC6F73ECA1F00401026F04010251040160
:10324000D8A40CD0020E01014B6F8B90000EB5EC90
:10325000B6F0B8ECB7F0A4900300FF00E6ECB5F0D0
:10326000010E01014B6F210E0101FB6F000E02ECFC
:10327000B5F001014A6F000E0101336F000E01012C
:10328000346F000E0101356FB4EC96F014D00101DB
:10329000472B020E010147650CD0020E01014B6F56
:1032A0008B90000EB5ECB6F0B8ECB7F0A49003002C
:1032B000FF00F0ECB6F03DEC86F00009D8B4E7D79B
:1032C000000E0101476F70ECB7F00BEC9EF08B9095
:1032D000000EB5ECB6F0B8ECB7F001D00300010178
:1032E0004D51D8B4FBD78B80B4EC96F0010EB5EC01
:1032F000B6F0DAECB7F00009D8A4E8ECB7F000ECCF
:1033000080F014D00101472B020E010147650CD05B
:10331000020E01014B6F8B90000EB5ECB6F0B8ECCD
:10332000B7F0A4900300FF00F0ECB6F00DEC8AF0CB
:103330000009D8B4E7D7000E0101476FC6D794C182
:1033400098F10101996B9A6B01019335010198374E
:1033500001E399810101985101019D6F97C198F195
:103360000101996B9A6B010196350101983701E3D0
:1033700099810101985101019C6F01019D51010149
:10338000D8B411D001019C5101019D5DD8B012D07B
:1033900001019D51000801019C250101986F180E43
:1033A0000101986507D095C192F196C193F197C13B
:1033B00094F1120001019C510101D8B411D0010116
:1033C0009D5101019C5DD8B012D001019C510008B3
:1033D00001019D250101986F180E0101986507D024
:1033E00092C192F193C193F194C194F11200060E2F
:1033F00001019B6F010194AF02D001019B8F01017C
:1034000097AF02D001019B8D0101938FFF0E010147
:103410009217FF0E01019317000E0101941701018D
:10342000968FFF0E01019517FF0E01019617000EF2
:103430000101971701019C5101019D5DD8B025D074
:103440000101D89095379637973701019C07010104
:103450009D5101019C19D8B411D001019B079BC15A
:1034600098F1070E01019817D8B408D0E9D70101E7
:10347000D89094339333923301019D2B01019C51D9
:1034800001019D19D8B42BD0F2D701019D51010142
:103490009C5DD8B024D00101D890923793379437EF
:1034A00001019D0701019D5101019C19D8B411D062
:1034B00001019B079BC198F1070E01019817D8B431
:1034C00008D0E9D70101D89097339633953301019D
:1034D0009C2B01019C5101019D19D8A4F3D7010136
:1034E0009BAF12D0FF0E0101921BFF0E0101931B37
:1034F000FF0E0101941B010E01019227000E010134
:103500009323000E0101942301019BAD12D0FF0E05
:103510000101951BFF0E0101961BFF0E0101971B78
:10352000010E01019527000E01019623000E0101F5
:103530009723000E01019B6F010192510101952714
:103540000101935101019623010194510101972337
:10355000010197AF15D0FF0E0101951BFF0E010170
:10356000961BFF0E0101971B010E01019527000E0E
:1035700001019623000E01019723010E01019B6FAB
:1035800095C18AF196C18BF197C18CF19DC18DF1E6
:103590009BC18EF101ECABF08AC192F18BC193F12A
:1035A0008CC194F11200200E0101BE6502D0000E04
:1035B00012000101B9B504D00101BF6BBF2B02D0CD
:1035C0000101BF6B0101BF3BBF47BF470101B951BB
:1035D0000101BF19BF0BBF190101B96F0101B95139
:1035E000030BE806D8A402D00101B98FB9C1A0F23B
:1035F000B4C0A1F20001B42B020E0101C16F0101A0
:10360000B9AD2BD0000E0101C26F1AD00101C25119
:10361000010DF3500101BA25D96EF4500101BB210F
:10362000DA6E0101C151010DA00EF324E16E020E0C
:10363000F420E26EDFCFE7FF0101C12B0101C22BB5
:103640000001AF31E832E8320F0B0101BF6F010119
:10365000BF510101C25DD8A0D9D70101B9AF2BD0AC
:10366000000E0101C26F1AD00101C251010DF350C9
:103670000001B025D96EF4500001B121DA6E0101CC
:10368000C151010DA00EF324E16E020EF420E26E92
:10369000DFCFE7FF0101C12B0101C22B0001AF31D8
:1036A000E832E8320F0B0101BF6F0101BF51010188
:1036B000C25DD8A0D9D70101B9A771D0000E010110
:1036C000C26F030E0101C26501D019D00101C251C0
:1036D000010DAB0EF324D96E000EF420DA6E010159
:1036E000C151010DA00EF324E16E020EF420E26E32
:1036F000DFCFE7FF0101C12B0101C22BE2D7010E91
:103700000001AB27000EAC23AD23AE230101C15154
:10371000010DA00EF324D96E020EF420DA6E000E15
:10372000DF6E0101C12BC1C1C0F1000E0101C26FEA
:103730001AD00101C251010DF3500101BC25D96E0F
:10374000F4500101BD21DA6E0101C151010DA00E3D
:10375000F324E16E020EF420E26EDFCFE7FF0101F9
:10376000C12B0101C22B0101BE510101C25DD8A0D4
:10377000E0D7A00E0101AE6F020E0101AF6FC0C114
:10378000B0F1BEC1B1F1C00E0101B26F000E010176
:10379000B36F90ECA7F0020E0101C12724D0000EF8
:1037A0000101C26F1AD00101C251010DF350010194
:1037B000BC25D96EF4500101BD21DA6E0101C15161
:1037C000010DA00EF324E16E020EF420E26EDFCFB5
:1037D000E7FF0101C12B0101C22B0101BE51010113
:1037E000C25DD8A0E0D7000EAFB3010E0101946F07
:1037F0000101C1519EECA0F012008AC1D9FF8BC11A
:10380000DAFFDECF9BF1DDCF9CF1010120EE02F06B
:103810008A51D9268B51DA22DECF9DF1DDCF9EF180
:10382000000E0101A06F000E9F6F9E0E0101996FA7
:10383000370E986F000E01019A6F1F0E01019A65F5
:1038400001D0D4D0030E01019F1501018E6F000E2F
:103850000101A01501018F6FD89001018E378F37BC
:1038600001018E5101018C25D96E01018F51010199
:103870008D21DA6EDECF90F1DDCF91F101019F5104
:10388000010190270101A051010191239DC192F1F5
:103890009EC193F1050E0101946F0101D8909333FD
:1038A00092330101942FF9D79DC195F19EC196F1F4
:1038B0000101953B963BF00E961795510F0B961311
:1038C000F00E9517010192510101951B01019351D1
:1038D0000101961B01019D510101952701019E5196
:1038E00001019623010190510101951B01019151A4
:1038F0000101961B0101955101019B270101965180
:1039000001019C230101985101019F270101995157
:103910000101A0239FC18EF1A0C18FF10B0E010107
:10392000906F0101D8908F338E330101902FF9D71A
:10393000030E01018E17000E8F17D89001018E37EC
:103940008F3701018E5101018C25D96E01018F51F4
:1039500001018D21DA6EDECF91F1DDCF92F101010F
:103960009F51010191270101A051010192239BC1A7
:1039700093F19CC194F1050E0101956F0101D8905E
:10398000943393330101952FF9D79BC196F19CC1D4
:1039900097F10101963B973BF00E971796510F0B4D
:1039A0009713F00E9617010193510101961B010127
:1039B00094510101971B01019B51010196270101BF
:1039C0009C5101019723010191510101961B0101B5
:1039D00092510101971B0101965101019D2701019F
:1039E000975101019E2301019A2B27D78AC1D9FF44
:1039F0008BC1DAFF9BC1DEFF9CC1DDFF010120EE20
:103A000002F08A51D9268B51DA229DC1DEFF9EC178
:103A1000DDFF12000301E06F010E0301D46F000E01
:103A2000D56F000ED66F000ED76F89C1E1F3000E7F
:103A30000301E26F070E0301E26501D00ED003011E
:103A4000E2510A0D000EF324D96E030EF420DA6E53
:103A5000FF0EDF6E0301E22BEDD7000E0101426F76
:103A600001013881000E0301E26FC8D0E2C3F2F118
:103A7000D4C3F3F1D5C3F4F1D6C3F5F1D7C3F6F14E
:103A80000101F22B06D0D8900101F337F437F53756
:103A9000F6370101F22FF7D70101EE510101F315BD
:103AA0000101F76F0101EF510101F4150101F86FF8
:103AB0000101F0510101F5150101F96F0101F15109
:103AC0000101F6150101FA6F0101F7510101F81129
:103AD0000101F9110101FA11D8B48ED00301E251AC
:103AE0007FECB7F0000E0101466F01014651010D58
:103AF0004E0EF324D96E010EF420DA6E070EDF6E3F
:103B00000101462B01014651010D4E0EF324D96EE1
:103B1000010EF420DA6E89C1DFFF0101462B000E91
:103B20000101C36F000E0101C46F010E0101C56FD9
:103B30006EECB3F022ECB4F08AC1D8F38BC1D9F3A8
:103B40008CC1DAF38DC1DBF3DAECB7F00009D8A44D
:103B5000E8ECB7F022ECB4F08AC1DCF38BC1DDF302
:103B60008CC1DEF38DC1DFF3D8C3F2F1D9C3F3F119
:103B7000DAC3F4F1DBC3F5F10101F21FF31FF41F07
:103B8000F51FF22B000EF323F423F5230301DC5180
:103B90000101F2250101F66F0301DD510101F3215D
:103BA0000101F76F0301DE510101F4210101F86FFA
:103BB0000301DF510101F5210101F96F0301E0511A
:103BC000040D330EF324F66EFF0EF420F76EF86A40
:103BD000000EF8220101F6510900F55C0101F751D0
:103BE0000900F5580101F8510900F5580101F95192
:103BF0000900F558D8B0A8D70301E22B1F0E030126
:103C0000E26534D70301E1517FECB7F0010138914F
:103C1000010142511200000E0301F76F000E030173
:103C2000F96FC70E0301F96501D0F8D71A0E030129
:103C3000F06FF80EE82EFED7F02FFCD700D0DAECAC
:103C4000B7F00009D8B4C9D00FC1D9FF10C1DAFF4D
:103C5000DF500301FA6F010120EE01F00F51D92668
:103C60001051DA22DF500301FB6F13C1FCF3ACD01B
:103C70000301FA510301D8A409D00301FB51D8A4D0
:103C800005D0020E0301FC19D8B412000301FA5149
:103C90000301D8A494D00301FB51D8A490D0020E04
:103CA0000301FC658CD0010120EE01F01151D926F1
:103CB0001251DA22DF500301F86F020E01011125C3
:103CC00001013A6F000E0101122101013B6F18D072
:103CD0003AC194F13BC195F18BECACF021EE79F057
:103CE000090EEBCFDBFFE806FCE201018251010D7A
:103CF000F35001013A27F45001013B2305ECADF0EC
:103D0000FE0E0301F06FFF0E0301F16F0301FC5182
:103D10000301F26FF36B0301F0510301F22703017A
:103D2000F1510301F323020E010111250301F46F88
:103D3000000E010112210301F56F0301F41FF51FAD
:103D4000F44BF52B01013A510301F42701013B51DA
:103D50000301F5230301F2510301F45D0301F55161
:103D6000800A0301F66F0301F351800A0301F6593B
:103D7000D8A0AED7E8ECB7F00301F8510301D8A4FE
:103D800015D01FD00101472B020E010147650CD051
:103D9000020E01014B6F8B90000EB5ECB6F0B8EC43
:103DA000B7F0A4900300FF00F0ECB6F0F2ECA6F040
:103DB0000009D8B4E7D7000E0101476F1200E8EC04
:103DC000B7F0E8ECB7F009D011C1D9FF12C1DAFFA2
:103DD000DF50040AD8B44CD7F4D70301F92B21D70C
:103DE00000017F6F030E00017D6FC8D0000E00013F
:103DF0007E6F000E0001BC6F000E00017C6F0001A1
:103E00006A510001D8B418D0280E91ECB5F0000129
:103E1000816F0001D89081310001816F410E000156
:103E200081650AD000017C2B7C0500016B6F040EBC
:103E300000016B65E9D71200F298F096200E17EC9E
:103E4000B2F01A0E0001636FC90E626F30ECB6F06B
:103E500000017F5174ECB6F0000E0001806F0ED0AF
:103E600000018051010DA00EF324D96E020EF42042
:103E7000DA6EDF5074ECB6F00001802B00017F5148
:103E80000001805DD8A0ECD7800E17ECB2F0F2886C
:103E9000F0860001B351D8B4F0B001D0FAD7000ECB
:103EA0000001B36F200E17ECB2F0600E17ECB2F009
:103EB0000201A0AB5FD0A1C2BAF05CECB4F060C06C
:103EC00073F061C074F062C075F063C076F00001F9
:103ED000BC51D8B404D0010E00017B6F12005CEC21
:103EE000B4F060C077F061C078F062C079F063C070
:103EF0007AF073C06BF074C06CF075C06DF076C072
:103F00006EF000016B1F6C1F6D1F6E1F6B2B000E80
:103F10006C236D236E230001775100016B25000196
:103F20006F6F0001785100016C210001706F00017A
:103F3000795100016D210001716F00017A5100017A
:103F40006E210001726F000172510001711108E1D0
:103F5000A90E00016F5D610E00017059D8A0B7D79E
:103F600000017E2B7E0500016B6F040E00016B616A
:103F700005D03FD7010E00017B6F120000017D07C5
:103F800000017D29D8A432D7000E00017B6F1200FA
:103F90000BC00FF0106A116A0A340F3601E310806B
:103FA0000F50146E0EC00FF0106A116A0D340F36E8
:103FB00001E310800F50136E1450D8B40BD013507F
:103FC000145CD8B00ED01450000813240F6E180ED5
:103FD0000F6407D00CC009F00DC00AF00EC00BF042
:103FE00012001350D8B40BD01450135CD8B00ED0BC
:103FF0001350000814240F6E180E0F6407D009C068
:1040000009F00AC00AF00BC00BF01200060E126E87
:104010000BBE128E0EBE128C0A8EFF0E0916FF0EFC
:104020000A16000E0B160D8EFF0E0C16FF0E0D1647
:10403000000E0E161350145CD8B01BD0D8900C365E
:104040000D360E36130614501318D8B40DD01206C0
:1040500012C00FF0070E0F16D8B406D0EFD7D890C5
:104060000B320A320932142A13501418D8B41FD054
:10407000F6D71450135CD8B01AD0D89009360A3647
:104080000B36140614501318D8B40DD0120612C0F3
:104090000FF0070E0F16D8B406D0EFD7D8900E3217
:1040A0000D320C32132A13501418D8A4F7D712AEBD
:1040B0000CD0FF0E091AFF0E0A1AFF0E0B1A010E82
:1040C0000926000E0A22000E0B2212AC0CD0FF0EA5
:1040D0000C1AFF0E0D1AFF0E0E1A010E0C26000E02
:1040E0000D22000E0E22000E126E09500C260A50F0
:1040F0000D220B500E220EAE0ED0FF0E0C1AFF0E2C
:104100000D1AFF0E0E1A010E0C26000E0D22000EC7
:104110000E22010E126E0CC001F00DC002F00EC096
:1041200003F014C004F012C005F07DECB0F001C043
:1041300009F002C00AF003C00BF012000101A96FE0
:10414000030E0101A66FC3D0000E0101A76F000E80
:104150000001BC6F000E0101A56F01019451010126
:10416000D8B419D0280E65ECB5F00101AB6F010190
:10417000D890AB310101AB6F410E0101AB650BD0A3
:104180000101A52BA5050101956F040E010195659F
:10419000E9D7000E1200F298F096200ECBECB1F0A9
:1041A0001A0E01018D6FC90E8C6F0DECB6F0010176
:1041B000A95153ECB6F0000E0101AA6F0ED0010117
:1041C000AA51010DA00EF324D96E020EF420DA6E6E
:1041D000DF5053ECB6F00101AA2B0101A9510101F6
:1041E000AA5DD8A0ECD7800ECBECB1F0F288F086B7
:1041F0000001B351D8B4F0B001D0FAD7000E0001DD
:10420000B36F200ECBECB1F0600ECBECB1F002013D
:10421000A0AB5BD0A1C2BAF022ECB4F08AC19DF190
:104220008BC19EF18CC19FF18DC1A0F10001BC51E9
:10423000D8A44BD022ECB4F08AC1A1F18BC1A2F179
:104240008CC1A3F18DC1A4F19DC195F19EC196F1E0
:104250009FC197F1A0C198F10101951F961F971F6B
:10426000981F952B000E9623972398230101A151A7
:10427000010195250101996F0101A25101019621CA
:1042800001019A6F0101A3510101972101019B6F67
:104290000101A4510101982101019C6F01019C5170
:1042A00001019B1108E1A90E0101995D610E010157
:1042B0009A59D8A0BBD70101A72BA7050101956F7B
:1042C000040E0101956103D042D7010E07D0010110
:1042D000A6070101A629D8A437D7000E0101A86FAF
:1042E0000101A85112003EC1E8F33FC1E9F30B0EF2
:1042F0000101466F01014651010D4E0EF324D96EA6
:10430000010EF420DA6E020EDF6E0101462B010170
:104310004651010D4E0EF32401018A6F010EF42067
:1043200001018B6FFAC18CF1FBC18DF1000E01010F
:104330008F6F040E8E6F34ECB5F001014651040FFF
:104340000101466F01014651010D4E0EF324D96E55
:10435000010EF420DA6EFCC1DFFF0101462BE80EEE
:104360000101EE6F030E0101EF6F000E0101F06F0E
:10437000000E0101F16F4AEC92F00301EC6F0301B2
:10438000EC510301D8A409D0010E01011E27000E33
:104390001F2320232123000E1200000E0301EC6FC7
:1043A000000E0301EB6F000EEA6F0301EB514AE1CF
:1043B000640E0301EA5DD8B045D01A0E0301E76F21
:1043C000F80EE82EFED7E72FFCD700D0DAECB7F0D6
:1043D0000009D8B433D014C148F111C1D9FF12C1BA
:1043E000DAFF020EDE18D8B403D0E8ECB7F026D01E
:1043F000010120EE01F01151D9261251DA22DE28F6
:10440000D8A402D0010E01D0000E0301EC6F01010F
:1044100020EE02F01151D9261251DA22DF500001AC
:10442000A56F010120EE03F01151D9261251DA22B5
:10443000DF500001A96FE8ECB7F004D00301EA4BAC
:10444000EB2BB3D70301EC510301D8A408D0010E24
:1044500001011E27000E1F232023212307D0010E58
:1044600001012227000E2323242325230301EC51DD
:10447000120040C1EBF341C1ECF30B0E0101466F9A
:1044800001014651010D4E0EF324D96E010EF420A8
:10449000DA6E040EDF6E0101462B0301EA510301BF
:1044A000D8B40ED001014651010D4E0EF324D96E41
:1044B000010EF420DA6EFF0E0DD00101462B0CD058
:1044C00001014651010D4E0EF324D96E010EF42068
:1044D000DA6EF00EDF6EF1D701014651010D4E0E7E
:1044E000F32401018A6F010EF42001018B6FE7C3F1
:1044F0008CF1E8C38DF1E9C38EF101018F6B34ECCF
:10450000B5F0010146510301E9250101466FEB0EAB
:104510000101EE6F030E0101EF6F000E0101F06F5C
:10452000010E0101F16F4AEC92F00301EF6F0301FC
:10453000EF510301D8A409D0010E01011E27000E7E
:104540001F2320232123000E12000301EA5103013F
:10455000D8B44AD0000E0301EF6F000E0301EE6FD6
:10456000000EED6F0301EE5128E1640E0301ED5DD5
:10457000D8B023D01A0E0101FA6FF80EE82EFED73C
:10458000FA2FFCD700D0DAECB7F00009D8B411D07C
:1045900014C148F111C1D9FF12C1DAFF040EDE18AF
:1045A000D8B403D0E8ECB7F008D0010E0301EF6FE8
:1045B00004D00301ED4BEE2BD5D70301EF510301DE
:1045C000D8A408D0010E01011E27000E1F232023AE
:1045D000212307D0010E01012227000E23232423CB
:1045E00025230301EF511200010E01012227000EC5
:1045F000232324232523010E12000301E86F0B0E51
:104600000101466F01014651010D4E0EF324D96E92
:10461000010EF420DA6E010EDF6E0101462B01015E
:104620004651010D4E0EF324D96E010EF420DA6EC0
:10463000E8C3DFFF0101462B01018551D8A40DD04D
:1046400001018651D8A402D0000E1200000E030111
:10465000EC6F000E0301ED6F05D0000E0301EC6F4F
:1046600086C1EDF3EC0E0101EE6F030E0101EF6F59
:10467000000E0101F06F010E0101F16F4AEC92F0A2
:104680000301E76F0301E7510301D8A409D0010E2C
:1046900001011E27000E1F2320232123000E1200DC
:1046A000000E0301EB6F000E0301EA6F000EE96FCD
:1046B0000301EA513CE1640E0301E95DD8B037D053
:1046C0001A0E0101FA6FF80EE82EFED7FA2FFCD76A
:1046D00000D0DAECB7F00009D8B425D014C148F105
:1046E00011C1D9FF12C1DAFFDE04D8A40CD0010138
:1046F00020EE01F01151D9261251DA220301E851BE
:10470000DE18D8B403D0E8ECB7F00DD0010120EEEC
:1047100002F01151D9261251DA22DF500301EB6F5A
:10472000E8ECB7F004D00301E94BEA2BC1D7030151
:10473000EB510301D8A408D0010E01011E27000E81
:104740001F232023212307D0010E01012227000E61
:104750002323242325230301EB511200D4C1D8F1D4
:104760000101D96BDA6B0101D3350101D83701E3BF
:10477000D9810101D8510101DB6F0101DB51D8A4BE
:104780000AD0000E0101D26F000E0101D36F000E9E
:104790000101D46F1200D7C1D8F10101D96BDA6BD6
:1047A0000101D6350101D83701E3D9810101D85182
:1047B0000101E06F0101E051D8A40AD0000E01010F
:1047C000D26F000E0101D36F000E0101D46F1200F1
:1047D0000101E0517B0F0101DB27D4C1E0F10101B0
:1047E000D7510101E01B800E0101E0170101D38FB9
:1047F0000101D68FFF0E0101D517FF0E0101D6175B
:10480000000E0101D717000E0101DC6F000E01013F
:10481000DD6F000E0101DE6F070E0101DF6F010188
:10482000D2A10CD00101D5510101DC270101D651E3
:104830000101DD230101D7510101DE230101D890DF
:10484000D433D333D2330101D890D537D637D737C5
:104850000101DF2FE4D7090E0101DF6F0101D2A1B1
:104860000CD00101D5510101DC270101D651010114
:10487000DD230101D7510101DE230101D890D4339A
:10488000D333D2330101D890DE33DD33DC33010181
:10489000DF2FE4D7DCC18AF1DDC18BF1DEC18CF101
:1048A000DBC18DF1E0C18EF101ECABF08AC1D2F138
:1048B0008BC1D3F18CC1D4F11200000E0101BC6F89
:1048C000020E0101BC6501D02DD00101B0510101E2
:1048D000BC5DD8A006D0000E0101BB6F000EBA6F00
:1048E00013D00101BC51010DF3500101AE25D96E69
:1048F000F4500101AF21DA6EDF500101B46F010104
:10490000B4510101BA6FBB6B0101BC51010DCC0E5A
:10491000F324D96E000EF420DA6EBAC1DFFF010174
:10492000BC2BCED70101B051010DF3500101AE25D2
:104930000101A16FF4500101AF210101A26FB1C1CA
:10494000A3F1B2C1A4F1B3C1A5F1CC0E0101A66FD0
:10495000000E0101A76FE2ECA9F0AEC1A1F1AFC159
:10496000A2F10101B0510101B125FE0F0101A36FB8
:10497000B2C1A4F1B3C1A5F1CC0E0101A66F000E26
:104980000101A76F87ECABF0000E0101BC6F010EB7
:104990000101BC6501D03AD0FE0E0101B46FFF0EDB
:1049A0000101B56F0101B151B0C1B6F10101B76BA1
:1049B0000101B627000EB7230101BC510101B62742
:1049C000000EB7230101B4510101B6270101B55111
:1049D0000101B7230101B6510101AE25D96E0101D4
:1049E000B7510101AF21DA6E0101BC51010DCC0EAE
:1049F000F324E16E000EF420E26EDE50E618D8B427
:104A000002D0000E12000101BC2BC1D7010E120012
:104A1000A1C1A5F10101A66BA76B0101A0350101A0
:104A2000A53701E3A6810101A5510101AC6F010188
:104A3000AC51D8A40AD0000E01019F6F000E0101F5
:104A4000A06F000E0101A16F1200A4C1A5F1010128
:104A5000A66BA76B0101A3350101A53701E3A68170
:104A60000101A5510101AD6F0101AD51D8A40AD0DA
:104A7000000E01019F6F000E0101A06F000E0101E9
:104A8000A16F1200000E0101A96F000E0101AA6FB3
:104A9000000E0101AB6F0101AD51890F0101AC5F47
:104AA000A1C1ADF10101A4510101AD1B800E0101B5
:104AB000AD170101A08FFF0E01019F17FF0E01012D
:104AC000A017000E0101A1170101A38FFF0E010124
:104AD000A217FF0E0101A317000E0101A417180E63
:104AE0000101A86F0101D890A937AA37AB3701019E
:104AF000A25101019F5D0101A3510101A0590101D2
:104B0000A4510101A159D8A00ED00101A251010167
:104B10009F5F0101A3510101A05B0101A4510101AB
:104B2000A15B0101A9810101D8909F37A037A1376E
:104B30000101A82FD7D7A9C18AF1AAC18BF1ABC1B6
:104B40008CF1ACC18DF1ADC18EF101ECABF08AC13D
:104B50009FF18BC1A0F18CC1A1F11200B0C1B2F1E3
:104B60000101B36BB46B0101AF350101B23701E351
:104B7000B3810101B2510101BC6F0101BC51D8A444
:104B80000AD0000E0101AE6F000EAF6F000EB06FC5
:104B9000000EB16F1200170E0101B26FAEC1B3F17A
:104BA000AFC1B4F1B0C1B5F10101B2290101B66FD5
:104BB00005D00101D890B533B433B3330101B62F1A
:104BC000F8D70101B3510101B76F0101AF8FFF0E9B
:104BD0000101AE17FF0E0101AF17000E0101B01762
:104BE0000101AE510101B86F0101AF510101B96F6F
:104BF0000101B0510101BA6F0101BB6B8E0E0101C1
:104C0000BC5F0101BCAF1AD00101BC51800A8F0FFB
:104C1000D8B00AD0000E0101AE6F000EAF6F000ECB
:104C2000B06F000EB16F12000101D890BB33BA33E0
:104C3000B933B8330101BC3FF7D71BD0170E0101C0
:104C4000BC6512D0000E0101AE6F000EAF6F000EFA
:104C5000B06F000EB16F12000101D890B837B937AC
:104C6000BA37BB370101BC070101BC510101D8A40F
:104C7000F3D70101B7510101D8B409D00101BB1F1D
:104C8000BA1FB91FB86D000EB923BA23BB23B8C130
:104C9000AEF1B9C1AFF1BAC1B0F1BBC1B1F112000F
:104CA0009CC1AFF09DC1B0F09EC1B1F0000E0101FA
:104CB000976F140E966FD4ECB0F08A868B8CCECFA3
:104CC000B4F001014569000E01019F6F010E010161
:104CD0009F6501D00ED001019F51420D500EF3246B
:104CE000D96E030EF420DA6E000EDF6E01019F2BE9
:104CF000EDD7000E01019F6F040E01019F6501D0E9
:104D00000ED001019F51060D280EF324D96E020E1C
:104D1000F420DA6E000EDF6E01019F2BEDD7010E3D
:104D20000001AB6F000EAC6F000EAD6F000EAE6FEA
:104D3000000E01019F6F070E01019F6501D017D082
:104D400001019F51010DA30EF324D96E000EF42032
:104D5000DA6E01019F51010DC00EF324E16E000EC9
:104D6000F420E26EDFCFE7FF01019F2BE4D7000EB6
:104D700001019F6F1F0E01019F6501D017D0010136
:104D80009F51020DF30EF324F66EFE0EF420F76E23
:104D9000F86A000EF8220900F5CF8CF10A00F5CF71
:104DA0008DF10DECB6F001019F2BE4D7200ECBEC7A
:104DB000B1F0000E01018D6F560E8C6F0DECB6F048
:104DC000400ECBECB1F01C0E01018D6F0F0E8C6FFD
:104DD0000DECB6F0600ECBECB1F0F292F288F090F0
:104DE000F0861200E00E01013A6F020E01013B6FE6
:104DF0000001B751D8B446D0790E01018A6F010E77
:104E000001018B6FEB0E01018C6FFF0E01018D6FA5
:104E1000000E01018F6F030E8E6F34ECB5F0080E9B
:104E200001017F6F7D0E01018A6F010E01018B6F01
:104E30007E0E01018C6F010E01018D6F01014A513F
:104E40002AECA8F0010E0101806F3AC18AF13BC142
:104E50008BF121EE79F001EE8CF0090EDBCFEBFF48
:104E6000E806FCE267ECAFF00101FB6F0101FB51CA
:104E7000010DF35001013A27F45001013B23000ECC
:104E80000001B76F0001BB51D8B438D0790E0101D1
:104E90008A6F010E01018B6FF70E01018C6FFF0EFF
:104EA00001018D6F000E01018F6F030E8E6F34ECC8
:104EB000B5F0040E01017F6FFFC17DF1010E01010C
:104EC000806F3AC18AF13BC18BF121EE79F001EE9E
:104ED0008CF0090EDBCFEBFFE806FCE229ECB1F029
:104EE0000101FB6F0101FB51010DF35001013A2754
:104EF000F45001013B23000E0001BB6FE00E0301E3
:104F0000E76F020E0301E86FE00E000801013A2589
:104F10000301E96F010E0301EA6F39ECA2F0120000
:104F2000AEC1A1F1AFC1A2F10101B0510101B125A2
:104F30000101A36FB2C1A4F1B3C1A5F1CC0E01016F
:104F4000A66F000E0101A76F87ECABF0000E010108
:104F5000B86F030E0101B86501D028D00101B85126
:104F6000010DCC0EF324D96E000EF420DA6E01018F
:104F7000B151B0C1B4F10101B56B0101B427000E0C
:104F8000B5230101B8510101B427000EB523010179
:104F9000B4510101AE25E16E0101B5510101AF210E
:104FA000E26EDFCFE7FF0101B82BD3D7000E01017E
:104FB000B86F020E0101B86501D02DD00101B051CA
:104FC0000101B85DD8A006D0000E0101B76F000E38
:104FD000B66F13D00101B851010DF3500101AE2598
:104FE000D96EF4500101AF21DA6EDF500101B46FC8
:104FF0000101B4510101B66FB76B0101B851010D48
:10500000CC0EF324D96E000EF420DA6EB6C1DFFFA9
:105010000101B82BCED70101B051010DF3500101B0
:10502000AE250101A16FF4500101AF210101A26F72
:105030000101B151040F0101A36FB2C1A4F1B3C1C9
:10504000A5F1CC0E0101A66F000E0101A76FE2ECE5
:10505000A9F0120001018E6F75D08AC1D9FF8BC1F2
:10506000DAFF140EDF6E8CC1D9FF8DC1DAFF000E9E
:10507000DF6E12008AC1D9FF8BC1DAFF0A0EDF6E24
:105080008CC1D9FF8DC1DAFF000EDF6E12008AC11C
:10509000D9FF8BC1DAFF050EDF6E8CC1D9FF8DC140
:1050A000DAFF000EDF6E12008AC1D9FF8BC1DAFF72
:1050B000020EDF6E8CC1D9FF8DC1DAFF320EDF6EBA
:1050C00012008AC1D9FF8BC1DAFF010EDF6E8CC1DD
:1050D000D9FF8DC1DAFF190EDF6E12008AC1D9FF28
:1050E0008BC1DAFF000EDF6E8CC1D9FF8DC1DAFFF4
:1050F0003C0EDF6E12008AC1D9FF8BC1DAFF000EB1
:10510000DF6E8CC1D9FF8DC1DAFF1E0EDF6E12007B
:105110008AC1D9FF8BC1DAFF000EDF6E8CC1D9FFC7
:105120008DC1DAFF0F0EDF6E12008AC1D9FF8BC16D
:10513000DAFF000EDF6E8CC1D9FF8DC1DAFF000EE1
:10514000DF6E120001018E51000AD8B486D7010A21
:10515000D8B490D7030AD8B49AD7010AD8B4A4D740
:10516000070AD8B4AED7010AD8B4B8D7030AD8B45E
:10517000C2D7010AD8B4CCD7D8D70101A16F010199
:1051800085698669130E0101846F370E836F000EE7
:105190000101A56F090E0101A56501D012D0010121
:1051A000A551090D080EF326000EF422460EF32435
:1051B000D96E020EF420DA6E000EDF6E0101A52B0F
:1051C000E9D7000E0101396F000E386F000E0101A2
:1051D000006F000E0101436FC5ECB7F0000E010136
:1051E000466F000E0101A56F090E0101A56501D0F2
:1051F00010D00101A551040D000EF324D96E020E4A
:10520000F420DA6EDE6ADE6ADE6ADD6A0101A52B51
:10521000EBD7000E0101A26F0101A251870B2009FB
:10522000A26F0101A2830101A1B103D00101A295E6
:1052300002D00101A285C80E0101A36F000E010179
:10524000A46FA2C19CF1A3C19DF1A4C19EF150EC39
:10525000A6F0850E01018A6F010E01018B6F830E8E
:1052600001018C6F010E01018D6FF4ECB7F00101AB
:1052700089517FECB7F00101438101014387B2C03E
:10528000A0F10101A03B010143510101A019CF0B85
:10529000A0190101436FCECFB6F0F090F086120056
:1052A000010193690001BDA503D07BECADF005D0F1
:1052B0000001BDA704D0ABECB2F00101936F010176
:1052C0009329D8A404D095ECB6F00101936F0101A5
:1052D0009329D8B474D001019351090D080EF32617
:1052E000000EF422460EF324D96E020EF420DA6E7C
:1052F000BDC0DFFF0001BDA534D0000E0101926FDB
:10530000030E0101926501D02CD001019251010DD3
:10531000260EF324D96E010EF420DA6E01019251AB
:10532000010D040EF326000EF422460E0101906FCB
:10533000020E0101916FF35001019027F450010119
:10534000912301019351090DF35001019025E16E64
:10535000F45001019121E26EDFCFE7FF0101922BB2
:10536000CFD70001BDA711D001019351090D020E45
:10537000F326000EF422460EF324D96E020EF4201A
:10538000DA6E87C1DEFF88C1DDFF01019351090D8F
:10539000460EF324D96E020EF420DA6E3CC1DEFF15
:1053A0003DC1DDFF01019351040D000EF324D96EC0
:1053B000020EF420DA6EDE6ADE6ADE6ADD6A010160
:1053C00093511200A3C18AF101018B6B000E010100
:1053D0008D6F040E8C6F08ECAFF001018A2901017A
:1053E000AB6F000E0101AC6F76D0000E0101AD6F06
:1053F000020E0101AD6501D019D00101AD51010DC1
:10540000F3500101A625D96EF4500101A721DA6EEF
:105410000101AD51010DCC0EF324E16E000EF4201C
:10542000E26EDFCFE7FF0101AD2BE2D7ACC1CFF0D9
:10543000CC0E01018A6F000E01018B6FA4C18CF1AB
:10544000A5C18DF1FDEC9BF0000E0101AD6F030EC7
:105450000101AD6501D03DD00101A3510101A86F4B
:10546000A96B0101AC51040D0101AD51F326000EF1
:10547000F4220101A851F35CF450800A0101AA6FE3
:105480000101A951800A0101AA59D8B022D0010115
:10549000AD51010DCC0EF324D96E000EF420DA6E5E
:1054A000DF500101A86F0101AC51040D0101AD51A4
:1054B000F326000EF422F3500101A125D96EF45019
:1054C0000101A221DA6E0101A851DF1A0101AD2B01
:1054D000BED70101AC2B0101AB510101AC5DD8B0CD
:1054E000120083D79B9CD388D38AD38C0F01486941
:1054F0001F0E0F01496F000E926E000E936E000E8C
:10550000946E8B800F0139996596D08E0F014751AB
:10551000C30B0C09476F0F01478D0F01478F000E1A
:105520000F013F6F000E0F013E6F0F013FAF06D01E
:105530000F013FABD1ECB7F00F013F9F0F013F9B35
:10554000D1ECB7F00F013F8F0F01478F0F013F9153
:105550000F013F93000E0F013B6F000E0F013A6FDA
:105560000F013F9BA590A490A3809388938A130E6C
:10557000C86E899CC29092800F01489192820F015F
:1055800048930F01499FC29CC29EC150F80B01096C
:10559000C16EC186C188C18AC18E550EA76EAA0E82
:1055A000A76E0E01BF910D0E0E01E16F0C0E0E01E4
:1055B000FC6F050E0E01FD6F0A0E0E01C46F0B0E7F
:1055C0000E01C56F550EA76EAA0EA76E0E01BF8104
:1055D0008B8C8A86949C939693809484F18AF18C28
:1055E000F292F288F090F08CF086948293929394E9
:1055F000C00E736E2A0E726E899A928AF28EF28CA7
:10560000120001018D510101D8B408D001018A5165
:1056100001018B1101018C11D8A411D0000E0101E0
:105620008A6F000E01018B6F000E01018C6F12005A
:1056300001018D2B0101D8908C338B338A33000EFE
:1056400001018A1501018F6F000E01018B15010107
:10565000906FFE0E01018C150101916F01018F51B8
:105660000101901101019111D8B411D0E1D70101CC
:105670008D2B010E01018A27000E01018B23000EE4
:1056800001018C230101D8908C338B338A33000EB7
:1056900001018A1501018F6F000E01018B150101B7
:1056A000906FFF0E01018C150101916F01018F5167
:1056B0000101901101019111D8B408D0D8D701018E
:1056C0008D070101D8908A378B378C3701018BBF4A
:1056D00004D0020E01018D61F2D701018DB102D01B
:1056E00001018B9F0101D8908D3301018D51010182
:1056F0008C1301018E510101D8B402D001018C8FAD
:105700008AC18AF18BC18BF18CC18CF11200A3C1CB
:105710008AF101018B6B000E01018D6F040E8C6FFD
:1057200008ECAFF001018A290101AB6F000E010105
:10573000AD6F030E0101AD6501D010D00101AD5177
:10574000010DF3500101A625D96EF4500101A721E6
:10575000DA6E000EDF6E0101AD2BEBD7000E0101FA
:10576000AD6F53D0000E0101AC6F030E0101AC65AB
:1057700001D03FD00101A3510101A86FA96B010124
:10578000AD51040D0101AC51F326000EF4220101CC
:10579000A851F35CF450800A0101AA6F0101A951DC
:1057A000800A0101AA59D8B024D00101AD51040DDD
:1057B0000101AC51F326000EF422F3500101A125A2
:1057C000D96EF4500101A221DA6EDF500101A86FF9
:1057D0000101AC51010DF3500101A625D96EF45021
:1057E0000101A721DA6E0101A851DF1A0101AC2BDA
:1057F000BCD7A6C18AF1A7C18BF1A4C18CF1A5C108
:105800008DF1FDEC9BF00101AD2B0101AB510101CC
:10581000AD5DD8B01200A6D7C7C18AF1C8C18BF15F
:10582000C9C18CF1CD0E01018D6F010E01018E6F8A
:1058300063ECB2F00101CEAF17D00101C9AF0AD0BD
:10584000000E0101C76F800E0101C86FBF0E01017C
:10585000C96F1200000E0101C76F000E0101C86F71
:10586000000E0101C96F12000101CE5105E1150EB4
:105870000101CD5DD8A007D0C7C1C7F1C8C1C8F12B
:10588000C9C1C9F11200C7C1AEF1C8C1AFF1C9C1E8
:10589000B0F1AEECA5F0AEC1BDF1AFC1BEF1B0C18B
:1058A000BFF1B1C1C0F17CECB1F0BDC1CAF1BEC164
:1058B000CBF1BFC1CCF1C7C18AF1C8C18BF1C9C15D
:1058C0008CF1CAC18DF1CBC18EF1CCC18FF1E1EC6D
