:040000007BEF00F0A2
:0E0008004C82FACF73F0FBCF74F090EF42F011
:100018004C80D8CF01F0E8CF02F0E0CF03F0FACF60
:1000280004F0FBCF05F0E9CF06F0EACF07F0E1CF07
:1000380008F0E2CF09F0D9CF0AF0DACF0BF0F3CF0E
:100048000CF0F4CF0DF0F6CF0EF0F7CF0FF0F8CF9D
:1000580010F0F5CF11F0A4A026D03C0E01014A25DE
:1000680001014A6F000E01014B2101014B6F000E87
:1000780001014C2101014C6F000E01014D210101CC
:100088004D6F4B044B6E4B50D8A40CD0010E0101A0
:100098006B6F0101FF51D8A403D0010E4B6E02D043
:1000A800FFC14BF0A49011C0F5FF10C0F8FF0FC0BE
:1000B800F7FF0EC0F6FF0DC0F4FF0CC0F3FF0BC036
:1000C800DAFF0AC0D9FF09C0E2FF08C0E1FF07C094
:1000D800EAFF06C0E9FF05C0FBFF04C0FAFF03C042
:1000E800E0FF02C0E8FF01C0D8FF4C901000A6EF67
:0200F80041F0D5
:101FEC0000010203040506070036008402090409F7
:101FFC00060C08C10A7D0C640E14100012001400AB
:10200C00163818C81A0D1C001E72203822382407E6
:10201C00260028002A692C812E7E309632F83488CE
:10202C00364038003AE83C003EC0030000A00500F2
:10203C000060090000E0100000E01F0000E03D001F
:10204C0000E0790000E0F10000E0E10100E0C103F4
:10205C0000E0810700E0010F00E0011E00443D1B81
:10206C00000DB415004F4F4F4F4F4F4F4F4F4F4F29
:10207C004F4F4F4F4F4F4F4F4F4F4F50505050505F
:10208C005050505050222426282A2C2E30323437CF
:10209C00393B3D3F414345474A4C4E0507090B0D23
:1020AC000F11141618696E76616C69642100302E5C
:1020BC0031356D5700312E326D5700322E356D573C
:1020CC0000302E366D5700302E336D570031306D89
:1020DC00570032306D570056426100466C4D004C33
:1020EC0069740050777200546D7000356D5700554F
:1020FC007046005570740000F1EC22F00009D8B461
:10210C00C1EF15F00001D4B51200000E01012C6FC7
:10211C0034A404D00001C86BC82B02D00001C86BDA
:10212C0001012C510001C819FC0BC81901012C6FBD
:10213C0034A603D001012C8702D001012C97345016
:10214C00030BE806D8A404D00001C86BC82B02D03E
:10215C000001C86B0001C83BC84701012C510001AC
:10216C00C819DF0BC81901012C6F34AE03D0010163
:10217C002C8D02D001012C9D34AE06D001012C8F88
:10218C0035C02FF136C030F13BC035F13AC034F1D7
:10219C000001D495B1EF15F00A0E396002D0BDEFF5
:1021AC0015F020EE02F03750D9263850DA22DF50E5
:1021BC000101DC6F20EE03F03750D9263850DA22BB
:1021CC00DF500101DD6F20EE04F03750D926385076
:1021DC00DA22DF500101DE6F20EE05F03750D926F0
:1021EC003850DA22DF500101DF6F20EE06F0375055
:1021FC00D9263850DA22DF500101E36F20EE07F0C8
:10220C003750D9263850DA22DF500101E46F20EE26
:10221C0008F03750D9263850DA22DF500101E56F2B
:10222C0020EE09F03750D9263850DA22DF50010160
:10223C00E66F000E01012C6F34A603D001012C8730
:10224C0002D001012C9701012C51030B0009D8A4D9
:10225C0007D00101DE2903E10101DF29D8A4D2D086
:10226C000001DD510101E51912E10001DE5101010E
:10227C00E619D8A40CD00001DB510101E31907E1E8
:10228C000001DC510101E419D8B4BDEF15F0000ECA
:10229C000101E76F030E0101E76501D03CD001019C
:1022AC00E751080D030EF326000EF422000EF32462
:1022BC00D96E010EF420DA6EDF50D8B429D00101AA
:1022CC00E751080D000EF324D96E010EF420DA6EDE
:1022DC000101E551DE181CE10101E651DE18D8A41C
:1022EC0017D020EE0AF03750D9263850DA220101E7
:1022FC00E751080D020EF326000EF422000EF32413
:10230C00E16E010EF420E26EDE50E618D8B403D074
:10231C000101E72BBFD7040E0101E76102D0BDEF2D
:10232C0015F0000E0101E76F030E0101E76501D006
:10233C0013D00101E751080D030EF326000EF42211
:10234C00000EF324D96E010EF420DA6EDF50D8B4EF
:10235C0003D00101E72BE8D7040E0101E7614CD053
:10236C000101E751080D000EF324D96E010EF42083
:10237C00DA6EE5C1DEFFE6C1DDFF20EE0AF0375074
:10238C00D9263850DA220101E751080D020EF32646
:10239C00000EF422000EF324E16E010EF420E26E26
:1023AC00DFCFE7FF0101E751080D030EF326000E06
:1023BC00F422000EF324D96E010EF420DA6E030E13
:1023CC00DF6E57EC42F00101E751080D040EF326C5
:1023DC00000EF422000EF324D96E010EF420DA6EF6
:1023EC00000181C0DEFF000182C0DEFF000183C05E
:1023FC00DEFF000184C0DEFF01012C51FC0B010942
:10240C002C6F6BD00001DB510101DC1905E10001DF
:10241C00DC510101DD19D8A4AAD30001DD51010161
:10242C00DE1905E10001DE510101DF19D8A49FD3AB
:10243C0020EE01F03750D9263850DA22DFA44DD0E7
:10244C004AC06CF1020E01016D6FE3C16EF1E4C183
:10245C006FF1E5C170F1E6C171F1DBC072F1DCC066
:10246C0073F1DDC074F1DEC075F120EE0AF0375067
:10247C00D9263850DA22DF500101766F000E0101A7
:10248C00776F300E0101786F0D0E0001D86F000EC2
:10249C000001D16F0001D18B0001D951090D040E3F
:1024AC00F326000EF422460EF3240001D26F020E26
:1024BC00F4200001D36FD1C0B0F0D2C0B1F0D3C0C2
:1024CC00B2F06C0E0001B36F010E0001B46FD8C0F6
:1024DC00B5F06FEC2BF001012C8520EE0BF0375092
:1024EC00D9263850DA22DF50D8A4A6D020EE0CF032
:1024FC003750D9263850DA22300EDE18D8A478D0CE
:10250C0082D0000E0101E26F030E0101E26501D0E1
:10251C0020D00101E2510001C86FC96B0D0E000102
:10252C00C827000EC9230001C8513724D96E0001F9
:10253C00C9513820DA6E0101E251010D4E0EF3241F
:10254C00E16E010EF420E26EDFCFE7FF0101E22B1A
:10255C00DBD78D0E486E20EE11F03750D92638504F
:10256C00DA22DFBE489020EE11F03750D9263850D1
:10257C00DA22DF500101D06F20EE12F03750D9264D
:10258C003850DA22DF500101D16FDBC05EF1DCC0C4
:10259C005FF15FEC40F00101216F01012129D8B4FA
:1025AC0012D001012151090D080EF326000EF42260
:1025BC00460EF324D96E020EF420DA6EDF50486E0C
:1025CC004884488605D08D0E486E0101D0BF4890D6
:1025DC00C9EC38F00101216F01012129D8B403D0D5
:1025EC000101208102D00101209101012093BFD271
:1025FC0020EE0CF03750D9263850DA22DF50110A71
:10260C00D8B47FD7B4D220EE0AF03750D926385040
:10261C00DA220101FE51DE18D8A4A9D201015851C9
:10262C000101E51905E1010159510101E619D8A48F
:10263C009ED20001D4979BD23950F50F0101336F14
:10264C000B0E37240101316F000E38200101326F5F
:10265C00E3C12DF1E4C12EF120EE08F03750D9265C
:10266C003850DA22DE28D8A40FD020EE09F03750EB
:10267C00D9263850DA22DE28D8B434AE05D035C08D
:10268C002FF136C030F10AD001012C8F080E3724FF
:10269C0001012F6F000E38200101306F01012C8DCC
:1026AC0001013351D8B463D20001D48560D2040E39
:1026BC000101E06F0101E0510001C86FC96B040E0C
:1026CC000001C827000EC9230001C8513724D96E58
:1026DC000001C9513820DA6E4D0EDE18D8B416D070
:1026EC000101E0510001C86FC96B040E0001C8273D
:1026FC00000EC9230001C8513724D96E0001C951FD
:10270C003820DA6E5D0EDE18D8A431D20001D4A1C7
:10271C002ED237C0D9FF38C0DAFFDF5001015E6F0F
:10272C0020EE01F03750D9263850DA22DF50010163
:10273C005F6F20EE02F03750D9263850DA22DF5086
:10274C000101D06F20EE03F03750D9263850DA2231
:10275C00DF500101D16F0101E051010DF35037241D
:10276C00D96EF4503820DA6EDE28D8A400D20101DC
:10277C00E0510001C86FC96B010E0001C827000EA3
:10278C00C9230001C8513724D96E0001C951382022
:10279C00DA6EDF500101E16F080E0001D661E7D15E
:1027AC000101E139030B0001C86F020E0001C86181
:1027BC00DED10001D6510A0D000EF324D96E030EA2
:1027CC00F420DA6ED2C1DFFF0001D6510A0D070EDC
:1027DC00F326000EF422000EF324D96E030EF4201F
:1027EC00DA6E34C1DFFF0001D6510A0D080EF32654
:1027FC00000EF422000EF324D96E030EF420DA6ED0
:10280C0035C1DFFF0001D6510A0D050EF326000E6F
:10281C00F422000EF324D96E030EF420DA6E5EC19E
:10282C00DEFF5FC1DDFF0001D6510A0D090EF32654
:10283C00000EF422000EF324D96E030EF420DA6E8F
:10284C00000EDF6E0001D6510A0D090EF326000EA4
:10285C00F422000EF324D96E030EF420DA6E030179
:10286C00DF8C0101E131030B0001C86F0001D6516F
:10287C000A0D090EF326000EF422000EF324D96E75
:10288C00030EF420DA6E0301DF500001C819FC0BB3
:10289C00C8190301DF6E0101E1A70FD00001D65169
:1028AC000A0D090EF326000EF422000EF324D96E45
:1028BC00030EF420DA6E0301DF860101E139030B0C
:1028CC000001C86F020E0001C8610FD00001D65183
:1028DC000A0D090EF326000EF422000EF324D96E15
:1028EC00030EF420DA6E0301DF8A000E0101E76F9C
:1028FC00030E0101E76501D02ED00101E751010D56
:10290C00F35001012F25D96EF45001013021DA6EFC
:10291C000101E751010D010EF326000EF422000E09
:10292C000001C86F030E0001C96FF3500001C827E6
:10293C00F4500001C9230001D6510A0DF3500001D7
:10294C00C825E16EF4500001C921E26EDFCFE7FF2C
:10295C000101E72BCDD70001D62B09D120EE03F0D6
:10296C003750D9263850DA22DF50D8A467D020EE61
:10297C0001F03750D9263850DA22DF500001DD6FD4
:10298C0020EE02F03750D9263850DA22DF50000101
:10299C00DE6FDD0E0001816F000E0001826FDB0E19
:1029AC000001836F000E0001846F21EC46F00001E2
:1029BC00D483BF0E486E000E0101E76F030E0101B8
:1029CC00E76501D017D00101E751010DF350352413
:1029DC00D96EF4503620DA6E0101E751010D4E0E1E
:1029EC00F324E16E010EF420E26EDFCFE7FF01016C
:1029FC00E72BE4D70001DD51D8A405D0000E01016E
:102A0C00D16F000E04D0DEC0D1F1000E0101D06FE9
:102A1C00DBC05EF1DCC05FF1C9EC38F00001D96FAE
:102A2C000001D951040D000EF324D96E020EF420CE
:102A3C00DA6EDE6ADE6ADE6ADD6A99D00001D96977
:102A4C000001DB69DC690101D069D169D00E00019C
:102A5C00816F010E0001826FDB0E0001836F000E8F
:102A6C000001846F21EC46F082D0000E0101E76F6B
:102A7C00030E0101E76501D017D00101E751010DEB
:102A8C00F3503524D96EF4503620DA6E0101E7513B
:102A9C00010D4E0EF324E16E010EF420E26EDFCF39
:102AAC00E7FF0101E72BE4D74CEC3CF00101D76FB9
:102ABC000101D729D8B45BD00101D751090D080EFB
:102ACC00F326000EF422460EF324D96E020EF420E7
:102ADC00DA6E0201DFAA4BD0000E0101E76F090E7E
:102AEC000101E76501D012D00101E751090D080E73
:102AFC00F326000EF422460EF324D96E020EF420B7
:102B0C00DA6E000EDF6E0101E72BE9D70001D969FF
:102B1C000001DD69DE690001DB69DC69DD0E0001A5
:102B2C00816F000E0001826FDB0E0001836F000EBF
:102B3C000001846F21EC46F00001D49318D037C00B
:102B4C00D9FF38C0DAFFDF50020AD8B407D7010A20
:102B5C00D8B48BD70CD03450030B000AD8B4D2EFB6
:102B6C0010F0010AD8B4EBD7020AD8B4A0D50001F2
:102B7C00D4A5AEEC45F057EC42F081C0D8F182C040
:102B8C00D9F183C0DAF184C0DBF1000E0101E76FEB
:102B9C00030E0101E76501D067D00101E751080D73
:102BAC00030EF326000EF422000EF324D96E010E50
:102BBC00F420DA6EDF50D8B454D00101E751080D7F
:102BCC00040EF326000EF422000EF324D96E010E2F
:102BDC00F420DA6EDECFC8F0DECFC9F0DECFCAF05B
:102BEC00DECFCBF00001C81FC91FCA1FCB1FC82BDB
:102BFC00000EC923CA23CB230101D8510001C825DB
:102C0C000001CC6F0101D9510001C9210001CD6F28
:102C1C000101DA510001CA210001CE6F0101DB5123
:102C2C000001CB210001CF6F0001CF510BE1210E30
:102C3C000001CC5DA10E0001CD59070E0001CE594B
:102C4C00D8A00FD00101E751080D030EF326000E9A
:102C5C00F422000EF324D96E010EF420DA6E000E6D
:102C6C00DF6E0101E72B94D7010120A312000101B3
:102C7C0020B1120028C1C8F029C1C9F02AC1CAF07C
:102C8C002BC1CBF00001C81FC91FCA1FCB1FC82BFB
:102C9C00000EC923CA23CB230101D8510001C8253A
:102CAC000101D36F0101D9510001C9210101D46F78
:102CBC000101DA510001CA210101D56F0101DB517B
:102CCC000001CB210101D66F0101D6510BE1610E40
:102CDC000101D35DE30E0101D459160E0101D55942
:102CEC00D8A01200010120931200970E01015C6F15
:102CFC00010E01015D6FB70E0001816F010E000125
:102D0C00826FE30E0001836F200E0001846F000EB2
:102D1C000001866F030E856F5FEC43F0020E01011C
:102D2C00BD6F52C1BEF053C1BFF054C1C0F0E4EC52
:102D3C003AF0BEC0D7F3BFC0D8F3C0C0D9F3D7C3E5
:102D4C00A5F0D8C3A6F0D9C3A7F03AEC35F0000132
:102D5C00A5510101BB6F52C1BEF053C1BFF054C1AC
:102D6C00C0F0E4EC3AF0BEC0C6F0BFC0C7F0C0C0C3
:102D7C00C8F04CEC45F0C6C0DAF3C7C0DBF3C8C0F2
:102D8C00DCF3000E0001CC6FC80E0001CD6F420EBB
:102D9C000001CE6F52C18CF053C18DF054C18EF036
:102DAC00DAC389F0DBC38AF0DCC38BF03BEC2AF08E
:102DBC0089C0C9F08AC0CAF08BC0CBF093EC32F05A
:102DCC00C9C0DDF3CAC0DEF3CBC0DFF3DDC3BEF098
:102DDC00DEC3BFF0DFC3C0F0E4EC3AF0BEC0E0F3FA
:102DEC00BFC0E1F3C0C0E2F3E0C3A5F0E1C3A6F0BD
:102DFC00E2C3A7F03AEC35F00001A5510101BC6F1C
:102E0C00000E0101BE6F5CC181F05DC182F021EE4C
:102E1C00B7F000EE83F0080EDBCFEBFFE806FCE228
:102E2C0082EC3FF00101FD6F0101FD51010DF350EA
:102E3C0001015C27F45001015D23B70E0001816F85
:102E4C00010E0001826FEB0E0001836F200E00015A
:102E5C00846F000E0001866F030E856F5FEC43F0EC
:102E6C00030E0101BD6F68C1BBF1000E0101BE6F05
:102E7C005CC181F05DC182F021EEB7F000EE83F011
:102E8C00080EDBCFEBFFE806FCE2A5EC40F00101FD
:102E9C00FD6F0101FD51010DF35001015C27F45050
:102EAC0001015D23B70E0001816F010E0001826FDD
:102EBC00F30E0001836F200E0001846F000E0001E1
:102ECC00866F030E856F5FEC43F0010E0101BD6F41
:102EDC0055C1BEF056C1BFF057C1C0F0E4EC3AF09A
:102EEC00BEC0D7F3BFC0D8F3C0C0D9F3D7C3A5F0C9
:102EFC00D8C3A6F0D9C3A7F03AEC35F00001A55120
:102F0C000101BB6F55C1BEF056C1BFF057C1C0F037
:102F1C00E4EC3AF0BEC0C6F0BFC0C7F0C0C0C8F009
:102F2C004CEC45F0C6C0DAF3C7C0DBF3C8C0DCF329
:102F3C00000E0001CC6FC80E0001CD6F420E0001D7
:102F4C00CE6F55C18CF056C18DF057C18EF0DAC3DF
:102F5C0089F0DBC38AF0DCC38BF03BEC2AF089C030
:102F6C00C9F08AC0CAF08BC0CBF093EC32F0C9C068
:102F7C00DDF3CAC0DEF3CBC0DFF3DDC3BEF0DEC3CE
:102F8C00BFF0DFC3C0F0E4EC3AF0BEC0E0F3BFC06A
:102F9C00E1F3C0C0E2F3E0C3A5F0E1C3A6F0E2C3E5
:102FAC00A7F03AEC35F00001A5510101BC6F000E01
:102FBC000101BE6F5CC181F05DC182F021EEB7F002
:102FCC0000EE83F0080EDBCFEBFFE806FCE282ECB0
:102FDC003FF00101FD6F0101FD51010DF3500101A5
:102FEC005C27F45001015D23970E0101F46F010E73
:102FFC000101F56F970E000801015C250101F66FC8
:10300C00000E0101F76F1EEC31F00009D8A402D0BC
:10301C00000E1200970E01015C6F010E01015D6F35
:10302C00B70E0001816F010E0001826FEF0E0001DF
:10303C00836F200E0001846F000E0001866F030E5B
:10304C00856F5FEC43F0000E0101BD6F69C1BBF1F0
:10305C00010E0101BE6F5CC181F05DC182F021EEF9
:10306C00B7F000EE83F0080EDBCFEBFFE806FCE2D6
:10307C00A5EC40F00101FD6F0101FD51010DF35074
:10308C0001015C27F45001015D23B70E0001816F33
:10309C00010E0001826FFF0E0001836F200E0001F4
:1030AC00846F000E0001866F030E856F5FEC43F09A
:1030BC0001014D5101014C1101014B111DE13C0E5F
:1030CC0001014A5DD8B018D0050E0101BD6F4AC18F
:1030DC00BBF1000E0101BE6F5CC181F05DC182F0DD
:1030EC0021EEB7F000EE83F0080EDBCFEBFFE80625
:1030FC00FCE2A5EC40F0ADD001014D5101014C11A9
:10310C0035E1100E01014A5D0E0E01014B59D8B08C
:10311C002DD0040E0101BD6F4AC181F04BC182F06C
:10312C004CC183F04DC184F03C0E0001856F000E44
:10313C00866F000E876F000E886FD5EC3DF0000196
:10314C0081510101BB6F000E0101BE6F5CC181F0AA
:10315C005DC182F021EEB7F000EE83F0080EDBCFFC
:10316C00EBFFE806FCE2A5EC40F073D001014D51F9
:10317C003EE1800E01014A5D510E01014B59010ED9
:10318C0001014C59D8B033D0060E0101BD6F4AC1B4
:10319C0081F04BC182F04CC183F04DC184F0100E14
:1031AC000001856F0E0E866F000E876F000E886F04
:1031BC00D5EC3DF081C0E3F382C0E4F30301E451AC
:1031CC000101BB6FE3C3BCF1000E0101BE6F5CC11A
:1031DC0081F05DC182F021EEB7F000EE83F0080EB5
:1031EC00DBCFEBFFE806FCE234EC3FF032D0000E14
:1031FC000101BD6F4AC181F04BC182F04CC183F01B
:10320C004DC184F0800E0001856F510E866F010E4A
:10321C00876F000E886FD5EC3DF081C0E3F382C060
:10322C00E4F30301E4510101BB6FE3C3BCF1000EF5
:10323C000101BE6F5CC181F05DC182F021EEB7F07F
:10324C0000EE83F0080EDBCFEBFFE806FCE234EC7B
:10325C003FF00101FD6F0101FD51010DF350010122
:10326C005C27F45001015D23B70E0001816F010E44
:10327C000001826FFB0E0001836F200E0001846F32
:10328C00000E0001866F030E856F5FEC43F0040E99
:10329C000101BD6FFFC1BBF1010E0101BE6F5CC12D
:1032AC0081F05DC182F021EEB7F000EE83F0080EE4
:1032BC00DBCFEBFFE806FCE2A5EC40F00101FD6F73
:1032CC000101FD51010DF35001015C27F450010186
:1032DC005D23970E0101F46F010E0101F56F970E3E
:1032EC00000801015C250101F66F000E0101F76F6A
:1032FC001EEC31F00009D8A402D0000E1200970E7B
:10330C0001015C6F010E01015D6FB70E0001816F51
:10331C00010E0001826FE70E0001836F200E000189
:10332C00846F000E0001866F030E856F5FEC43F017
:10333C00030E0101BD6F42C181F043C182F044C153
:10334C0083F045C184F0640E0001856F000E866F1A
:10335C00000E876F000E886F1CEC42F081C08DF060
:10336C0082C08EF083C08FF084C090F02AEC41F0C4
:10337C008DC096F08EC097F08FC098F00101465129
:10338C000101422500018D6F0101475101014321CB
:10339C0000018E6F010148510101442100018F6F22
:1033AC0001014951010145210001906F2AEC41F0C6
:1033BC008DC099F08EC09AF08FC09BF094EC34F0D5
:1033CC0096C0D4F397C0D5F398C0D6F3D4C3BEF04F
:1033DC00D5C3BFF0D6C3C0F0E4EC3AF0BEC0D7F30F
:1033EC00BFC0D8F3C0C0D9F3D7C3A5F0D8C3A6F0DB
:1033FC00D9C3A7F03AEC35F00001A5510101BB6F20
:10340C00D4C3BEF0D5C3BFF0D6C3C0F0E4EC3AF0E1
:10341C00BEC0C6F0BFC0C7F0C0C0C8F04CEC45F091
:10342C00C6C0DAF3C7C0DBF3C8C0DCF3000E000182
:10343C00CC6FC80E0001CD6F420E0001CE6FD4C30D
:10344C008CF0D5C38DF0D6C38EF0DAC389F0DBC314
:10345C008AF0DCC38BF03BEC2AF089C0C9F08AC03F
:10346C00CAF08BC0CBF093EC32F0C9C0DDF3CAC00C
:10347C00DEF3CBC0DFF3DDC3BEF0DEC3BFF0DFC3D2
:10348C00C0F0E4EC3AF0BEC0E0F3BFC0E1F3C0C062
:10349C00E2F3E0C3A5F0E1C3A6F0E2C3A7F03AEC77
:1034AC0035F00001A5510101BC6F000E0101BE6F8A
:1034BC005CC181F05DC182F021EEB7F000EE83F0CB
:1034CC00080EDBCFEBFFE806FCE282EC3FF00101DB
:1034DC00FD6F0101FD51010DF35001015C27F4500A
:1034EC0001015D23970E0101F46F010E0101F56FCF
:1034FC00970E000801015C250101F66F010E010118
:10350C00F76F1EEC31F01200970E01015C6F010E8B
:10351C0001015D6FB70E0001816F010E0001826F1A
:10352C00E30E0001836F200E0001846F000E00017A
:10353C00866F030E856F5FEC43F0020E0101BD6FC9
:10354C0052C1BEF053C1BFF054C1C0F0E4EC3AF02C
:10355C00BEC0D7F3BFC0D8F3C0C0D9F3D7C3A5F052
:10356C00D8C3A6F0D9C3A7F03AEC35F00001A551A9
:10357C000101BB6F52C1BEF053C1BFF054C1C0F0CA
:10358C00E4EC3AF0BEC0C6F0BFC0C7F0C0C0C8F093
:10359C004CEC45F0C6C0DAF3C7C0DBF3C8C0DCF3B3
:1035AC00000E0001CC6FC80E0001CD6F420E000161
:1035BC00CE6F52C18CF053C18DF054C18EF0DAC372
:1035CC0089F0DBC38AF0DCC38BF03BEC2AF089C0BA
:1035DC00C9F08AC0CAF08BC0CBF093EC32F0C9C0F2
:1035EC00DDF3CAC0DEF3CBC0DFF3DDC3BEF0DEC358
:1035FC00BFF0DFC3C0F0E4EC3AF0BEC0E0F3BFC0F4
:10360C00E1F3C0C0E2F3E0C3A5F0E1C3A6F0E2C36E
:10361C00A7F03AEC35F00001A5510101BC6F000E8A
:10362C000101BE6F5CC181F05DC182F021EEB7F08B
:10363C0000EE83F0080EDBCFEBFFE806FCE282EC39
:10364C003FF00101FD6F0101FD51010DF35001012E
:10365C005C27F45001015D23B70E0001816F010E50
:10366C000001826FEB0E0001836F200E0001846F4E
:10367C00000E0001866F030E856F5FEC43F0030EA6
:10368C000101BD6F68C1BBF1000E0101BE6F5CC1D1
:10369C0081F05DC182F021EEB7F000EE83F0080EF0
:1036AC00DBCFEBFFE806FCE2A5EC40F00101FD6F7F
:1036BC000101FD51010DF35001015C27F450010192
:1036CC005D23B70E0001816F010E0001826FF30EB6
:1036DC000001836F200E0001846F000E0001866FC5
:1036EC00030E856F5FEC43F0010E0101BD6F55C1F8
:1036FC00BEF056C1BFF057C1C0F0E4EC3AF0BEC00A
:10370C00D7F3BFC0D8F3C0C0D9F3D7C3A5F0D8C383
:10371C00A6F0D9C3A7F03AEC35F00001A551010190
:10372C00BB6F55C1BEF056C1BFF057C1C0F0E4EC41
:10373C003AF0BEC0C6F0BFC0C7F0C0C0C8F04CEC79
:10374C0045F0C6C0DAF3C7C0DBF3C8C0DCF3000E2B
:10375C000001CC6FC80E0001CD6F420E0001CE6F80
:10376C0055C18CF056C18DF057C18EF0DAC389F07B
:10377C00DBC38AF0DCC38BF03BEC2AF089C0C9F0C8
:10378C008AC0CAF08BC0CBF093EC32F0C9C0DDF329
:10379C00CAC0DEF3CBC0DFF3DDC3BEF0DEC3BFF0C7
:1037AC00DFC3C0F0E4EC3AF0BEC0E0F3BFC0E1F31D
:1037BC00C0C0E2F3E0C3A5F0E1C3A6F0E2C3A7F0FA
:1037CC003AEC35F00001A5510101BC6F000E01016E
:1037DC00BE6F5CC181F05DC182F021EEB7F000EEEE
:1037EC0083F0080EDBCFEBFFE806FCE282EC3FF047
:1037FC000101FD6F0101FD51010DF35001015C2729
:10380C00F45001015D23970E0101F46F010E0101CB
:10381C00F56F970E000801015C250101F66F000E93
:10382C000101F76F1EEC31F00009D8A402D0000E94
:10383C001200970E01015C6F010E01015D6FB70E56
:10384C000001816F010E0001826FFF0E0001836F7A
:10385C00200E0001846F000E0001866F030E856F31
:10386C005FEC43F001014D5101014C1101014B1171
:10387C001DE13C0E01014A5DD8B018D0050E0101C6
:10388C00BD6F4AC1BBF1000E0101BE6F5CC181F07E
:10389C005DC182F021EEB7F000EE83F0080EDBCFB5
:1038AC00EBFFE806FCE2A5EC40F0ADD001014D5178
:1038BC0001014C1135E1100E01014A5D0E0E0101A2
:1038CC004B59D8B02DD0040E0101BD6F4AC181F007
:1038DC004BC182F04CC183F04DC184F03C0E000111
:1038EC00856F000E866F000E876F000E886FD5EC0B
:1038FC003DF0000181510101BB6F000E0101BE6F53
:10390C005CC181F05DC182F021EEB7F000EE83F076
:10391C00080EDBCFEBFFE806FCE2A5EC40F073D021
:10392C0001014D513EE1800E01014A5D510E010134
:10393C004B59010E01014C59D8B033D0060E010180
:10394C00BD6F4AC181F04BC182F04CC183F04DC1B7
:10395C0084F0100E0001856F0E0E866F000E876FBF
:10396C00000E886FD5EC3DF081C0E3F382C0E4F328
:10397C000301E4510101BB6FE3C3BCF1000E010173
:10398C00BE6F5CC181F05DC182F021EEB7F000EE3C
:10399C0083F0080EDBCFEBFFE806FCE234EC3FF0E3
:1039AC0032D0000E0101BD6F4AC181F04BC182F0D3
:1039BC004CC183F04DC184F0800E0001856F510E17
:1039CC00866F010E876F000E886FD5EC3DF081C0BD
:1039DC00E3F382C0E4F30301E4510101BB6FE3C3E1
:1039EC00BCF1000E0101BE6F5CC181F05DC182F0C3
:1039FC0021EEB7F000EE83F0080EDBCFEBFFE8060C
:103A0C00FCE234EC3FF00101FD6F0101FD51010DB1
:103A1C00F35001015C27F45001015D23B70E000146
:103A2C00816F010E0001826FE70E0001836F200E83
:103A3C000001846F000E0001866F030E856F5FEC32
:103A4C0043F0030E0101BD6F42C181F043C182F00E
:103A5C0044C183F045C184F0640E0001856F000EF3
:103A6C00866F000E876F000E886F1CEC42F081C0D1
:103A7C008DF082C08EF083C08FF084C090F02AEC61
:103A8C0041F08DC096F08EC097F08FC098F0010178
:103A9C0046510101422500018D6F01014751010181
:103AAC00432100018E6F01014851010144210001A5
:103ABC008F6F01014951010145210001906F2AECE2
:103ACC0041F08DC099F08EC09AF08FC09BF094ECB1
:103ADC0034F096C0D4F397C0D5F398C0D6F3D4C3C2
:103AEC00BEF0D5C3BFF0D6C3C0F0E4EC3AF0BEC014
:103AFC00D7F3BFC0D8F3C0C0D9F3D7C3A5F0D8C390
:103B0C00A6F0D9C3A7F03AEC35F00001A55101019C
:103B1C00BB6FD4C3BEF0D5C3BFF0D6C3C0F0E4ECCA
:103B2C003AF0BEC0C6F0BFC0C7F0C0C0C8F04CEC85
:103B3C0045F0C6C0DAF3C7C0DBF3C8C0DCF3000E37
:103B4C000001CC6FC80E0001CD6F420E0001CE6F8C
:103B5C00D4C38CF0D5C38DF0D6C38EF0DAC389F004
:103B6C00DBC38AF0DCC38BF03BEC2AF089C0C9F0D4
:103B7C008AC0CAF08BC0CBF093EC32F0C9C0DDF335
:103B8C00CAC0DEF3CBC0DFF3DDC3BEF0DEC3BFF0D3
:103B9C00DFC3C0F0E4EC3AF0BEC0E0F3BFC0E1F329
:103BAC00C0C0E2F3E0C3A5F0E1C3A6F0E2C3A7F006
:103BBC003AEC35F00001A5510101BC6F000E01017A
:103BCC00BE6F5CC181F05DC182F021EEB7F000EEFA
:103BDC0083F0080EDBCFEBFFE806FCE282EC3FF053
:103BEC000101FD6F0101FD51010DF35001015C2735
:103BFC00F45001015D23970E0101F46F010E0101D8
:103C0C00F56F970E000801015C250101F66F010E9E
:103C1C000101F76F1EEC31F01200F0B0F0A670D27B
:103C2C00F090600E4318D8A467D244C065F18B9C09
:103C3C001AEC46F00001706F8B8C000E0001716F56
:103C4C00010E0001716501D00FD000017151420DC0
:103C5C00500EF324D96E030EF420DA6E0301DFA0AC
:103C6C0003D00001712BECD7020E00017019D8A4FF
:103C7C0002D0010E01D0000E00016D6F400E00014C
:103C8C0070610ED0000170510001D8B409D0010E42
:103C9C000001716516D000016D510001D8A411D03E
:103CAC001A0E5BEC44F007D08B9C1AEC46F08B8C14
:103CBC001A0E5BEC44F00001686F000168A31ED281
:103CCC00F3D7000E00016E6F70C066F00001676BD9
:103CDC000CD200016607D8A0670700016D510001E6
:103CEC00D8B410D08B9C00016E51010D690EF324D9
:103CFC00D96E000EF420DA6E1AEC46F024D00001D6
:103D0C006E2B23D08B9C00016E51010D010EF326FE
:103D1C00000EF422500E0001606F030E0001616F63
:103D2C00F35000016027F450000161230001715130
:103D3C00420DF35000016025D96EF4500001612151
:103D4C00DA6E1AEC46F0DF6EDAD78B8C000170510C
:103D5C0000016E5DD8A0C9D100016D510001D8B42D
:103D6C0037D000016951030B020AD8A40BD046507E
:103D7C0000016A19D8A402D0010E476E000E000192
:103D8C006E6FBCD1010E0001716504D0000E0001F4
:103D9C006E6F86D700017151420D010EF326000E95
:103DAC00F422500EF324D96E030EF420DA6E69C09F
:103DBC00DFFF00017151420D020EF326000EF422BA
:103DCC00500EF324D96E030EF420DA6E6AC0DFFFB6
:103DDC0000017151420D410EF326000EF422500EDB
:103DEC00F324D96E030EF420DA6E70C0DFFF0001ED
:103DFC006F6900017151420D010EF326000EF42281
:103E0C00500EF324D96E030EF420DA6E0301DFACEE
:103E1C0055D0000E0001726F45D000017251010D9A
:103E2C00F3503D24D96EF4503E20DA6E00017151EE
:103E3C00420D000172510001616F626B030E0001B3
:103E4C006127000E6223500E0001636F030E000108
:103E5C00646F000161510001632700016251000190
:103E6C006423F35000016325E16EF45000016421DA
:103E7C00E26EDE50E618D8B413D0000E00016E6F5F
:103E8C0000017151420D410EF326000EF422500E2A
:103E9C00F324D96E030EF420DA6E000EDF6E00D719
:103EAC000001722B3C30E832E8320F0B0001606FDE
:103EBC00000160510001725DD8A0AFD700017151B3
:103ECC00420D010EF326000EF422500EF324D96E8F
:103EDC00030EF420DA6E0301DFAA57D0000E0001A6
:103EEC00726F010E0001726501D017D00001725182
:103EFC00010DA00EF324D96E020EF420DA6E00012F
:103F0C007251010D690EF324E16E000EF420E26E85
:103F1C00DFCFE7FF0001722BE4D7060E0201A06F82
:103F2C0000017151420D020EF326000EF422500EC8
:103F3C00F324D96E030EF420DA6EDF500201A16F68
:103F4C00F090000E1C6E020EEDEC33F0000E000132
:103F5C00726F010E0001726501D017D00001725111
:103F6C00010D690EF324D96E000EF420DA6E0001F7
:103F7C007251010DA00EF324E16E020EF420E26EDC
:103F8C00DFCFE7FF0001722BE4D7000E0001726F48
:103F9C00040E0001726501D056D000017251060D5D
:103FAC00280EF324D96E020EF420DA6EDF50D8B44A
:103FBC0036D000017151420D020EF326000EF42290
:103FCC00500EF324D96E030EF420DA6E00017251F8
:103FDC00060D010EF326000EF422280EF324E16EDA
:103FEC00020EF420E26EDE50E618D8A418D0BCEC19
:103FFC0043F000017251060D020EF326000EF4225E
:10400C00280EF324D96E020EF420DA6E12C0DEFFF5
:10401C0013C0DEFF14C0DEFF15C0DEFF14D000019C
:10402C006F29D8A40DD000017251060D280EF3246F
:10403C00D96E020EF420DA6EDF50D8B472C06FF075
:10404C000001722BA5D7040E0001726557D0050E26
:10405C0000016F613ED000016F51060D280EF32454
:10406C00D96E020EF420DA6E010EDF6E0001715172
:10407C00420D020EF326000EF422500EF324D96EDC
:10408C00030EF420DA6E00016F51060D010EF326BB
:10409C00000EF422280EF324E16E020EF420E26EE0
:1040AC00DFCFE7FFBCEC43F000016F51060D020EB1
:1040BC00F326000EF422280EF324D96E020EF420FF
:1040CC00DA6E12C0DEFF13C0DEFF14C0DEFF15C0B7
:1040DC00DEFF00017151420D500EF324D96E030E18
:1040EC00F420DA6E0301DF8009D000016651000173
:1040FC006711D8B403D0EDD5010E406EF09000F0EE
:10410C00F2B2F2A80ED0F292600E4318D8A409D0E5
:10411C00280E5BEC44F00001606F0001D890603118
:10412C00446E9EA012009DA012009E900001DA2BFE
:10413C000001DA51D8A41200492A12004250D8B416
:10414C000CD001017751D8B408D00001D487D7C066
:10415C00FEF1060E0201F06F05D0020E0201F06FA7
:10416C000001D4970101EA510101D8B46AD1000EC3
:10417C000201F16F030E0201F16501D019D00201A9
:10418C00F151010DF3500101E825D96EF4500101F4
:10419C00E921DA6E0201F151010D4E0EF324E16EAC
:1041AC00010EF420E26EDFCFE7FF0201F12BE2D724
:1041BC004CEC3CF00201F26F0201F229D8A43DD084
:1041CC004AC06CF1020E01016D6F01016E690101B3
:1041DC006F690101706901017169DBC072F1DCC0AA
:1041EC0073F1DDC074F1DEC075F1D7C076F100015A
:1041FC00D72B000E0001D16F0001D18B0101EBB167
:10420C0003D00001D19702D00001D187E8C1D2F0D0
:10421C00E9C1D3F00001D497D1C0B0F0D2C0B1F055
:10422C00D3C0B2F06C0E0001B36F010E0001B46F7D
:10423C00D8C0B5F06FEC2BF012000201F251090D51
:10424C00080EF326000EF422460EF324D96E020E4D
:10425C00F420DA6E0201DFA6B3D74250D8B411D0E5
:10426C000201F251090D020EF326000EF422460E45
:10427C00F324D96E020EF420DA6EDECF58F1DDCFC6
:10428C0059F1040E01016C6FF0C26DF10201F25193
:10429C00090D460EF324D96E020EF420DA6EDF50AF
:1042AC0001016E6F0201F251090D010EF326000E91
:1042BC00F422460EF324D96E020EF420DA6EDF508F
:1042CC0001016F6F0201F251090D020EF326000E6F
:1042DC00F422460EF324D96E020EF420DA6EDF506F
:1042EC000101706F0201F251090D030EF326000E4D
:1042FC00F422460EF324D96E020EF420DA6EDF504F
:10430C000101716FDBC072F1DCC073F1DDC074F1BF
:10431C00DEC075F1D7C076F10001D72B000E00017D
:10432C00D16F0001D18B0101EBB103D00001D1970A
:10433C0002D00001D1870001D951090D040EF326DA
:10434C00000EF422460EF3240001D26F020EF4206C
:10435C000001D36FD1C0B0F0D2C0B1F0D3C0B2F075
:10436C006C0E0001B36F010E0001B46FD8C0B5F034
:10437C006FEC2BF00009D8A404D00001D497000EE8
:10438C0012000001D4A75BD057EC42F081C0E0F2E0
:10439C0082C0E1F283C0E2F284C0E3F207EC46F0A3
:1043AC000009D8A415EC46F00001D4B702D0010ED8
:1043BC00120057EC42F081C0E4F282C0E5F283C0F7
:1043CC00E6F284C0E7F2E0C2ECF1E1C2EDF1E2C248
:1043DC00EEF1E3C2EFF10101EC1FED1FEE1FEF1F39
:1043EC00EC2B000EED23EE23EF230201E45101012F
:1043FC00EC250101F06F0201E5510101ED210101F4
:10440C00F16F0201E6510101EE210101F26F02018F
:10441C00E7510101EF210101F36F0101F3510BE1B0
:10442C00210E0101F05DA10E0101F159070E0101F0
:10443C00F259D8A0B3D70001D497000E1200010E88
:10444C001200040E01016C6FF0C26DF1DBC06EF155
:10445C00DCC06FF1E8C1D9FFE9C1DAFFDF5001011F
:10446C00706F010120EE01F0E851D926E951DA22F2
:10447C00DF500101716FDBC072F1DCC073F1DDC084
:10448C0074F1DEC075F1D7C076F10001D72BE8C10D
:10449C00D9FFE9C1DAFFDF500101586F010120EEAD
:1044AC0001F0E851D926E951DA22DF500101596FA8
:1044BC00000E0001D16F0001D18B0101EBB103D0D3
:1044CC000001D19702D00001D1870001D951090D0B
:1044DC00040EF326000EF422460EF3240001D26FD4
:1044EC00020EF4200001D36FD1C0B0F0D2C0B1F0F5
:1044FC00D3C0B2F06C0E0001B36F010E0001B46FAB
:10450C00D8C0B5F06FEC2BF00009D8A404D0000192
:10451C00D497000E12000001D4A75BD057EC42F0E8
:10452C0081C0E8F282C0E9F283C0EAF284C0EBF207
:10453C0007EC46F00009D8A415EC46F00001D4B7FE
:10454C0002D0010E120057EC42F081C0ECF282C096
:10455C00EDF283C0EEF284C0EFF2E8C2ECF1E9C2F6
:10456C00EDF1EAC2EEF1EBC2EFF10101EC1FED1F30
:10457C00EE1FEF1FEC2B000EED23EE23EF230201B9
:10458C00EC510101EC250101F06F0201ED5101012B
:10459C00ED210101F16F0201EE510101EE2101014A
:1045AC00F26F0201EF510101EF210101F36F0101E3
:1045BC00F3510BE1210E0101F05DA10E0101F15946
:1045CC00070E0101F259D8A0B3D70001D497000E01
:1045DC001200010E1200000E0001C76F040E000144
:1045EC00C76501D084D057EC42F081C0BCF082C0CA
:1045FC00BDF083C0BEF084C0BFF00001C751060DF2
:10460C00280EF324D96E020EF420DA6EDF50D8B4E3
:10461C006BD00001C751060D020EF326000EF422DA
:10462C00280EF324D96E020EF420DA6E0001BC5170
:10463C00DE5C0001BD51DE580001BE51DE580001A8
:10464C00BF51DE58D8B050D00001C751060D020E34
:10465C00F326000EF422280EF324D96E020EF42059
:10466C00DA6EDECFB4F0DECFB5F0DECFB6F0DECF53
:10467C00B7F00001B41FB51FB61FB71FB42B000E47
:10468C00B523B623B7230001BC510001B4250001AA
:10469C00B86F0001BD510001B5210001B96F0001D7
:1046AC00BE510001B6210001BA6F0001BF510001DB
:1046BC00B7210001BB6F0001BB510BE1210E0001C2
:1046CC00B85DA10E0001B959070E0001BA59D8A066
:1046DC000BD00001C751060D280EF324D96E020E23
:1046EC00F420DA6E000EDF6E0001C72B77D7452859
:1046FC00D8B402D0000E1200000E0001C76F010EDC
:10470C000001C76501D0B2D10001C751420D500E56
:10471C00F324D96E030EF420DA6E0301DFA0A3D1CB
:10472C000001C751420D010EF326000EF422500E6B
:10473C00F324D96E030EF420DA6EDF50346E0001D0
:10474C00C751420D410EF326000EF422500EF324F5
:10475C00D96E030EF420DA6EDF50396E020E0001B2
:10476C00C66F34AC06D03C30E832E8320F0B000197
:10477C00C62734AE25D00001C651010D010EF3261B
:10478C00000EF422500E0001B46F030E0001B56F41
:10479C00F3500001B427F4500001B5230001C751B8
:1047AC00420DF3500001B425356EF4500001B521D3
:1047BC00366E3C30E832E8320F0B0001C62704D0CD
:1047CC00000E356E000E366E34A626D10001C75190
:1047DC00420D0001C6510001B46FB56B050E00010E
:1047EC00B427000EB523500E0001B66F030E000166
:1047FC00B76F0001B4510001B6270001B55100019B
:10480C00B723F3500001B625D96EF4500001B7213F
:10481C00DA6EDF50D8B40DD00001C751420D500EE6
:10482C00F324D96E030EF420DA6E000EDF6E000E48
:10483C00120034AEAAD0000E0001C56F090E0001A3
:10484C00C56501D02BD00001C551090D080EF3260A
:10485C00000EF422460EF324D96E020EF420DA6E0A
:10486C000201DFAE18D00001C551090D040EF3266C
:10487C00000EF422460EF3240001816F020EF42088
:10488C000001826F35C083F036C084F0E8EC43F051
:10489C000009D8A403D00001C52BD0D70A0E000103
:1048AC00C56173D0000E0001C46F030E0001C46516
:1048BC0001D036D00001C751420D0001C451C6C011
:1048CC00B4F00001B56B0001B427000EB523010E46
:1048DC000001B427000EB523500E0001B66F030E75
:1048EC000001B76F0001B4510001B6270001B551AA
:1048FC000001B723F3500001B625D96EF450000126
:10490C00B721DA6E0001C451010DC00EF324E16E23
:10491C00000EF420E26EDFCFE7FF0001C42BC5D7F9
:10492C000001C551040D000EF324D96E020EF420C3
:10493C00DA6EDE500001C05DDE500001C159DE5060
:10494C000001C259DE500001C359D8B00DD000018E
:10495C00C751420D500EF324D96E030EF420DA6EBB
:10496C00000EDF6E000E12000001C551040D000E8A
:10497C00F324D96E020EF420DA6EC0C0DEFFC1C083
:10498C00DEFFC2C0DEFFC3C0DEFF050E0001C6277E
:10499C000001C751420D010EF326000EF422500EF9
:1049AC00F3240001A56F030EF4200001A66FC6C00E
:1049BC00A7F00001C751420D410EF326000EF42260
:1049CC00500EF324D96E030EF420DA6EDF50000182
:1049DC00B46F0001C65100080001B4250001A86F96
:1049EC00C00E0001A96F010E0001AA6F42EC33F05A
:1049FC000009D8A40DD00001C751420D500EF3246C
:104A0C00D96E030EF420DA6E000EDF6E000E12006B
:104A1C000001C651020F02D00001C651395E0001DF
:104A2C00C651010D010EF326000EF422500E0001AA
:104A3C00B46F030E0001B56FF3500001B427F450AE
:104A4C000001B5230001C751420DF3500001B425FC
:104A5C00376EF4500001B521386E65C13AF0C7C00D
:104A6C0045F0010E12000001C72B49D6000E1200B2
:104A7C000201FC6F030E0201FB6F0101F505D8A4C6
:104A8C0014D016EC3DF006D007EC46F00009D8A483
:104A9C0015EC46F0010120B3F7D7010120A103D09A
:104AAC00010121511200FF0E12000101F55101010B
:104ABC00D8A4F7D10201FC29D8B406D02AD002011F
:104ACC00FB2F02D0FF0E1200D2C1F6F1010E010134
:104ADC00F76FF86BF96BFA6B0101F62B06D0D890D7
:104AEC000101F737F837F937FA370101F62FF7D705
:104AFC00F7C1E8F1F8C1E9F1F9C1EAF1FAC1EBF15A
:104B0C000A0EA1EC2DF00009D8B4D9D7000E020181
:104B1C00FC6F0201FC510A0D050EF326000EF42267
:104B2C00000EF324D96E030EF420DA6EDECF5EF1A4
:104B3C00DDCF5FF1000E0201FD6F030E0201FD657A
:104B4C0001D02CD00201FD51010D010EF326000EF7
:104B5C00F422000E0101F66F030E0101F76FF35002
:104B6C000101F627F4500101F7230201FC510A0D53
:104B7C00F3500101F625D96EF4500101F721DA6EDC
:104B8C000201FD51010D4E0EF324E16E010EF420D5
:104B9C00E26EDFCFE7FF0201FD2BCFD74CEC3CF0F0
:104BAC000001D96F0001D929D8A40AD09EEC44F099
:104BBC000001D96F0001D929D8A402D0FF0E120030
:104BCC000001D951090D080EF326000EF422460EF1
:104BDC00F324D96E020EF420DA6E000EDF6E0201A1
:104BEC00FC510A0D050EF326000EF422000EF324E0
:104BFC00D96E030EF420DA6E0001D951090D460E60
:104C0C00F324E16E020EF420E26EDECFE6FFDDCF80
:104C1C00E5FF000E0201FD6F030E0201FD6501D0E0
:104C2C0041D00201FD51010D010EF326000EF422BC
:104C3C00000E0101F66F030E0101F76FF350010135
:104C4C00F627F4500101F7230201FC510A0DF35031
:104C5C000101F625D96EF4500101F721DA6E02013B
:104C6C00FD51010D040EF326000EF422460E010137
:104C7C00F86F020E0101F96FF3500101F827F4509F
:104C8C000101F9230001D951090DF3500101F82557
:104C9C00E16EF4500101F921E26EDFCFE7FF020172
:104CAC00FD2BBAD70001D951090D080EF326000EC1
:104CBC00F422460EF324D96E020EF420DA6E0201B1
:104CCC00DF840001D951090D080EF326000EF422E1
:104CDC00460EF324D96E020EF420DA6E0201DF8246
:104CEC000001D951090D080EF326000EF422460ED0
:104CFC00F324D96E020EF420DA6E0201DF8A000171
:104D0C00D951090D080EF326000EF422460EF32499
:104D1C00D96E020EF420DA6E0201DF800201FC5122
:104D2C000A0D000EF324D96E030EF420DA6EDF5058
:104D3C009FEC45F00001D951090D460EF324D96EB4
:104D4C00020EF420DA6EDECFDBF0DDCFDCF00101F9
:104D5C00D069D169D00E0001816F010E0001826F04
:104D6C00DB0E0001836F000E0001846F21EC46F016
:104D7C00000E0001D86F0001D851010D6C0EF32408
:104D8C00D96E010EF420DA6E010EDF6E0001D82B05
:104D9C000001D851010D6C0EF324D96E010EF420D4
:104DAC00DA6E64C1DFFF0001D82B0001D951090D67
:104DBC00040EF326000EF422460EF3240001BA6F03
:104DCC00020EF4200001BB6F010E0001BC6F68ECF9
:104DDC0041F057EC42F081C0F3F282C0F4F283C090
:104DEC00F5F284C0F6F24AD007EC46F00009D8A4DC
:104DFC0015EC46F057EC42F081C0F7F282C0F8F2A5
:104E0C0083C0F9F284C0FAF2F3C2F6F1F4C2F7F1FE
:104E1C00F5C2F8F1F6C2F9F10101F61FF71FF81F00
:104E2C00F91FF62B000EF723F823F9230201F75193
:104E3C000101F6250101FA6F0201F8510101F72178
:104E4C000101FB6F0201F9510101F8210101FC6F15
:104E5C000201FA510101F9210101FD6F0101FD511E
:104E6C000BE1210E0101FA5DA10E0101FB59070EA8
:104E7C000101FC59D8A002D0FF0E12000001D9513B
:104E8C00090D080EF326000EF422460EF324D96EFB
:104E9C00020EF420DA6E0201DFA8A6D70001D95168
:104EAC001200FF0E1200C280898C340E0101DC6FDF
:104EBC00F20EE82EFED7DC2FFCD7C18CC282C2B218
:104ECC00FED7C19CC294C296C298C29AC282C2B288
:104EDC00FED7C4500101DD6FDC6BC3500101DC2532
:104EEC000101E16F000E0101DD210101E26FE1C161
:104EFC0089F0E2C18AF07AEC45F089C099F08AC059
:104F0C009AF08BC09BF0000E0001966F800E000192
:104F1C00976F450E0001986F94EC34F096C0C9F071
:104F2C0097C0CAF098C0CBF0B80E0001CC6F9E0EA3
:104F3C000001CD6F3F0E0001CE6F93EC32F0C9C073
:104F4C0052F1CAC053F1CBC054F1C250C30B040987
:104F5C00C26EC282C2B2FED7C4500101DD6FDC6BDF
:104F6C00C3500101DC250101E16F000E0101DD21BF
:104F7C000101E26F000E0001CC6FC80E0001CD6F75
:104F8C00420E0001CE6F000E0001996F940E0001CD
:104F9C009A6F420E00019B6FE1C189F0E2C18AF069
:104FAC007AEC45F089C096F08AC097F08BC098F0E7
:104FBC0094EC34F096C0C9F097C0CAF098C0CBF00E
:104FCC0093EC32F0C9C0A5F0CAC0A6F0CBC0A7F0D4
:104FDC003AEC35F00001A5510101686F640E010136
:104FEC00686503D0640E0101686FEA0E0101DC6F85
:104FFC00C30EE82EFED7DC2FFCD700F0800E00018C
:10500C00816F080E8FEC45F0C7A404D00101DC6B56
:10501C00DC2B02D00101DC6BC5501F0B0101DC1134
:10502C000009D8A4F1D7C580C5B0FED7C7A404D059
:10503C000101DC6BDC2B02D00101DC6BC5501F0BBA
:10504C000101DC110009D8A4F1D7900EC8EC42F094
:10505C00C7A404D00101DC6BDC2B02D00101DC6B9A
:10506C00C5501F0B0101DC110009D8A4F1D7000EAB
:10507C00C8EC42F0C7A404D00101DC6BDC2B02D0DD
:10508C000101DC6BC5501F0B0101DC110009D8A418
:10509C00F1D7C584C5B4FED7C7A404D00101DC6B1D
:1050AC00DC2B02D00101DC6BC5501F0B0101DC11A4
:1050BC000009D8A4F1D7C580C5B0FED7C7A404D0C9
:1050CC000101DC6BDC2B02D00101DC6BC5501F0B2A
:1050DC000101DC110009D8A4F1D7910EC8EC42F003
:1050EC00C7A404D00101DC6BDC2B02D00101DC6B0A
:1050FC00C5501F0B0101DC110009D8A4F1D7BDEC80
:10510C0045F00101E06FC59AC588C5B8FED7BDEC66
:10511C0045F00101DF6FC58AC588C5B8FED7C584C7
:10512C00C5B4FED70101E0510101DD6FDC6B01015B
:10513C00DF510101DC250101E36F0101000E0101CA
:10514C00DD210101E46FE3C1DCF1E4C1DDF1040E0A
:10515C000101DE6F0101D890DD33DC330101DE2F5C
:10516C00F9D7DCC1E3F1DDC1E4F1E3C189F0E4C1BD
:10517C008AF07AEC45F089C0C9F08AC0CAF08BC0BD
:10518C00CBF0000E0001CC6F800E0001CD6F3D0EF8
:10519C000001CE6F93EC32F0C9C055F1CAC056F184
:1051AC00CBC057F1C290C69A899C12003AEC38F0E9
:1051BC00000E01016A6FF40EF66EFF0EF76E010E13
:1051CC00F86E0800F5CFC8F1F50EF66EFF0EF76E0F
:1051DC00010EF86E0800F5CFC9F1F60EF66EFF0E53
:1051EC00F76E010EF86E0800F5CFCAF1F70EF66EE9
:1051FC00FF0EF76E010EF86E0800F5CFCBF1000E26
:10520C000301EC6F000EEB6F0301ECBF08D0030140
:10521C00EC511EE1080E0301EB5DD8B019D0EC0E79
:10522C000301EB25F66E1F0EEC21F76EF86A000EEB
:10523C00F822360E0301EB25D96E010E0301EC2189
:10524C00DA6E0800F5CFDFFF0301EB4BEC2BDCD75C
:10525C00000E17EC37F0040EDCEC44F0010E0101EB
:10526C00E86F000EE96F000EEA6F000EEB6F0E0E8A
:10527C00A1EC2DF00301EE6F0301EE510301D8A454
:10528C0008D08B90D9EC45F001016B51D8A4E6D72E
:10529C00FBD7000E0301EA6F000E0301ED6F3AD04D
:1052AC000301ED510A0D070EF326000EF422000E39
:1052BC00F324D96E030EF420DA6E0301EA51DE5C9E
:1052CC00D8A026D00301ED510A0D050EF326000ED1
:1052DC00F422000EF324D96E030EF420DA6E370E8E
:1052EC00DE1816E1130EDE18D8A412D00301ED510E
:1052FC000A0D070EF326000EF422000EF324D96ECD
:10530C00030EF420DA6EDF500301EA6FEDC3E8F30D
:10531C000301ED2B0301EE510301ED5DD8A0C0D7C5
:10532C00000E0101F56F0301E8513EEC25F003017D
:10533C00E96F0301E929D8A40BD0020E01016A6FB1
:10534C008B90D9EC45F001016B51D8B4FCD7FF0020
:10535C00030E64EC45F0C80E0101F46F010E01015F
:10536C00F56FFF0E0101F66F58EC30F00301E76F9B
:10537C000301E7510301D8A40BD0020E01016A6F9F
:10538C008B90D9EC45F001016B51D8B4FCD7FF00E0
:10539C0011EC44F0010E01016A6F210E0101FB6F4B
:1053AC00040EFCEC42F00101696F000E01014A6F22
:1053BC00000E4B6F000E4C6F000E4D6F59EC27F02A
:1053CC0014D00101662B020E010166650CD0020E91
:1053DC0001016A6F8B90000EBEEC44F0D9EC45F0E5
:1053EC00A4900300FF0016EC45F07BEC16F00009CE
:1053FC00D8A437D0E6D7A2EC2EF08B90000EBEECE2
:10540C0044F0D9EC45F001D0030001016B51D8B444
:10541C00FBD78B8059EC27F0010EBEEC44F007EC67
:10542C0046F00009D8A415EC46F082EC10F014D02C
:10543C000101662B020E010166650CD0020E010102
:10544C006A6F8B90000EBEEC44F0D9EC45F0A49042
:10545C000300FF0016EC45F08AEC1AF00009D8B4F2
:10546C00E7D7000E0101666FC6D78BC08FF0000125
:10547C00906B916B00018A3500018F3701E39081AD
:10548C0000018F510001946F8EC08FF00001906B62
:10549C00916B00018D3500018F3701E39081000184
:1054AC008F510001936F000194510001D8B411D0B9
:1054BC00000193510001945DD8B012D000019451B9
:1054CC0000080001932500018F6F180E00018F65F5
:1054DC0007D08CC089F08DC08AF08EC08BF0120082
:1054EC00000193510001D8B411D000019451000176
:1054FC00935DD8B012D0000193510008000194259F
:10550C0000018F6F180E00018F6507D089C089F0DC
:10551C008AC08AF08BC08BF01200060E0001926FCD
:10552C0000018BAF02D00001928F00018EAF02D030
:10553C000001928D00018A8FFF0E00018917FF0E6A
:10554C0000018A17000E00018B1700018D8FFF0ED2
:10555C0000018C17FF0E00018D17000E00018E1735
:10556C00000193510001945DD8B025D00001D89072
:10557C008C378D378E370001930700019451000151
:10558C009319D8B411D00001920792C08FF0070E76
:10559C0000018F17D8B408D0E9D70001D8908B330D
:1055AC008A3389330001942B000193510001941923
:1055BC00D8B42BD0F2D7000194510001935DD8B030
:1055CC0024D00001D89089378A378B370001940793
:1055DC000001945100019319D8B411D00001920725
:1055EC0092C08FF0070E00018F17D8B408D0E9D7FE
:1055FC000001D8908E338D338C330001932B000136
:10560C00935100019419D8A4F3D7000192AF12D092
:10561C00FF0E0001891BFF0E00018A1BFF0E00010B
:10562C008B1B010E00018927000E00018A23000E3E
:10563C0000018B23000192AD12D0FF0E00018C1BD8
:10564C00FF0E00018D1BFF0E00018E1B010E0001D1
:10565C008C27000E00018D23000E00018E23000EFE
:10566C000001926F0001895100018C2700018A51C1
:10567C0000018D2300018B5100018E2300018EAFA0
:10568C0015D0FF0E00018C1BFF0E00018D1BFF0EB1
:10569C0000018E1B010E00018C27000E00018D23D2
:1056AC00000E00018E23010E0001926F8CC081F060
:1056BC008DC082F08EC083F094C084F092C085F0CF
:1056CC0057EC39F081C089F082C08AF083C08BF02E
:1056DC001200200E0001B56502D0000E1200000170
:1056EC00B0B504D00001B66BB62B02D00001B66B7E
:1056FC000001B63BB647B6470001B0510001B619E0
:10570C00BF0BB6190001B06F0001B051030BE806D6
:10571C00D8A402D00001B08FB0C0A0F241C0A1F259
:10572C00412A020E0001B86F0001B0AD2AD0000E64
:10573C000001B96F1AD00001B951010DF3500001ED
:10574C00B125D96EF4500001B221DA6E0001B851C6
:10575C00010DA00EF324E16E020EF420E26EDFCFF9
:10576C00E7FF0001B82B0001B92B3C30E832E832DE
:10577C000F0B0001B66F0001B6510001B95DD8A046
:10578C00DAD70001B0AF28D0000E0001B96F18D0E5
:10579C000001B951010DF3503D24D96EF4503E2057
:1057AC00DA6E0001B851010DA00EF324E16E020E69
:1057BC00F420E26EDFCFE7FF0001B82B0001B92B1C
:1057CC003C30E832E8320F0B0001B66F0001B651E5
:1057DC000001B95DD8A0DCD70001B0A771D0000ED4
:1057EC000001B96F030E0001B96501D019D0000199
:1057FC00B951010D3E0EF324D96E010EF420DA6E70
:10580C000001B851010DA00EF324E16E020EF4203C
:10581C00E26EDFCFE7FF0001B82B0001B92BE2D716
:10582C00010E01013E27000E3F23402341230001BE
:10583C00B851010DA00EF324D96E020EF420DA6ECD
:10584C00000EDF6E0001B82BB8C0B7F0000E0001DF
:10585C00B96F1AD00001B951010DF3500001B325F5
:10586C00D96EF4500001B421DA6E0001B851010D6B
:10587C00A00EF324E16E020EF420E26EDFCFE7FF00
:10588C000001B82B0001B92B0001B5510001B95D25
:10589C00D8A0E0D7A00E0001A56F020E0001A66FE4
:1058AC00B7C0A7F0B5C0A8F0C00E0001A96F010EDB
:1058BC000001AA6F7DEC36F0020E0001B82724D04F
:1058CC00000E0001B96F1AD00001B951010DF3504F
:1058DC000001B325D96EF4500001B421DA6E000139
:1058EC00B851010DA00EF324E16E020EF420E26E0D
:1058FC00DFCFE7FF0001B82B0001B92B0001B55138
:10590C000001B95DD8A0E0D7000E3CB2010E000139
:10591C008B6F0001B85187EC2FF0120081C0D9FFBA
:10592C0082C0DAFFDECF92F0DDCF93F0000120EEE3
:10593C0002F08151D9268251DA22DECF94F0DDCFEC
:10594C0095F0000E0001976F000E966F9E0E0001F1
:10595C00906F370E8F6F000E0001916F1F0E0001BC
:10596C00916501D0D4D0030E000196150001856F0E
:10597C00000E000197150001866FD8900001853745
:10598C0086370001855100018325D96E00018651AF
:10599C0000018421DA6EDECF87F0DDCF88F00001C4
:1059AC00965100018727000197510001882394C06C
:1059BC0089F095C08AF0050E00018B6F0001D8901C
:1059CC008A33893300018B2FF9D794C08CF095C0A2
:1059DC008DF000018C3B8D3BF00E8D178C510F0B15
:1059EC008D13F00E8C170001895100018C1B0001E6
:1059FC008A5100018D1B0001945100018C2700017C
:105A0C00955100018D230001875100018C1B000171
:105A1C00885100018D1B00018C510001922700015F
:105A2C008D510001932300018F5100019627000135
:105A3C0090510001972396C085F097C086F00B0E0D
:105A4C000001876F0001D890863385330001872FC2
:105A5C00F9D7030E00018517000E8617D8900001A8
:105A6C00853786370001855100018325D96E0001E9
:105A7C00865100018421DA6EDECF88F0DDCF89F00B
:105A8C0000019651000188270001975100018923DC
:105A9C0092C08AF093C08BF0050E00018C6F000150
:105AAC00D8908B338A3300018C2FF9D792C08DF0AC
:105ABC0093C08EF000018D3B8E3BF00E8E178D51F6
:105ACC000F0B8E13F00E8D1700018A5100018D1BE8
:105ADC0000018B5100018E1B0001925100018D279A
:105AEC000001935100018E230001885100018D1B90
:105AFC000001895100018E1B00018D51000194277A
:105B0C0000018E51000195230001912B27D781C0F4
:105B1C00D9FF82C0DAFF92C0DEFF93C0DDFF000127
:105B2C0020EE02F08151D9268251DA2294C0DEFF98
:105B3C0095C0DDFF12000201EC6F010E0201E06F57
:105B4C00000EE16F000EE26F000EE36FD2C1EDF2BA
:105B5C00000E0201EE6F070E0201EE6501D00ED0B1
:105B6C000201EE510A0D000EF324D96E030EF4203F
:105B7C00DA6EFF0EDF6E0201EE2BEDD7000E000188
:105B8C00D66F0001D481000E0201EE6FC8D0EEC2B8
:105B9C00ECF1E0C2EDF1E1C2EEF1E2C2EFF1E3C2F1
:105BAC00F0F10101EC2B06D0D8900101ED37EE3766
:105BBC00EF37F0370101EC2FF7D70101E851010164
:105BCC00ED150101F16F0101E9510101EE15010122
:105BDC00F26F0101EA510101EF150101F36F0101AF
:105BEC00EB510101F0150101F46F0101F1510101BB
:105BFC00F2110101F3110101F411D8B48ED002019C
:105C0C00EE519FEC45F0000E0001D86F0001D85109
:105C1C00010D6C0EF324D96E010EF420DA6E070E12
:105C2C00DF6E0001D82B0001D851010D6C0EF3244E
:105C3C00D96E010EF420DA6ED2C1DFFF0001D82B31
:105C4C00000E0001BA6F000E0001BB6F010E0001C7
:105C5C00BC6F68EC41F057EC42F081C0E4F282C0BA
:105C6C00E5F283C0E6F284C0E7F207EC46F00009E7
:105C7C00D8A415EC46F057EC42F081C0E8F282C093
:105C8C00E9F283C0EAF284C0EBF2E4C2ECF1E5C2C3
:105C9C00EDF1E6C2EEF1E7C2EFF10101EC1FED1FF1
:105CAC00EE1FEF1FEC2B000EED23EE23EF23020172
:105CBC00E8510101EC250101F06F0201E9510101EC
:105CCC00ED210101F16F0201EA510101EE21010107
:105CDC00F26F0201EB510101EF210101F36F02019F
:105CEC00EC51040D350EF324F66E200EF420F76EF5
:105CFC00F86A000EF8220101F0510900F55C01016F
:105D0C00F1510900F5580101F2510900F558010152
:105D1C00F3510900F558D8B0A8D70201EE2B1F0E8D
:105D2C000201EE6534D70201ED519FEC45F0000104
:105D3C00D4910001D6511200000E0201FA6F000E30
:105D4C000201FC6FC70E0201FC6501D0F8D71A0ED8
:105D5C000201F36FF80EE82EFED7F32FFCD700D01C
:105D6C0007EC46F00009D8B4C9D02FC1D9FF30C117
:105D7C00DAFFDF500201FD6F010120EE01F02F511F
:105D8C00D9263051DA22DF500201FE6F33C1FFF207
:105D9C00ACD00201FD510201D8A409D00201FE5180
:105DAC00D8A405D0020E0201FF19D8B412000201CA
:105DBC00FD510201D8A494D00201FE51D8A490D078
:105DCC00020E0201FF658CD0010120EE01F0315171
:105DDC00D9263251DA22DF500201FB6F020E01018B
:105DEC00312501015C6F000E0101322101015D6F53
:105DFC0018D05CC18BF05DC18CF0DEEC3BF021EE79
:105E0C00B7F0080EEBCFDBFFE806FCE20101BF5157
:105E1C00010DF35001015C27F45001015D2363EC8B
:105E2C003BF0FE0E0201F36FFF0E0201F46F020154
:105E3C00FF510201F56FF66B0201F3510201F527D8
:105E4C000201F4510201F623020E01013125020177
:105E5C00F76F000E010132210201F86F0201F71FEA
:105E6C00F81FF74BF82B01015C510201F7270101D8
:105E7C005D510201F8230201F5510201F75D0201A7
:105E8C00F851800A0201F96F0201F651800A0201F1
:105E9C00F959D8A0AED715EC46F00201FB5102011E
:105EAC00D8A415D01FD00101662B020E0101666526
:105EBC000CD0020E01016A6F8B90000EBEEC44F008
:105ECC00D9EC45F0A4900300FF0016EC45F062EC11
:105EDC003AF00009D8B4E7D7000E0101666F120042
:105EEC0015EC46F015EC46F009D031C1D9FF32C1A2
:105EFC00DAFFDF50040AD8B44CD7F4D70201FC2BDC
:105F0C0021D70001A06F030E00019D6FBFD0000EC2
:105F1C0000019E6F000E476E000E00019C6F000189
:105F2C008B510001D8B419D0280E90EC43F000012D
:105F3C00A26F0001D890A2310001A26F410E0001A6
:105F4C00A2650BD000019C2B9C0500018C6F040EEC
:105F5C0000018C65E9D7000E1200F298F096200E25
:105F6C0018EC40F01A0E0001846FC90E836F38ECE8
:105F7C0044F00001A0517DEC44F0000E0001A16F33
:105F8C000ED00001A151010DA00EF324D96E020E0A
:105F9C00F420DA6EDF507DEC44F00001A12B0001FF
:105FAC00A0510001A15DD8A0ECD7800E18EC40F0F8
:105FBC00F288F0864050D8B4F0B001D0FBD7000E78
:105FCC00406E200E18EC40F0600E18EC40F0020110
:105FDC00A0AB5AD0A1C246F057EC42F081C094F06D
:105FEC0082C095F083C096F084C097F04750D8A437
:105FFC004BD057EC42F081C098F082C099F083C02E
:10600C009AF084C09BF094C08CF095C08DF096C033
:10601C008EF097C08FF000018C1F8D1F8E1F8F1F6D
:10602C008C2B000E8D238E238F23000198510001A1
:10603C008C250001906F0001995100018D21000108
:10604C00916F00019A5100018E210001926F0001A5
:10605C009B5100018F210001936F000193510001AE
:10606C00921108E1A90E0001905D610E0001915999
:10607C00D8A0BCD700019E2B9E0500018C6F040E8E
:10608C0000018C6103D046D7010E07D000019D079B
:10609C0000019D29D8A43BD7000E00019F6F000181
:1060AC009F51120060C1F7F161C1F8F10B0E0001B4
:1060BC00D86F0001D851010D6C0EF324D96E010E6E
:1060CC00F420DA6E020EDF6E0001D82B0001D851DD
:1060DC00010D6C0EF3240001816F010EF420000100
:1060EC00826FF4C183F0F5C184F0000E0001866F5D
:1060FC00040E856F5FEC43F00001D851040F0001D2
:10610C00D86F0001D851010D6C0EF324D96E010E1D
:10611C00F420DA6EF6C1DFFF0001D82BF70E010177
:10612C00E86F010E0101E96F000E0101EA6F000E2C
:10613C000101EB6FA4EC20F00101FB6F0101FB519D
:10614C000101D8A409D0010E01014227000E4323FE
:10615C0044234523000E1200000E0101FB6F000EBC
:10616C000101FA6F000EF96F0101FA514AE1640E58
:10617C000101F95DD8B045D01A0E0001D06FF80EB0
:10618C00E82EFED7D02FFCD700D007EC46F0000944
:10619C00D8B433D034C167F131C1D9FF32C1DAFF81
:1061AC00020EDE18D8B403D015EC46F026D001014F
:1061BC0020EE01F03151D9263251DA22DE28D8A452
:1061CC0002D0010E01D0000E0101FB6F010120EE87
:1061DC0002F03151D9263251DA22DF500101386FE9
:1061EC00010120EE03F03151D9263251DA22DF5071
:1061FC0001013C6F15EC46F004D00101F94BFA2B70
:10620C00B3D70101FB510101D8A408D0010E010143
:10621C004227000E43234423452307D0010E0101DE
:10622C004627000E4723482349230101FB51120046
:10623C0062C1F8F163C1F9F10B0E0001D86F0001D6
:10624C00D851010D6C0EF324D96E010EF420DA6EC8
:10625C00040EDF6E0001D82B0101F7510101D8B4F7
:10626C000ED00001D851010D6C0EF324D96E010E25
:10627C00F420DA6EFF0E0DD00001D82B0CD00001EB
:10628C00D851010D6C0EF324D96E010EF420DA6E88
:10629C00F00EDF6EF1D70001D851010D6C0EF32416
:1062AC000001816F010EF4200001826FF4C183F0B4
:1062BC00F5C184F0F6C185F00001866B5FEC43F00C
:1062CC000001D8510101F6250001D86FF80E01012B
:1062DC00E86F010E0101E96F000E0101EA6F010E7A
:1062EC000101EB6FA4EC20F00101FC6F0101FC51EA
:1062FC000101D8A409D0010E01014227000E43234D
:10630C0044234523000E12000101F7510101D8B4BA
:10631C004AD0000E0101FC6F000E0101FB6F000E54
:10632C00FA6F0101FB5128E1640E0101FA5DD8B04E
:10633C0023D01A0E0001D06FF80EE82EFED7D02F06
:10634C00FCD700D007EC46F00009D8B411D034C10A
:10635C0067F131C1D9FF32C1DAFF040EDE18D8B4AF
:10636C0003D015EC46F008D0010E0101FC6F04D0EF
:10637C000101FA4BFB2BD5D70101FC510101D8A42B
:10638C0008D0010E01014227000E4323442345236C
:10639C0007D0010E01014627000E4723482349234D
:1063AC000101FC511200010E01014627000E47238A
:1063BC0048234923010E12000101F56F0B0E000159
:1063CC00D86F0001D851010D6C0EF324D96E010E5B
:1063DC00F420DA6E010EDF6E0001D82B0001D851CB
:1063EC00010D6C0EF324D96E010EF420DA6EF5C19A
:1063FC00DFFF0001D82B0001DD51D8A40DD0000126
:10640C00DE51D8A402D0000E1200000E0101F96F6B
:10641C00000E0101FA6F05D0000E0101F96FDEC00C
:10642C00FAF1F90E0101E86F010E0101E96F000E9E
:10643C000101EA6F010E0101EB6FA4EC20F00101E8
:10644C00F46F0101F4510101D8A409D0010E01012E
:10645C004227000E432344234523000E1200000E56
:10646C000101F86F000E0101F76F000EF66F0101CC
:10647C00F7513CE1640E0101F65DD8B037D01A0E2D
:10648C000001D06FF80EE82EFED7D02FFCD700D02D
:10649C0007EC46F00009D8B425D034C167F131C1FE
:1064AC00D9FF32C1DAFFDE04D8A40CD0010120EEF2
:1064BC0001F03151D9263251DA220101F551DE18A1
:1064CC00D8B403D015EC46F00DD0010120EE02F04B
:1064DC003151D9263251DA22DF500101F86F15EC17
:1064EC0046F004D00101F64BF72BC1D70101F8514E
:1064FC000101D8A408D0010E01014227000E43234C
:10650C004423452307D0010E01014627000E4723E3
:10651C00482349230101F8511200CBC0D3F10101EA
:10652C00D46BD56B0001CA350101D33701E3D4819B
:10653C000101D3510101D66F0101D651D8A40AD063
:10654C00000E0001C96F000E0001CA6F000E0001A1
:10655C00CB6F1200CEC0D3F10101D46BD56B00010F
:10656C00CD350101D33701E3D4810101D3510101B0
:10657C00DB6F0101DB51D8A40AD0000E0001C96FFA
:10658C00000E0001CA6F000E0001CB6F120001015A
:10659C00DB517B0F0101D627CBC0DBF10001CE51C3
:1065AC000101DB1B800E0101DB170001CA8F00010A
:1065BC00CD8FFF0E0001CC17FF0E0001CD17000E82
:1065CC000001CE17000E0101D76F000E0101D86F2C
:1065DC00000E0101D96F070E0101DA6F0001C9A18C
:1065EC000CD00001CC510101D7270001CD51010184
:1065FC00D8230001CE510101D9230001D890CB330F
:10660C00CA33C9330001D890CC37CD37CE3701010E
:10661C00DA2FE4D7090E0101DA6F0001C9A10CD001
:10662C000001CC510101D7270001CD510101D82324
:10663C000001CE510101D9230001D890CB33CA33CC
:10664C00C9330101D890D933D833D7330101DA2FAC
:10665C00E4D7D7C181F0D8C182F0D9C183F0D6C1BB
:10666C0084F0DBC185F057EC39F081C0C9F082C0F1
:10667C00CAF083C0CBF01200000E0001B36F020E03
:10668C000001B36501D02DD00001A7510001B35D0D
:10669C00D8A006D0000E0001B26F000EB16F13D05F
:1066AC000001B351010DF3500001A525D96EF45032
:1066BC000001A621DA6EDF500001AB6F0001AB5177
:1066CC000001B16FB26B0001B351010DCC0EF3247C
:1066DC00D96E010EF420DA6EB1C0DFFF0001B32BCE
:1066EC00CED70001A751010DF3500001A5250001E3
:1066FC00986FF4500001A6210001996FA8C09AF080
:10670C00A9C09BF0AAC09CF0CC0E00019D6F010E9D
:10671C0000019E6FAAEC37F0A5C098F0A6C099F0C6
:10672C000001A7510001A825FE0F00019A6FA9C016
:10673C009BF0AAC09CF0CC0E00019D6F010E0001D5
:10674C009E6FDDEC39F0000E0001B36F010E0001FD
:10675C00B36501D03AD0FE0E0001AB6FFF0E000105
:10676C00AC6F0001A851A7C0ADF00001AE6B0001E9
:10677C00AD27000EAE230001B3510001AD27000E72
:10678C00AE230001AB510001AD270001AC5100015B
:10679C00AE230001AD510001A525D96E0001AE510B
:1067AC000001A621DA6E0001B351010DCC0EF324C9
:1067BC00E16E010EF420E26EDE50E618D8B402D081
:1067CC00000E12000001B32BC1D7010E1200316E66
:1067DC00030E2F6E9CD0000E306E000E476E000E16
:1067EC002E6E1C50D8B411D0280E5BEC44F0336ED6
:1067FC00D8903330336E410E336407D02E2A2E04DA
:10680C001D6E040E1D64F0D71200F298F096200E47
:10681C00EAEC40F01A0E156EC90E146EF9EC44F049
:10682C00315031EC45F0000E326E0CD03250010D6F
:10683C00A00EF324D96E020EF420DA6EDF5031EC88
:10684C0045F0322A3150325CD8A0F0D7800EEAECF9
:10685C0040F0F288F0864050D8B4F0B001D0FBD7AD
:10686C00000E406E200EEAEC40F0600EEAEC40F0B8
:10687C000201A0AB49D0A1C246F0BCEC43F012C05F
:10688C0025F013C026F014C027F015C028F047508F
:10689C00D8B403D0010E2D6E1200BCEC43F012C024
:1068AC0029F013C02AF014C02BF015C02CF025C011
:1068BC001DF026C01EF027C01FF028C020F01D1EA2
:1068CC001E1E1F1E201E1D2A000E1E221F222022ED
:1068DC0029501D24216E2A501E20226E2B501F2061
:1068EC00236E2C502020246E2450231006E1A90E78
:1068FC00215C610E2258D8A0CAD7302A30041D6EF4
:10690C00040E1D6004D069D7010E2D6E12002F06E7
:10691C002F28D8A460D7000E2D6E120098C09CF0C2
:10692C0000019D6B9E6B0001973500019C3701E3C4
:10693C009D8100019C510001A36F0001A351D8A4BB
:10694C000AD0000E0001966F000E0001976F000E2A
:10695C000001986F12009BC09CF000019D6B9E6B18
:10696C0000019A3500019C3701E39D8100019C5187
:10697C000001A46F0001A451D8A40AD0000E00019C
:10698C00966F000E0001976F000E0001986F1200B9
:10699C00000E0001A06F000E0001A16F000E00019F
:1069AC00A26F0001A451890F0001A35F98C0A4F04D
:1069BC0000019B510001A41B800E0001A4170001D3
:1069CC00978FFF0E00019617FF0E00019717000E10
:1069DC000001981700019A8FFF0E00019917FF0E06
:1069EC0000019A17000E00019B17180E00019F6FF3
:1069FC000001D890A037A137A237000199510001AE
:106A0C00965D00019A510001975900019B510001BC
:106A1C009859D8A00ED0000199510001965F000141
:106A2C009A510001975B00019B510001985B00019A
:106A3C00A0810001D89096379737983700019F2F87
:106A4C00D7D7A0C081F0A1C082F0A2C083F0A3C0B0
:106A5C0084F0A4C085F057EC39F081C096F082C068
:106A6C0097F083C098F01200A7C0A9F00001AA6BA0
:106A7C00AB6B0001A6350001A93701E3AA81000127
:106A8C00A9510001B36F0001B351D8A40AD0000E74
:106A9C000001A56F000EA66F000EA76F000EA86F69
:106AAC001200170E0001A96FA5C0AAF0A6C0ABF08A
:106ABC00A7C0ACF00001A9290001AD6F05D0000101
:106ACC00D890AC33AB33AA330001AD2FF8D700010B
:106ADC00AA510001AE6F0001A68FFF0E0001A51791
:106AEC00FF0E0001A617000E0001A7170001A5510B
:106AFC000001AF6F0001A6510001B06F0001A7515A
:106B0C000001B16F0001B26B8E0E0001B35F00018A
:106B1C00B3AF1AD00001B351800A8F0FD8B00AD08E
:106B2C00000E0001A56F000EA66F000EA76F000EE1
:106B3C00A86F12000001D890B233B133B033AF3329
:106B4C000001B33FF7D71BD0170E0001B36512D06D
:106B5C00000E0001A56F000EA66F000EA76F000EB1
:106B6C00A86F12000001D890AF37B037B137B237E9
:106B7C000001B3070001B3510001D8A4F3D7000101
:106B8C00AE510001D8B409D00001B21FB11FB01F23
:106B9C00AF6D000EB023B123B223AFC0A5F0B0C0CF
:106BAC00A6F0B1C0A7F0B2C0A8F0120093C03CF0A0
:106BBC0094C03DF095C03EF0000E00018E6F140E97
:106BCC008D6F90EC3EF08A868B8CCECF41F0456871
:106BDC00000E0001966F010E0001966501D00ED0DB
:106BEC0000019651420D500EF324D96E030EF42081
:106BFC00DA6E000EDF6E0001962BEDD7000E000151
:106C0C00966F040E0001966501D00ED000019651CE
:106C1C00060D280EF324D96E020EF420DA6E000E47
:106C2C00DF6E0001962BEDD7010E01013E6F000EB9
:106C3C003F6F000E406F000E416F000E0001966F0B
:106C4C00070E0001966501D017D000019651010D79
:106C5C00360EF324D96E010EF420DA6E0001965133
:106C6C00010DC00EF324E16E010EF420E26EDFCFB5
:106C7C00E7FF0001962BE4D7000E0001966F1F0E64
:106C8C000001966501D017D000019651020DF50E4A
:106C9C00F324F66E1F0EF420F76EF86A000EF8223D
:106CAC000900F5CF83F00A00F5CF84F038EC44F0FE
:106CBC000001962BE4D7200E18EC40F0000E0001DA
:106CCC00846F560E836F38EC44F0400E18EC40F095
:106CDC001C0E0001846F0F0E836F38EC44F0600EB5
:106CEC0018EC40F0F292F288F090F0861200A5C0F9
:106CFC0098F0A6C099F00001A7510001A825000149
:106D0C009A6FA9C09BF0AAC09CF0CC0E00019D6F9D
:106D1C00010E00019E6FDDEC39F0000E0001AF6F2B
:106D2C00030E0001AF6501D028D00001AF51010D59
:106D3C00CC0EF324D96E010EF420DA6E0001A851AA
:106D4C00A7C0ABF00001AC6B0001AB27000EAC236D
:106D5C000001AF510001AB27000EAC230001AB5179
:106D6C000001A525E16E0001AC510001A621E26EE7
:106D7C00DFCFE7FF0001AF2BD3D7000E0001AF6FC1
:106D8C00020E0001AF6501D02DD00001A75100010A
:106D9C00AF5DD8A006D0000E0001AE6F000EAD6F37
:106DAC0013D00001AF51010DF3500001A525D96E90
:106DBC00F4500001A621DA6EDF500001AB6F000128
:106DCC00AB510001AD6FAE6B0001AF51010DCC0E9C
:106DDC00F324D96E010EF420DA6EADC0DFFF000192
:106DEC00AF2BCED70001A751010DF3500001A52503
:106DFC000001986FF4500001A6210001996F000169
:106E0C00A851040F00019A6FA9C09BF0AAC09CF076
:106E1C00CC0E00019D6F010E00019E6FAAEC37F0A5
:106E2C0012000001986F0001DD69DE69130E00018C
:106E3C00DC6F370EDB6F000E00019C6F090E00013A
:106E4C009C6501D012D000019C51090D080EF3264F
:106E5C00000EF422460EF324D96E020EF420DA6EE4
:106E6C00000EDF6E00019C2BE9D7000E0001D56FE0
:106E7C00000ED46F000E0101206F000E0101646F33
:106E8C00F3EC45F0000E0001D86F000E00019C6F72
:106E9C00090E00019C6501D010D000019C51040D1D
:106EAC00000EF324D96E020EF420DA6EDE6ADE6A6E
:106EBC00DE6ADD6A00019C2BEBD7000E0001996F96
:106ECC0000019951870B2009996F000199830001EA
:106EDC0098B103D00001999502D000019985C80E94
:106EEC0000019A6F010E00019B6F99C093F09AC03C
:106EFC0094F09BC095F0DCEC35F0DD0E0001816F59
:106F0C00000E0001826FDB0E0001836F000E00018A
:106F1C00846F21EC46F00101D2519FEC45F0010148
:106F2C006481010164873FC097F00001973B010128
:106F3C00645100019719CF0B97190101646FCECFE3
:106F4C00D7F0F090F08612009AC081F00001826BAD
:106F5C00000E0001846F040E836F76EC3DF000018F
:106F6C0081290001A26F000E0001A36F76D0000EE4
:106F7C000001A46F020E0001A46501D019D000011C
:106F8C00A451010DF35000019D25D96EF450000160
:106F9C009E21DA6E0001A451010DCC0EF324E16E9A
:106FAC00010EF420E26EDFCFE7FF0001A42BE2D745
:106FBC00A3C0CFF1CC0E0001816F010E0001826FD6
:106FCC009BC083F09CC084F094EC2CF0000E00016C
:106FDC00A46F030E0001A46501D03DD000019A51AD
:106FEC0000019F6FA06B0001A351040D0001A4517F
:106FFC00F326000EF42200019F51F35CF450800A3A
:10700C000001A16F0001A051800A0001A159D8B064
:10701C0022D00001A451010DCC0EF324D96E010E27
:10702C00F420DA6EDF5000019F6F0001A351040DB4
:10703C000001A451F326000EF422F3500001982510
:10704C00D96EF45000019921DA6E00019F51DF1ABC
:10705C000001A42BBED70001A32B0001A2510001FB
:10706C00A35DD8B0120083D79B9CD388D38AD38CD2
:10707C000F0148691F0E0F01496F000E926E000E32
:10708C00936E000E946E8B800F0139996596D08E9D
:10709C000F014751C30B0C09476F0F01478D0F01AF
:1070AC00478F000E0F013F6F000E0F013E6F0F0157
:1070BC003FAF06D00F013FABFEEC45F00F013F9FF9
:1070CC000F013F9BFEEC45F00F013F8F0F01478FE7
:1070DC000F013F910F013F93000E0F013B6F000E0C
:1070EC000F013A6F0F013F9BA590A490A38093884A
:1070FC00938A130EC86E899CC29092800F0148919E
:10710C0092820F0148930F01499FC29CC29EC150AD
:10711C00F80B0109C16EC186C188C18AC18E550E9A
:10712C00A76EAA0EA76E0E01BF910D0E0E01E16F98
:10713C000C0E0E01FC6F050E0E01FD6F0A0E0E01FA
:10714C00C46F0B0E0E01C56F550EA76EAA0EA76E5F
:10715C000E01BF818B8C8A86949C93969380948429
:10716C00F18AF18CF292F288F090F08CF086948295
:10717C0093929394C00E736E2A0E726E899A928AB1
:10718C00F28EF28C120000018A6948A403D04CECF8
:10719C003CF004D048A604D05FEC40F000018A6FAC
:1071AC0000018A29D8A404D09EEC44F000018A6F17
:1071BC0000018A29D8B472D000018A51090D080E39
:1071CC00F326000EF422460EF324D96E020EF420A0
:1071DC00DA6E48C0DFFF48A434D0000E0001896F7E
:1071EC00030E0001896501D02CD000018951010DDD
:1071FC004E0EF324D96E010EF420DA6E0001895183
:10720C00010D040EF326000EF422460E0001876FCA
:10721C00020E0001886FF35000018727F450000123
:10722C00882300018A51090DF35000018725E16E76
:10723C00F45000018821E26EDFCFE7FF0001892BBB
:10724C00CFD748A611D000018A51090D020EF326A2
:10725C00000EF422460EF324D96E020EF420DA6EE0
:10726C00D0C1DEFFD1C1DDFF00018A51090D460EF0
:10727C00F324D96E020EF420DA6E5EC1DEFF5FC11C
:10728C00DDFF00018A51040D000EF324D96E020EAD
:10729C00F420DA6EDE6ADE6ADE6ADD6A00018A518B
:1072AC001200000184510001D8B408D000018151B2
:1072BC000001821100018311D8A411D0000E00012D
:1072CC00816F000E0001826F000E0001836F1200AF
:1072DC000001842B0001D890833382338133000E5C
:1072EC00000181150001866F000E0001821500015E
:1072FC00876FFE0E000183150001886F0001865117
:10730C000001871100018811D8B411D0E1D7000118
:10731C00842B010E00018127000E00018223000E38
:10732C00000183230001D890833382338133000E14
:10733C00000181150001866F000E0001821500010D
:10734C00876FFF0E000183150001886F00018651C5
:10735C000001871100018811D8B408D0D8D70001DA
:10736C0084070001D890813782378337000182BFB0
:10737C0004D0020E00018461F2D7000184B102D066
:10738C000001829F0001D8908433000184510001D8
:10739C008313000185510001D8B402D00001838F02
:1073AC0081C081F082C082F083C083F012009AC049
:1073BC0081F00001826B000E0001846F040E836F5C
:1073CC0076EC3DF0000181290001A26F000E000156
:1073DC00A46F030E0001A46501D010D00001A451CC
:1073EC00010DF35000019D25D96EF45000019E2132
:1073FC00DA6E000EDF6E0001A42BEBD7000E00013D
:10740C00A46F53D0000E0001A36F030E0001A365FF
:10741C0001D03FD000019A5100019F6FA06B000179
:10742C00A451040D0001A351F326000EF422000117
:10743C009F51F35CF450800A0001A16F0001A05130
:10744C00800A0001A159D8B024D00001A451040D28
:10745C000001A351F326000EF422F35000019825ED
:10746C00D96EF45000019921DA6EDF5000019F6F44
:10747C000001A351010DF35000019D25D96EF4506C
:10748C0000019E21DA6E00019F51DF1A0001A32B2F
:10749C00BCD79DC081F09EC082F09BC083F09CC085
:1074AC0084F094EC2CF00001A42B0001A2510001FB
:1074BC00A45DD8B01200A6D7970E01015C6F010E27
:1074CC0001015D6FB70E0001816F010E0001826F2B
:1074DC00EF0E0001836F200E0001846F000E00017F
:1074EC00866F030E856F5FEC43F0000E0101BD6FDC
:1074FC0069C1BBF1010E0101BE6F5CC181F05DC1C0
:10750C0082F021EEB7F000EE83F0080EDBCFEBFF3C
:10751C00E806FCE2A5EC40F00101FD6F0101FD5114
:10752C00010DF35001015C27F45001015D23B70EEE
:10753C000001816F010E0001826FFB0E0001836F51
:10754C00200E0001846F000E0001866F030E856F04
:10755C005FEC43F0040E0101BD6FFFC1BBF1010EE6
:10756C000101BE6F5CC181F05DC182F021EEB7F00C
:10757C0000EE83F0080EDBCFEBFFE806FCE2A5EC97
:10758C0040F00101FD6F0101FD51010DF3500101AE
:10759C005C27F45001015D23970E0101F46F010E7D
:1075AC000101F56F970E000801015C250101F66FD2
:1075BC00010E0101F76F1EEC31F01200BEC081F01C
:1075CC00BFC082F0C0C083F0C40E0001846F000EF7
:1075DC000001856FD0EC3FF00001C5AF17D0000162
:1075EC00C0AF0AD0000E0001BE6F800E0001BF6F4D
:1075FC00BF0E0001C06F1200000E0001BE6F000E26
:10760C000001BF6F000E0001C06F12000001C551D8
:10761C0005E1150E0001C45DD8A007D0BEC0BEF0B8
:10762C00BFC0BFF0C0C0C0F01200BEC0A5F0BFC04C
:10763C00A6F0C0C0A7F03AEC35F0A5C0B4F0A6C0D7
:10764C00B5F0A7C0B6F0A8C0B7F0E5EC3EF0B4C0FA
:10765C00C1F0B5C0C2F0B6C0C3F0BEC081F0BFC0AF
:10766C0082F0C0C083F0C1C084F0C2C085F0C3C03A
:10767C0086F0B2EC3CF00001D8B018D0C1C089F053
:10768C00C2C08AF0C3C08BF0000E00018C6F800E5C
:10769C0000018D6FBF0E00018E6F3BEC2AF089C08C
:1076AC00BEF08AC0BFF08BC0C0F01200C1C0BEF0EB
:1076BC00C2C0BFF0C3C0C0F01200EF0E0001816F5A
:1076CC00200E0001826FB70E0001836F010E0001C6
:1076DC00846F2EEC43F00001815100018211D8A47B
:1076EC000FD0BBC169F101016951D8B41200080E69
:1076FC0001016961120001016951DCEC44F01200D6
:10770C00FB0E0001816F200E0001826FB70E00018D
:10771C00836F010E0001846F2EEC43F00001815148
:10772C0000018211D8A41200040E0101BD19D8A4C5
:10773C0012000101BA51D8A412000101BB51D8A406
:10774C001CD0000E0101FF6FFEEC45F00F013F91C4
:10775C000F013F93000E0F013B6F000E0F013A6FAC
:10776C000F014751C30B0809476F0F013F9B010ED7
:10777C004B6E000E01016B6F1200BBC1FFF1FEECF2
:10778C0045F00F013F910F013F93000E0F013B6F2E
:10779C00000E0F013A6F0F014751C30B0C09476FD5
:1077AC000F013F9BFFC14BF0000E01016B6F1200EC
:1077BC00960E0001816F000E0001826F8BC083F06A
:1077CC008CC084F0000E0001866F030E856F5FEC99
:1077DC0043F0030E00018B27000E8C238BC0D9FFC6
:1077EC008CC0DAFFDF50070B00019C6F8BC0D9FFF8
:1077FC008CC0DAFF0001DFA802D0010E01D0000E10
:10780C0000019D6F8BC0D9FF8CC0DAFFDF500001E7
:10781C00946F050E0001956F0001D8909433000110
:10782C00952FFAD700019451070B0001996F0001B5
:10783C008B4B8C2B8BC0D9FF8CC0DAFFDF50000137
:10784C009A6F00018B4B8C2B00019905D8B405D095
:10785C00020E00019919D8A40CD08BC0D9FF8CC092
:10786C00DAFFDF5000019B6F00018B4B8C2B060E57
:10787C0001D0050E00019E6F20EE96F000EE8BF00D
:10788C00080EDBCFEBFFE806FCE21200000E000155
:10789C00866F090E0001866501D05CD0000186510F
:1078AC00090D080EF326000EF422460EF324D96EB1
:1078BC00020EF420DA6E0201DFAE49D000018651CF
:1078CC00090D080EF326000EF422460EF324D96E91
:1078DC00020EF420DA6E0201DFA439D0000E000192
:1078EC00856F030E0001856501D02ED000018551F6
:1078FC00010D4E0EF324D96E010EF420DA6E000148
:10790C008551010D040EF326000EF422460E0001E3
:10791C00826F020E0001836FF35000018227F45036
:10792C000001832300018651090DF35000018225CB
:10793C00E16EF45000018321E26EDE50E618D8A40B
:10794C0006D00001852BCDD7000186511200000115
:10795C00862B9FD7FF0E1200000183AF1DD081C074
:10796C0087F082C088F083C089F00001871F881FD0
:10797C00891F872B000E88238923000E0001872581
:10798C000001816F000E000188210001826F800EC2
:10799C00000189210001836F000186AF1DD084C0D6
:1079AC0087F085C088F086C089F00001871F881F8A
:1079BC00891F872B000E88238923000E0001872541
