:0400000053EF00F0CA
:10000800FACF12F0FBCF13F0E9CF14F0C3EF03F0EF
:10001800D8CF01F0E8CF02F0E0CF03F0FACF04F038
:10002800FBCF05F0E9CF06F0EACF07F0E1CF08F003
:10003800E2CF09F0D9CF0AF0DACF0BF0F3CF0CF00A
:10004800F4CF0DF0F6CF0EF0F7CF0FF0F8CF10F099
:10005800F5CF11F0A4B0A49011C0F5FF10C0F8FFBF
:100068000FC0F7FF0EC0F6FF0DC0F4FF0CC0F3FF82
:100078000BC0DAFF0AC0D9FF09C0E2FF08C0E1FFE0
:1000880007C0EAFF06C0E9FF05C0FBFF04C0FAFF8E
:1000980003C0E0FF02C0E8FF01C0D8FF10007EEFF8
:1000A80004F09B9CD388D38AD38C0F0148691F0E18
:1000B8000F01496F000E926E000E936E000E946E43
:1000C8008B9C0F0139996596D08EF28EF28C0F01B8
:1000D8004751C30B0C090F01476F0F01478D0F01E3
:1000E800478F43EC04F075EC04F00F013F8F0F01CC
:1000F800478F0F013F9BA590A490A3809388938A74
:10010800130EC86E900E00017A6F899CC28092808F
:100118000F01489192820F0148930F01499FC29C99
:10012800C29EC150F80B0109C16EC186C188C18A3F
:10013800C18E949C8B9CC2808B8C898C340E000160
:10014800666FF20EE82EFED7662FFCD7C18CC282EE
:10015800C2B2FED7C19CC294C296C298C29AC28249
:10016800C2B2FED7C350FF0B0001666FC450FF0B2D
:100178000001676F000167510001696F686B00013A
:10018800665100016825286E0001000E00016921F2
:10019800296EF6EC03F028C075F029C076F02AC065
:1001A80077F075C02BF076C02CF077C02DF0000EDC
:1001B800286E800E296E450E2A6EC2EC02F028C009
:1001C80037F029C038F02AC039F0B80E3A6E9E0EC2
:1001D8003B6E3F0E3C6E31EC02F037C070F038C019
:1001E80071F039C072F0C250C30B0409C26EC282EA
:1001F800C2B2FED7C350FF0B0001666FC450FF0B9D
:100208000001676F000167510001696F686B0001A9
:10021800665100016825286E0001000E0001692161
:10022800296EF6EC03F028C075F029C076F02AC0D4
:1002380077F0000E2B6E800E2C6E450E2D6E75C05D
:1002480028F076C029F077C02AF0C2EC02F028C066
:1002580037F029C038F02AC039F070C03AF071C0C0
:100268003BF072C03CF031EC02F037C06AF038C0A5
:100278006BF039C06CF0EA0E0001666FC30EE82E11
:10028800FED7662FFCD700F0800E206E080E68ECB3
:1002980004F0C7A404D00001666B662B02D00001ED
:1002A800666BC5501F0B000166110009D8A4F1D771
:1002B800C580C5B0FED7C7A404D00001666B662B05
:1002C80002D00001666BC5501F0B000166110009C2
:1002D800D8A4F1D700017A51FE0B87EC03F0C7A42C
:1002E80004D00001666B662B02D00001666BC55016
:1002F8001F0B000166110009D8A4F1D7000E87EC86
:1003080003F0C7A404D00001666B662B02D000017D
:10031800666BC5501F0B000166110009D8A4F1D700
:10032800C584C5B4FED7C7A404D00001666B662B8C
:1003380002D00001666BC5501F0B00016611000951
:10034800D8A4F1D7C580C5B0FED7C7A404D0000192
:10035800666B662B02D00001666BC5501F0B00014F
:1003680066110009D8A4F1D700017A51010987EC78
:1003780003F0C7A404D00001666B662B02D000010D
:10038800666BC5501F0B000166110009D8A4F1D790
:100398002FEC04F00001746FC59AC588C5B8FED764
:1003A8002FEC04F00001736FC58AC588C5B8FED765
:1003B800C584C5B4FED7000174510001676F666B30
:1003C80000017351000166250001786F0001000EDD
:1003D800000167210001796F000178C066F0000113
:1003E80079C067F0040E0001686F0001D890673388
:1003F80066330001682FF9D766C078F067C079F0D6
:1004080078C028F079C029F056EC04F028C037F0FD
:1004180029C038F02AC039F0000E3A6E800E3B6EC3
:100428003D0E3C6E31EC02F037C06DF038C06EF016
:1004380039C06FF08B9C1AEC04F01AEC04F01AEC3B
:1004480004F01AEC04F01AEC04F0C290C69A8B9CE3
:10045800899CA4900300A4906ED639C03DF03E6AF2
:100468003F6A38343D3601E33E803D500001606FFD
:100478000001606707D0000E376E000E386E000E60
:10048800396E12003CC03DF03E6A3F6A3B343D364F
:1004980001E33E803D500001656F0001656707D0AC
:1004A800000E376E000E386E000E396E1200000115
:1004B80065517B0F0001602739C065F03C50000191
:1004C800651B800E00016517388E3B8EFF0E3A16AD
:1004D800FF0E3B16000E3C16000E0001616F000E69
:1004E8000001626F000E0001636F070E0001646F68
:1004F80037A009D03A50000161273B500001622320
:100508003C5000016323D890393238323732D890C2
:100518003A363B363C360001642FEAD7090E000113
:10052800646F37A009D03A50000161273B500001A1
:1005380062233C5000016323D89039323832373275
:100548000001D89000016333000162330001613378
:100558000001642FE6D761C020F062C021F063C0BB
:1005680022F060C023F065C024F033EC03F020C013
:1005780037F021C038F022C039F012002AC02EF01E
:100588002F6A306A29342E3601E32F802E50356EBB
:10059800356607D0000E286E000E296E000E2A6EF2
:1005A80012002DC02EF02F6A306A2C342E3601E34B
:1005B8002F802E50366E366607D0000E286E000E3D
:1005C800296E000E2A6E1200000E326E000E336E77
:1005D800000E346E3650890F355E2AC036F02D5025
:1005E800361A800E3616298EFF0E2816FF0E29168B
:1005F800000E2A162C8EFF0E2B16FF0E2C16000E40
:100608002D16180E316ED8903236333634362B50BC
:10061800285C2C5029582D502A58D8A007D02B5088
:10062800285E2C50295A2D502A5A3280D8902836C4
:1006380029362A36312EE7D732C020F033C021F0D0
:1006480034C022F035C023F036C024F033EC03F078
:1006580020C028F021C029F022C02AF0120023501F
:10066800D8B405D0205021102210D8A40CD0000EE8
:10067800206E000E216E000E226E1200232AD890E2
:10068800223221322032000E2014256E000E211451
:10069800266EFE0E2214276E255026102710D8B479
:1006A8000CD0ECD7232A010E2026000E2122000EA2
:1006B8002222D890223221322032000E2014256EB8
:1006C800000E2114266EFF0E2214276E25502610C8
:1006D8002710D8B406D0E6D72306D890203621367E
:1006E800223621AEF9D723A0219ED8902332235059
:1006F80022122450D8A4228E20C020F021C021F03C
:1007080022C022F01200216E21C0C9FFC6BE12000D
:10071800C6CF20F00F0E20162050080AD8B40FD0EC
:10072800C6CF20F00F0E201620500B0AD8B407D0E1
:10073800C6889EA6FED7C7B41200C7501200C6CFFF
:1007480020F00F0E20162050080AD8B408D0C6CFC3
:1007580020F00F0E201620500B0AD8A41200C7B0A4
:10076800FED7C7A403D0206A202A01D0206AC5502A
:100778001F0B20100009D8A4F4D7C5501200EACFE7
:1007880015F0E1CF16F0E2CF17F0D9CF18F0DACF95
:1007980019F0F3CF1AF0F4CF1BF0F6CF1CF0F7CF17
:1007A8001DF0F8CF1EF0F5CF1FF01FC0F5FF1EC0DB
:1007B800F8FF1DC0F7FF1CC0F6FF1BC0F4FF1AC0EE
:1007C800F3FF19C0DAFF18C0D9FF17C0E2FF16C03F
:1007D800E1FF15C0EAFF14C0E9FF13C0FBFF12C018
:1007E800FAFF1100000E2B6E2950800AF36E800E5E
:1007F800F35C000ED8B4285CD8B006D0286C291E4B
:10080800D8B0292A010E2B6E28C020F029C021F06B
:10081800226A8E0E236E2BC024F033EC03F020C026
:1008280028F021C029F022C02AF01200000E226E02
:10083800000E216E640E215C000E2258D8B0120002
:100848001A0E206EF80EE82EFED7202EFCD700D008
:10085800214A222AEFD7C6CF20F00F0E20162050AB
:10086800080AD8B407D0C6CF20F00F0E20162050A3
:100878000B0AD8B4C586C7A0FED7C9501200CD86CA
:10088800000E0F013F6F000E0F013E6F0F013FAFCB
:1008980006D00F013FAB75EC04F00F013F9F0F012D
:1008A8003F9B120028C020F029C021F0226A8E0E3A
:1008B800236E000E246E33EC03F020C028F021C014
:1008C80029F022C02AF01200216E3F0EC716000E32
:1008D800C66E000EC56E2150C6122050C712C68AB9
:1008E8001200F29C550EA76EAA0EA76E0F013F8B41
:0A08F800F28C1200000155EF00F031
:020000040001F9
:08FFF8009EF718FFFDF9FFFB65
:00000001FF
