:04000000F2EF00F02B
:0E0008005C82FACF95F0FBCF96F004EF53F038
:100018005C80D8CF21F0E8CF22F0E0CF23F0FACFF0
:1000280024F0FBCF25F0E9CF26F0EACF27F0E1CF87
:1000380028F0E2CF29F0D9CF2AF0DACF2BF0F3CF8E
:100048002CF0F4CF2DF0F6CF2EF0F7CF2FF0F8CF1D
:1000580030F0F5CF31F06EEC3EF0A4A673D0A49644
:10006800020E5318D8B403D05304D8A44BD0430479
:10007800D8A412D0020E5924596E000E5A205A6E76
:100088005A5004E1EB0E595CD8A018D0000E5A6EF5
:10009800EB0E596E000E11D0FE0E5924596EFF0E4C
:1000A8005A205A6E5A500AE10B0E595CD8B006D045
:1000B800000E5A6E0A0E596E010E436E59C01FF09B
:1000C800010E1F161F3ABA501F18EF0B1F18BA6EF1
:1000D800D8905A30206E59301F6E010E1F161F3AE5
:1000E8001F46BA501F18DF0B1F18BA6E59C01FF0F1
:1000F8005AC020F0D89020321F32D89020321F32B8
:100108001F50BB6E030E5318D8A444D05104516E2F
:100118005150D8A43FD05050D8B403D05004D8A4DC
:1001280002D0010E0BD0020E5018D8A402D0020E35
:1001380005D0030E5018D8A402D0000E536EFFEC61
:1001480053F028D0A4A026D0400E0001CA250001F3
:10015800CA6F000E0001CB210001CB6F000E000119
:10016800CC210001CC6F000E0001CD210001CD6F24
:100178005B045B6E5B50D8A40CD0010E0101CC6F00
:100188000001E451D8A403D0010E5B6E02D0E4C094
:100198005BF0A49031C0F5FF30C0F8FF2FC0F7FF27
:1001A8002EC0F6FF2DC0F4FF2CC0F3FF2BC0DAFFE2
:1001B8002AC0D9FF29C0E2FF28C0E1FF27C0EAFF13
:1001C80026C0E9FF25C0FBFF24C0FAFF23C0E0FFDB
:1001D80022C0E8FF21C0D8FF5C90100068EF47F00C
:101FEC0000010203040506070036008402090409F7
:101FFC00060C08C10A7D0C640E14100012001400AB
:10200C00163818C81A0D1C001E72203822382407E6
:10201C00260028002A692C812E7E309632F03488D6
:10202C00364038003AE83C003EC0030000A00500F2
:10203C000060090000E0100000E01F0000E03D001F
:10204C0000E0790000E0F10000E0E10100E0C103F4
:10205C0000E0810700E0010F00E0011E00443D1B81
:10206C00000DB415004F4F4F4F4F4F4F4F4F4F4F29
:10207C004F4F4F4F4F4F4F4F4F4F4F50505050505F
:10208C005050505050222426282A2C2E30323437CF
:10209C00393B3D3F414345474A4C4E0507090B0D23
:1020AC000F1114161801000A006400E80310270130
:1020BC0000100000010010D321CF20032150414E0D
:1020CC0000312134034D006900630072006F00631E
:1020DC00006800690070002000540065006300680F
:1020EC00006E006F006C006F0067007900200049E3
:1020FC00006E0063002E002E03530069006D00700B
:10210C00006C006500200048004900440020004499
:10211C0000650076006900630065002000440065DE
:10212C00006D006F0009022900010100C032090492
:10213C0000000203000000092111010001221D0012
:10214C00070581034000010705010340000106005B
:10215C00FF0901A10119012940150026FF0075088E
:10216C0095408100190129409100C0120100020024
:10217C00000008D804C9F7000101020001696E765D
:10218C00616C69642100302E31356D5700312E326F
:10219C006D5700322E356D5700302E366D5700308E
:1021AC002E336D570031306D570032306D57004370
:1021BC00686E004E73650050777200356D57005590
:1021CC007046005570740004030904497C253032B4
:1021DC0078253032783A504F5745525F5445535416
:1021EC003A206572726F722073656E64696E672037
:1021FC006261636B2C2025732C20525353493D256F
:10220C006900497C25303278253032783A50494E75
:10221C0047206572726F722073656E64696E6720F9
:10222C006261636B3A207061796C6F61645F736992
:10223C007A653D256900497C253032782530327825
:10224C003A50494E47207375636365737366756CBA
:10225C003A207061796C6F61645F73697A653D25B2
:10226C006900497C4572726F723A20756E61626CBE
:10227C006520746F20736574206368616E6E656C85
:10228C00202569212028545F542900497C253032AF
:10229C0078253032783A20256920636F6D6D616E38
:1022AC0064206E6F74207265636F676E697A656403
:1022BC002100497C25303278253032783A504F57FE
:1022CC0045525F544553543A204F4B2C2025732CC8
:1022DC0020525353493D256900497C626573742033
:1022EC006368616E6E656C3A20256920286E6F6993
:1022FC007365203D3D2025692900497C7363616E1F
:10230C006E696E67206368616E6E656C7320666FB4
:10231C0072206E6F6973652E2E2E00497C6163638B
:10232C00657074696E67207363616E732026206319
:10233C006F6E6E656374696F6E7300497C6F706548
:10234C007261746F72277320616464726573733A7F
:10235C0020253032782530327800497C50414E4966
:10236C00443A25303278253032782043683A25308B
:10237C00326400497C6372656174696E67206E65B6
:10238C0074776F726B2E2E2E00303132333435361B
:10239C0037383961626364656600497C73746174B3
:1023AC0075733A2072656164792100497C524553FA
:1023BC00455400286E756C6C29000000F1EC2EF071
:1023CC000009D8B489EF1DF00101B6B51200000E5A
:1023DC000101906F01019AA504D001014A6B4A2BAF
:1023EC0002D001014A6B0101905101014A19FC0B09
:1023FC004A190101906F01019AA703D0010190873E
:10240C0002D00101909701019A51030BE806D8A460
:10241C0004D001014A6B4A2B02D001014A6B010125
:10242C004A3B4A470101905101014A19DF0B4A19F5
:10243C000101906F01019AAF03D00101908D02D080
:10244C000101909D01019AAF06D00101908F9BC1B3
:10245C0093F19CC194F1A1C199F1A0C198F1010132
:10246C00B69577EF1DF00A0E01019F6102D085EF42
:10247C001DF0010120EE02F09D51D9269E51DA2269
:10248C00DF5001016D6F010120EE03F09D51D92643
:10249C009E51DA22DF5001016E6F010120EE04F033
:1024AC009D51D9269E51DA22DF500101736F010133
:1024BC0020EE05F09D51D9269E51DA22DF50010104
:1024CC00746F010120EE06F09D51D9269E51DA223F
:1024DC00DF500101756F010120EE07F09D51D926E7
:1024EC009E51DA22DF500101766F010120EE08F0D7
:1024FC009D51D9269E51DA22DF500101786F0101DE
:10250C0020EE09F09D51D9269E51DA22DF500101AF
:10251C00796F000E0101906F01019AA703D00101A0
:10252C00908702D00101909701019051030B000993
:10253C00D8A407D00101732903E101017429D8A49F
:10254C001CD10101F2510101781912E10101F35181
:10255C0001017919D8A40CD00101F05101017519B0
:10256C0007E10101F15101017619D8B485EF1DF095
:10257C009DC1D9FF9EC1DAFF010EDF6441D09DC120
:10258C00D9FF9EC1DAFFDF06000E0101C76F000EF6
:10259C0001017C6F1AD001017C51010DF350010136
:1025AC009D25D96EF45001019E21DA6E0101C751AF
:1025BC00010DA60EF324E16E020EF420E26EDFCFC5
:1025CC00E7FF0101C72B01017C2B01019F51010188
:1025DC007C5DD8A0E0D79AC1B1F1140E9BEC4CF005
:1025EC00B1C12FF1B2C130F1B3C131F1A60E01016D
:1025FC00326F020E0101336FC7C134F114EC36F0A7
:10260C00000E01017C6F030E01017C6501D03DD0F1
:10261C0001017C51080D030EF326000EF422280E46
:10262C00F324D96E020EF420DA6EDF50D8B42AD01F
:10263C0001017C51080D280EF324D96E020EF420F2
:10264C00DA6E01017851DE181DE101017951DE18B5
:10265C00D8A418D0010120EE0AF09D51D9269E5124
:10266C00DA2201017C51080D020EF326000EF42231
:10267C00280EF324E16E020EF420E26EDE50E61812
:10268C00D8B403D001017C2BBED7040E01017C61B0
:10269C0002D085EF1DF0000E01017C6F030E0101CD
:1026AC007C6501D013D001017C51080D030EF3267B
:1026BC00000EF422280EF324D96E020EF420DA6EEA
:1026CC00DF50D8B403D001017C2BE8D7040E0101F4
:1026DC007C614DD001017C51080D280EF324D96E7C
:1026EC00020EF420DA6E78C1DEFF79C1DDFF010144
:1026FC0020EE0AF09D51D9269E51DA2201017C511F
:10270C00080D020EF326000EF422280EF324E16EBF
:10271C00020EF420E26EDFCFE7FF01017C51080DC1
:10272C00030EF326000EF422280EF324D96E020EAB
:10273C00F420DA6E030EDF6E57EC52F001017C517F
:10274C00080D040EF326000EF422280EF324D96E85
:10275C00020EF420DA6E010100C1DEFF010101C19D
:10276C00DEFF010102C1DEFF010103C1DEFF010139
:10277C009051FC0B0109906F92D00101F0510101B5
:10278C006D1905E10101F15101016E19D8A40FD3A6
:10279C000101F2510101731905E10101F35101012C
:1027AC007419D8A404D3010120EE01F09D51D9264F
:1027BC009E51DA220101DFA472D0F9C1A6F2020EF9
:1027CC000201A76F75C1A8F276C1A9F278C1AAF26D
:1027DC0079C1ABF2F0C1ACF2F1C1ADF2F2C1AEF223
:1027EC00F3C1AFF2010120EE0AF09D51D9269E51A2
:1027FC00DA22DF500201B06F000E0201B16F300E11
:10280C000201B26F0D0E0101C76F0101F3510101FD
:10281C007919D8B40ED075C13DF176C13EF178C1AD
:10282C003FF179C140F1000E0101416F08EC24F039
:10283C0034D0000E0101B16F0101B18B78C1F4F1FC
:10284C0079C1F5F175C1BCF176C1BDF15EEC51F009
:10285C0001017C6F01017C29D8B40FD001017C519E
:10286C00090D040EF326000EF422000EF3240101D0
:10287C00B26F060EF4200101B36FB1C12FF1B2C1DA
:10288C0030F1B3C131F1A60E0101326F020E01011C
:10289C00336FC7C134F114EC36F00101908501019E
:1028AC0020EE0BF09D51D9269E51DA22DF50D8A490
:1028BC0038D2010120EE0CF09D51D9269E51DA221E
:1028CC00300EDE18D8A400D20FD20101CDB34ED0F9
:1028DC0057EC52F000C1DBF101C1DCF102C1DDF1BA
:1028EC0003C1DEF1010120EE08F09D51D9269E5165
:1028FC00DA22DF500101CF6F010120EE09F09D516A
:10290C00D9269E51DA22DF500101D06F000E010151
:10291C007B6F030E01017B6501D022D001017B513D
:10292C0001014A6F4B6B0D0E01014A27000E4B2320
:10293C0001014A5101019D25D96E01014B51010143
:10294C009E21DA6E01017B51010DD10EF324E16E53
:10295C00010EF420E26EDFCFE7FF01017B2BD9D70C
:10296C000101CD830101CD9185EF1DF0010120EE18
:10297C0008F09D51D9269E51DA220101CF51DE1863
:10298C00D8A40DD0010120EE09F09D51D9269E51FD
:10299C00DA220101D051DE18D8B485EF1DF0010107
:1029AC00CF510101D011D8A46FD0000E01017B6F63
:1029BC00030E01017B6501D036D001017B51010171
:1029CC004A6F4B6B0D0E01014A27000E4B23010180
:1029DC004A5101019D25D96E01014B5101019E21E6
:1029EC00DA6E01017B51010DD70EF324E16E010E5D
:1029FC00F420E26EDFCFE7FF01017B51010DD70E12
:102A0C00F324D96E010EF420DA6E01017B51010D15
:102A1C00AA0EF324E16E010EF420E26EDFCFE7FF85
:102A2C0001017B2BC5D7010120EE08F09D51D92661
:102A3C009E51DA22DF500101D56F010120EE09F021
:102A4C009D51D9269E51DA22DF500101D66FD5C196
:102A5C00F4F1D6C1F5F1F0C1BCF1F1C1BDF15EEC00
:102A6C0051F00101CE6F0101CE29D8A4A0D08D0E5A
:102A7C000001E16F0101F4AF02D00001E191C3EC60
:102A8C0042F00101CE6F93D00B0E0101C76F010113
:102A9C00C751010DA60EF324D96E020EF420DA6E86
:102AAC00000EDF6E0101C72B0101C751010DA60EEF
:102ABC00F324D96E020EF420DA6E110EDF6E0101D2
:102ACC00C72B000E01017B6F030E01017B6501D04A
:102ADC0038D001017B5101014A6F4B6B0D0E010186
:102AEC004A27000E4B2301014A5101019D25D96E45
:102AFC0001014B5101019E21DA6E01017B51010D47
:102B0C00D70EF324E16E010EF420E26EDFCFE7FF67
:102B1C0001017B51010DD70EF324D96E010EF42067
:102B2C00DA6E0101C751010DA60EF324E16E020EFF
:102B3C00F420E26EDFCFE7FF0101C72B01017B2BF5
:102B4C00C3D7010120EE08F09D51D9269E51DA22FF
:102B5C00DF500101D56F010120EE09F09D51D926FE
:102B6C009E51DA22DF500101D66F0101C751010DD0
:102B7C00A60EF324D96E020EF420DA6ED5C1DFFF57
:102B8C000101C72B0101C751010DA60EF324D96E0B
:102B9C00020EF420DA6ED6C1DFFF0101C72BCF0E77
:102BAC000101486F010E0101496F3DEC50F001012C
:102BBC00CD830101CD8185EF1DF0000E0101716FF8
:102BCC00030E0101716501D022D001017151010187
:102BDC004A6F4B6B0D0E01014A27000E4B2301016E
:102BEC004A5101019D25D96E01014B5101019E21D4
:102BFC00DA6E01017151010DAA0EF324E16E010E82
:102C0C00F420E26EDFCFE7FF0101712BD9D78D0ED7
:102C1C000001E16F010120EE11F09D51D9269E516A
:102C2C00DA220101DFAE02D00001E191010120EEB8
:102C3C0011F09D51D9269E51DA22DF500101F46F1B
:102C4C00010120EE12F09D51D9269E51DA22DF505F
:102C5C000101F56FF0C1BCF1F1C1BDF15EEC51F0B9
:102C6C000101CE6F0101CE29D8B415D00101CE518E
:102C7C00090D080EF326000EF422000EF324D96E73
:102C8C00060EF420DA6EDF500001E16F0001E185E1
:102C9C000001E18708D08D0E0001E16F0101F4AF56
:102CAC0002D00001E191C3EC42F00101CE6F0101B1
:102CBC00CE29D8B403D00101CD8102D00101CD9130
:102CCC000101CD9385EF1DF0010120EE0CF09D511B
:102CDC00D9269E51DA22DF50100AD8B4F6D5010A53
:102CEC00D8B46BD785EF1DF0010120EE0AF09D5191
:102CFC00D9269E51DA220101F851DE18D8A485EFAD
:102D0C001DF00101B4510101781905E10101B55122
:102D1C0001017919D8A485EF1DF00101B69785EF53
:102D2C001DF001019F51F50F0101976F0B0E010171
:102D3C009D250101956F000E01019E210101966FE9
:102D4C0075C191F176C192F1010120EE08F09D510F
:102D5C00D9269E51DA22DE28D8A412D0010120EE09
:102D6C0009F09D51D9269E51DA22DE28D8A408D02C
:102D7C0001019AAF05D09BC193F19CC194F10CD089
:102D8C000101908F080E01019D250101936F000E2A
:102D9C0001019E210101946F0101908D0101975158
:102DAC00D8B485EF1DF00101B68585EF1DF09DC1EE
:102DBC00D9FF9EC1DAFFDF50D8B485EF1DF09DC15D
:102DCC00D9FF9EC1DAFFDF06000E0101C76F000EAE
:102DDC0001017C6F1AD001017C51010DF3500101EE
:102DEC009D25D96EF45001019E21DA6E0101C75167
:102DFC00010DA60EF324E16E020EF420E26EDFCF7D
:102E0C00E7FF0101C72B01017C2B01019F5101013F
:102E1C007C5DD8A0E0D70101F35101017419D8A44D
:102E2C003CD00201B151D8A438D0300E0201B219F5
:102E3C00D8A433D0000E0101B16F0101B18B73C165
:102E4C00F4F174C1F5F15EEC51F001017C6F0101FC
:102E5C007C29D8B485EF1DF001017C51090D040EBD
:102E6C00F326000EF422000EF3240101B26F060EBD
:102E7C00F4200101B36FB1C12FF1B2C130F1B3C174
:102E8C0031F1A60E0101326F020E0101336FC7C181
:102E9C0034F114EC36F085EF1DF06DC13DF16EC1CF
:102EAC003EF173C13FF174C140F1000E9AB7010EAF
:102EBC000101416F08EC24F085EF1DF0040E0101B7
:102ECC006F6F01016F5101014A6F4B6B040E0101D1
:102EDC004A27000E4B2301014A5101019D25D96E51
:102EEC0001014B5101019E21DA6E4D0EDE18D8A462
:102EFC0085EF1DF0010120EE03F09D51D9269E5166
:102F0C00DA22DF500101686F68C14AF1010E01013C
:102F1C004B6F01014A2B03D00101D8904B370101B3
:102F2C004A2FFAD701014B510101606F010120EECC
:102F3C0002F09D51D9269E51DA22DF50D8A404D03C
:102F4C00010160510101C81301016F5101014A6F68
:102F5C004B6B060E01014A27000E4B2301014A510F
:102F6C0001019D25D96E01014B5101019E21DA6EA3
:102F7C0001016851010DB40EF324E16E000EF42032
:102F8C00E26EDFCFE7FF9DC1D9FF9EC1DAFFDF50B4
:102F9C000101BC6F010120EE01F09D51D9269E511B
:102FAC00DA22DF500101BD6F010120EE02F09D51CC
:102FBC00D9269E51DA22DF500101F46F010120EE77
:102FCC0003F09D51D9269E51DA22DF500101F56F95
:102FDC005EEC51F001017A6F01017A29D8A405D079
:102FEC00DBEC55F001017A6F3ED0000E01017C6FD5
:102FFC00030E01017C6501D030D001017C51010D23
:10300C00F35001019B25D96EF45001019C21DA6E1D
:10301C0001017C51010D040EF326000EF422000E6A
:10302C0001014B6F060E01014C6FF35001014B2750
:10303C00F45001014C2301017A51090DF3500101A7
:10304C004B25E16EF45001014C21E26EDE50E61886
:10305C00D8A403D001017C2BCBD7030E01017C65D6
:10306C0002D001017A6901017A29D8B4A9D00101F1
:10307C007A51090D000EF324D96E060EF420DA6E87
:10308C00BCC1DEFFBDC1DDFF01017A51090D020E8D
:10309C00F326000EF422000EF324D96E060EF42053
:1030AC00DA6EF4C1DEFFF5C1DDFF000E01017C6FAD
:1030BC00030E01017C6501D02ED001017C51010D64
:1030CC00F35001019B25D96EF45001019C21DA6E5D
:1030DC0001017C51010D040EF326000EF422000EAA
:1030EC0001014A6F060E01014B6FF35001014A2793
:1030FC00F45001014B2301017A51090DF3500101E8
:10310C004A25E16EF45001014B21E26EDFCFE7FF5F
:10311C0001017C2BCDD701017A51090D080EF32644
:10312C00000EF422000EF324D96E060EF420DA6E93
:10313C00000EDF6E01017A51090D080EF326000E08
:10314C00F422000EF324D96E060EF420DA6EDF8220
:10315C0001017A51090D080EF326000EF422000E1F
:10316C00F324D96E060EF420DA6EDF8001017A5159
:10317C00090D080EF326000EF422000EF324D96E6E
:10318C00060EF420DA6EDF8401017A51090D080E67
:10319C00F326000EF422000EF324D96E060EF42052
:1031AC00DA6EDF8601017A51090D080EF326000E46
:1031BC00F422000EF324D96E060EF420DA6EDF8EA4
:1031CC000101B6A185EF1DF09DC1D9FF9EC1DAFFAB
:1031DC00DF500101BC6F010120EE01F09D51D92699
:1031EC009E51DA22DF500101BD6F010120EE02F089
:1031FC009D51D9269E51DA22DF500101F46F010155
:10320C0020EE03F09D51D9269E51DA22DF500101A8
:10321C00F56F01016F51010DF35001019D25D96E20
:10322C00F45001019E21DA6EDE28D8A485EF1DF042
:10323C0001016F5101014A6F4B6B010E01014A27CD
:10324C00000E4B2301014A5101019D25D96E01014C
:10325C004B5101019E21DA6EDF500101706F040E9B
:10326C000101BE6185EF1DF001017039030B0101F5
:10327C004A6F020E01014A6185EF1DF00101BE513A
:10328C000A0D000EF324D96E020EF420DA6EF6C18C
:10329C00DFFF0101BE510A0D070EF326000EF422CA
:1032AC00000EF324D96E020EF420DA6E98C1DFFF03
:1032BC000101BE510A0D080EF326000EF422000E79
:1032CC00F324D96E020EF420DA6E99C1DFFF0101EE
:1032DC00BE510A0D050EF326000EF422000EF32447
:1032EC00D96E020EF420DA6EBCC1DEFFBDC1DDFF6B
:1032FC000101BE510A0D090EF326000EF422000E38
:10330C00F324D96E020EF420DA6E000EDF6E01018A
:10331C00BE510A0D090EF326000EF422000EF32402
:10332C00D96E020EF420DA6E0201DF8C01017031CD
:10333C00030B01014A6F0101BE510A0D090EF32660
:10334C00000EF422000EF324D96E020EF420DA6E75
:10335C000201DF5001014A19FC0B4A190201DF6E10
:10336C00010170A70FD00101BE510A0D090EF32601
:10337C00000EF422000EF324D96E020EF420DA6E45
:10338C000201DF8601017039030B01014A6F020E45
:10339C0001014A610FD00101BE510A0D090EF3263D
:1033AC00000EF422000EF324D96E020EF420DA6E15
:1033BC000201DF8A000E01017C6F030E01017C65A6
:1033CC0001D02ED001017C51010DF3500101932548
:1033DC00D96EF45001019421DA6E01017C51010D7A
:1033EC00010EF326000EF422000E01014A6F020EAC
:1033FC0001014B6FF35001014A27F45001014B239B
:10340C000101BE510A0DF35001014A25E16EF45041
:10341C0001014B21E26EDFCFE7FF01017C2BCDD701
:10342C000101BE2B6CD3000E0101636F010E010173
:10343C00C06501D064D3000E01017C6F030E010145
:10344C007C6501D019D001017C51010DF3500101B3
:10345C009B25D96EF45001019C21DA6E01017C513F
:10346C00010DAA0EF324E16E010EF420E26EDFCF03
:10347C00E7FF01017C2BE2D7F7EC49F00101776FF4
:10348C0001017729D8A41CD00101C051D8A437D38D
:10349C00B70E0001E16FF0C1BCF1F1C1BDF1C3EC9D
:1034AC0042F00101776F01017729D8A42AD0010ECF
:1034BC000101636FFF0E0101F56FFE0EF46F9ED0DC
:1034CC0001017751090D080EF326000EF422000EAF
:1034DC00F324D96E060EF420DA6EDFA612D00101A9
:1034EC007751090D020EF326000EF422000EF32480
:1034FC00D96E060EF420DA6EDECFF4F1DDCFF5F1E5
:10350C007DD001017729D8B479D001017729010147
:10351C00F46FF3C1F5F1F0C1BCF1F1C1BDF1020ED4
:10352C000101CB19D8A447D0010120EE01F09D5127
:10353C00D9269E51DA220101DFAC3DD0F4C15EF1F7
:10354C00F5C15FF1000E0101F46F010E0101726F04
:10355C00070E0101726501D025D072C1F5F15EEC48
:10356C0051F00101616F01016129D8A418D0000E3E
:10357C000101F46F72C1F5F172C14AF1010E010142
:10358C004B6F01014A2B03D00101D8904B3701013D
:10359C004A2FFAD701014B510101C81303D0010185
:1035AC00722BD6D7080E01017219D8A404D05EC1B3
:1035BC00F4F15FC1F5F1BF0E0001E16F010120EEE6
:1035CC0001F09D51D9269E51DA220101DFB004D0C1
:1035DC000001E1910101F48FC3EC42F00101776F1E
:1035EC0001017751090D080EF326000EF422000E8E
:1035FC00F324D96E060EF420DA6EDF88020E020177
:10360C00A66FF4C1A7F2F5C1A8F263C1A9F2040E2A
:10361C000101C76F01017751040D000EF324D96E1F
:10362C00050EF420DA6EDE6ADE6ADE6ADD6A0101FE
:10363C007751090D040EF326000EF422000EF3242C
:10364C000101396F060EF42001013A6F010E0101E0
:10365C003B6FA2EC51F053D2010120EE03F09D51CF
:10366C00D9269E51DA22DF50D8A4A4D0010120EE35
:10367C0001F09D51D9269E51DA22DF500101F26FE3
:10368C00010120EE02F09D51D9269E51DA22DF5025
:10369C000101F36F0101F251D8A425D0010E0101F3
:1036AC00CB6FCBC14AF101014A470101C351010162
:1036BC004A19F90B4A190101C36FF3C14AF1070EFC
:1036CC0001014A17010E01014B6F01014A2B03D076
:1036DC000101D8904B3701014A2FFAD701014B2930
:1036EC000101C8130FD0000E0101CB6FCBC14AF101
:1036FC0001014A470101C35101014A19F90B4A1949
:10370C000101C36FF20E0101006F010E0101016F87
:10371C00F00E0101026F010E0101036FCBEC57F0AB
:10372C000101B683BF0E0001E16F000E01017C6F39
:10373C00030E01017C6501D019D001017C51010DF2
:10374C00F35001019B25D96EF45001019C21DA6ED6
:10375C0001017C51010DAA0EF324E16E010EF4203F
:10376C00E26EDFCFE7FF01017C2BE2D70101F251C2
:10377C00D8A405D0000E0101F56F000E04D0F3C1E2
:10378C00F5F1000E0101F46FF0C1BCF1F1C1BDF116
:10379C00C3EC42F00101CA6F0101CA51040D000EC5
:1037AC00F324D96E050EF420DA6EDE6ADE6ADE6A68
:1037BC00DD6AA5D10101CA690101F069F169010154
:1037CC00F469F569F40E0101006F010E0101016F3E
:1037DC00F00E0101026F010E0101036FCBEC57F0EB
:1037EC008ED1000E01017C6F030E01017C6501D0AE
:1037FC0019D001017C51010DF35001019B25D96EAB
:10380C00F45001019C21DA6E01017C51010DAA0ECC
:10381C00F324E16E010EF420E26EDFCFE7FF01012D
:10382C007C2BE2D7F7EC49F001016B6F01016B299E
:10383C00D8B465D101016B51090D080EF326000EA9
:10384C00F422000EF324D96E060EF420DA6EDFAAF1
:10385C0056D10101CA5101016B19D8B410D0010124
:10386C006B51090D080EF326000EF422000EF32402
:10387C00D96E060EF420DA6E000EDF6E40D1000E0B
:10388C0001017C6F3F0E01017C6501D081D00101EB
:10389C007C51090D080EF326000EF422000EF324C1
:1038AC00D96E060EF420DA6EDFAE60D001017C51C9
:1038BC00090D080EF326000EF422000EF324D96E27
:1038CC00060EF420DA6EDFAA51D00101CA510101B3
:1038DC007C19D8B44BD0000E0101C76F0101C75140
:1038EC00010DA60EF324D96E020EF420DA6E030E2F
:1038FC00DF6E0101C72B000E0101B16F0101B18B0D
:10390C000101B151FC0B0109B16F0101B18F010132
:10391C007C51090D040EF326000EF422000EF32444
:10392C000101B26F060EF4200101B36FB1C12FF18A
:10393C00B2C130F1B3C131F1A60E0101326F020EEA
:10394C000101336FC7C134F114EC36F0000E0101E4
:10395C006A6F000E696F010169290F0E01016A5926
:10396C00D8B004D00101694B6A2BF5D701017C5109
:10397C00090D080EF326000EF422000EF324D96E66
:10398C00060EF420DA6E000EDF6E01017C2B7AD766
:10399C000101CA690101F269F3690101F069F16978
:1039AC00F20E0101006F010E0101016FF00E010119
:1039BC00026F010E0101036FCBEC57F00101B693BE
:1039CC009ED0020E0101C06501D099D00101B6A3B1
:1039DC0096D0010120EE01F09D51D9269E51DA229C
:1039EC000101F651DE18D8A48AD00101CB51D8B40C
:1039FC0086D00101CB05D8A45FD0140E0101626FF3
:103A0C004DD00101620757EC52F000C156F101C1D3
:103A1C0057F102C158F103C159F157EC52F000C1F2
:103A2C005AF101C15BF102C15CF103C15DF156C1F8
:103A3C004AF157C14BF158C14CF159C14DF101013B
:103A4C004A1F4B1F4C1F4D1F4A2B000E4B234C2360
:103A5C004D2301015A5101014A2501014E6F01010B
:103A6C005B5101014B2101014F6F01015C510101BF
:103A7C004C210101506F01015D5101014D210101EA
:103A8C00516F010151510101501108E1F50E010175
:103A9C004E5D010E01014F59D8A0BFD701016251F3
:103AAC000101D8A4AED7140E9BEC4CF0140E9BEC79
:103ABC004CF0140E9BEC4CF0F3EC40F020D09DC17C
:103ACC00D9FF9EC1DAFFDF50010AD8B4ACD4030A87
:103ADC00D8B4C2D5010AD8B484D6040AD8B471D7E4
:103AEC000ED001019A51030B000AD8B439EF12F031
:103AFC00010AD8B4E4D7020AD8B464EF17F0010174
:103B0C00B6A54BEC57F057EC52F000C164F101C173
:103B1C0065F102C166F103C167F1000E01017C6F12
:103B2C00030E01017C6501D067D001017C51080DA9
:103B3C00030EF326000EF422280EF324D96E020E87
:103B4C00F420DA6EDF50D8B454D001017C51080D4A
:103B5C00040EF326000EF422280EF324D96E020E66
:103B6C00F420DA6EDECF4AF1DECF4BF1DECF4CF132
:103B7C00DECF4DF101014A1F4B1F4C1F4D1F4A2B2D
:103B8C00000E4B234C234D230101645101014A25A6
:103B9C0001014E6F0101655101014B2101014F6F74
:103BAC000101665101014C210101506F0101675166
:103BBC0001014D210101516F010151510BE1210E08
:103BCC0001014E5DA10E01014F59070E0101505923
:103BDC00D8A00FD001017C51080D030EF326000E66
:103BEC00F422280EF324D96E020EF420DA6E000EA5
:103BFC00DF6E01017C2B94D70101CDA312000101D2
:103C0C00CDA163D00B0E0101C76F0101C751010D8E
:103C1C00A60EF324D96E020EF420DA6E000EDF6EBF
:103C2C000101C72B0101C751010DA60EF324D96E5A
:103C3C00020EF420DA6E110EDF6E0101C72B000E9E
:103C4C0001016C6F030E01016C6501D019D00101EB
:103C5C006C51010DD10EF324D96E010EF420DA6EE5
:103C6C000101C751010DA60EF324E16E020EF420E2
:103C7C00E26EDFCFE7FF0101C72B01016C2BE2D70E
:103C8C000101C751010DA60EF324D96E020EF420CA
:103C9C00DA6ECFC1DFFF0101C72B0101C751010D46
:103CAC00A60EF324D96E020EF420DA6ED0C1DFFF1B
:103CBC000101C72BD50E0101486F010E0101496F9F
:103CCC003DEC50F00101CD931200DBC14AF1DCC197
:103CDC004BF1DDC14CF1DEC14DF101014A1F4B1F0F
:103CEC004C1F4D1F4A2B000E4B234C234D2301011F
:103CFC00645101014A250101526F01016551010115
:103D0C004B210101536F0101665101014C2101014D
:103D1C00546F0101675101014D210101556F0101E2
:103D2C0055510BE1610E0101525DE30E0101535936
:103D3C00160E01015459D8A012000101CD931200A6
:103D4C0054EC40F0000E506EF40EF66EFF0EF76E53
:103D5C00010EF86E0800F5CFE8F1F50EF66EFF0EC9
:103D6C00F76E010EF86E0800F5CFE9F1F60EF66E5F
:103D7C00FF0EF76E010EF86E0800F5CFEAF1F70EA4
:103D8C00F66EFF0EF76E010EF86E0800F5CFEBF134
:103D9C00000E0301DF6F000EDE6F0301DFBF08D0E2
:103DAC000301DF511EE1080E0301DE5DD8B019D00E
:103DBC00EC0E0301DE25F66E1F0EDF21F76EF86A9E
:103DCC00000EF822BC0E0301DE25D96E000E030195
:103DDC00DF21DA6E0800F5CFDFFF0301DE4BDF2BAE
:103DEC00DCD7010E536ECFEC53F06CEC3CF054EC82
:103DFC0056F0200E496001D0FCD765B2FAD7010EFF
:103E0C00506E840E0101006F030E0101016FB70E9D
:103E1C000101026F230E0101036F71EC56F0840E49
:103E2C000101076F030E0101086F5BEC4AF0680E8D
:103E3C000101896FE40EE82EFED7892FFCD700D044
:103E4C000FEC4EF00101B8510101B911D8B413D0E7
:103E5C00B8C1D9FFB9C1DAFF0101DFAE04D001014D
:103E6C00896B892B02D00101896B010189510301F6
:103E7C00D86FD96B05D0000E0301D96F000ED86F27
:103E8C000301D8510301D911D8B41ED0DBD70401DA
:103E9C000151D8A411D004010251D8A40DD0040EA4
:103EAC0004010319D8A408D0020E04010419D8A4E3
:103EBC0003D004010529D8A4FF0006C4BEF007C432
:103ECC00C2F00AD0FF0008D004010051530AD8B444
:103EDC00DED70B0AD8B4F6D7000E0101006F000E26
:103EEC000101016F040E0101026F400E0101036F0D
:103EFC00010EB8EC48F000C1B8F101C1B9F1000EE7
:103F0C00EFEC3AF0000E0101C96F0101C95137EC19
:103F1C0056F0840E0101006F030E0101016F060EB5
:103F2C000101026F230E0101036F71EC56F0840E38
:103F3C000101076F030E0101086F5BEC4AF0680E7C
:103F4C000101896FE40EE82EFED7892FFCD700D033
:103F5C00010E01011D6F000E1E6F000E1F6F000E73
:103F6C00206F080E0101216F000E0101226FF70E68
:103F7C000101236F010E0101246F4BEC38F001019C
:103F8C00BF6F840E01010C6F030E01010D6FE50E66
:103F9C0001010E6F220E01010F6FBFC110F1010163
:103FAC00116BF7C112F10101136BDDEC29F0840EDA
:103FBC000101076F030E0101086F5BEC4AF0680EFC
:103FCC000101896FE40EE82EFED7892FFCD700D0B3
:103FDC000101BF515DEC57F00009D8A425D0840E27
:103FEC0001010C6F030E01010D6F6E0E01010E6FBE
:103FFC00220E01010F6FBFC110F10101116BDDEC3D
:10400C0029F0840E0101076F030E0101086F5BECB0
:10401C004AF0680E0101896FE40EE82EFED7892F55
:10402C00FCD700D0F2EF00F0840E01010C6F030EF0
:10403C0001010D6F7F0E01010E6F230E01010F6F39
:10404C00DDEC29F0840E0101076F030E0101086FEE
:10405C005BEC4AF0680E0101896FE40EE82EFED786
:10406C00892FFCD700D0000E0101416F000E010119
:10407C00426F000E436F000E446F000E456F000E32
:10408C0071EC44F0030EF5EC56F0840E01010C6F4C
:10409C00030E01010D6F660E01010E6F230E01015F
:1040AC000F6FF1C110F10101116BF0C112F101019F
:1040BC00136BBFC114F10101156BDDEC29F0840EFB
:1040CC000101076F030E0101086F5BEC4AF0680EEB
:1040DC000101896FE40EE82EFED7892FFCD700D0A2
:1040EC00840E01010C6F030E01010D6F470E0101CF
:1040FC000E6F230E01010F6FF3C110F10101116B53
:10410C00F2C112F10101136BDDEC29F0840E0101F7
:10411C00076F030E0101086F5BEC4AF0680E01019A
:10412C00896FE40EE82EFED7892FFCD700D0840EC1
:10413C0001010C6F030E01010D6FA60E01010E6F34
:10414C00230E01010F6FDDEC29F0840E0101076FC6
:10415C00030E0101086F5BEC4AF0680E0101896FD8
:10416C00E40EE82EFED7892FFCD700D083EC2CF080
:10417C00000EF5EC56F0840E01010C6F030E0101DC
:10418C000D6F270E01010E6F230E01010F6FDDEC79
:10419C0029F0840E0101076F030E0101086F5BEC1F
:1041AC004AF0680E0101896FE40EE82EFED7892FC4
:1041BC00FCD700D0020E506E020E536ECFEC53F0B3
:1041CC00000E0001CA6F000ECB6F000ECC6F000EFC
:1041DC00CD6F8BEC57F0E4EC11F0ADEC57F000091F
:1041EC00D8B4FDD193C1D9FF94C1DAFFDF500301DC
:1041FC00E16F010120EE01F09351D9269451DA229E
:10420C00DF500301E26FD9D198C1DDF3010120EE3B
:10421C0001F09551D9269651DA22DF500301DC6F5B
:10422C00B6EC57F00B0E0101C76F0101C751010D20
:10423C00A60EF324D96E020EF420DA6E010EDF6E98
:10424C000101C72B0101C751010DA60EF324D96E34
:10425C00020EF420DA6EDCC3DFFF0101C72B010173
:10426C00C751010DA60EF324D96E020EF420DA6E9E
:10427C00DDC3DFFF0101C72BE10E01017D6F030ED2
:10428C0001017E6F000E01017F6F010E0101806F35
:10429C004DEC31F0E806D8A42BD0840E01010C6F44
:1042AC00030E01010D6FBE0E01010E6F220E0101F6
:1042BC000F6FE2C310F10101116BE1C312F10101A7
:1042CC00136B0301DC513EEC4CF000C114F101C145
:1042DC0015F1DDC316F10101176BDDEC29F0840E2D
:1042EC000101076F030E0101086F5BEC4AF073D7F5
:1042FC00840E01010C6F030E01010D6FD70E01012D
:10430C000E6F210E01010F6FE2C310F10101116B51
:10431C00E1C312F10101136B0301DC513EEC4CF0D3
:10432C0000C114F101C115F1DDC316F10101176BC8
:10433C00DDEC29F0840E0101076F030E0101086FFB
:10434C005BEC4AF048D7D10E0101BA6F020E0101A5
:10435C00BB6FBAC1D9FFBBC1DAFF4D0EDF6E0101D5
:10436C00BA4BBB2BBAC1D9FFBBC1DAFFE1C3DFFF2C
:10437C000101BA4BBB2BBAC1D9FFBBC1DAFFE2C3F7
:10438C00DFFF0101BA4BBB2B97C1E0F3BAC100F1BF
:10439C00BBC101F195C102F196C103F1E0C304F177
:1043AC000101056B9EEC53F00301E051010DF3503C
:1043BC000101BA27F4500101BB23D10E01010A6F90
:1043CC00020E01010B6FD10E00080101BA2501018B
:1043DC000C6F59EC4FF0B6EC57F0FDD60B0E0101FB
:1043EC00C76F97C1E0F30101C751010DA60EF3246D
:1043FC000101006F020EF4200101016F95C102F161
:10440C0096C103F1E0C304F10101056B9EEC53F07E
:10441C000101C7510301E0250101C76FB6EC57F04C
:10442C00E10E01017D6F030E01017E6F000E010193
:10443C007F6F010E0101806F4DEC31F0E806D8A4BE
:10444C0023D0840E01010C6F030E01010D6F420E7F
:10445C0001010E6F220E01010F6FE2C310F1010179
:10446C00116BE1C312F10101136BE0C314F10101F3
:10447C00156BDDEC29F0840E0101076F030E0101B1
:10448C00086F5BEC4AF0A7D6840E01010C6F030E8B
:10449C0001010D6F0E0E01010E6F220E01010F6F47
:1044AC00E2C310F10101116BE1C312F10101136BB5
:1044BC00E0C314F10101156BDDEC29F0840E010150
:1044CC00076F030E0101086F5BEC4AF084D6D10E26
:1044DC000101BA6F020E0101BB6FBAC1D9FFBBC19A
:1044EC00DAFF4D0EDF6E0101BA4BBB2BBAC1D9FFFF
:1044FC00BBC1DAFFE1C3DFFF0101BA4BBB2BBAC171
:10450C00D9FFBBC1DAFFE2C3DFFF0101BA4BBB2B02
:10451C0097C1E0F3BAC100F1BBC101F195C102F141
:10452C0096C103F1E0C304F10101056B9EEC53F05D
:10453C000301E051010DF3500101BA27F4500101C0
:10454C00BB23D10E01010A6F020E01010B6FD10EBC
:10455C0000080101BA2501010C6F59EC4FF0B6ECC3
:10456C0057F039D6840E01010C6F030E01010D6F4B
:10457C00970E01010E6F220E01010F6FE2C310F1B5
:10458C000101116BE1C312F10101136B95C1D9FF4C
:10459C0096C1DAFFDF500101896F010189510101D8
:1045AC00146F156BDDEC29F0840E0101076F030EFF
:1045BC000101086F5BEC4AF00ED695C1D9FF96C18C
:1045CC00DAFFDF50010AD8B41FD6030AD8B4BBD621
:1045DC00010AD8B403D7070AD8B479D7C3D70101D5
:1045EC00B8510101B911D8B413D0B8C1D9FFB9C1B0
:1045FC00DAFF0101DFAE04D00101896B892B02D0F7
:10460C000101896B010189510301DA6FDB6B05D064
:10461C00000E0301DB6F000EDA6F0301DA510301A8
:10462C00DB11D8B4C9D0E4D0FF00CED001C4E1F383
:10463C0002C4E2F303C4E0F30301E1510301D8A483
:10464C0078D00301E251D8A474D0040E04010419EB
:10465C00D8A4BAD0020E0301E065B6D00401052936
:10466C00D8A402D0010E01D0000E0301D76F060EA4
:10467C000101BA6F040E0101BB6F18D0BAC10AF167
:10468C00BBC10BF14AEC48F021EEDFF0080EEBCF8A
:10469C00DBFFE806FCE20101E751010DF3500101DB
:1046AC00BA27F4500101BB23FAEC45F0FE0E0101D0
:1046BC00896FFF0E01018A6F0301E05101018B6FBD
:1046CC008C6B0101895101018B2701018A51010178
:1046DC008C23000E01018D6F040E01018E6F060EEE
:1046EC0001018D27000E8E2301018D1F8E1F8D4B16
:1046FC008E2B0101BA5101018D270101BB51010122
:10470C008E2301018B5101018D5D01018E51800AB7
:10471C0001018F6F01018C51800A01018F59D8A0C2
:10472C00ADD70301D7510301D8B44ED0B7EC3BF051
:10473C004BD00B0E0101C76F0101C751010DA60E25
:10474C00F3240101006F020EF4200101016F040E2D
:10475C000101026F040E0101036FE0C304F10101BA
:10476C00056B9EEC53F00101C7510301E0250101DB
:10477C00C76F020E04010419D8A40FD0E10E010179
:10478C007D6F030E01017E6F000E01017F6F000E25
:10479C000101806F4DEC31F017D0E10E01017D6FFE
:1047AC00030E01017E6F000E01017F6F010E0101EE
:1047BC00806F4DEC31F008D004010051530AD8B48D
:1047CC0035D70B0AD8B430D7000E0101006F000E9C
:1047DC000101016F040E0101026F400E0101036F14
:1047EC00010EB8EC48F000C1B8F101C1B9F1F3D435
:1047FC000101CC05D8A4EFD482EC33F0000E0101FA
:10480C00CC6FE9D401014051070B0101466F010146
:10481C0046510101F319D8A442D0800E01013F6525
:10482C0002D0000E1200000E0101B16F0101B18B1C
:10483C00010141B103D00101B19702D00101B1874F
:10484C003FC1F4F140C1F5F15EEC51F00101476F4D
:10485C0001014729D8B410D001014751090D040EAC
:10486C00F326000EF422000EF3240101B26F060EA3
:10487C00F4200101B36F02D0000E1200B1C12FF170
:10488C00B2C130F1B3C131F1A60E0101326F020E8B
:10489C000101336FC7C134F114EC36F0120046C17C
:1048AC0042F1010E0101436F0101422B03D00101C2
:1048BC00D89043370101422FFAD70101435101012E
:1048CC00C8150009D8B48DD001014651010DAC0EAC
:1048DC00F324D96E000EF420DA6E020EDF642DD0B4
:1048EC0001014651010DAC0EF324D96E000EF420DB
:1048FC00DA6E000EDF6E46C142F1010E0101436F0C
:10490C000101422B03D00101D89043370101422F02
:10491C00FAD701014351FF0A0101C81701014651A1
:10492C00010DB40EF324D96E000EF420DA6E000ED5
:10493C00DF6EF3EC40F0000E1200000E0101B16FBF
:10494C000101B18B010141B103D00101B19702D03A
:10495C000101B187000E0101F46F46C1F5F15EEC67
:10496C0051F00101476F01014729D8B43AD0010138
:10497C004751090D040EF326000EF422000EF32409
:10498C000101B26F060EF4200101B36FB1C12FF11A
:10499C00B2C130F1B3C131F1A60E0101326F020E7A
:1049AC000101336FC7C134F114EC36F00009D8A4FF
:1049BC000BD001014651010DAC0EF324D96E000E43
:1049CC00F420DA6EDF2AB7D701014651010DAC0E87
:1049DC00F324D96E000EF420DA6E000EDF6E010E99
:1049EC001200000E0101476F070E0101476501D04F
:1049FC00DFD001014751010DB40EF324D96E000E26
:104A0C00F420DA6EDF500101426F46C143F1010E12
:104A1C000101446F0101432B03D00101D8904437AD
:104A2C000101432FFAD7010144510101421500093C
:104A3C00D8B4BBD001014751010DAC0EF324D96E93
:104A4C00000EF420DA6E020EDF645AD001014751D9
:104A5C00010DAC0EF324D96E000EF420DA6E000EAC
:104A6C00DF6E47C142F1010E0101436F0101422B80
:104A7C0003D00101D89043370101422FFAD701012D
:104A8C004351FF0A0101C81701014751010DB40E32
:104A9C00F324D96E000EF420DA6E000EDF6E0101E5
:104AAC00CB51D8B403D0F3EC40F028D0000E010168
:104ABC00C76F0101C751010DA60EF324D96E020E6A
:104ACC00F420DA6E070EDF6E0101C72B0101C7510E
:104ADC00010DA60EF324D96E020EF420DA6EF6C187
:104AEC00DFFF0101C72B000E0101396F000E010120
:104AFC003A6F010E01013B6FA2EC51F0000E120057
:104B0C00000E0101B16F0101B18B010141B103D064
:104B1C000101B19702D00101B187000E0101F46FC0
:104B2C0047C1F5F15EEC51F00101476F01014729D6
:104B3C00D8B43ED001014751090D040EF326000EE6
:104B4C00F422000EF3240101B26F060EF4200101D1
:104B5C00B36FB1C12FF1B2C130F1B3C131F1A60EB7
:104B6C000101326F020E0101336FC7C134F114EC35
:104B7C0036F00009D8A40CD001014751010DAC0E40
:104B8C00F324D96E000EF420DA6EDF2A000E120028
:104B9C0001014751010DAC0EF324D96E000EF42027
:104BAC00DA6E000EDF6E010E12000101472B1CD7CE
:104BBC00020E0101CB19D8B415D1000E0101B16F51
:104BCC000101B18B010141B103D00101B19702D0B8
:104BDC000101B1870101CB05D8A434D0000E01012D
:104BEC00476F030E0101476501D0D1D00101475138
:104BFC00010D040EF326000EF422000E0101426F8B
:104C0C00060E0101436FF35001014227F4500101DC
:104C1C0043230101CA51090DF35001014225D96EFC
:104C2C00F45001014321DA6E01014751010DAA0E26
:104C3C00F324E16E010EF420E26EDFCFE7FF0101F9
:104C4C00472BCFD7000E0101476F070E01014765B7
:104C5C0001D01FD00101C851D8B418D047C142F1BE
:104C6C00010E0101436F000E0101446F0101422B43
:104C7C0004D0D8900101433744370101422FF9D7B2
:104C8C000101435101014411D8A403D00101472B68
:104C9C00DCD7080E0101476105D047C1F5F1000EC4
:104CAC00010104D0000E0101F56F000EF46F5EECF3
:104CBC0051F00101456F400E0101456134D0000EE9
:104CCC000101476F030E0101476501D060D001015E
:104CDC004751010D040EF326000EF422000E0101C3
:104CEC00426F060E0101436FF35001014227F4504D
:104CFC000101432301014551090DF35001014225E6
:104D0C00D96EF45001014321DA6E01014751010DB6
:104D1C00AA0EF324E16E010EF420E26EDFCFE7FF62
:104D2C000101472BCFD7000E0101476F030E010184
:104D3C00476501D02CD001014751010D040EF3261B
:104D4C00000EF422000E0101426F060E0101436FAA
:104D5C00F35001014227F450010143230101CA51D0
:104D6C00090DF35001014225D96EF4500101432184
:104D7C00DA6E01014751010DAA0EF324E16E010E0A
:104D8C00F420E26EDFCFE7FF0101472BCFD7010103
:104D9C00CA51090D040EF326000EF422000EF32462
:104DAC000101B26F060EF4200101B36FB1C12FF1F6
:104DBC00B2C130F1B3C131F1A60E0101326F020E56
:104DCC000101336FC7C134F114EC36F00009D8A4DB
:104DDC0004D00001AC2B000E1200000E0001AC6FD1
:104DEC00010E1200000E0101B16F0101B18B010126
:104DFC0041B103D00101B19702D00101B18746C185
:104E0C00F5F1000E0101F46F0101CA51090D040EF8
:104E1C00F326000EF422000EF3240101B26F060EED
:104E2C00F4200101B36FB1C12FF1B2C130F1B3C1A4
:104E3C0031F1A60E0101326F020E0101336FC7C1B1
:104E4C0034F114EC36F00009D8A404D00001AC2BDA
:104E5C00000E1200000E0001AC6F010E1200F0B03B
:104E6C00F0A680D2F090600E0001DD19D8A475D2A6
:104E7C00DEC0C5F18B9CC0EC57F00001926F8B8C9F
:104E8C00000E0001936F010E0001936501D00FD04D
:104E9C0000019351420D000EF324D96E030EF42041
:104EAC00DA6E0301DFA003D00001932BECD7020EC6
:104EBC0000019219D8A402D0010E01D0000E0001FD
:104ECC008F6F400E000192610ED0000192510001D3
:104EDC00D8B409D0010E0001936516D000018F5192
:104EEC000001D8A411D01A0EB9EC54F007D08B9C49
:104EFC00C0EC57F08B8C1A0EB9EC54F000018A6F91
:104F0C0000018AA32DD2F3D7000E0001906F92C03E
:104F1C0088F00001896B1AD200018807D8A0890794
:104F2C0000018F510001D8B410D08B9C000190511E
:104F3C00010D8B0EF324D96E000EF420DA6EC0EC4A
:104F4C0057F024D00001902B23D08B9C0001905162
:104F5C00010D010EF326000EF422000E0001826FEB
:104F6C00030E0001836FF35000018227F4500001FF
:104F7C00832300019351420DF35000018225D96E19
:104F8C00F45000018321DA6EC0EC57F0DF6EDAD7F3
:104F9C008B8C000192510001905DD8A0D7D10001FB
:104FAC008F510001D8B439D000018B51030B020A88
:104FBC00D8A40DD00001DF5100018C19D8A403D066
:104FCC00010E0001E06F000E0001906FC9D1010EBF
:104FDC000001936504D0000E0001906F84D700018E
:104FEC009351420D010EF326000EF422000EF32411
:104FFC00D96E030EF420DA6E8BC0DFFF00019351E3
:10500C00420D020EF326000EF422000EF324D96E8C
:10501C00030EF420DA6E8CC0DFFF00019351420DB9
:10502C00410EF326000EF422000EF324D96E030E6B
:10503C00F420DA6E92C0DFFF0001916900019351F8
:10504C00420D010EF326000EF422000EF324D96E4D
:10505C00030EF420DA6E0301DFAC58D0000E000111
:10506C00946F47D000019451010DF3500101AF250D
:10507C00D96EF4500101B021DA6E00019351420D4A
:10508C00000194510001836F846B030E0001832790
:10509C00000E8423000E0001856F030E0001866F45
:1050AC0000018351000185270001845100018623F2
:1050BC00F35000018525E16EF45000018621E26E6B
:1050CC00DE50E618D8B413D0000E0001906F00012A
:1050DC009351420D410EF326000EF422000EF324E0
:1050EC00D96E030EF420DA6E000EDF6EFCD60001D2
:1050FC00942B0101AE31E832E8320F0B0001826FC4
:10510C00000182510001945DD8A0ACD700019351ED
:10511C00420D010EF326000EF422000EF324D96E7C
:10512C00030EF420DA6E0301DFAA58D0000E000142
:10513C00946F010E0001946501D017D000019451B9
:10514C00010D660EF324D96E020EF420DA6E000106
:10515C009451010D8B0EF324E16E000EF420E26EDF
:10516C00DFCFE7FF0001942BE4D7060E0201666F38
:10517C0000019351420D020EF326000EF422000E94
:10518C00F324D96E030EF420DA6EDF500201676F40
:10519C00F090000E00016A6F020E42EC39F0000E26
:1051AC000001946F010E0001946501D017D000012D
:1051BC009451010D8B0EF324D96E000EF420DA6E8F
:1051CC0000019451010D660EF324E16E020EF420E1
:1051DC00E26EDFCFE7FF0001942BE4D7000E000155
:1051EC00946F040E0001946501D05AD000019451C3
:1051FC00060D480EF324D96E020EF420DA6EDF5041
:10520C00D8B43AD000019351420D020EF326000E91
:10521C00F422000EF324D96E030EF420DA6E000192
:10522C009451060D010EF326000EF422480EF324C1
:10523C00E16E020EF420E26EDE50E618D8A41CD00B
:10524C0091EC52F000019451060D020EF326000E63
:10525C00F422480EF324D96E020EF420DA6E00010B
:10526C0060C0DEFF000161C0DEFF000162C0DEFF36
:10527C00000163C0DEFF14D000019129D8A40DD029
:10528C0000019451060D480EF324D96E020EF42041
:10529C00DA6EDF50D8B494C091F00001942BA1D7F2
:1052AC00040E000194655CD0050E0001916142D0A2
:1052BC0000019151060D480EF324D96E020EF42014
:1052CC00DA6E010EDF6E00019351420D020EF326D1
:1052DC00000EF422000EF324D96E030EF420DA6EC5
:1052EC0000019151060D010EF326000EF422480E1A
:1052FC00F324E16E020EF420E26EDFCFE7FF91ECB7
:10530C0052F000019151060D020EF326000EF4220C
:10531C00480EF324D96E020EF420DA6E000160C040
:10532C00DEFF000161C0DEFF000162C0DEFF000194
:10533C0063C0DEFF00019351420D000EF324D96EC1
:10534C00030EF420DA6E0301DF800AD000018851CD
:10535C0000018911D8B404D0DFD5010E0001DC6F37
:10536C00F09000F0F2B2F2A814D0030E536E2FECB2
:10537C0054F0F292600E0001DD19D8A40AD0280E68
:10538C00B9EC54F00001826F0001D8908231000119
:10539C00DE6F9EA012009DA012009E900001E22BD9
:1053AC000001E251D8A412000001E32B1200100EF0
:1053BC000101206F010E0101216F88D2250E010120
:1053CC002919D8B40AD00CC1D9FF0DC1DAFF29C1F3
:1053DC00DFFF01010C4B0D2B79D2000E0101286F60
:1053EC00000E276F000E0101266F05D001012685E6
:1053FC0001010E4B0F2B0EC1F6FF0FC1F7FF000E74
:10540C00F86E0800F550300AD8B4F0D70EC1F6FF8C
:10541C000FC1F7FF000EF86E0800F55021EC57F0A5
:10542C00D8A0CED0000E0101286F000E276F27C127
:10543C0000F128C101F1000E0101036F0A0E026F89
:10544C008DEC56F000C127F101C128F1D00E0101FD
:10545C00186FFF0E0101196F0EC1F6FF0FC1F7FF98
:10546C00000EF86E0800F55001011A6F1B6B01015C
:10547C00185101011A270101195101011B230101C6
:10548C001A510101272701011B5101012823010198
:10549C000E4B0F2B0EC1F6FF0FC1F7FF000EF86E6F
:1054AC000800F55021EC57F0D8A08AD0C0D70101E4
:1054BC00268FA4D020C1D9FF21C1DAFFDECF1EF187
:1054CC00DDCF1FF1020E01012027000E2123010167
:1054DC001E5101011F11D8A406D0BF0E01011E6F71
:1054EC00230E01011F6F000E0101236F000E226FAE
:1054FC0003D00101224B232B0101225101011E2556
:10550C000101186F0101235101011F210101196FC4
:10551C0018C1F6FF19C1F7FF000EF86E0800F55020
:10552C000009D8A4E6D7010127510101225D010130
:10553C00285101012359D8B009D001012251010190
:10554C00275F010123510101285B0FD0000E0101DF
:10555C00286F000E276F09D00CC1D9FF0DC1DAFFDF
:10556C00200EDF6E01010C4B0D2B01012707D8A07B
:10557C00280701012729F0E101012829D8B414D00A
:10558C00EBD71EC1F6FF1FC1F7FF000EF86E0CC162
:10559C00D9FF0DC1DAFF0800F5CFDFFF01011E4B6B
:1055AC001F2B01010C4B0D2B01012207D8A0230747
:1055BC0001012229E6E101012329D8B487D1E1D7E1
:1055CC000EC1F6FF0FC1F7FF01010E4B0F2B000EA2
:1055DC00F86E0800F5CF29F101012951000AD8B461
:1055EC0085D1640AD8B40AD00D0AD8B407D01A0AE7
:1055FC00D8B460D70B0AD8B45AD768D1010126BFEA
:10560C0019D020C1D9FF21C1DAFFDECF24F1DDCFC3
:10561C0025F1020E01012027000E2123010125AFE7
:10562C0059D0030E010126130101246D251FD8B09A
:10563C00252B50D020C1D9FF21C1DAFFDECF24F1B8
:10564C00DDCF25F1020E01012027000E212342D0CF
:10565C00010E0101296F050E01012919D8B443D09F
:10566C0001012951020DB10EF324F66E200EF42027
:10567C00F76EF86A000EF8220900F5500101245D5E
:10568C000900F55001012559D8A02DD00101292B75
:10569C00E2D7010E0101296F040E01012919D8B4BA
:1056AC0022D001012951020DBB0EF324F66E200EFF
:1056BC00F420F76EF86A000EF8220900F55001018B
:1056CC00245D0900F55001012559D8A00CD0010129
:1056DC00292BE2D701012651800B000AD8B4B8D788
:1056EC00800AD8B4D6D70101275101012811D8B4AA
:1056FC000BD026C118F1030E01011817D8B404D031
:10570C0001012707D8A02807800E010129BF7F0EB1
:10571C000101186F010127510101295D0101285177
:10572C00800A01011859D8B00BD00101295101018F
:10573C00275F000E010129BFFF0E0101285B05D078
:10574C00000E0101286F000E276F010126A524D041
:10575C0026C118F1030E01011817D8B409D00CC1D9
:10576C00D9FF0DC1DAFF2D0EDF6E01010C4B0D2B95
:10577C000101275101012811D8B437D00CC1D9FF30
:10578C000DC1DAFF300EDF6E01010C4B0D2B010148
:10579C002707D8A02807ECD70101275101012811B0
:1057AC00D8B413D00CC1D9FF0DC1DAFF200EDF6EB7
:1057BC0001010C4B0D2B01012707D8A02807010173
:1057CC00275101012811D8A4EDD726C118F1030ED9
:1057DC0001011817D8B409D00CC1D9FF0DC1DAFFDB
:1057EC002D0EDF6E01010C4B0D2B29C11DF168D064
:1057FC0001011D51020DB10EF324F66E200EF420A2
:10580C00F76EF86A000EF8220900F5CF02F10A00D3
:10581C00F5CF03F124C100F125C101F1E0EC51F009
:10582C0000C107F101C108F1000E01010A6F0A0E57
:10583C00096F6DEC53F001010751300F0101296F15
:10584C0036D024C100F125C101F101011D51020D19
:10585C00BB0EF324F66E200EF420F76EF86A000EE1
:10586C00F8220900F5CF02F10A00F5CF03F1E0ECC4
:10587C0051F0010100510F0B01011C6F01011C5172
:10588C00010D950EF324F66E230EF420F76EF86AD4
:10589C00000EF8220800F5CF29F109D0010126519C
:1058AC00800B000AD8B4A4D7800AD8B4CAD70CC1CC
:1058BC00D9FF0DC1DAFF29C1DFFF01010C4B0D2B04
:1058CC0001011D0701011D29D8A4E8D70EC1F6FF5F
:1058DC000FC1F7FF01010E4B0F2B000EF86E0800E5
:1058EC00F5CF29F101012951D8A468D50CC1D9FFF4
:1058FC000DC1DAFF000EDF6E1200D10E0101BA6F7E
:10590C00020E0101BB6FBAC1D9FFBBC1DAFF4D0E4C
:10591C00DF6E0101BA4BBB2BBAC1D9FFBBC1DAFF99
:10592C00000EDF6E0101BA4BBB2BBAC1D9FFBBC154
:10593C00DAFF000EDF6E0101BA4BBB2BBAC1D9FFE7
:10594C00BBC1DAFF040EDF6E0101BA4BBB2BBAC12F
:10595C00D9FFBBC1DAFFF00EDF6E0101BA4BBB2BD6
:10596C00DF0E0101006F010E0101016FC30E010179
:10597C00026F210E0101036F000E0101056F030E72
:10598C00046F9EEC53F0000E0101E56FC9C1E3F109
:10599C00010E0101E66FBAC100F1BBC101F121EEAC
:1059AC00DFF001EE02F0080EDBCFEBFFE806FCE2C5
:1059BC0019EC51F00101106F01011051010DF35060
:1059CC000101BA27F4500101BB23DF0E0101006F66
:1059DC00010E0101016FBB0E0101026F210E0101CD
:1059EC00036F000E0101056F030E046F9EEC53F064
:1059FC00000E0101E56FBFC1E3F1000E0101E66F7E
:105A0C00BAC100F1BBC101F121EEDFF001EE02F0F1
:105A1C00080EDBCFEBFFE806FCE219EC51F00101BC
:105A2C00106F01011051010DF3500101BA27F45010
:105A3C000101BB23DF0E0101006F010E0101016F9B
:105A4C00BF0E0101026F210E0101036F000E010157
:105A5C00056F030E046F9EEC53F0000E0101E56F11
:105A6C00F7C1E3F1000E0101E66FBAC100F1BBC151
:105A7C0001F121EEDFF001EE02F0080EDBCFEBFFBF
:105A8C00E806FCE219EC51F00101106F0101105114
:105A9C00010DF3500101BA27F4500101BB23D10EC3
:105AAC0001010A6F020E01010B6FD10E00080101FA
:105ABC00BA2501010C6F59EC4FF0680E0101106F03
:105ACC00E40EE82EFED7102FFCD700D0D10E01012A
:105ADC00BA6F020E0101BB6FBAC1D9FFBBC1DAFFAD
:105AEC004D0EDF6E0101BA4BBB2BBAC1D9FFBBC146
:105AFC00DAFF000EDF6E0101BA4BBB2BBAC1D9FF26
:105B0C00BBC1DAFF000EDF6E0101BA4BBB2BBAC171
:105B1C00D9FFBBC1DAFF040EDF6E0101BA4BBB2B00
:105B2C00BAC1D9FFBBC1DAFFFF0EDF6E0101BA4B60
:105B3C00BB2BDF0E0101006F010E0101016FCF0EB7
:105B4C000101026F210E0101036F000E0101056FAF
:105B5C00030E046F9EEC53F00001CD510001CC11EB
:105B6C000001CB111DE13C0E0001CA5DD8B018D06C
:105B7C00050E0101E56FCAC0E3F1000E0101E66FED
:105B8C00BAC100F1BBC101F121EEDFF001EE02F070
:105B9C00080EDBCFEBFFE806FCE219EC51F0C3D0AA
:105BAC000001CD510001CC1135E1100E0001CA5D90
:105BBC000E0E0001CB59D8B02DD0040E0101E56FAB
:105BCC00CAC000F1CBC001F1CCC002F1CDC003F1D1
:105BDC003C0E0101046F000E056F000E066F000EE7
:105BEC00076FE0EC4BF0010100510101E36F000E77
:105BFC000101E66FBAC100F1BBC101F121EEDFF08A
:105C0C0001EE02F0080EDBCFEBFFE806FCE219EC2C
:105C1C0051F089D00001CD5149E1800E0001CA5DDF
:105C2C00510E0001CB59010E0001CC59D8B03ED019
:105C3C00060E0101E56FCAC000F1CBC001F1CCC06A
:105C4C0002F1CDC003F1100E0101046F0E0E056FB1
:105C5C00000E066F000E076FE0EC4BF001010051D7
:105C6C000101116F11C106F10101076B010E010158
:105C7C00096F000E086F81EC4BF001010651010118
:105C8C00E36F11C1E4F1000E0101E66FBAC100F13E
:105C9C00BBC101F121EEDFF001EE02F0080EDBCF0B
:105CAC00EBFFE806FCE20BEC4FF03DD0000E0101DF
:105CBC00E56FCAC000F1CBC001F1CCC002F1CDC080
:105CCC0003F1800E0101046F510E056F010E066F7A
:105CDC00000E076FE0EC4BF0010100510101116F58
:105CEC0011C106F10101076B010E0101096F000ED4
:105CFC00086F81EC4BF0010106510101E36F11C1FA
:105D0C00E4F1000E0101E66FBAC100F1BBC101F173
:105D1C0021EEDFF001EE02F0080EDBCFEBFFE80620
:105D2C00FCE20BEC4FF00101106F01011051010D61
:105D3C00F3500101BA27F4500101BB23DF0E01011E
:105D4C00006F010E0101016FCB0E0101026F210EDC
:105D5C000101036F000E0101056F030E046F9EEC31
:105D6C0053F0040E0101E56FE4C0E3F1010E0101F3
:105D7C00E66FBAC100F1BBC101F121EEDFF001EE1B
:105D8C0002F0080EDBCFEBFFE806FCE219EC51F059
:105D9C000101106F01011051010DF3500101BA27DF
:105DAC00F4500101BB23D10E01010A6F020E010157
:105DBC000B6FD10E00080101BA2501010C6F59ECD3
:105DCC004FF0680E0101106FE40EE82EFED7102F75
:105DDC00FCD700D01200000E0101466F040E010129
:105DEC00466501D084D057EC52F000C13BF101C1A3
:105DFC003CF102C13DF103C13EF101014651060DDA
:105E0C00480EF324D96E020EF420DA6EDF50D8B4AB
:105E1C006BD001014651060D020EF326000EF42242
:105E2C00480EF324D96E020EF420DA6E01013B51B8
:105E3C00DE5C01013C51DE5801013D51DE5801018F
:105E4C003E51DE58D8B050D001014651060D020E1D
:105E5C00F326000EF422480EF324D96E020EF42021
:105E6C00DA6EDECF33F1DECF34F1DECF35F1DECFBB
:105E7C0036F10101331F341F351F361F332B000E33
:105E8C0034233523362301013B5101013325010114
:105E9C00376F01013C51010134210101386F0101BF
:105EAC003D51010135210101396F01013E510101C3
:105EBC00362101013A6F01013A510BE1210E01012A
:105ECC00375DA10E01013859070E01013959D8A0CF
:105EDC000BD001014651060D480EF324D96E020E6B
:105EEC00F420DA6E000EDF6E0101462B77D701012C
:105EFC00C629D8B402D0000E1200000E0101466F64
:105F0C00010E0101466501D0C0D101014651420D7F
:105F1C00000EF324D96E030EF420DA6E0301DFA019
:105F2C00B1D101014651420D010EF326000EF422AF
:105F3C00000EF324D96E030EF420DA6EDF5001014B
:105F4C009A6F01014651420D410EF326000EF422C8
:105F5C00000EF324D96E030EF420DA6EDF5001012B
:105F6C009F6F020E0101456F01019AAD07D001012F
:105F7C00AE31E832E8320F0B0101452701019AAF2F
:105F8C0028D001014551010D010EF326000EF4221B
:105F9C00000E0101336F030E0101346FF350010148
:105FAC003327F4500101342301014651420DF350C3
:105FBC000101332501019B6FF450010134210101D2
:105FCC009C6F0101AE31E832E8320F0B010145271D
:105FDC0006D0000E01019B6F000E01019C6F0101A8
:105FEC009AA726D101014651420D010145510101EB
:105FFC00336F346B050E01013327000E3423000E72
:10600C000101356F030E0101366F0101335101019E
:10601C0035270101345101013623F3500101352597
:10602C00D96EF45001013621DA6EDF50D8B40DD0A0
:10603C0001014651420D000EF324D96E030EF420DB
:10604C00DA6E000EDF6E000E120001019AAFA9D0BD
:10605C00000E0101446F3F0E0101446501D02AD0AE
:10606C0001014451090D080EF326000EF422000E16
:10607C00F324D96E060EF420DA6EDFAE18D00101CF
:10608C004451090D040EF326000EF422000EF324E5
:10609C000101006F060EF4200101016F9BC102F19A
:1060AC009CC103F1E5EC54F00009D8A403D0010124
:1060BC00442BD1D7400E0101446173D0000E010175
:1060CC00436F030E0101436501D036D001014651E7
:1060DC00420D0101435145C133F10101346B010102
:1060EC003327000E3423010E01013327000E342315
:1060FC00000E0101356F030E0101366F01013351A2
:10610C00010135270101345101013623F3500101FE
:10611C003525D96EF45001013621DA6E0101435157
:10612C00010D3F0EF324E16E010EF420E26EDFCF81
:10613C00E7FF0101432BC5D701014451040D000EAB
:10614C00F324D96E050EF420DA6EDE5001013F5DAA
:10615C00DE5001014059DE5001014159DE50010170
:10616C004259D8B00DD001014651420D000EF32416
:10617C00D96E030EF420DA6E000EDF6E000E1200E4
:10618C0001014451040D000EF324D96E050EF420C8
:10619C00DA6E3FC1DEFF40C1DEFF41C1DEFF42C10E
:1061AC00DEFF050E0101452701014651420D010E8E
:1061BC00F326000EF422000EF3240101246F030ECB
:1061CC00F4200101256F45C126F101014651420D14
:1061DC00410EF326000EF422000EF324D96E030EAA
:1061EC00F420DA6EDF500101336F010145510008D4
:1061FC00010133250101276FF10E0101286F020EF9
:10620C000101296F1CEC3DF00009D8A40DD001014F
:10621C004651420D000EF324D96E030EF420DA6EB3
:10622C00000EDF6E000E120001014551020F02D06C
:10623C000101455101019F5F01014551010D010E05
:10624C00F326000EF422000E0101336F030E010140
:10625C00346FF35001013327F45001013423010151
:10626C004651420DF3500101332501019D6FF4504D
:10627C000101342101019E6FC5C1A0F146C1C6F1D7
:10628C00010E12000101462B3BD6000E120001013B
:10629C00C251D8B40CD00201B151D8B408D001010C
:1062AC00B687C4C1F8F1060E0301D46F05D0020EF7
:1062BC000301D46F0101B69701017F510101D8B4DC
:1062CC0060D1000E0301D56F030E0301D56501D01B
:1062DC0019D00301D551010DF35001017D25D96E63
:1062EC00F45001017E21DA6E0301D551010DAA0E85
:1062FC00F324E16E010EF420E26EDFCFE7FF030121
:10630C00D52BE2D7F7EC49F00301D66F0301D62960
:10631C00D8A43DD0F9C1A6F2020E0201A76F02016A
:10632C00A8690201A9690201AA690201AB69F0C15D
:10633C00ACF2F1C1ADF2F2C1AEF2F3C1AFF2C4C135
:10634C00B0F20101C42B000E0101B16F0101B18B40
:10635C00010180B103D00101B19702D00101B187D5
:10636C007DC1B2F17EC1B3F10101B697B1C12FF17C
:10637C00B2C130F1B3C131F1A60E0101326F020E80
:10638C000101336FC7C134F114EC36F01200030174
:10639C00D651090D080EF326000EF422000EF3243C
:1063AC00D96E060EF420DA6EDFA6B4D70101C25105
:1063BC00D8B411D00301D651090D020EF326000EEC
:1063CC00F422000EF324D96E060EF420DA6EDECF22
:1063DC00B4F1DDCFB5F1040E0201A66FD4C3A7F260
:1063EC000301D651090D000EF324D96E060EF420CC
:1063FC00DA6EDF500201A86F0301D651090D010EB0
:10640C00F326000EF422000EF324D96E060EF420AF
:10641C00DA6EDF500201A96F0301D651090D020E8D
:10642C00F326000EF422000EF324D96E060EF4208F
:10643C00DA6EDF500201AA6F0301D651090D030E6B
:10644C00F326000EF422000EF324D96E060EF4206F
:10645C00DA6EDF500201AB6FF0C1ACF2F1C1ADF2FC
:10646C00F2C1AEF2F3C1AFF2C4C1B0F20101C42B60
:10647C000301D651090D000EF324D96E060EF4203B
:10648C00DA6EDECF3DF1DDCF3EF10301D651090DC1
:10649C00020EF326000EF422000EF324D96E060E23
:1064AC00F420DA6EDECF3FF1DDCF40F180C141F157
:1064BC0008EC24F00009D8A404D00101B697000E12
:1064CC0012000101B6A75BD057EC52F000C1C4F327
:1064DC0001C1C5F302C1C6F303C1C7F3ADEC57F05C
:1064EC000009D8A4B6EC57F00101B6B702D0010EE2
:1064FC00120057EC52F000C1C8F301C1C9F302C13C
:10650C00CAF303C1CBF3C4C381F1C5C382F1C6C3C3
:10651C0083F1C7C384F10101811F821F831F841F74
:10652C00812B000E8223832384230301C851010194
:10653C0081250101856F0301C951010182210101EE
:10654C00866F0301CA51010183210101876F030189
:10655C00CB51010184210101886F010188510BE1AC
:10656C00210E0101855DA10E01018659070E010165
:10657C008759D8A0B3D70101B697000E1200010EAF
:10658C001200040E0201A66FD4C3A7F2F0C1A8F248
:10659C00F1C1A9F27DC1D9FF7EC1DAFFDF50020142
:1065AC00AA6F010120EE01F07D51D9267E51DA222D
:1065BC00DF500201AB6FF0C1ACF2F1C1ADF2F2C130
:1065CC00AEF2F3C1AFF2C4C1B0F20101C42B7DC174
:1065DC00D9FF7EC1DAFFDF500101B46F010120EE5B
:1065EC0001F07D51D9267E51DA22DF500101B56FC1
:1065FC007DC1D9FF7EC1DAFFDF500101F46F0101CB
:10660C0020EE01F07D51D9267E51DA22DF500101B6
:10661C00F56FF0C13DF1F1C13EF1F4C13FF1F5C1AF
:10662C0040F180C141F108EC24F00009D8A404D059
:10663C000101B697000E12000101B6A75BD057EC12
:10664C0052F000C1CCF301C1CDF302C1CEF303C1B2
:10665C00CFF3ADEC57F00009D8A4B6EC57F001011C
:10666C00B6B702D0010E120057EC52F000C1D0F3B5
:10667C0001C1D1F302C1D2F303C1D3F3CCC381F175
:10668C00CDC382F1CEC383F1CFC384F10101811F4D
:10669C00821F831F841F812B000E8223832384235C
:1066AC000301D051010181250101856F0301D151F5
:1066BC00010182210101866F0301D2510101832165
:1066CC000101876F0301D351010184210101886FFE
:1066DC00010188510BE1210E0101855DA10E010123
:1066EC008659070E01018759D8A0B3D70101B69777
:1066FC00000E1200010E1200D10E0101BA6F020E33
:10670C000101BB6FBAC1D9FFBBC1DAFF4D0EDF6E01
:10671C000101BA4BBB2BBAC1D9FFBBC1DAFF000ECA
:10672C00DF6E0101BA4BBB2BBAC1D9FFBBC1DAFF7B
:10673C00000EDF6E0101BA4BBB2BBAC1D9FFBBC136
:10674C00DAFF040EDF6E0101BA4BBB2BBAC1D9FFC5
:10675C00BBC1DAFFFF0EDF6E0101BA4BBB2BDF0EA4
:10676C000101006F010E0101016FCF0E0101026FDB
:10677C00210E0101036F000E0101056F030E046F62
:10678C009EEC53F00001CD510001CC110001CB1156
:10679C001DE13C0E0001CA5DD8B018D0050E0101F8
:1067AC00E56FCAC0E3F1000E0101E66FBAC100F15A
:1067BC00BBC101F121EEDFF001EE02F0080EDBCFE0
:1067CC00EBFFE806FCE219EC51F0C3D00001CD510F
:1067DC000001CC1135E1100E0001CA5D0E0E000156
:1067EC00CB59D8B02DD0040E0101E56FCAC000F111
:1067FC00CBC001F1CCC002F1CDC003F13C0E0101C4
:10680C00046F000E056F000E066F000E076FE0ECB4
:10681C004BF0010100510101E36F000E0101E66F25
:10682C00BAC100F1BBC101F121EEDFF001EE02F0C3
:10683C00080EDBCFEBFFE806FCE219EC51F089D037
:10684C000001CD5149E1800E0001CA5D510E0001DD
:10685C00CB59010E0001CC59D8B03ED0060E010127
:10686C00E56FCAC000F1CBC001F1CCC002F1CDC0C4
:10687C0003F1100E0101046F0E0E056F000E066F72
:10688C00000E076FE0EC4BF0010100510101116F9C
:10689C0011C106F10101076B010E0101096F000E18
:1068AC00086F81EC4BF0010106510101E36F11C13E
:1068BC00E4F1000E0101E66FBAC100F1BBC101F1B8
:1068CC0021EEDFF001EE02F0080EDBCFEBFFE80665
:1068DC00FCE20BEC4FF03DD0000E0101E56FCAC09D
:1068EC0000F1CBC001F1CCC002F1CDC003F1800EA0
:1068FC000101046F510E056F010E066F000E076F3C
:10690C00E0EC4BF0010100510101116F11C106F1D6
:10691C000101076B010E0101096F000E086F81EC7C
:10692C004BF0010106510101E36F11C1E4F1000EBE
:10693C000101E66FBAC100F1BBC101F121EEDFF03C
:10694C0001EE02F0080EDBCFEBFFE806FCE20BECED
:10695C004FF00101106F01011051010DF3500101B5
:10696C00BA27F4500101BB23D10E01010A6F020EAC
:10697C0001010B6FD10E00080101BA2501010C6F4A
:10698C0059EC4FF0680E0101106FE40EE82EFED7A3
:10699C00102FFCD700D012000D012205D8A411D065
:1069AC000D0120511F0B0009D8A40BD00001C78F7B
:1069BC00030E0D012119D8A402D0010E01D0000E36
:1069CC00446E0D012251D8A412000D0120511F0B51
:1069DC00020AD8A412000D0124510F0B0009D8B4DF
:1069EC0012000D0124510F0B156E020E15601200D2
:1069FC00200E4918D8A412000001C78F0D0124BF26
:106A0C001BD00D0124510F0B156E1550020DD20E1B
:106A1C00F324D96E000EF420DA6EDECF19F0DDCF40
:106A2C001AF00D0124510F0B156E1550010DDA0ED5
:106A3C00F324D96E000E1AD00D0124510F0B156ED4
:106A4C001550020DCE0EF324D96E000EF420DA6E22
:106A5C00DECF19F0DDCF1AF00D0124510F0B156E9E
:106A6C001550010DD80EF324D96E000EF420DA6EF9
:106A7C00DF50186E18B002D0199401D019840D0192
:106A8C0024BF0BD00D0124510F0B156E1550020DA8
:106A9C00D20EF324D96E000E0AD00D0124510F0B27
:106AAC00156E1550020DCE0EF324D96E000EF42087
:106ABC00DA6E19C0DEFF1AC0DDFF030E0D012119BD
:106ACC00D8A42FD019C0D9FF1AC0DAFFDFAE1CD062
:106ADC000D0124BF0BD00D0124510F0B156E155059
:106AEC00010DDA0EF324D96E000E0AD00D012451DB
:106AFC000F0B156E1550010DD80EF324D96E000E28
:106B0C00F420DA6E0001DF8219C0D9FF1AC0DAFF57
:106B1C00000EDB8419C0D9FF1AC0DAFF000EDB8E21
:106B2C001200040E191A19C0D9FF1AC0DAFFDFAE11
:106B3C001BD019C0D9FF1AC0DAFF7F0EDF1619C09F
:106B4C00D9FF1AC0DAFF000EDB8C000E0E6E050E9C
:106B5C000D6E19C00FF01AC010F0000E126E020E5E
:106B6C00116ECBEC52F006D019C0D9FF1AC0DAFF67
:106B7C00000EDB8C040E191A18B206D019C0D9FFFE
:106B8C001AC0DAFFDFAE31D00D0124BF0BD00D01DE
:106B9C0024510F0B156E1550010DDA0EF324D96E1E
:106BAC00000E0AD00D0124510F0B156E1550010D5E
:106BBC00D80EF324D96E000EF420DA6E0001DF92A9
:106BCC0019C0D9FF1AC0DAFF3B0EDF16000E0E6E8D
:106BDC00050E0D6E19C00FF01AC010F0000E126EDB
:106BEC00020E116ECBEC52F006D019C0D9FF1AC0B0
:106BFC00DAFF3B0EDF160D0124510F0B156E1550ED
:106C0C00010D260EF324166E0F0EF420176E16C00F
:106C1C00D9FF17C0DAFFFE0EDF161200200E01019D
:106C2C00346502D0000E120001012FB504D0010111
:106C3C00356B352B02D00101356B0101353B3547E6
:106C4C00354701012F5101013519BF0B35190101D0
:106C5C002F6F01012F51030BE806D8A402D00101BC
:106C6C002F8F2FC166F2C1C167F20101C12B020E39
:106C7C000101376F01012FAD2BD0000E0101386FD0
:106C8C001AD001013851010DF35001013025D96E94
:106C9C00F45001013121DA6E01013751010D660EFC
:106CAC00F324E16E020EF420E26EDFCFE7FF010168
:106CBC00372B0101382B0101AE31E832E8320F0BD2
:106CCC000101356F010135510101385DD8A0D9D7CB
:106CDC0001012FAF2BD0000E0101386F1AD001012A
:106CEC003851010DF3500101AF25D96EF45001015B
:106CFC00B021DA6E01013751010D660EF324E16EFD
:106D0C00020EF420E26EDFCFE7FF0101372B010109
:106D1C00382B0101AE31E832E8320F0B0101356F2F
:106D2C00010135510101385DD8A0D9D701012FA738
:106D3C0071D0000E0101386F030E0101386501D0CE
:106D4C0019D001013851010DA20EF324D96E010E98
:106D5C00F420DA6E01013751010D660EF324E16E59
:106D6C00020EF420E26EDFCFE7FF0101372B0101A9
:106D7C00382BE2D7010E0101A227000EA323A42376
:106D8C00A52301013751010D660EF324D96E020EB5
:106D9C00F420DA6E000EDF6E0101372B37C136F1AD
:106DAC00000E0101386F1AD001013851010DF3505A
:106DBC0001013225D96EF45001013321DA6E010143
:106DCC003751010D660EF324E16E020EF420E26ED3
:106DDC00DFCFE7FF0101372B0101382B01013451C3
:106DEC000101385DD8A0E0D7660E0101246F020EB8
:106DFC000101256F36C126F134C127F1F10E0101D5
:106E0C00286F020E0101296F91EC41F0020E010175
:106E1C00372724D0000E0101386F1AD001013851E8
:106E2C00010DF35001013225D96EF45001013321CB
:106E3C00DA6E01013751010D660EF324E16E020E7C
:106E4C00F420E26EDFCFE7FF0101372B0101382B75
:106E5C00010134510101385DD8A0E0D7000EAEB36A
:106E6C00010E01010A6F010137511AEC3AF01200C0
:106E7C0000C1D9FF01C1DAFFDECF11F1DDCF12F174
:106E8C00010120EE02F00051D9260151DA22DECFA9
:106E9C0013F1DDCF14F1000E0101166F000E156F0A
:106EAC009E0E01010F6F370E0E6F000E0101106F59
:106EBC001F0E0101106501D0D4D0030E0101151570
:106ECC000101046F000E010116150101056FD89028
:106EDC000101043705370101045101010225D96E66
:106EEC000101055101010321DA6EDECF06F1DDCF80
:106EFC0007F101011551010106270101165101018C
:106F0C00072313C108F114C109F1050E01010A6F21
:106F1C000101D8900933083301010A2FF9D713C1A5
:106F2C000BF114C10CF101010B3B0C3BF00E0C17D7
:106F3C000B510F0B0C13F00E0B1701010851010133
:106F4C000B1B0101095101010C1B01011351010122
:106F5C000B270101145101010C2301010651010100
:106F6C000B1B0101075101010C1B01010B5101010C
:106F7C00112701010C510101122301010E510101D4
:106F8C00152701010F510101162315C104F116C17A
:106F9C0005F10B0E0101066F0101D8900533043386
:106FAC000101062FF9D7030E01010417000E051776
:106FBC00D890010104370537010104510101022564
:106FCC00D96E0101055101010321DA6EDECF07F103
:106FDC00DDCF08F1010115510101072701011651FF
:106FEC000101082311C109F112C10AF1050E0101B9
:106FFC000B6F0101D8900A33093301010B2FF9D71C
:10700C0011C10CF112C10DF101010C3B0D3BF00E45
:10701C000D170C510F0B0D13F00E0C17010109512C
:10702C0001010C1B01010A5101010D1B0101115140
:10703C0001010C270101125101010D23010107511E
:10704C0001010C1B0101085101010D1B01010C5127
:10705C000101132701010D51010114230101102B12
:10706C0027D700C1D9FF01C1DAFF11C1DEFF12C160
:10707C00DDFF010120EE02F00051D9260151DA2288
:10708C0013C1DEFF14C1DDFF120001013E69010EC8
:10709C0001012E6F000E2F6F000E306F000E316F3E
:1070AC00010122510101D8B402D0FF0E1200000ED2
:1070BC0001013F6FDAD03FC125F12EC126F12FC15E
:1070CC0027F130C128F131C129F10101252B06D05E
:1070DC00D890010126372737283729370101252F6A
:1070EC00F7D701011D510101261501012A6F01017C
:1070FC001E510101271501012B6F01011F510101C7
:10710C00281501012C6F01012051010129150101E4
:10711C002D6F01012A5101012B1101012C110101CB
:10712C002D11D8B4A0D0000E0101406F01013F51C8
:10713C005DEC57F057EC52F000C136F101C137F15C
:10714C0002C138F103C139F1010E2BEC42F00101FF
:10715C003D6F01013D510101405DD8A03DC140F1A1
:10716C0057EC52F000C132F101C133F102C134F1DC
:10717C0003C135F136C125F137C126F138C127F1EC
:10718C0039C128F10101251F261F271F281F252B78
:10719C00000E262327232823010132510101252526
:1071AC000101296F010133510101262101012A6FCF
:1071BC00010134510101272101012B6F01013551CE
:1071CC000101282101012C6F01012151040D350E03
:1071DC00F324F66E200EF420F76EF86A000EF822F7
:1071EC00010129510900F55C01012A510900F558EA
:1071FC0001012B510900F55801012C510900F558DA
:10720C00D8B0A2D740C106F10101076B000E0101F5
:10721C00096F050E086F81EC4BF00101065101015D
:10722C003B6F000E01013C6F02D001013C2B0101B0
:10723C003B5101013C5DD8A0F8D701013E51010141
:10724C00405DD8B010D040C13EF13FC13AF10101D0
:10725C00235101012411D8B406D023C1D9FF24C174
:10726C00DAFF3EC1DFFF01013F2B1F0E01013F651D
:10727C0022D701013A51120000017F6F030E000169
:10728C007D6FC8D0000E00017E6F000E0001E06F14
:10729C00000E00017C6F00016A510001D8B418D0B7
:1072AC00280EB9EC54F00001816F0001D8908131A7
:1072BC000001816F410E000181650AD000017C2B19
:1072CC007C0500016B6F040E00016B65E9D71200A1
:1072DC00F298F096200EF1EC4FF01A0E0001636F4D
:1072EC00C90E626F54EC55F000017F51BAEC55F0A9
:1072FC00000E0001806F0ED000018051010D660E52
:10730C00F324D96E020EF420DA6EDF50BAEC55F08D
:10731C000001802B00017F510001805DD8A0ECD7CB
:10732C00800EF1EC4FF0F288F0860001DC51D8B4FD
:10733C00F0B001D0FAD7000E0001DC6F200EF1EC9A
:10734C004FF0600EF1EC4FF0020166AB5FD067C2FC
:10735C00DFF091EC52F060C073F061C074F062C069
:10736C0075F063C076F00001E051D8B404D0010E82
:10737C0000017B6F120091EC52F060C077F061C09D
:10738C0078F062C079F063C07AF073C06BF074C0AF
:10739C006CF075C06DF076C06EF000016B1F6C1F49
:1073AC006D1F6E1F6B2B000E6C236D236E23000163
:1073BC00775100016B2500016F6F000178510001BE
:1073CC006C210001706F0001795100016D210001E9
:1073DC00716F00017A5100016E210001726F000182
:1073EC0072510001711108E1A90E00016F5D610E6F
:1073FC0000017059D8A0B7D700017E2B7E05000183
:10740C006B6F040E00016B6105D03FD7010E0001BC
:10741C007B6F120000017D0700017D29D8A432D7B3
:10742C00000E00017B6F120001011F6F030E0101A2
:10743C001C6FC3D0000E01011D6F000E0001E06F28
:10744C00000E01011B6F01010A510101D8B419D0C2
:10745C00280E8DEC54F00101216F0101D8902131DF
:10746C000101216F410E010121650BD001011B2B84
:10747C001B0501010B6F040E01010B65E9D7000E12
:10748C001200F298F096200EA5EC4FF01A0E0101A6
:10749C00036FC90E026F0EEC55F001011F5199ECF0
:1074AC0055F0000E0101206F0ED001012051010D8D
:1074BC00660EF324D96E020EF420DA6EDF5099ECCE
:1074CC0055F00101202B01011F510101205DD8A0B5
:1074DC00ECD7800EA5EC4FF0F288F0860001DC5161
:1074EC00D8B4F0B001D0FAD7000E0001DC6F200E3A
:1074FC00A5EC4FF0600EA5EC4FF0020166AB5BD033
:10750C0067C2DFF057EC52F000C113F101C114F166
:10751C0002C115F103C116F10001E051D8A44BD002
:10752C0057EC52F000C117F101C118F102C119F169
:10753C0003C11AF113C10BF114C10CF115C10DF1FA
:10754C0016C10EF101010B1F0C1F0D1F0E1F0B2B73
:10755C00000E0C230D230E230101175101010B25E5
:10756C0001010F6F0101185101010C210101106F74
:10757C000101195101010D210101116F01011A5174
:10758C0001010E210101126F0101125101011111B2
:10759C0008E1A90E01010F5D610E01011059D8A07F
:1075AC00BBD701011D2B1D0501010B6F040E010141
:1075BC000B6103D042D7010E07D001011C0701015A
:1075CC001C29D8A437D7000E01011E6F01011E51D2
:1075DC0012000101176F0101F269F369130E010129
:1075EC00F16F370EF06F000E01011B6F3F0E0101A2
:1075FC001B6501D012D001011B51090D080EF32699
:10760C00000EF422000EF324D96E060EF420DA6E6E
:10761C00000EDF6E01011B2BE9D7000E01011B6F61
:10762C00070E01011B6501D019D001011B51010D81
:10763C00B40EF324D96E000EF420DA6E000EDF6E59
:10764C0001011B51010DAC0EF324D96E000EF42078
:10765C00DA6E000EDF6E01011B2BE2D7000E01016A
:10766C00C86F000E0101CB6F000E0101B76F000E49
:10767C00B66F000E0101CD6F000E0101C36F98ECC7
:10768C0057F0000E0101C76F000E01011B6F3F0E7A
:10769C0001011B6501D010D001011B51040D000E1E
:1076AC00F324D96E050EF420DA6EDE6ADE6ADE6A29
:1076BC00DD6A01011B2BEBD7000E0101186F0101D4
:1076CC001851870B2009186F01011883010117B19C
:1076DC0003D00101189502D001011885E80E0101B3
:1076EC00196F010E01011A6F18C112F119C113F1B2
:1076FC001AC114F111EC3FF0F20E0101006F010EF2
:10770C000101016FF00E0101026F010E0101036F07
:10771C00CBEC57F00101F6515DEC57F00101C38140
:10772C000101C387C0C116F10101163B0101C35110
:10773C0001011619CF0B16190101C36F0101C38D7D
:10774C00CBC116F1010116470101C35101011619F4
:10775C00F90B16190101C36FCECFC4F1F090F0866E
:10776C001200D10E0101BA6F020E0101BB6FBAC13A
:10777C00D9FFBBC1DAFF4D0EDF6E0101BA4BBB2B3B
:10778C00BAC1D9FFBBC1DAFF000EDF6E0101BA4BE3
:10779C00BB2BBAC1D9FFBBC1DAFF000EDF6E0101F2
:1077AC00BA4BBB2BBAC1D9FFBBC1DAFF040EDF6EDB
:1077BC000101BA4BBB2BBAC1D9FFBBC1DAFFFF0E1B
:1077CC00DF6E0101BA4BBB2BDF0E0101006F010E06
:1077DC000101016FC30E0101026F210E0101036F44
:1077EC00000E0101056F030E046F9EEC53F0000EAA
:1077FC000101E56FC9C1E3F1010E0101E66FBAC1E8
:10780C0000F1BBC101F121EEDFF001EE02F0080E38
:10781C00DBCFEBFFE806FCE219EC51F00101106F35
:10782C0001011051010DF3500101BA27F45001016F
:10783C00BB23DF0E0101006F010E0101016FCB0EA6
:10784C000101026F210E0101036F000E0101056F92
:10785C00030E046F9EEC53F0040E0101E56FE4C0BF
:10786C00E3F1010E0101E66FBAC100F1BBC101F1F8
:10787C0021EEDFF001EE02F0080EDBCFEBFFE806A5
:10788C00FCE219EC51F00101106F01011051010DD6
:10789C00F3500101BA27F4500101BB23D10E0101B1
:1078AC000A6F020E01010B6FD10E00080101BA25FF
:1078BC0001010C6F59EC4FF0680E0101106FE40ED2
:1078CC00E82EFED7102FFCD700D01200A098000E87
:1078DC00636E000E626E000E0F01266F270E010103
