:04000000F2EF00F02B
:0E0008005E82FACFD8F0FBCFD9F02DEF59F081
:100018005E80D8CF21F0E8CF22F0E0CF23F0FACFEE
:1000280024F0FBCF25F0E9CF26F0EACF27F0E1CF87
:1000380028F0E2CF29F0D9CF2AF0DACF2BF0F3CF8E
:100048002CF0F4CF2DF0F6CF2EF0F7CF2FF0F8CF1D
:1000580030F0F5CF31F08CEC40F0A4A673D0A49624
:10006800020E5518D8B403D05504D8A44BD0450473
:10007800D8A412D0020E5B245B6E000E5C205C6E6E
:100088005C5004E1EB0E5B5CD8A018D0000E5C6EEF
:10009800EB0E5B6E000E11D0FE0E5B245B6EFF0E46
:1000A8005C205C6E5C500AE10B0E5B5CD8B006D03D
:1000B800000E5C6E0A0E5B6E010E456E5BC01FF093
:1000C800010E1F161F3ABA501F18EF0B1F18BA6EF1
:1000D800D8905C30206E5B301F6E010E1F161F3AE1
:1000E8001F46BA501F18DF0B1F18BA6E5BC01FF0EF
:1000F8005CC020F0D89020321F32D89020321F32B6
:100108001F50BB6E030E5518D8A444D05304536E29
:100118005350D8A43FD05250D8B403D05204D8A4D6
:1001280002D0010E0BD0020E5218D8A402D0020E33
:1001380005D0030E5218D8A402D0000E556EF7EC65
:1001480059F028D0A4A026D0B0C109F0B1C10AF056
:10015800B2C10BF02E0E0C6E420E0D6E3A0E0E6EE4
:1001680097EC3AF009C0B0F10AC0B1F10BC0B2F196
:100178005D045D6E5D50D8A40CD0010E0101CB6FFB
:100188000101FA51D8A403D0010E5D6E02D0FAC164
:100198005DF0A49031C0F5FF30C0F8FF2FC0F7FF25
:1001A8002EC0F6FF2DC0F4FF2CC0F3FF2BC0DAFFE2
:1001B8002AC0D9FF29C0E2FF28C0E1FF27C0EAFF13
:1001C80026C0E9FF25C0FBFF24C0FAFF23C0E0FFDB
:1001D80022C0E8FF21C0D8FF5E9010007EEF4DF0EE
:101FEC0000010203040506070036008402090409F7
:101FFC00060C08C10A7D0C640E14100012001400AB
:10200C00163818C81A0D1C001E72203822382407E6
:10201C00260028002A692C812E7E309632F03488D6
:10202C00364038003AE83C003EC0030000A00500F2
:10203C000060090000E0100000E01F0000E03D001F
:10204C0000E0790000E0F10000E0E10100E0C103F4
:10205C0000E0810700E0010F00E0011E00443D1B81
:10206C00000DB415004F4F4F4F4F4F4F4F4F4F4F29
:10207C004F4F4F4F4F4F4F4F4F4F4F50505050505F
:10208C005050505050222426282A2C2E30323437CF
:10209C00393B3D3F414345474A4C4E0507090B0D23
:1020AC000F1114161801000A006400E80310270130
:1020BC0000100000010010D121CF20032150414E0F
:1020CC0000312134034D006900630072006F00631E
:1020DC00006800690070002000540065006300680F
:1020EC00006E006F006C006F0067007900200049E3
:1020FC00006E0063002E002E03530069006D00700B
:10210C00006C006500200048004900440020004499
:10211C0000650076006900630065002000440065DE
:10212C00006D006F0009022900010100C032090492
:10213C0000000203000000092111010001221D0012
:10214C00070581034000010705010340000106005B
:10215C00FF0901A10119012940150026FF0075088E
:10216C0095408100190129409100C0120100020024
:10217C00000008D804C9F7000101020001312E3219
:10218C00356D5700302E31356D5700322E356D5769
:10219C0000302E306D5700302E366D5700302E33F8
:1021AC006D570031306D570032306D570043686EFB
:1021BC00004E73650050777200356D5700557046B0
:1021CC00005570740004030904497C2530327825CD
:1021DC003032783A504F5745525F544553543A2059
:1021EC006572726F722073656E64696E67206261CE
:1021FC00636B2C2025732C20525353493D256900C9
:10220C00497C25303278253032783A50494E472077
:10221C006572726F722073656E64696E672062619D
:10222C00636B3A207061796C6F61645F73697A6576
:10223C003D256900497C25303278253032783A507A
:10224C00494E47207375636365737366756C3A20EA
:10225C007061796C6F61645F73697A653D256900A3
:10226C00497C4572726F723A20756E61626C6520A2
:10227C00746F20736574206368616E6E656C2025C5
:10228C0069212028545F542900497C253032782557
:10229C003032783A20256920636F6D6D616E642051
:1022AC006E6F74207265636F676E697A6564210066
:1022BC00497C25303278253032783A504F57455288
:1022CC005F544553543A204F4B2C2025732C2052ED
:1022DC005353493D256900497C62657374206368DA
:1022EC00616E6E656C3A20256920286E6F69736586
:1022FC00203D3D2025692900497C7363616E6E6920
:10230C006E67206368616E6E656C7320666F7220F9
:10231C006E6F6973652E2E2E00497C616363657048
:10232C0074696E67207363616E73202620636F6E11
:10233C006E656374696F6E7300497C6F7065726152
:10234C00746F72277320616464726573733A20250D
:10235C003032782530327800497C50414E49443A2D
:10236C0025303278253032782043683A2530326473
:10237C0000497C6372656174696E67206E65747761
:10238C006F726B2E2E2E0030313233343536373897
:10239C003961626364656600497C7374617475733A
:1023AC003A2072656164792100497C524553455449
:1023BC0000286E756C6C2900000084EC2CF0000970
:1023CC00D8B488EF1DF00101B5B51200000E010163
:1023DC00906F01019AA504D001014A6B4A2B02D0DF
:1023EC0001014A6B0101905101014A19FC0B4A1978
:1023FC000101906F01019AA703D00101908702D0CF
:10240C000101909701019A51030BE806D8A404D05E
:10241C0001014A6B4A2B02D001014A6B01014A3B74
:10242C004A470101905101014A19DF0B4A19010178
:10243C00906F01019AAF03D00101908D02D0010180
:10244C00909D01019AAF06D00101908F9BC193F131
:10245C009CC194F1A1C199F1A0C198F10101B5956C
:10246C0076EF1DF00A0E01019F6102D084EF1DF082
:10247C00010120EE02F09D51D9269E51DA22DF5047
:10248C0001016D6F010120EE03F09D51D9269E5183
:10249C00DA22DF5001016E6F010120EE04F09D5134
:1024AC00D9269E51DA22DF500101736F010120EE13
:1024BC0005F09D51D9269E51DA22DF500101746F2F
:1024CC00010120EE06F09D51D9269E51DA22DF50F3
:1024DC000101756F010120EE07F09D51D9269E5127
:1024EC00DA22DF500101766F010120EE08F09D51D8
:1024FC00D9269E51DA22DF500101786F010120EEBE
:10250C0009F09D51D9269E51DA22DF500101796FD5
:10251C00000E0101906F01019AA703D00101908771
:10252C0002D00101909701019051030B0009D8A42E
:10253C0007D00101732903E101017429D8A41CD12E
:10254C000101F2510101781912E10101F35101016C
:10255C007919D8A40CD00101F0510101751907E1CA
:10256C000101F15101017619D8B484EF1DF09DC120
:10257C00D9FF9EC1DAFF010EDF6441D09DC1D9FFA6
:10258C009EC1DAFFDF06000E0101C66F000E0101CD
:10259C007C6F1AD001017C51010DF35001019D2576
:1025AC00D96EF45001019E21DA6E0101C651010D64
:1025BC00A60EF324E16E020EF420E26EDFCFE7FFED
:1025CC000101C62B01017C2B01019F5101017C5D96
:1025DC00D8A0E0D79AC1ADF1140EBAEC51F0ADC150
:1025EC002FF1AEC130F1AFC131F1A60E0101326F46
:1025FC00020E0101336FC6C134F1A4EC35F0000EAC
:10260C0001017C6F030E01017C6501D03DD00101FD
:10261C007C51080D030EF326000EF422280EF32431
:10262C00D96E020EF420DA6EDF50D8B42AD0010134
:10263C007C51080D280EF324D96E020EF420DA6EAC
:10264C0001017851DE181DE101017951DE18D8A481
:10265C0018D0010120EE0AF09D51D9269E51DA22A4
:10266C0001017C51080D020EF326000EF422280EF7
:10267C00F324E16E020EF420E26EDE50E618D8B4BC
:10268C0003D001017C2BBED7040E01017C6102D06A
:10269C0084EF1DF0000E01017C6F030E01017C65BF
:1026AC0001D013D001017C51080D030EF326000E4E
:1026BC00F422280EF324D96E020EF420DA6EDF50C9
:1026CC00D8B403D001017C2BE8D7040E01017C6146
:1026DC004DD001017C51080D280EF324D96E020E49
:1026EC00F420DA6E78C1DEFF79C1DDFF010120EE46
:1026FC000AF09D51D9269E51DA2201017C51080D18
:10270C00020EF326000EF422280EF324E16E020EC4
:10271C00F420E26EDFCFE7FF01017C51080D030EC0
:10272C00F326000EF422280EF324D96E020EF420A8
:10273C00DA6E030EDF6E80EC58F001017C51080D4F
:10274C00040EF326000EF422280EF324D96E020E8A
:10275C00F420DA6E010100C1DEFF010101C1DEFFD0
:10276C00010102C1DEFF010103C1DEFF0101905135
:10277C00FC0B0109906F92D00101F05101016D1910
:10278C0005E10101F15101016E19D8A40FD301012A
:10279C00F2510101731905E10101F35101017419A1
:1027AC00D8A404D3010120EE01F09D51D9269E51ED
:1027BC00DA220101DFA472D0F9C1A6F2020E0201E5
:1027CC00A76F75C1A8F276C1A9F278C1AAF279C136
:1027DC00ABF2F0C1ACF2F1C1ADF2F2C1AEF2F3C1A9
:1027EC00AFF2010120EE0AF09D51D9269E51DA225A
:1027FC00DF500201B06F000E0201B16F300E02010A
:10280C00B26F0D0E0101C66F0101F351010179196F
:10281C00D8B40ED075C13DF176C13EF178C13FF10F
:10282C0079C140F1000E0101416F09EC24F034D064
:10283C00000E0101AD6F0101AD8B78C1F4F179C1CE
:10284C00F5F175C1BBF176C1BCF187EC57F0010114
:10285C007C6F01017C29D8B40FD001017C51090D8A
:10286C00040EF326000EF422000EF3240101AE6FC9
:10287C00060EF4200101AF6FADC12FF1AEC130F1E6
:10288C00AFC131F1A60E0101326F020E0101336F9F
:10289C00C6C134F1A4EC35F001019085010120EEA4
:1028AC000BF09D51D9269E51DA22DF50D8A438D294
:1028BC00010120EE0CF09D51D9269E51DA22300EEA
:1028CC00DE18D8A400D20FD20101CCB34ED080ECCC
:1028DC0058F000C1DAF101C1DBF102C1DCF103C136
:1028EC00DDF1010120EE08F09D51D9269E51DA222E
:1028FC00DF500101CE6F010120EE09F09D51D92668
:10290C009E51DA22DF500101CF6F000E01017B6F67
:10291C00030E01017B6501D022D001017B51010125
:10292C004A6F4B6B0D0E01014A27000E4B23010120
:10293C004A5101019D25D96E01014B5101019E2186
:10294C00DA6E01017B51010DD00EF324E16E010E04
:10295C00F420E26EDFCFE7FF01017B2BD9D7010119
:10296C00CC830101CC9184EF1DF0010120EE08F025
:10297C009D51D9269E51DA220101CE51DE18D8A4E0
:10298C000DD0010120EE09F09D51D9269E51DA227D
:10299C000101CF51DE18D8B484EF1DF00101CE51E6
:1029AC000101CF11D8A46FD0000E01017B6F030E73
:1029BC0001017B6501D036D001017B5101014A6FC9
:1029CC004B6B0D0E01014A27000E4B2301014A519E
:1029DC0001019D25D96E01014B5101019E21DA6E39
:1029EC0001017B51010DD60EF324E16E010EF42092
:1029FC00E26EDFCFE7FF01017B51010DD60EF32410
:102A0C00D96E010EF420DA6E01017B51010DA60E78
:102A1C00F324E16E010EF420E26EDFCFE7FF01013B
:102A2C007B2BC5D7010120EE08F09D51D9269E5174
:102A3C00DA22DF500101D46F010120EE09F09D5123
:102A4C00D9269E51DA22DF500101D56FD4C1F4F1A1
:102A5C00D5C1F5F1F0C1BBF1F1C1BCF187EC57F078
:102A6C000101CD6F0101CD29D8A4A0D08D0E00019C
:102A7C00A06F0101F4AF02D00001A09116EC46F05A
:102A8C000101CD6F93D00B0E0101C66F0101C65130
:102A9C00010DA60EF324D96E020EF420DA6E000E90
:102AAC00DF6E0101C62B0101C651010DA60EF324E8
:102ABC00D96E020EF420DA6E110EDF6E0101C62BF8
:102ACC00000E01017B6F030E01017B6501D038D034
:102ADC0001017B5101014A6F4B6B0D0E01014A271D
:102AEC00000E4B2301014A5101019D25D96E0101B4
:102AFC004B5101019E21DA6E01017B51010DD60E65
:102B0C00F324E16E010EF420E26EDFCFE7FF01014A
:102B1C007B51010DD60EF324D96E010EF420DA6E22
:102B2C000101C651010DA60EF324E16E020EF42034
:102B3C00E26EDFCFE7FF0101C62B01017B2BC3D770
:102B4C00010120EE08F09D51D9269E51DA22DF506A
:102B5C000101D46F010120EE09F09D51D9269E513F
:102B6C00DA22DF500101D56F0101C651010DA60E0D
:102B7C00F324D96E020EF420DA6ED4C1DFFF01010A
:102B8C00C62B0101C651010DA60EF324D96E020EFF
:102B9C00F420DA6ED5C1DFFF0101C62BCE0E010188
:102BAC00486F010E0101496F63EC56F00101CC83B3
:102BBC000101CC8184EF1DF0000E0101716F030E39
:102BCC000101716501D022D00101715101014A6FDF
:102BDC004B6B0D0E01014A27000E4B2301014A518C
:102BEC0001019D25D96E01014B5101019E21DA6E27
:102BFC0001017151010DA60EF324E16E010EF420BA
:102C0C00E26EDFCFE7FF0101712BD9D78D0E0001EA
:102C1C00A06F010120EE11F09D51D9269E51DA22B0
:102C2C000101DFAE02D00001A091010120EE11F0F4
:102C3C009D51D9269E51DA22DF500101F46F01011A
:102C4C0020EE12F09D51D9269E51DA22DF5001015F
:102C5C00F56FF0C1BBF1F1C1BCF187EC57F001018C
:102C6C00CD6F0101CD29D8B415D00101CD51090D7D
:102C7C00080EF326000EF422000EF324D96E060E75
:102C8C00F420DA6EDF500001A06F0001A085000176
:102C9C00A08708D08D0E0001A06F0101F4AF02D007
:102CAC000001A09116EC46F00101CD6F0101CD2978
:102CBC00D8B403D00101CC8102D00101CC91010127
:102CCC00CC9384EF1DF0010120EE0CF09D51D92620
:102CDC009E51DA22DF50100AD8B4F6D5010AD8B4C6
:102CEC006BD784EF1DF0010120EE0AF09D51D9261F
:102CFC009E51DA220101F851DE18D8A484EF1DF0A0
:102D0C000101B3510101781905E10101B45101012F
:102D1C007919D8A484EF1DF00101B59784EF1DF04B
:102D2C0001019F51F50F0101976F0B0E01019D25BC
:102D3C000101956F000E01019E210101966F75C175
:102D4C0091F176C192F1010120EE08F09D51D92646
:102D5C009E51DA22DE28D8A412D0010120EE09F00F
:102D6C009D51D9269E51DA22DE28D8A408D0010123
:102D7C009AAF05D09BC193F19CC194F10CD0010189
:102D8C00908F080E01019D250101936F000E01012A
:102D9C009E210101946F0101908D01019751D8B4CE
:102DAC0084EF1DF00101B58584EF1DF09DC1D9FFA5
:102DBC009EC1DAFFDF50D8B484EF1DF09DC1D9FF5E
:102DCC009EC1DAFFDF06000E0101C66F000E010185
:102DDC007C6F1AD001017C51010DF35001019D252E
:102DEC00D96EF45001019E21DA6E0101C651010D1C
:102DFC00A60EF324E16E020EF420E26EDFCFE7FFA5
:102E0C000101C62B01017C2B01019F5101017C5D4D
:102E1C00D8A0E0D70101F35101017419D8A43CD01A
:102E2C000201B151D8A438D0300E0201B219D8A485
:102E3C0033D0000E0101AD6F0101AD8B73C1F4F104
:102E4C0074C1F5F187EC57F001017C6F01017C290D
:102E5C00D8B484EF1DF001017C51090D040EF3264A
:102E6C00000EF422000EF3240101AE6F060EF420C6
:102E7C000101AF6FADC12FF1AEC130F1AFC131F176
:102E8C00A60E0101326F020E0101336FC6C134F17F
:102E9C00A4EC35F084EF1DF06DC13DF16EC13EF137
:102EAC0073C13FF174C140F1000E9AB7010E0101DC
:102EBC00416F09EC24F084EF1DF0040E01016F6FDB
:102ECC0001016F5101014A6F4B6B040E01014A273E
:102EDC00000E4B2301014A5101019D25D96E0101C0
:102EEC004B5101019E21DA6E4D0EDE18D8A484EFF1
:102EFC001DF0010120EE03F09D51D9269E51DA22DE
:102F0C00DF500101686F68C14AF1010E01014B6F7E
:102F1C0001014A2B03D00101D8904B3701014A2FF4
:102F2C00FAD701014B510101606F010120EE02F053
:102F3C009D51D9269E51DA22DF50D8A404D001012C
:102F4C0060510101C71301016F5101014A6F4B6BB5
:102F5C00060E01014A27000E4B2301014A510101C3
:102F6C009D25D96E01014B5101019E21DA6E0101A3
:102F7C006851010D710EF324E16E000EF420E26E27
:102F8C00DFCFE7FF9DC1D9FF9EC1DAFFDF50010102
:102F9C00BB6F010120EE01F09D51D9269E51DA2222
:102FAC00DF500101BC6F010120EE02F09D51D926CA
:102FBC009E51DA22DF500101F46F010120EE03F083
:102FCC009D51D9269E51DA22DF500101F56F87EC15
:102FDC0057F001017A6F01017A29D8A405D0D3ECFE
:102FEC005BF001017A6F3ED0000E01017C6F030E85
:102FFC0001017C6501D030D001017C51010DF350F1
:10300C0001019B25D96EF45001019C21DA6E01015E
:10301C007C51010D040EF326000EF422000E01016A
:10302C004B6F060E01014C6FF35001014B27F4500E
:10303C0001014C2301017A51090DF35001014B257B
:10304C00E16EF45001014C21E26EDE50E618D8A47A
:10305C0003D001017C2BCBD7030E01017C6502D080
:10306C0001017A6901017A29D8B4A9D001017A51F8
:10307C00090D000EF324D96E060EF420DA6EBBC1D6
:10308C00DEFFBCC1DDFF01017A51090D020EF326F2
:10309C00000EF422000EF324D96E060EF420DA6E24
:1030AC00F4C1DEFFF5C1DDFF000E01017C6F030EE4
:1030BC0001017C6501D02ED001017C51010DF35032
:1030CC0001019B25D96EF45001019C21DA6E01019E
:1030DC007C51010D040EF326000EF422000E0101AA
:1030EC004A6F060E01014B6FF35001014A27F45051
:1030FC0001014B2301017A51090DF35001014A25BD
:10310C00E16EF45001014B21E26EDFCFE7FF0101CC
:10311C007C2BCDD701017A51090D080EF326000E38
:10312C00F422000EF324D96E060EF420DA6E000E93
:10313C00DF6E01017A51090D080EF326000EF42200
:10314C00000EF324D96E060EF420DA6EDF82010134
:10315C007A51090D080EF326000EF422000EF3240A
:10316C00D96E060EF420DA6EDF8001017A51090D5A
:10317C00080EF326000EF422000EF324D96E060E70
:10318C00F420DA6EDF8401017A51090D080EF32662
:10319C00000EF422000EF324D96E060EF420DA6E23
:1031AC00DF8601017A51090D080EF326000EF42278
:1031BC00000EF324D96E060EF420DA6EDF8E0101B8
:1031CC00B5A184EF1DF09DC1D9FF9EC1DAFFDF5080
:1031DC000101BB6F010120EE01F09D51D9269E51DA
:1031EC00DA22DF500101BC6F010120EE02F09D518B
:1031FC00D9269E51DA22DF500101F46F010120EE35
:10320C0003F09D51D9269E51DA22DF500101F56F52
:10321C0001016F51010DF35001019D25D96EF45040
:10322C0001019E21DA6EDE28D8A484EF1DF0010185
:10323C006F5101014A6F4B6B010E01014A27000EC1
:10324C004B2301014A5101019D25D96E01014B51BE
:10325C0001019E21DA6EDF500101706F040E010135
:10326C00BD6184EF1DF001017039030B01014A6F40
:10327C00020E01014A6184EF1DF00101BD510A0DDE
:10328C00000EF324D96E020EF420DA6EF6C1DFFFC5
:10329C000101BD510A0D070EF326000EF422000E9B
:1032AC00F324D96E020EF420DA6E98C1DFFF01010F
:1032BC00BD510A0D080EF326000EF422000EF32465
:1032CC00D96E020EF420DA6E99C1DFFF0101BD51F7
:1032DC000A0D050EF326000EF422000EF324D96E0F
:1032EC00020EF420DA6EBBC1DEFFBCC1DDFF0101B2
:1032FC00BD510A0D090EF326000EF422000EF32424
:10330C00D96E020EF420DA6E000EDF6E0101BD5193
:10331C000A0D090EF326000EF422000EF324D96ECA
:10332C00020EF420DA6E0201DF8C01017031030B06
:10333C0001014A6F0101BD510A0D090EF326000E61
:10334C00F422000EF324D96E020EF420DA6E020180
:10335C00DF5001014A19FC0B4A190201DF6E010111
:10336C0070A70FD00101BD510A0D090EF326000EF6
:10337C00F422000EF324D96E020EF420DA6E020150
:10338C00DF8601017039030B01014A6F020E010146
:10339C004A610FD00101BD510A0D090EF326000E32
:1033AC00F422000EF324D96E020EF420DA6E020120
:1033BC00DF8A000E01017C6F030E01017C6501D0D8
:1033CC002ED001017C51010DF35001019325D96ED2
:1033DC00F45001019421DA6E01017C51010D010EB2
:1033EC00F326000EF422000E01014A6F020E0101B9
:1033FC004B6FF35001014A27F45001014B2301019B
:10340C00BD510A0DF35001014A25E16EF450010142
:10341C004B21E26EDFCFE7FF01017C2BCDD7010101
:10342C00BD2B6CD3000E0101636F010E0101BF6552
:10343C0001D064D3000E01017C6F030E01017C6589
:10344C0001D019D001017C51010DF35001019B25D4
:10345C00D96EF45001019C21DA6E01017C51010DF1
:10346C00A60EF324E16E010EF420E26EDFCFE7FF2F
:10347C0001017C2BE2D7B4EC4EF00101776F010116
:10348C007729D8A41CD00101BF51D8A437D3B70ECB
:10349C000001A06FF0C1BBF1F1C1BCF116EC46F01C
:1034AC000101776F01017729D8A42AD0010E0101FF
:1034BC00636FFF0E0101F56FFE0EF46F9ED00101DC
:1034CC007751090D080EF326000EF422000EF3249A
:1034DC00D96E060EF420DA6EDFA612D001017751F8
:1034EC00090D020EF326000EF422000EF324D96E01
:1034FC00060EF420DA6EDECFF4F1DDCFF5F17DD0DF
:10350C0001017729D8B479D0010177290101F46F31
:10351C00F3C1F5F1F0C1BBF1F1C1BCF1020E010137
:10352C00CA19D8A447D0010120EE01F09D51D9262B
:10353C009E51DA220101DFAC3DD0F4C15EF1F5C140
:10354C005FF1000E0101F46F010E0101726F070EA5
:10355C000101726501D025D072C1F5F187EC57F0ED
:10356C000101616F01016129D8A418D0000E01017D
:10357C00F46F72C1F5F172C14AF1010E01014B6F8A
:10358C0001014A2B03D00101D8904B3701014A2F7E
:10359C00FAD701014B510101C71303D00101722B62
:1035AC00D6D7080E01017219D8A404D05EC1F4F16B
:1035BC005FC1F5F1BF0E0001A06F010120EE01F01B
:1035CC009D51D9269E51DA220101DFB004D00001B1
:1035DC00A0910101F48F16EC46F00101776F010107
:1035EC007751090D080EF326000EF422000EF32479
:1035FC00D96E060EF420DA6EDF88020E0201A66F79
:10360C00F4C1A7F2F5C1A8F263C1A9F2040E01013D
:10361C00C66F01017751040D000EF324D96E050E0F
:10362C00F420DA6EDE6ADE6ADE6ADD6A0101775149
:10363C00090D040EF326000EF422000EF3240101F2
:10364C00396F060EF42001013A6F010E01013B6F38
:10365C00CBEC57F053D2010120EE03F09D51D9264B
:10366C009E51DA22DF50D8A4A4D0010120EE01F043
:10367C009D51D9269E51DA22DF500101F26F0101D2
:10368C0020EE02F09D51D9269E51DA22DF50010125
:10369C00F36F0101F251D8A425D0010E0101CA6FBC
:1036AC00CAC14AF101014A470101C25101014A193B
:1036BC00F90B4A190101C26FF3C14AF1070E01015E
:1036CC004A17010E01014B6F01014A2B03D0010176
:1036DC00D8904B3701014A2FFAD701014B29010130
:1036EC00C7130FD0000E0101CA6FCAC14AF1010104
:1036FC004A470101C25101014A19F90B4A1901014A
:10370C00C26FF20E0101006F010E0101016FF00E8C
:10371C000101026F010E0101036FEAEC5DF0010182
:10372C00B583BF0E0001A06F000E01017C6F030E6C
:10373C0001017C6501D019D001017C51010DF350C0
:10374C0001019B25D96EF45001019C21DA6E010117
:10375C007C51010DA60EF324E16E010EF420E26EF5
:10376C00DFCFE7FF01017C2BE2D70101F251D8A496
:10377C0005D0000E0101F56F000E04D0F3C1F5F178
:10378C00000E0101F46FF0C1BBF1F1C1BCF116ECFC
:10379C0046F00101C96F0101C951040D000EF3245B
:1037AC00D96E050EF420DA6EDE6ADE6ADE6ADD6A38
:1037BC00A5D10101C9690101F069F1690101F4693F
:1037CC00F569F40E0101006F010E0101016FF00E9D
:1037DC000101026F010E0101036FEAEC5DF08ED165
:1037EC00000E01017C6F030E01017C6501D019D024
:1037FC0001017C51010DF35001019B25D96EF45050
:10380C0001019C21DA6E01017C51010DA60EF324FD
:10381C00E16E010EF420E26EDFCFE7FF01017C2B9D
:10382C00E2D7B4EC4EF001016B6F01016B29D8B4F7
:10383C0065D101016B51090D080EF326000EF4221F
:10384C00000EF324D96E060EF420DA6EDFAA56D1E0
:10385C000101C95101016B19D8B410D001016B5190
:10386C00090D080EF326000EF422000EF324D96E77
:10387C00060EF420DA6E000EDF6E40D1000E010150
:10388C007C6F3F0E01017C6501D081D001017C5120
:10389C00090D080EF326000EF422000EF324D96E47
:1038AC00060EF420DA6EDFAE60D001017C51090DFA
:1038BC00080EF326000EF422000EF324D96E060E29
:1038CC00F420DA6EDFAA51D00101C95101017C1933
:1038DC00D8B44BD0000E0101C66F0101C651010DC9
:1038EC00A60EF324D96E020EF420DA6E030EDF6EF0
:1038FC000101C62B000E0101AD6F0101AD8B010161
:10390C00AD51FC0B0109AD6F0101AD8F01017C5173
:10391C00090D040EF326000EF422000EF32401010F
:10392C00AE6F060EF4200101AF6FADC12FF1AEC129
:10393C0030F1AFC131F1A60E0101326F020E01015F
:10394C00336FC6C134F1A4EC35F0000E01016A6F7F
:10395C00000E696F010169290F0E01016A59D8B077
:10396C0004D00101694B6A2BF5D701017C51090D7B
:10397C00080EF326000EF422000EF324D96E060E68
:10398C00F420DA6E000EDF6E01017C2B7AD7010178
:10399C00C9690101F269F3690101F069F169F20E7B
:1039AC000101006F010E0101016FF00E0101026FA8
:1039BC00010E0101036FEAEC5DF00101B5939ED09D
:1039CC00020E0101BF6501D099D00101B5A396D0BB
:1039DC00010120EE01F09D51D9269E51DA22010100
:1039EC00F651DE18D8A48AD00101CA51D8B486D0B9
:1039FC000101CA05D8A45FD0140E0101626F4DD02D
:103A0C000101620780EC58F000C156F101C157F179
:103A1C0002C158F103C159F180EC58F000C15AF1C0
:103A2C0001C15BF102C15CF103C15DF156C14AF108
:103A3C0057C14BF158C14CF159C14DF101014A1F0D
:103A4C004B1F4C1F4D1F4A2B000E4B234C234D2359
:103A5C0001015A5101014A2501014E6F01015B51CF
:103A6C0001014B2101014F6F01015C5101014C21FE
:103A7C000101506F01015D5101014D210101516F97
:103A8C00010151510101501108E1F50E01014E5D8A
:103A9C00010E01014F59D8A0BFD70101625101019C
:103AAC00D8A4AED7140EBAEC51F0140EBAEC51F0F7
:103ABC00140EBAEC51F0B3EC43F020D09DC1D9FFF9
:103ACC009EC1DAFFDF50010AD8B4ACD4030AD8B4D3
:103ADC00C2D5010AD8B484D6040AD8B471D70ED092
:103AEC0001019A51030B000AD8B438EF12F0010A05
:103AFC00D8B4E4D7020AD8B463EF17F00101B5A526
:103B0C005BEC5DF080EC58F000C164F101C165F133
:103B1C0002C166F103C167F1000E01017C6F030E57
:103B2C0001017C6501D067D001017C51080D030EA9
:103B3C00F326000EF422280EF324D96E020EF42084
:103B4C00DA6EDF50D8B454D001017C51080D040E4C
:103B5C00F326000EF422280EF324D96E020EF42064
:103B6C00DA6EDECF4AF1DECF4BF1DECF4CF1DECF99
:103B7C004DF101014A1F4B1F4C1F4D1F4A2B000ECC
:103B8C004B234C234D230101645101014A250101B2
:103B9C004E6F0101655101014B2101014F6F010174
:103BAC00665101014C210101506F01016751010166
:103BBC004D210101516F010151510BE1210E010108
:103BCC004E5DA10E01014F59070E01015059D8A0AD
:103BDC000FD001017C51080D030EF326000EF422C8
:103BEC00280EF324D96E020EF420DA6E000EDF6E6E
:103BFC0001017C2B94D70101CCA312000101CCA1B3
:103C0C0063D00B0E0101C66F0101C651010DA60E4A
:103C1C00F324D96E020EF420DA6E000EDF6E010171
:103C2C00C62B0101C651010DA60EF324D96E020E4E
:103C3C00F420DA6E110EDF6E0101C62B000E0101AD
:103C4C006C6F030E01016C6501D019D001016C5130
:103C5C00010DD00EF324D96E010EF420DA6E0101A1
:103C6C00C651010DA60EF324E16E020EF420E26E95
:103C7C00DFCFE7FF0101C62B01016C2BE2D701015D
:103C8C00C651010DA60EF324D96E020EF420DA6E85
:103C9C00CEC1DFFF0101C62B0101C651010DA60EDD
:103CAC00F324D96E020EF420DA6ECFC1DFFF0101CE
:103CBC00C62BD40E0101486F010E0101496F63EC54
:103CCC0056F00101CC931200DAC14AF1DBC14BF181
:103CDC00DCC14CF1DDC14DF101014A1F4B1F4C1FE2
:103CEC004D1F4A2B000E4B234C234D2301016451D5
:103CFC0001014A250101526F0101655101014B215E
:103D0C000101536F0101665101014C210101546FF6
:103D1C000101675101014D210101556F01015551FF
:103D2C000BE1610E0101525DE30E01015359160EB8
:103D3C0001015459D8A012000101CC93120014ECCB
:103D4C0043F0000E526EF20EF66EFF0EF76E010E81
:103D5C00F86E0800F5CFE8F1F40EF66EFF0EF76E74
:103D6C00010EF86E0800F5CFE9F1F60EF66EFF0EB7
:103D7C00F76E010EF86E0800F5CFEAF1F70EF66E4D
:103D8C00FF0EF76E010EF86E0800F5CFEBF1000E8A
:103D9C000301DF6F000EDE6F0301DFBF08D00301EC
:103DAC00DF511EE1080E0301DE5DD8B019D0EC0E18
:103DBC000301DE25F66E1F0EDF21F76EF86A000E8A
:103DCC00F822790E0301DE25D96E000E0301DF21E6
:103DDC00DA6E0800F5CFDFFF0301DE4BDF2BDCD7FB
:103DEC00010E556EC7EC59F0DBEC3DF04CEC5CF081
:103DFC00200E4B6001D0FCD765B2FAD7010E526E83
:103E0C00840E0101006F030E0101016FB50E01015B
:103E1C00026F230E0101036F69EC5CF0840E01014B
:103E2C00076F030E0101086F7BEC4FF0680E010168
:103E3C00896FE40EE82EFED7892FFCD700D08AECD0
:103E4C0053F00101B7510101B811D8B413D0B7C167
:103E5C00D9FFB8C1DAFF0101DFAE04D00101896BD3
:103E6C00892B02D00101896B010189510301D86FA3
:103E7C00D96B05D0000E0301D96F000ED86F03016A
:103E8C00D8510301D911D8B41ED0DBD7040101518C
:103E9C00D8A411D004010251D8A40DD0040E0401F1
:103EAC000319D8A408D0020E04010419D8A403D015
:103EBC0004010529D8A4FF0006C47BF007C47FF0D9
:103ECC000AD0FF0008D004010051530AD8B4DED741
:103EDC000B0AD8B4F6D7000E0101006F000E0101D9
:103EEC00016F040E0101026F400E0101036F010E00
:103EFC00A6EC4CF000C1B7F101C1B8F1000E13EC07
:103F0C003DF0000E0101C86F0101C8512FEC5CF0AF
:103F1C00840E0101006F030E0101016F040E0101FB
:103F2C00026F230E0101036F69EC5CF0840E01013A
:103F3C00076F030E0101086F7BEC4FF0680E010157
:103F4C00896FE40EE82EFED7892FFCD700D0010E26
:103F5C0001011D6F010E1E6F010E1F6F010E206FF0
:103F6C000E0E0101216F000E0101226FF70E0101EF
:103F7C00236F010E0101246FDBEC37F00101BE6FE2
:103F8C00840E01010C6F030E01010D6FE30E010194
:103F9C000E6F220E01010F6FBEC110F10101116BEA
:103FAC00F7C112F10101136BDEEC29F0840E010153
:103FBC00076F030E0101086F7BEC4FF0680E0101D7
:103FCC00896FE40EE82EFED7892FFCD700D00101B3
:103FDC00BE516DEC5DF00009D8A425D0840E010112
:103FEC000C6F030E01010D6F6C0E01010E6F220E92
:103FFC0001010F6FBEC110F10101116BDEEC29F054
:10400C00840E0101076F030E0101086F7BEC4FF06A
:10401C00680E0101896FE40EE82EFED7892FFCD7BC
:10402C0000D0F2EF00F0840E01010C6F030E0101C1
:10403C000D6F7D0E01010E6F230E01010F6FDEEC73
:10404C0029F0840E0101076F030E0101086F7BEC50
:10405C004FF0680E0101896FE40EE82EFED7892F10
:10406C00FCD700D0000E0101416F000E0101426F20
:10407C00000E436F000E446F000E456F000E4AECAD
:10408C0048F0030E05EC5DF0840E01010C6F030E7D
:10409C0001010D6F640E01010E6F230E01010F6FF4
:1040AC00F1C110F10101116BF0C112F10101136B9F
:1040BC00BEC114F10101156BDEEC29F0840E010177
:1040CC00076F030E0101086F7BEC4FF0680E0101C6
:1040DC00896FE40EE82EFED7892FFCD700D0840E12
:1040EC0001010C6F030E01010D6F450E01010E6FE6
:1040FC00230E01010F6FF3C110F10101116BF2C11D
:10410C0012F10101136BDEEC29F0840E0101076F33
:10411C00030E0101086F7BEC4FF0680E0101896FF3
:10412C00E40EE82EFED7892FFCD700D0840E0101B7
:10413C000C6F030E01010D6FA40E01010E6F230E07
:10414C0001010F6FDEEC29F0840E0101076F030EE5
:10415C000101086F7BEC4FF0680E0101896FE40ED2
:10416C00E82EFED7892FFCD700D015EC31F0000ECD
:10417C0005EC5DF0840E01010C6F030E01010D6F57
:10418C00250E01010E6F230E01010F6FDEEC29F0DD
:10419C00840E0101076F030E0101086F7BEC4FF0D9
:1041AC00680E0101896FE40EE82EFED7892FFCD72B
:1041BC0000D0020E526E020E556EC7EC59F0000E76
:1041CC000101B06F000E0101B16F000E0101B26F61
:1041DC007FEC5DF0AAEC5DF0E3EC11F0CCEC5DF063
:1041EC000009D8B4FDD193C1D9FF94C1DAFFDF50D7
:1041FC000301E16F010120EE01F09351D926945196
:10420C00DA22DF500301E26FD9D198C1DDF301014D
:10421C0020EE01F09551D9269651DA22DF50030198
:10422C00DC6FD5EC5DF00B0E0101C66F0101C651C0
:10423C00010DA60EF324D96E020EF420DA6E010ED7
:10424C00DF6E0101C62B0101C651010DA60EF32430
:10425C00D96E020EF420DA6EDCC3DFFF0101C62B2F
:10426C000101C651010DA60EF324D96E020EF420E5
:10427C00DA6EDDC3DFFF0101C62BE10E01017D6F9C
:10428C00030E01017E6F000E01017F6F010E010113
:10429C00806FE0EC2EF0E806D8A42BD0840E010140
:1042AC000C6F030E01010D6FBC0E01010E6F220E7F
:1042BC0001010F6FE2C310F10101116BE1C312F1A7
:1042CC000101136B0301DC515DEC51F000C114F1E1
:1042DC0001C115F1DDC316F10101176BDEEC29F0FC
:1042EC00840E0101076F030E0101086F7BEC4FF088
:1042FC0073D7840E01010C6F030E01010D6FD50EE7
:10430C0001010E6F210E01010F6FE2C310F10101CB
:10431C00116BE1C312F10101136B0301DC515DEC74
:10432C0051F000C114F101C115F1DDC316F1010109
:10433C00176BDEEC29F0840E0101076F030E0101EF
:10434C00086F7BEC4FF048D7D10E0101B96F020E0C
:10435C000101BA6FB9C1D9FFBAC1DAFF4D0EDF6ED8
:10436C000101B94BBA2BB9C1D9FFBAC1DAFFE1C30C
:10437C00DFFF0101B94BBA2BB9C1D9FFBAC1DAFFC2
:10438C00E2C3DFFF0101B94BBA2B97C1E0F3B9C10E
:10439C0000F1BAC101F195C102F196C103F1E0C37C
:1043AC0004F10101056B96EC59F00301E051010D8C
:1043BC00F3500101B927F4500101BA23D10E0101C8
:1043CC000A6F020E01010B6FD10E00080101B92515
:1043DC0001010C6F7FEC55F0D5EC5DF0FDD60B0EAA
:1043EC000101C66F97C1E0F30101C651010DA60E84
:1043FC00F3240101006F020EF4200101016F95C13D
:10440C0002F196C103F1E0C304F10101056B96ECD6
:10441C0059F00101C6510301E0250101C66FD5EC2D
:10442C005DF0E10E01017D6F030E01017E6F000E48
:10443C0001017F6F010E0101806FE0EC2EF0E806A8
:10444C00D8A423D0840E01010C6F030E01010D6F53
:10445C00400E01010E6F220E01010F6FE2C310F12D
:10446C000101116BE1C312F10101136BE0C314F1F3
:10447C000101156BDEEC29F0840E0101076F030EB0
:10448C000101086F7BEC4FF0A7D6840E01010C6F75
:10449C00030E01010D6F0C0E01010E6F220E0101B6
:1044AC000F6FE2C310F10101116BE1C312F10101B5
:1044BC00136BE0C314F10101156BDEEC29F0840ED3
:1044CC000101076F030E0101086F7BEC4FF084D6DE
:1044DC00D10E0101B96F020E0101BA6FB9C1D9FF3A
:1044EC00BAC1DAFF4D0EDF6E0101B94BBA2BB9C15F
:1044FC00D9FFBAC1DAFFE1C3DFFF0101B94BBA2B17
:10450C00B9C1D9FFBAC1DAFFE2C3DFFF0101B94B70
:10451C00BA2B97C1E0F3B9C100F1BAC101F195C151
:10452C0002F196C103F1E0C304F10101056B96ECB5
:10453C0059F00301E051010DF3500101B927F4507A
:10454C000101BA23D10E01010A6F020E01010B6F9A
:10455C00D10E00080101B92501010C6F7FEC55F05B
:10456C00D5EC5DF039D6840E01010C6F030E010100
:10457C000D6F950E01010E6F220E01010F6FE2C33C
:10458C0010F10101116BE1C312F10101136B95C123
:10459C00D9FF96C1DAFFDF500101896F0101895102
:1045AC000101146F156BDEEC29F0840E0101076F0D
:1045BC00030E0101086F7BEC4FF00ED695C1D9FFAD
:1045CC0096C1DAFFDF50010AD8B41FD6030AD8B45B
:1045DC00BBD6010AD8B403D7070AD8B479D7C3D746
:1045EC000101B7510101B811D8B413D0B7C1D9FF2B
:1045FC00B8C1DAFF0101DFAE04D00101896B892B50
:10460C0002D00101896B010189510301DA6FDB6B67
:10461C0005D0000E0301DB6F000EDA6F0301DA51D7
:10462C000301DB11D8B4C9D0E4D0FF00CED001C453
:10463C00E1F302C4E2F303C4E0F30301E15103012B
:10464C00D8A478D00301E251D8A474D0040E04018C
:10465C000419D8A4BAD0020E0301E065B6D0040147
:10466C000529D8A402D0010E01D0000E0301D76F8A
:10467C00060E0101B96F040E0101BA6F18D0B9C151
:10468C000AF1BAC10BF152EC4AF021EEDEF0090E40
:10469C00EBCFDBFFE806FCE20101E751010DF35023
:1046AC000101B927F4500101BA23BFEC4BF0FE0E07
:1046BC000101896FFF0E01018A6F0301E0510101B5
:1046CC008B6F8C6B0101895101018B2701018A5180
:1046DC0001018C23000E01018D6F040E01018E6F00
:1046EC00060E01018D27000E8E2301018D1F8E1FDA
:1046FC008D4B8E2B0101B95101018D270101BA514E
:10470C0001018E2301018B5101018D5D01018E513F
:10471C00800A01018F6F01018C51800A01018F59B0
:10472C00D8A0ADD70301D7510301D8B44ED042EC79
:10473C003CF04BD00B0E0101C66F0101C651010DAF
:10474C00A60EF3240101006F020EF4200101016F8B
:10475C00040E0101026F040E0101036FE0C304F1AA
:10476C000101056B96EC59F00101C6510301E025DE
:10477C000101C66F020E04010419D8A40FD0E10E7A
:10478C0001017D6F030E01017E6F000E01017F6F31
:10479C00000E0101806FE0EC2EF017D0E10E01014C
:1047AC007D6F030E01017E6F000E01017F6F010E04
:1047BC000101806FE0EC2EF008D004010051530A87
:1047CC00D8B435D70B0AD8B430D7000E0101006F1E
:1047DC00000E0101016F040E0101026F400E010178
:1047EC00036F010EA6EC4CF000C1B7F101C1B8F19A
:1047FC00F3D40101CB05D8A4EFD4D2EC38F0000EE1
:10480C000101CB6FE9D401014051070B0101466F47
:10481C00010146510101F319D8A442D0800E0101C7
:10482C003F6502D0000E1200000E0101AD6F0101B8
:10483C00AD8B010141B103D00101AD9702D0010153
:10484C00AD873FC1F4F140C1F5F187EC57F00101A0
:10485C00476F01014729D8B410D001014751090D08
:10486C00040EF326000EF422000EF3240101AE6FA9
:10487C00060EF4200101AF6F02D0000E1200ADC184
:10488C002FF1AEC130F1AFC131F1A60E0101326F83
:10489C00020E0101336FC6C134F1A4EC35F01200E5
:1048AC0046C142F1010E0101436F0101422B03D0BD
:1048BC000101D89043370101422FFAD7010143512E
:1048CC000101C7150009D8B48DD001014651010D65
:1048DC00690EF324D96E000EF420DA6E020EDF643A
:1048EC002DD001014651010D690EF324D96E000E35
:1048FC00F420DA6E000EDF6E46C142F1010E0101AA
:10490C00436F0101422B03D00101D89043370101C1
:10491C00422FFAD701014351FF0A0101C7170101C8
:10492C004651010D710EF324D96E000EF420DA6E8F
:10493C00000EDF6EB3EC43F0000E1200000E01010E
:10494C00AD6F0101AD8B010141B103D00101AD97F8
:10495C0002D00101AD87000E0101F46F46C1F5F1E3
:10496C0087EC57F00101476F01014729D8B43AD0C1
:10497C0001014751090D040EF326000EF422000E1E
:10498C00F3240101AE6F060EF4200101AF6FADC12F
:10499C002FF1AEC130F1AFC131F1A60E0101326F72
:1049AC00020E0101336FC6C134F1A4EC35F00009DD
:1049BC00D8A40BD001014651010D690EF324D96E18
:1049CC00000EF420DA6EDF2AB7D701014651010D33
:1049DC00690EF324D96E000EF420DA6E000EDF6E31
:1049EC00010E1200000E0101476F070E0101476511
:1049FC0001D0DFD001014751010D710EF324D96EA6
:104A0C00000EF420DA6EDF500101426F46C143F113
:104A1C00010E0101446F0101432B03D00101D89019
:104A2C0044370101432FFAD70101445101014215CA
:104A3C000009D8B4BBD001014751010D690EF32414
:104A4C00D96E000EF420DA6E020EDF645AD001012A
:104A5C004751010D690EF324D96E000EF420DA6E65
:104A6C00000EDF6E47C142F1010E0101436F0101DF
:104A7C00422B03D00101D89043370101422FFAD7C2
:104A8C0001014351FF0A0101C71701014751010DF3
:104A9C00710EF324D96E000EF420DA6E000EDF6E68
:104AAC000101CA51D8B403D0B3EC43F028D0000EA6
:104ABC000101C66F0101C651010DA60EF324D96E7A
:104ACC00020EF420DA6E070EDF6E0101C62B010117
:104ADC00C651010DA60EF324D96E020EF420DA6E27
:104AEC00F6C1DFFF0101C62B000E0101396F000E6C
:104AFC0001013A6F010E01013B6FCBEC57F0000E38
:104B0C001200000E0101AD6F0101AD8B010141B12D
:104B1C0003D00101AD9702D00101AD87000E010158
:104B2C00F46F47C1F5F187EC57F00101476F0101B4
:104B3C004729D8B43ED001014751090D040EF32684
:104B4C00000EF422000EF3240101AE6F060EF420C9
:104B5C000101AF6FADC12FF1AEC130F1AFC131F179
:104B6C00A60E0101326F020E0101336FC6C134F182
:104B7C00A4EC35F00009D8A40CD001014751010D6B
:104B8C00690EF324D96E000EF420DA6EDF2A000EC3
:104B9C00120001014751010D690EF324D96E000E6C
:104BAC00F420DA6E000EDF6E010E12000101472BAD
:104BBC001CD7020E0101CA19D8B415D1000E01017F
:104BCC00AD6F0101AD8B010141B103D00101AD9776
:104BDC0002D00101AD870101CA05D8A434D0000E62
:104BEC000101476F030E0101476501D0D1D00101CE
:104BFC004751010D040EF326000EF422000E0101A4
:104C0C00426F060E0101436FF35001014227F4502D
:104C1C00010143230101C951090DF3500101422542
:104C2C00D96EF45001014321DA6E01014751010D97
:104C3C00A60EF324E16E010EF420E26EDFCFE7FF47
:104C4C000101472BCFD7000E0101476F070E010161
:104C5C00476501D01FD00101C751D8B418D047C146
:104C6C0042F1010E0101436F000E0101446F01017D
:104C7C00422B04D0D8900101433744370101422F15
:104C8C00F9D70101435101014411D8A403D001010A
:104C9C00472BDCD7080E0101476105D047C1F5F160
:104CAC00000E010104D0000E0101F56F000EF46F2F
:104CBC0087EC57F00101456F400E0101456134D07E
:104CCC00000E0101476F030E0101476501D060D052
:104CDC0001014751010D040EF326000EF422000EC3
:104CEC000101426F060E0101436FF350010142278F
:104CFC00F4500101432301014551090DF350010109
:104D0C004225D96EF45001014321DA6E010147515D
:104D1C00010DA60EF324E16E010EF420E26EDFCF3E
:104D2C00E7FF0101472BCFD7000E0101476F030EA0
:104D3C000101476501D02CD001014751010D040E32
:104D4C00F326000EF422000E0101426F060E010143
:104D5C00436FF35001014227F45001014323010139
:104D6C00C951090DF35001014225D96EF4500101CE
:104D7C004321DA6E01014751010DA60EF324E16EB9
:104D8C00010EF420E26EDFCFE7FF0101472BCFD7F6
:104D9C000101C951090D040EF326000EF422000E78
:104DAC00F3240101AE6F060EF4200101AF6FADC10B
:104DBC002FF1AEC130F1AFC131F1A60E0101326F4E
:104DCC00020E0101336FC6C134F1A4EC35F00009B9
:104DDC00D8A404D00001692B000E1200000E0001B3
:104DEC00696F010E1200000E0101AD6F0101AD8B58
:104DFC00010141B103D00101AD9702D00101AD8792
:104E0C0046C1F5F1000E0101F46F0101C951090D04
:104E1C00040EF326000EF422000EF3240101AE6FF3
:104E2C00060EF4200101AF6FADC12FF1AEC130F110
:104E3C00AFC131F1A60E0101326F020E0101336FC9
:104E4C00C6C134F1A4EC35F00009D8A404D000019B
:104E5C00692B000E1200000E0001696F010E12008A
:104E6C00F0B0F0A680D2F090600E00019B19D8A48F
:104E7C0075D29CC0C4F18B9CDFEC5DF00001D56F4A
:104E8C008B8C000E0001D66F010E0001D66501D08F
:104E9C000FD00001D651420D000EF324D96E030E33
:104EAC00F420DA6E0301DFA003D00001D62BECD77F
:104EBC00020E0001D519D8A402D0010E01D0000EAB
:104ECC000001D26F400E0001D5610ED00001D5510A
:104EDC000001D8B409D0010E0001D66516D000012E
:104EEC00D2510001D8A411D01A0EB1EC5AF007D04F
:104EFC008B9CDFEC5DF08B8C1A0EB1EC5AF0000140
:104F0C00CD6F0001CDA32DD2F3D7000E0001D36FCE
:104F1C00D5C0CBF00001CC6B1AD20001CB07D8A0C6
:104F2C00CC070001D2510001D8B410D08B9C0001E9
:104F3C00D351010DCE0EF324D96E000EF420DA6E8F
:104F4C00DFEC5DF024D00001D32B23D08B9C00012F
:104F5C00D351010D010EF326000EF422000E0001B8
:104F6C00C56F030E0001C66FF3500001C527F45046
:104F7C000001C6230001D651420DF3500001C52596
:104F8C00D96EF4500001C621DA6EDFEC5DF0DF6EF5
:104F9C00DAD78B8C0001D5510001D35DD8A0D7D1C5
:104FAC000001D2510001D8B439D00001CE51030B0D
:104FBC00020AD8A40DD000019D510001CF19D8A42C
:104FCC0003D0010E00019F6F000E0001D36FC9D1F9
:104FDC00010E0001D66504D0000E0001D36F84D7FA
:104FEC000001D651420D010EF326000EF422000EE4
:104FFC00F324D96E030EF420DA6ECEC0DFFF00016D
:10500C00D651420D020EF326000EF422000EF324AC
:10501C00D96E030EF420DA6ECFC0DFFF0001D6513B
:10502C00420D410EF326000EF422000EF324D96E2D
:10503C00030EF420DA6ED5C0DFFF0001D469000145
:10504C00D651420D010EF326000EF422000EF3246D
:10505C00D96E030EF420DA6E0301DFAC58D0000ECB
:10506C000001D76F47D00001D751010DF35001015A
:10507C00AB25D96EF4500101AC21DA6E0001D6518A
:10508C00420D0001D7510001C66FC76B030E000122
:10509C00C627000EC723000E0001C86F030E0001C7
:1050AC00C96F0001C6510001C8270001C75100019A
:1050BC00C923F3500001C825E16EF4500001C92149
:1050CC00E26EDE50E618D8B413D0000E0001D36F98
:1050DC000001D651420D410EF326000EF422000EB3
:1050EC00F324D96E030EF420DA6E000EDF6EFCD6BC
:1050FC000001D72B0101AA31E832E8320F0B000175
:10510C00C56F0001C5510001D75DD8A0ACD7000117
:10511C00D651420D010EF326000EF422000EF3249C
:10512C00D96E030EF420DA6E0301DFAA58D0000EFC
:10513C000001D76F010E0001D76501D017D0000117
:10514C00D751010D660EF324D96E020EF420DA6EDF
:10515C000001D751010DCE0EF324E16E000EF420A8
:10516C00E26EDFCFE7FF0001D72BE4D7060E02017A
:10517C00666F0001D651420D020EF326000EF4228A
:10518C00000EF324D96E030EF420DA6EDF50020108
:10519C00676FF090000E0001AD6F020EBFEC39F09E
:1051AC00000E0001D76F010E0001D76501D017D09A
:1051BC000001D751010DCE0EF324D96E000EF42050
:1051CC00DA6E0001D751010D660EF324E16E020E6A
:1051DC00F420E26EDFCFE7FF0001D72BE4D7000EFF
:1051EC000001D76F040E0001D76501D05AD0000121
:1051FC00D751060D480EF324D96E020EF420DA6E48
:10520C00DF50D8B43AD00001D651420D020EF3262D
:10521C00000EF422000EF324D96E030EF420DA6E85
:10522C000001D751060D010EF326000EF422480E94
:10523C00F324E16E020EF420E26EDE50E618D8A4E0
:10524C001CD0BAEC58F00001D751060D020EF32613
:10525C00000EF422480EF324D96E020EF420DA6EFE
:10526C000001A3C0DEFF0001A4C0DEFF0001A5C049
:10527C00DEFF0001A6C0DEFF14D00001D429D8A4A3
:10528C000DD00001D751060D480EF324D96E020E35
:10529C00F420DA6EDF50D8B4D7C0D4F00001D72B8D
:1052AC00A1D7040E0001D7655CD0050E0001D461B6
:1052BC0042D00001D451060D480EF324D96E020ED3
:1052CC00F420DA6E010EDF6E0001D651420D020E93
:1052DC00F326000EF422000EF324D96E030EF420F4
:1052EC00DA6E0001D451060D010EF326000EF422E5
:1052FC00480EF324E16E020EF420E26EDFCFE7FFDE
:10530C00BAEC58F00001D451060D020EF326000E33
:10531C00F422480EF324D96E020EF420DA6E00014A
:10532C00A3C0DEFF0001A4C0DEFF0001A5C0DEFFAC
:10533C000001A6C0DEFF0001D651420D000EF32481
:10534C00D96E030EF420DA6E0301DF800AD000015F
:10535C00CB510001CC11D8B404D0DFD5010E000123
:10536C00996FF09000F0F2B2F2A814D0030E556EC3
:10537C0027EC5AF0F292600E00019B19D8A40AD0C7
:10538C00280EB1EC5AF00001C56F0001D890C53160
:10539C0000019C6F9EA012009DA012009E90000127
:1053AC00A12B0001A151D8A412000001A22B1200C4
:1053BC00100E0101206F010E0101216F88D2250E04
:1053CC0001012919D8B40AD00CC1D9FF0DC1DAFFDB
:1053DC0029C1DFFF01010C4B0D2B79D2000E01010D
:1053EC00286F000E276F000E0101266F05D00101FA
:1053FC00268501010E4B0F2B0EC1F6FF0FC1F7FFD7
:10540C00000EF86E0800F550300AD8B4F0D70EC173
:10541C00F6FF0FC1F7FF000EF86E0800F55031ECE7
:10542C005DF0D8A0CED0000E0101286F000E276FC2
:10543C0027C100F128C101F1000E0101036F0A0E12
:10544C00026F85EC5CF000C127F101C128F1D00E90
:10545C000101186FFF0E0101196F0EC1F6FF0FC18C
:10546C00F7FF000EF86E0800F55001011A6F1B6B68
:10547C000101185101011A270101195101011B23C6
:10548C0001011A510101272701011B510101282398
:10549C0001010E4B0F2B0EC1F6FF0FC1F7FF000ED3
:1054AC00F86E0800F55031EC5DF0D8A08AD0C0D76A
:1054BC000101268FA4D020C1D9FF21C1DAFFDECF94
:1054CC001EF1DDCF1FF1020E01012027000E21235A
:1054DC0001011E5101011F11D8A406D0BD0E0101FE
:1054EC001E6F230E01011F6F000E0101236F000EB2
:1054FC00226F03D00101224B232B01012251010108
:10550C001E250101186F0101235101011F21010109
:10551C00196F18C1F6FF19C1F7FF000EF86E0800DD
:10552C00F5500009D8A4E6D7010127510101225DED
:10553C000101285101012359D8B009D00101225190
:10554C000101275F010123510101285B0FD0000EDF
:10555C000101286F000E276F09D00CC1D9FF0DC1B6
:10556C00DAFF200EDF6E01010C4B0D2B010127071A
:10557C00D8A0280701012729F0E101012829D8B476
:10558C0014D0EBD71EC1F6FF1FC1F7FF000EF86E4B
:10559C000CC1D9FF0DC1DAFF0800F5CFDFFF010107
:1055AC001E4B1F2B01010C4B0D2B01012207D8A008
:1055BC00230701012229E6E101012329D8B487D16F
:1055CC00E1D70EC1F6FF0FC1F7FF01010E4B0F2BF8
:1055DC00000EF86E0800F5CF29F101012951000ADF
:1055EC00D8B485D1640AD8B40AD00D0AD8B407D07F
:1055FC001A0AD8B460D70B0AD8B45AD768D10101AB
:10560C0026BF19D020C1D9FF21C1DAFFDECF24F18A
:10561C00DDCF25F1020E01012027000E212301010F
:10562C0025AF59D0030E010126130101246D251F4E
:10563C00D8B0252B50D020C1D9FF21C1DAFFDECF45
:10564C0024F1DDCF25F1020E01012027000E2123CC
:10565C0042D0010E0101296F050E01012919D8B4A0
:10566C0043D001012951020DB10EF324F66E200E28
:10567C00F420F76EF86A000EF8220900F5500101CB
:10568C00245D0900F55001012559D8A02DD0010148
:10569C00292BE2D7010E0101296F040E01012919F2
:1056AC00D8B422D001012951020DBB0EF324F66EA1
:1056BC00200EF420F76EF86A000EF8220900F5505F
:1056CC000101245D0900F55001012559D8A00CD029
:1056DC000101292BE2D701012651800B000AD8B415
:1056EC00B8D7800AD8B4D6D70101275101012811A7
:1056FC00D8B40BD026C118F1030E01011817D8B479
:10570C0004D001012707D8A02807800E010129BF6A
:10571C007F0E0101186F010127510101295D010163
:10572C002851800A01011859D8B00BD00101295118
:10573C000101275F000E010129BFFF0E0101285B4B
:10574C0005D0000E0101286F000E276F010126A560
:10575C0024D026C118F1030E01011817D8B409D0B2
:10576C000CC1D9FF0DC1DAFF2D0EDF6E01010C4B00
:10577C000D2B0101275101012811D8B437D00CC1D0
:10578C00D9FF0DC1DAFF300EDF6E01010C4B0D2B72
:10579C0001012707D8A02807ECD7010127510101E7
:1057AC002811D8B413D00CC1D9FF0DC1DAFF200ECB
:1057BC00DF6E01010C4B0D2B01012707D8A0280728
:1057CC000101275101012811D8A4EDD726C118F1E8
:1057DC00030E01011817D8B409D00CC1D9FF0DC1A3
:1057EC00DAFF2D0EDF6E01010C4B0D2B29C11DF1C3
:1057FC0068D001011D51020DB10EF324F66E200E7E
:10580C00F420F76EF86A000EF8220900F5CF02F1C9
:10581C000A00F5CF03F124C100F125C101F109EC17
:10582C0058F000C107F101C108F1000E01010A6F27
:10583C000A0E096F65EC59F001010751300F010197
:10584C00296F36D024C100F125C101F101011D5190
:10585C00020DBB0EF324F66E200EF420F76EF86AE0
:10586C00000EF8220900F5CF02F10A00F5CF03F182
:10587C0009EC58F0010100510F0B01011C6F0101E3
:10588C001C51010D930EF324F66E230EF420F76ECB
:10589C00F86A000EF8220800F5CF29F109D00101B1
:1058AC002651800B000AD8B4A4D7800AD8B4CAD722
:1058BC000CC1D9FF0DC1DAFF29C1DFFF01010C4B6F
:1058CC000D2B01011D0701011D29D8A4E8D70EC11C
:1058DC00F6FF0FC1F7FF01010E4B0F2B000EF86EF8
:1058EC000800F5CF29F101012951D8A468D50CC1C4
:1058FC00D9FF0DC1DAFF000EDF6E1200000E0101A0
:10590C00466F040E0101466501D084D080EC58F03E
:10591C0000C13BF101C13CF102C13DF103C13EF1BB
:10592C0001014651060D480EF324D96E020EF420E7
:10593C00DA6EDF50D8B46BD001014651060D020E61
:10594C00F326000EF422480EF324D96E020EF42036
:10595C00DA6E01013B51DE5C01013C51DE58010164
:10596C003D51DE5801013E51DE58D8B050D00101F6
:10597C004651060D020EF326000EF422480EF324B7
:10598C00D96E020EF420DA6EDECF33F1DECF34F1B5
:10599C00DECF35F1DECF36F10101331F341F351F59
:1059AC00361F332B000E34233523362301013B5194
:1059BC00010133250101376F01013C5101013421F3
:1059CC000101386F01013D51010135210101396F90
:1059DC0001013E510101362101013A6F01013A5199
:1059EC000BE1210E0101375DA10E01013859070EA3
:1059FC0001013959D8A00BD001014651060D480EB2
:105A0C00F324D96E020EF420DA6E000EDF6E010163
:105A1C00462B77D70101C529D8B402D0000E12004D
:105A2C00000E0101466F010E0101466501D0C0D187
:105A3C0001014651420D000EF324D96E030EF420E1
:105A4C00DA6E0301DFA0B1D101014651420D010E06
:105A5C00F326000EF422000EF324D96E030EF4206C
:105A6C00DA6EDF5001019A6F01014651420D410E71
:105A7C00F326000EF422000EF324D96E030EF4204C
:105A8C00DA6EDF5001019F6F020E0101456F0101BB
:105A9C009AAD07D00101AA31E832E8320F0B0101AF
:105AAC00452701019AAF28D001014551010D010E86
:105ABC00F326000EF422000E0101336F030E0101D8
:105ACC00346FF35001013327F450010134230101E9
:105ADC004651420DF3500101332501019B6FF450E7
:105AEC000101342101019C6F0101AA31E832E83235
:105AFC000F0B0101452706D0000E01019B6F000E14
:105B0C0001019C6F01019AA726D101014651420D5A
:105B1C00010145510101336F346B050E010133272F
:105B2C00000E3423000E0101356F030E0101366F98
:105B3C000101335101013527010134510101362393
:105B4C00F35001013525D96EF45001013621DA6E7E
:105B5C00DF50D8B40DD001014651420D000EF32494
:105B6C00D96E030EF420DA6E000EDF6E000E1200FA
:105B7C0001019AAFA9D0000E0101446F3F0E010143
:105B8C00446501D02AD001014451090D080EF326B9
:105B9C00000EF422000EF324D96E060EF420DA6EF9
:105BAC00DFAE18D001014451090D040EF326000E8E
:105BBC00F422000EF3240101006F060EF420010103
:105BCC00016F9BC102F19CC103F1DDEC5AF000099D
:105BDC00D8A403D00101442BD1D7400E010144615C
:105BEC0073D0000E0101436F030E0101436501D018
:105BFC0036D001014651420D0101435145C133F1EB
:105C0C000101346B01013327000E3423010E010115
:105C1C003327000E3423000E0101356F030E0101F2
:105C2C00366F010133510101352701013451010156
:105C3C003623F35001013525D96EF450010136217C
:105C4C00DA6E01014351010D3F0EF324E16E010E9A
:105C5C00F420E26EDFCFE7FF0101432BC5D7010132
:105C6C004451040D000EF324D96E050EF420DA6EA7
:105C7C00DE5001013F5DDE5001014059DE50010153
:105C8C004159DE5001014259D8B00DD001014651A5
:105C9C00420D000EF324D96E030EF420DA6E000EC2
:105CAC00DF6E000E120001014451040D000EF324AE
:105CBC00D96E050EF420DA6E3FC1DEFF40C1DEFF67
:105CCC0041C1DEFF42C1DEFF050E01014527010186
:105CDC004651420D010EF326000EF422000EF32461
:105CEC000101246F030EF4200101256F45C126F13B
:105CFC0001014651420D410EF326000EF422000E16
:105D0C00F324D96E030EF420DA6EDF500101336FE9
:105D1C00010145510008010133250101276FF10EE6
:105D2C000101286F020E0101296F3AEC3FF00009C6
:105D3C00D8A40DD001014651420D000EF324D96EAA
:105D4C00030EF420DA6E000EDF6E000E120001015D
:105D5C004551020F02D00101455101019F5F010124
:105D6C004551010D010EF326000EF422000E010127
:105D7C00336F030E0101346FF35001013327F450DC
:105D8C000101342301014651420DF3500101332529
:105D9C0001019D6FF4500101342101019E6FC4C1BA
:105DAC00A0F146C1C5F1010E12000101462B3BD6F4
:105DBC00000E12000101C151D8B40CD00201B15136
:105DCC00D8B408D00101B587C3C1F8F1060E0301A0
:105DDC00D46F05D0020E0301D46F0101B5970101F8
:105DEC007F510101D8B460D1000E0301D56F030EB1
:105DFC000301D56501D019D00301D551010DF35024
:105E0C0001017D25D96EF45001017E21DA6E03016A
:105E1C00D551010DA60EF324E16E010EF420E26EB5
:105E2C00DFCFE7FF0301D52BE2D7B4EC4EF0030133
:105E3C00D66F0301D629D8A43DD0F9C1A6F2020E23
:105E4C000201A76F0201A8690201A9690201AA69EE
:105E5C000201AB69F0C1ACF2F1C1ADF2F2C1AEF22C
:105E6C00F3C1AFF2C3C1B0F20101C32B000E0101AB
:105E7C00AD6F0101AD8B010180B103D00101AD9774
:105E8C0002D00101AD877DC1AEF17EC1AFF1010140
:105E9C00B597ADC12FF1AEC130F1AFC131F1A60E46
:105EAC000101326F020E0101336FC6C134F1A4EC53
:105EBC0035F012000301D651090D080EF326000E21
:105ECC00F422000EF324D96E060EF420DA6EDFA64F
:105EDC00B4D70101C151D8B411D00301D651090D69
:105EEC00020EF326000EF422000EF324D96E060ED9
:105EFC00F420DA6EDECFB3F1DDCFB4F1040E020183
:105F0C00A66FD4C3A7F20301D651090D000EF324DA
:105F1C00D96E060EF420DA6EDF500201A86F030171
:105F2C00D651090D010EF326000EF422000EF324B7
:105F3C00D96E060EF420DA6EDF500201A96F030150
:105F4C00D651090D020EF326000EF422000EF32496
:105F5C00D96E060EF420DA6EDF500201AA6F03012F
:105F6C00D651090D030EF326000EF422000EF32475
:105F7C00D96E060EF420DA6EDF500201AB6FF0C161
:105F8C00ACF2F1C1ADF2F2C1AEF2F3C1AFF2C3C1EA
:105F9C00B0F20101C32B0301D651090D000EF324FD
:105FAC00D96E060EF420DA6EDECF3DF1DDCF3EF178
:105FBC000301D651090D020EF326000EF422000E39
:105FCC00F324D96E060EF420DA6EDECF3FF1DDCF6E
:105FDC0040F180C141F109EC24F00009D8A404D0AF
:105FEC000101B597000E12000101B5A75BD080EC42
:105FFC0058F000C1C4F301C1C5F302C1C6F303C11B
:10600C00C7F3CCEC5DF00009D8A4D5EC5DF0010130
:10601C00B5B702D0010E120080EC58F000C1C8F3E5
:10602C0001C1C9F302C1CAF303C1CBF3C4C381F1EB
:10603C00C5C382F1C6C383F1C7C384F10101811FBB
:10604C00821F831F841F812B000E822383238423B2
:10605C000301C851010181250101856F0301C9515B
:10606C00010182210101866F0301CA5101018321C3
:10607C000101876F0301CB51010184210101886F5C
:10608C00010188510BE1210E0101855DA10E010179
:10609C008659070E01018759D8A0B3D70101B597CE
:1060AC00000E1200010E1200040E0201A66FD4C3E2
:1060BC00A7F2F0C1A8F2F1C1A9F27DC1D9FF7EC14E
:1060CC00DAFFDF500201AA6F010120EE01F07D51D1
:1060DC00D9267E51DA22DF500201AB6FF0C1ACF24F
:1060EC00F1C1ADF2F2C1AEF2F3C1AFF2C3C1B0F285
:1060FC000101C32B7DC1D9FF7EC1DAFFDF50010145
:10610C00B36F010120EE01F07D51D9267E51DA22C8
:10611C00DF500101B46F7DC1D9FF7EC1DAFFDF50C2
:10612C000101F46F010120EE01F07D51D9267E5161
:10613C00DA22DF500101F56FF0C13DF1F1C13EF102
:10614C00F4C13FF1F5C140F180C141F109EC24F0FB
:10615C000009D8A404D00101B597000E120001016A
:10616C00B5A75BD080EC58F000C1CCF301C1CDF3E6
:10617C0002C1CEF303C1CFF3CCEC5DF00009D8A47F
:10618C00D5EC5DF00101B5B702D0010E120080EC28
:10619C0058F000C1D0F301C1D1F302C1D2F303C155
:1061AC00D3F3CCC381F1CDC382F1CEC383F1CFC382
:1061BC0084F10101811F821F831F841F812B000E1C
:1061CC008223832384230301D05101018125010102
:1061DC00856F0301D151010182210101866F0301F9
:1061EC00D251010183210101876F0301D3510101B8
:1061FC0084210101886F010188510BE1210E0101FD
:10620C00855DA10E01018659070E01018759D8A0A1
:10621C00B3D70101B597000E1200010E1200D10E7A
:10622C000101B96F020E0101BA6FB9C1D9FFBAC130
:10623C00DAFF4D0EDF6E0101B94BBA2BB9C1D9FF94
:10624C00BAC1DAFF000EDF6E0101B94BBA2BB9C12E
:10625C00D9FFBAC1DAFF000EDF6E0101B94BBA2BC0
:10626C00B9C1D9FFBAC1DAFF040EDF6E0101B94B17
:10627C00BA2BB9C1D9FFBAC1DAFFF00EDF6E01013A
:10628C00B94BBA2BDE0E0101006F010E0101016F3B
:10629C00C10E0101026F210E0101036F000E0101FD
:1062AC00056F030E046F96EC59F0080E0101E46FB4
:1062BC00E20E0101006F010E0101016FE30E0101FD
:1062CC00026F010E0101036F0101C85183EC45F00F
:1062DC00010E0101E56FB9C100F1BAC101F121EE66
:1062EC00DEF001EE02F0090EDBCFEBFFE806FCE27C
:1062FC0000EC51F00101476F01014751010DF350C2
:10630C000101B927F4500101BA23DE0E0101006F1F
:10631C00010E0101016FB90E0101026F210E010185
:10632C00036F000E0101056F030E046F96EC59F01C
:10633C00000E0101E46FBEC1E2F1000E0101E56F38
:10634C00B9C100F1BAC101F121EEDEF001EE02F0AB
:10635C00090EDBCFEBFFE806FCE28EEC54F00101FA
:10636C00476F01014751010DF3500101B927F4505A
:10637C000101BA23DE0E0101006F010E0101016F54
:10638C00BD0E0101026F210E0101036F000E010110
:10639C00056F030E046F96EC59F0000E0101E46FCB
:1063AC00F7C1E2F1000E0101E56FB9C100F1BAC10C
:1063BC0001F121EEDEF001EE02F0090EDBCFEBFF76
:1063CC00E806FCE28EEC54F00101476F01014751E5
:1063DC00010DF3500101B927F4500101BA23D10E7C
:1063EC0001010A6F020E01010B6FD10E00080101B1
:1063FC00B92501010C6F7FEC55F0680E0101476F58
:10640C00E40EE82EFED7472FFCD700D0D10E0101A9
:10641C00B96F020E0101BA6FB9C1D9FFBAC1DAFF67
:10642C004D0EDF6E0101B94BBA2BB9C1D9FFBAC100
:10643C00DAFF000EDF6E0101B94BBA2BB9C1D9FFDF
:10644C00BAC1DAFF000EDF6E0101B94BBA2BB9C12C
:10645C00D9FFBAC1DAFF040EDF6E0101B94BBA2BBA
:10646C00B9C1D9FFBAC1DAFFFF0EDF6E0101B94B1A
:10647C00BA2BDE0E0101006F010E0101016FCD0E72
:10648C000101026F210E0101036F000E0101056F66
:10649C00030E046F96EC59F0070E0101E46FB0C1C6
:1064AC002DF1B1C12EF1B2C12FF155EC49F02DC136
:1064BC0048F12EC149F12FC14AF148C114F149C12B
:1064CC0015F14AC116F12FEC41F0010114510101F3
:1064DC00E26FB0C12DF1B1C12EF1B2C12FF155EC6B
:1064EC0049F02DC135F12EC136F12FC137F1D5EC64
:1064FC005CF035C14BF136C14CF137C14DF1000E9A
:10650C0001013B6FC80E01013C6F420E01013D6F52
:10651C00B0C10BF1B1C10CF1B2C10DF14BC108F11D
:10652C004CC109F14DC10AF170EC34F008C138F1DD
:10653C0009C139F10AC13AF18BEC3EF038C14EF188
:10654C0039C14FF13AC150F14EC12DF14FC12EF16D
:10655C0050C12FF155EC49F02DC151F12EC152F122
:10656C002FC153F151C114F152C115F153C116F1A0
:10657C002FEC41F0010114510101E36F000E0101F8
:10658C00E56FB9C100F1BAC101F121EEDEF001EE07
:10659C0002F0090EDBCFEBFFE806FCE200EC51F059
:1065AC000101476F01014751010DF3500101B9275A
:1065BC00F4500101BA23DE0E0101006F010E01013E
:1065CC00016FC90E0101026F210E0101036F000E54
:1065DC000101056F030E046F96EC59F0040E0101D6
:1065EC00E46FFAC1E2F1010E0101E56FB9C100F1EE
:1065FC00BAC101F121EEDEF001EE02F0090EDBCFA3
:10660C00EBFFE806FCE28EEC54F00101476F010150
:10661C004751010DF3500101B927F4500101BA2380
:10662C00D10E01010A6F020E01010B6FD10E000891
:10663C000101B92501010C6F7FEC55F0680E0101C9
:10664C00476FE40EE82EFED7472FFCD700D0120080
:10665C000D012205D8A411D00D0120511F0B0009EA
:10666C00D8A40BD00001848F030E0D012119D8A4DE
:10667C0002D0010E01D0000E466E0D012251D8A49D
:10668C0012000D0120511F0B020AD8A412000D019B
:10669C0024510F0B0009D8B412000D0124510F0B1B
:1066AC00156E020E15601200200E4B18D8A41200A5
:1066BC000001848F0D0124BF1BD00D0124510F0B41
:1066CC00156E1550020D8F0EF324D96E000EF420AA
:1066DC00DA6EDECF19F0DDCF1AF00D0124510F0B5D
:1066EC00156E1550010D970EF324D96E000E1AD0AD
:1066FC000D0124510F0B156E1550020D8B0EF3244A
:10670C00D96E000EF420DA6EDECF19F0DDCF1AF060
:10671C000D0124510F0B156E1550010D950EF32420
:10672C00D96E000EF420DA6EDF50186E18B002D05D
:10673C00199401D019840D0124BF0BD00D012451E3
:10674C000F0B156E1550020D8F0EF324D96E000E23
:10675C000AD00D0124510F0B156E1550020D8B0E26
:10676C00F324D96E000EF420DA6E19C0DEFF1AC0C5
:10677C00DDFF030E0D012119D8A42FD019C0D9FFAC
:10678C001AC0DAFFDFAE1CD00D0124BF0BD00D01F7
:10679C0024510F0B156E1550010D970EF324D96E65
:1067AC00000E0AD00D0124510F0B156E1550010D62
:1067BC00950EF324D96E000EF420DA6E0001DF8200
:1067CC0019C0D9FF1AC0DAFF000EDB8419C0D9FF3B
:1067DC001AC0DAFF000EDB8E1200040E191A19C053
:1067EC00D9FF1AC0DAFFDFAE1BD019C0D9FF1AC00F
:1067FC00DAFF7F0EDF1619C0D9FF1AC0DAFF000EC0
:10680C00DB8C000E0E6E050E0D6E19C00FF01AC04B
:10681C0010F0000E126E020E116EF4EC58F006D051
:10682C0019C0D9FF1AC0DAFF000EDB8C040E191A3E
:10683C0018B206D019C0D9FF1AC0DAFFDFAE31D0BA
:10684C000D0124BF0BD00D0124510F0B156E1550EB
:10685C00010D970EF324D96E000E0AD00D012451B0
:10686C000F0B156E1550010D950EF324D96E000EFD
:10687C00F420DA6E0001DF9219C0D9FF1AC0DAFFDA
:10688C003B0EDF16000E0E6E050E0D6E19C00FF0CE
:10689C001AC010F0000E126E020E116EF4EC58F0CD
:1068AC0006D019C0D9FF1AC0DAFF3B0EDF160D0156
:1068BC0024510F0B156E1550010D260EF324166E78
:1068CC000F0EF420176E16C0D9FF17C0DAFFFE0E9C
:1068DC00DF1612000AC10EF101010F6B106B0101E2
:1068EC00093501010E3701E30F8101010E51010140
:1068FC00136F0DC10EF101010F6B106B01010C3503
:10690C0001010E3701E30F8101010E510101126FDC
:10691C00010113510101D8B411D00101125101012F
:10692C00135DD8B012D001011351000801011225DA
:10693C0001010E6F180E01010E6507D00BC108F195
:10694C000CC109F10DC10AF1120001011251010132
:10695C00D8B411D0010113510101125DD8B012D07D
:10696C000101125100080101132501010E6F180ECF
:10697C0001010E6507D008C108F109C109F10AC16E
:10698C000AF11200060E0101116F01010AAF02D0CB
:10699C000101118F01010DAF02D00101118D010117
:1069AC00098FFF0E01010817FF0E01010917000ED8
:1069BC0001010A1701010C8FFF0E01010B17FF0ECD
:1069CC0001010C17000E01010D17010112510101FB
:1069DC00135DD8B025D00101D8900B370C370D378B
:1069EC00010112070101135101011219D8B411D080
:1069FC000101110711C10EF1070E01010E17D8B4D8
:106A0C0008D0E9D70101D8900A33093308330101C2
:106A1C00132B0101125101011319D8B42BD0F2D749
:106A2C00010113510101125DD8B024D00101D8909D
:106A3C00083709370A370101130701011351010106
:106A4C001219D8B411D00101110711C10EF1070EA2
:106A5C0001010E17D8B408D0E9D70101D8900D3335
:106A6C000C330B330101122B0101125101011319CB
:106A7C00D8A4F3D7010111AF12D0FF0E0101081BEE
:106A8C00FF0E0101091BFF0E01010A1B010E010182
:106A9C000827000E01010923000E01010A23010140
:106AAC0011AD12D0FF0E01010B1BFF0E01010C1BCF
:106ABC00FF0E01010D1B010E01010B27000E010140
:106ACC000C23000E01010D23000E0101116F0101B9
:106ADC00085101010B270101095101010C2301018E
:106AEC000A5101010D2301010DAF15D0FF0E01015B
:106AFC000B1BFF0E01010C1BFF0E01010D1B010EE8
:106B0C0001010B27000E01010C23000E01010D23C6
:106B1C00010E0101116F0BC100F10CC101F10DC18E
:106B2C0002F113C103F111C104F1C4EC47F000C12F
:106B3C0008F101C109F102C10AF11200200E010194
:106B4C00346502D0000E120001012FB504D00101F2
:106B5C00356B352B02D00101356B0101353B3547C7
:106B6C00354701012F5101013519BF0B35190101B1
:106B7C002F6F01012F51030BE806D8A402D001019D
:106B8C002F8F2FC166F2C0C167F20101C02B020E1C
:106B9C000101376F01012FAD2BD0000E0101386FB1
:106BAC001AD001013851010DF35001013025D96E75
:106BBC00F45001013121DA6E01013751010D660EDD
:106BCC00F324E16E020EF420E26EDFCFE7FF010149
:106BDC00372B0101382B0101AA31E832E8320F0BB7
:106BEC000101356F010135510101385DD8A0D9D7AC
:106BFC0001012FAF2BD0000E0101386F1AD001010B
:106C0C003851010DF3500101AB25D96EF45001013F
:106C1C00AC21DA6E01013751010D660EF324E16EE1
:106C2C00020EF420E26EDFCFE7FF0101372B0101EA
:106C3C00382B0101AA31E832E8320F0B0101356F14
:106C4C00010135510101385DD8A0D9D701012FA719
:106C5C0071D0000E0101386F030E0101386501D0AF
:106C6C0019D001013851010DA20EF324D96E010E79
:106C7C00F420DA6E01013751010D660EF324E16E3A
:106C8C00020EF420E26EDFCFE7FF0101372B01018A
:106C9C00382BE2D7010E0101A227000EA323A42357
:106CAC00A52301013751010D660EF324D96E020E96
:106CBC00F420DA6E000EDF6E0101372B37C136F18E
:106CCC00000E0101386F1AD001013851010DF3503B
:106CDC0001013225D96EF45001013321DA6E010124
:106CEC003751010D660EF324E16E020EF420E26EB4
:106CFC00DFCFE7FF0101372B0101382B01013451A4
:106D0C000101385DD8A0E0D7660E0101246F020E98
:106D1C000101256F36C126F134C127F1F10E0101B5
:106D2C00286F020E0101296F51EC44F0020E010193
:106D3C00372724D0000E0101386F1AD001013851C9
:106D4C00010DF35001013225D96EF45001013321AC
:106D5C00DA6E01013751010D660EF324E16E020E5D
:106D6C00F420E26EDFCFE7FF0101372B0101382B56
:106D7C00010134510101385DD8A0E0D7000EAAB34F
:106D8C00010E01010A6F010137516DEC3BF012004D
:106D9C0000C1D9FF01C1DAFFDECF11F1DDCF12F155
:106DAC00010120EE02F00051D9260151DA22DECF8A
:106DBC0013F1DDCF14F1000E0101166F000E156FEB
:106DCC009E0E01010F6F370E0E6F000E0101106F3A
:106DDC001F0E0101106501D0D4D0030E0101151551
:106DEC000101046F000E010116150101056FD89009
:106DFC000101043705370101045101010225D96E47
:106E0C000101055101010321DA6EDECF06F1DDCF60
:106E1C0007F101011551010106270101165101016C
:106E2C00072313C108F114C109F1050E01010A6F02
:106E3C000101D8900933083301010A2FF9D713C186
:106E4C000BF114C10CF101010B3B0C3BF00E0C17B8
:106E5C000B510F0B0C13F00E0B1701010851010114
:106E6C000B1B0101095101010C1B01011351010103
:106E7C000B270101145101010C23010106510101E1
:106E8C000B1B0101075101010C1B01010B510101ED
:106E9C00112701010C510101122301010E510101B5
:106EAC00152701010F510101162315C104F116C15B
:106EBC0005F10B0E0101066F0101D8900533043367
:106ECC000101062FF9D7030E01010417000E051757
:106EDC00D890010104370537010104510101022545
:106EEC00D96E0101055101010321DA6EDECF07F1E4
:106EFC00DDCF08F1010115510101072701011651E0
:106F0C000101082311C109F112C10AF1050E010199
:106F1C000B6F0101D8900A33093301010B2FF9D7FC
:106F2C0011C10CF112C10DF101010C3B0D3BF00E26
:106F3C000D170C510F0B0D13F00E0C17010109510D
:106F4C0001010C1B01010A5101010D1B0101115121
:106F5C0001010C270101125101010D2301010751FF
:106F6C0001010C1B0101085101010D1B01010C5108
:106F7C000101132701010D51010114230101102BF3
:106F8C0027D700C1D9FF01C1DAFF11C1DEFF12C141
:106F9C00DDFF010120EE02F00051D9260151DA2269
:106FAC0013C1DEFF14C1DDFF120001013E69010EA9
:106FBC0001012E6F000E2F6F000E306F000E316F1F
:106FCC00010122510101D8B402D0FF0E1200000EB3
:106FDC0001013F6FDAD03FC125F12EC126F12FC13F
:106FEC0027F130C128F131C129F10101252B06D03F
:106FFC00D890010126372737283729370101252F4B
:10700C00F7D701011D510101261501012A6F01015C
:10701C001E510101271501012B6F01011F510101A7
:10702C00281501012C6F01012051010129150101C5
:10703C002D6F01012A5101012B1101012C110101AC
:10704C002D11D8B4A0D0000E0101406F01013F51A9
:10705C006DEC5DF080EC58F000C136F101C137F1F8
:10706C0002C138F103C139F1010EEBEC44F001011E
:10707C003D6F01013D510101405DD8A03DC140F182
:10708C0080EC58F000C132F101C133F102C134F18E
:10709C0003C135F136C125F137C126F138C127F1CD
:1070AC0039C128F10101251F261F271F281F252B59
:1070BC00000E262327232823010132510101252507
:1070CC000101296F010133510101262101012A6FB0
:1070DC00010134510101272101012B6F01013551AF
:1070EC000101282101012C6F01012151040D350EE4
:1070FC00F324F66E200EF420F76EF86A000EF822D8
:10710C00010129510900F55C01012A510900F558CA
:10711C0001012B510900F55801012C510900F558BA
:10712C00D8B0A2D740C106F10101076B000E0101D6
:10713C00096F050E086FA1EC50F001010651010119
:10714C003B6F000E01013C6F02D001013C2B010191
:10715C003B5101013C5DD8A0F8D701013E51010122
:10716C00405DD8B010D040C13EF13FC13AF10101B1
:10717C00235101012411D8B406D023C1D9FF24C155
:10718C00DAFF3EC1DFFF01013F2B1F0E01013F65FE
:10719C0022D701013A511200D10E0101B96F020E32
:1071AC000101BA6FB9C1D9FFBAC1DAFF4D0EDF6E5A
:1071BC000101B94BBA2BB9C1D9FFBAC1DAFF000E24
:1071CC00DF6E0101B94BBA2BB9C1D9FFBAC1DAFFD5
:1071DC00000EDF6E0101B94BBA2BB9C1D9FFBAC190
:1071EC00DAFF040EDF6E0101B94BBA2BB9C1D9FF1E
:1071FC00BAC1DAFFFF0EDF6E0101B94BBA2BDE0EFE
:10720C000101006F010E0101016FCD0E0101026F32
:10721C00210E0101036F000E0101056F030E046FB7
:10722C0096EC59F0070E0101E46FB0C12DF1B1C11C
:10723C002EF1B2C12FF155EC49F02DC148F12EC100
:10724C0049F12FC14AF148C114F149C115F14AC1A4
:10725C0016F12FEC41F0010114510101E26FB0C1A4
:10726C002DF1B1C12EF1B2C12FF155EC49F02DC168
:10727C0035F12EC136F12FC137F1D5EC5CF035C1AB
:10728C004BF136C14CF137C14DF1000E01013B6F92
:10729C00C80E01013C6F420E01013D6FB0C10BF1F4
:1072AC00B1C10CF1B2C10DF14BC108F14CC109F1E6
:1072BC004DC10AF170EC34F008C138F109C139F153
:1072CC000AC13AF18BEC3EF038C14EF139C14FF1A5
:1072DC003AC150F14EC12DF14FC12EF150C12FF1D9
:1072EC0055EC49F02DC151F12EC152F12FC153F182
:1072FC0051C114F152C115F153C116F12FEC41F0EB
:10730C00010114510101E36F000E0101E56FB9C1D8
:10731C0000F1BAC101F121EEDEF001EE02F0090E2E
:10732C00DBCFEBFFE806FCE200EC51F00101476F0C
:10733C0001014751010DF3500101B927F45001012E
:10734C00BA23D10E01010A6F020E01010B6FD10E8F
:10735C0000080101B92501010C6F7FEC55F0680E96
:10736C000101476FE40EE82EFED7472FFCD700D063
:10737C0012000001C26F030E0001C06FC8D0000ED6
:10738C000001C16F000E00019F6F000E0001BF6F66
:10739C000001AD510001D8B418D0280EB1EC5AF050
:1073AC000001C46F0001D890C4310001C46F410EBC
:1073BC000001C4650AD00001BF2BBF050001AE6FF0
:1073CC00040E0001AE65E9D71200F298F096200E7B
:1073DC0017EC56F01A0E0001A66FC90EA56F4CECF7
:1073EC005BF00001C251B2EC5BF0000E0001C36F08
:1073FC000ED00001C351010D660EF324D96E020E9E
:10740C00F420DA6EDF50B2EC5BF00001C32B00010C
:10741C00C2510001C35DD8A0ECD7800E17EC56F01A
:10742C00F288F08600019951D8B4F0B001D0FAD7A7
:10743C00000E0001996F200E17EC56F0600E17EC41
:10744C0056F0020166AB5FD067C29DF0BAEC58F003
:10745C00A3C0B6F0A4C0B7F0A5C0B8F0A6C0B9F0F0
:10746C0000019F51D8B404D0010E0001BE6F120070
:10747C00BAEC58F0A3C0BAF0A4C0BBF0A5C0BCF0E5
:10748C00A6C0BDF0B6C0AEF0B7C0AFF0B8C0B0F09B
:10749C00B9C0B1F00001AE1FAF1FB01FB11FAE2BB2
:1074AC00000EAF23B023B1230001BA510001AE2569
:1074BC000001B26F0001BB510001AF210001B36F9D
:1074CC000001BC510001B0210001B46F0001BD519D
:1074DC000001B1210001B56F0001B5510001B411DB
:1074EC0008E1A90E0001B25D610E0001B359D8A0EC
:1074FC00B7D70001C12BC1050001AE6F040E00010E
:10750C00AE6105D03FD7010E0001BE6F1200000125
:10751C00C0070001C029D8A432D7000E0001BE6FED
:10752C0012000BC00FF0106A116A0A340F3601E317
:10753C0010800F50146E0EC00FF0106A116A0D34CB
:10754C000F3601E310800F50136E1450D8B40BD0CB
:10755C001350145CD8B00ED01450000813240F6EC6
:10756C00180E0F6407D00CC009F00DC00AF00EC045
:10757C000BF012001350D8B40BD01450135CD8B0CD
:10758C000ED01350000814240F6E180E0F6407D081
:10759C0009C009F00AC00AF00BC00BF01200060E6D
:1075AC00126E0BBE128E0EBE128C0A8EFF0E0916B8
:1075BC00FF0E0A16000E0B160D8EFF0E0C16FF0E8C
:1075CC000D16000E0E161350145CD8B01BD0D890AC
:1075DC000C360D360E36130614501318D8B40DD0C5
:1075EC00120612C00FF0070E0F16D8B406D0EFD744
:1075FC00D8900B320A320932142A13501418D8B40A
:10760C001FD0F6D71450135CD8B01AD0D8900936C6
:10761C000A360B36140614501318D8B40DD01206B3
:10762C0012C00FF0070E0F16D8B406D0EFD7D890B3
:10763C000E320D320C32132A13501418D8A4F7D76B
:10764C0012AE0CD0FF0E091AFF0E0A1AFF0E0B1AFF
:10765C00010E0926000E0A22000E0B2212AC0CD0D1
:10766C00FF0E0C1AFF0E0D1AFF0E0E1A010E0C2631
:10767C00000E0D22000E0E22000E126E09500C266A
:10768C000A500D220B500E220EAE0ED0FF0E0C1A0D
:10769C00FF0E0D1AFF0E0E1A010E0C26000E0D22F7
:1076AC00000E0E22010E126E0CC001F00DC002F085
:1076BC000EC003F014C004F012C005F0E2EC53F05D
:1076CC0001C009F002C00AF003C00BF01200010166
:1076DC001F6F030E01011C6FC3D0000E01011D6F43
:1076EC00000E00019F6F000E01011B6F01010A517A
:1076FC000101D8B419D0280E85EC5AF00101216F84
:10770C000101D89021310101216F410E0101216548
:10771C000BD001011B2B1B0501010B6F040E01018A
:10772C000B65E9D7000E1200F298F096200ECBEC08
:10773C0055F01A0E0101036FC90E026F06EC5BF0D7
:10774C0001011F5191EC5BF0000E0101206F0ED076
:10775C0001012051010D660EF324D96E020EF420A6
:10776C00DA6EDF5091EC5BF00101202B01011F510F
:10777C000101205DD8A0ECD7800ECBEC55F0F2883F
:10778C00F08600019951D8B4F0B001D0FAD7000EB0
:10779C000001996F200ECBEC55F0600ECBEC55F040
:1077AC00020166AB5BD067C29DF080EC58F000C163
:1077BC0013F101C114F102C115F103C116F100015D
:1077CC009F51D8A44BD080EC58F000C117F101C1E7
:1077DC0018F102C119F103C11AF113C10BF114C153
:1077EC000CF115C10DF116C10EF101010B1F0C1F8F
:1077FC000D1F0E1F0B2B000E0C230D230E2301014E
:10780C00175101010B2501010F6F010118510101E5
:10781C000C210101106F0101195101010D21010110
:10782C00116F01011A5101010E210101126F0101A9
:10783C0012510101111108E1A90E01010F5D610E38
:10784C0001011059D8A0BBD701011D2B1D05010149
:10785C000B6F040E01010B6103D042D7010E07D050
:10786C0001011C0701011C29D8A437D7000E010106
:10787C001E6F01011E511200D10E0101B96F020ED3
:10788C000101BA6FB9C1D9FFBAC1DAFF4D0EDF6E73
:10789C000101B94BBA2BB9C1D9FFBAC1DAFF000E3D
:1078AC00DF6E0101B94BBA2BB9C1D9FFBAC1DAFFEE
:1078BC00000EDF6E0101B94BBA2BB9C1D9FFBAC1A9
:1078CC00DAFF040EDF6E0101B94BBA2BB9C1D9FF37
:1078DC00BAC1DAFFFF0EDF6E0101B94BBA2B000102
